{
	"contract/HITBNBBuyer_V2_flattened.sol": {
		"HITBNBBuyer": {
			"abi": [
				{
					"inputs": [
						{
							"internalType": "address",
							"name": "_usdt",
							"type": "address"
						},
						{
							"internalType": "address",
							"name": "_hitbnb",
							"type": "address"
						},
						{
							"internalType": "address",
							"name": "_roiWallet",
							"type": "address"
						},
						{
							"internalType": "address",
							"name": "_router",
							"type": "address"
						}
					],
					"stateMutability": "nonpayable",
					"type": "constructor"
				},
				{
					"inputs": [
						{
							"internalType": "address",
							"name": "token",
							"type": "address"
						}
					],
					"name": "SafeERC20FailedOperation",
					"type": "error"
				},
				{
					"anonymous": false,
					"inputs": [
						{
							"indexed": true,
							"internalType": "address",
							"name": "to",
							"type": "address"
						},
						{
							"indexed": false,
							"internalType": "uint256",
							"name": "amount",
							"type": "uint256"
						}
					],
					"name": "EmergencyBNBWithdraw",
					"type": "event"
				},
				{
					"anonymous": false,
					"inputs": [
						{
							"indexed": true,
							"internalType": "address",
							"name": "token",
							"type": "address"
						},
						{
							"indexed": true,
							"internalType": "address",
							"name": "to",
							"type": "address"
						},
						{
							"indexed": false,
							"internalType": "uint256",
							"name": "amount",
							"type": "uint256"
						}
					],
					"name": "EmergencyWithdraw",
					"type": "event"
				},
				{
					"anonymous": false,
					"inputs": [
						{
							"indexed": true,
							"internalType": "address",
							"name": "previousOwner",
							"type": "address"
						},
						{
							"indexed": true,
							"internalType": "address",
							"name": "newOwner",
							"type": "address"
						}
					],
					"name": "OwnershipTransferred",
					"type": "event"
				},
				{
					"anonymous": false,
					"inputs": [
						{
							"indexed": true,
							"internalType": "address",
							"name": "user",
							"type": "address"
						},
						{
							"indexed": false,
							"internalType": "uint256",
							"name": "usdtAmount",
							"type": "uint256"
						},
						{
							"indexed": false,
							"internalType": "uint256",
							"name": "minOut",
							"type": "uint256"
						},
						{
							"indexed": false,
							"internalType": "uint256",
							"name": "timestamp",
							"type": "uint256"
						}
					],
					"name": "TokenSwapped",
					"type": "event"
				},
				{
					"inputs": [
						{
							"internalType": "uint256",
							"name": "amount",
							"type": "uint256"
						},
						{
							"internalType": "uint256",
							"name": "amountOutMin",
							"type": "uint256"
						}
					],
					"name": "deposit",
					"outputs": [],
					"stateMutability": "nonpayable",
					"type": "function"
				},
				{
					"inputs": [
						{
							"internalType": "address",
							"name": "token",
							"type": "address"
						},
						{
							"internalType": "address",
							"name": "to",
							"type": "address"
						}
					],
					"name": "emergencyWithdraw",
					"outputs": [],
					"stateMutability": "nonpayable",
					"type": "function"
				},
				{
					"inputs": [
						{
							"internalType": "address payable",
							"name": "to",
							"type": "address"
						}
					],
					"name": "emergencyWithdrawBNB",
					"outputs": [],
					"stateMutability": "nonpayable",
					"type": "function"
				},
				{
					"inputs": [],
					"name": "hitbnb",
					"outputs": [
						{
							"internalType": "address",
							"name": "",
							"type": "address"
						}
					],
					"stateMutability": "view",
					"type": "function"
				},
				{
					"inputs": [],
					"name": "owner",
					"outputs": [
						{
							"internalType": "address",
							"name": "",
							"type": "address"
						}
					],
					"stateMutability": "view",
					"type": "function"
				},
				{
					"inputs": [],
					"name": "roiWallet",
					"outputs": [
						{
							"internalType": "address",
							"name": "",
							"type": "address"
						}
					],
					"stateMutability": "view",
					"type": "function"
				},
				{
					"inputs": [],
					"name": "router",
					"outputs": [
						{
							"internalType": "address",
							"name": "",
							"type": "address"
						}
					],
					"stateMutability": "view",
					"type": "function"
				},
				{
					"inputs": [
						{
							"internalType": "address",
							"name": "newOwner",
							"type": "address"
						}
					],
					"name": "transferOwnership",
					"outputs": [],
					"stateMutability": "nonpayable",
					"type": "function"
				},
				{
					"inputs": [],
					"name": "usdt",
					"outputs": [
						{
							"internalType": "address",
							"name": "",
							"type": "address"
						}
					],
					"stateMutability": "view",
					"type": "function"
				},
				{
					"stateMutability": "payable",
					"type": "receive"
				}
			],
			"devdoc": {
				"errors": {
					"SafeERC20FailedOperation(address)": [
						{
							"details": "An operation with an ERC-20 token failed."
						}
					]
				},
				"kind": "dev",
				"methods": {},
				"version": 1
			},
			"evm": {
				"assembly": "    /* \"contract/HITBNBBuyer_V2_flattened.sol\":21959:24811  contract HITBNBBuyer is ReentrancyGuard {... */\n  mstore(0x40, 0x0100)\n    /* \"contract/HITBNBBuyer_V2_flattened.sol\":22658:23170  constructor(... */\n  callvalue\n  dup1\n  iszero\n  tag_1\n  jumpi\n  0x00\n  dup1\n  revert\ntag_1:\n  pop\n  mload(0x40)\n  sub(codesize, bytecodeSize)\n  dup1\n  bytecodeSize\n  dup4\n  codecopy\n  dup2\n  add\n  0x40\n  dup2\n  swap1\n  mstore\n  tag_2\n  swap2\n  tag_3\n  jump\t// in\ntag_2:\n    /* \"contract/HITBNBBuyer_V2_flattened.sol\":20231:20232  1 */\n  0x01\n    /* \"contract/HITBNBBuyer_V2_flattened.sol\":20336:20343  _status */\n  0x00\n    /* \"contract/HITBNBBuyer_V2_flattened.sol\":20336:20358  _status = _NOT_ENTERED */\n  sstore\n  sub(shl(0xa0, 0x01), 0x01)\n    /* \"contract/HITBNBBuyer_V2_flattened.sol\":22795:22814  _usdt != address(0) */\n  dup5\n  and\n    /* \"contract/HITBNBBuyer_V2_flattened.sol\":22787:22839  require(_usdt != address(0), \"Invalid USDT address\") */\n  tag_8\n  jumpi\n  mload(0x40)\n  shl(0xe5, 0x461bcd)\n  dup2\n  mstore\n    /* \"#utility.yul\":867:869   */\n  0x20\n    /* \"contract/HITBNBBuyer_V2_flattened.sol\":22787:22839  require(_usdt != address(0), \"Invalid USDT address\") */\n  0x04\n  dup3\n  add\n    /* \"#utility.yul\":849:870   */\n  mstore\n    /* \"#utility.yul\":906:908   */\n  0x14\n    /* \"#utility.yul\":886:904   */\n  0x24\n  dup3\n  add\n    /* \"#utility.yul\":879:909   */\n  mstore\n    /* \"#utility.yul\":945:967   */\n  0x496e76616c696420555344542061646472657373000000000000000000000000\n    /* \"#utility.yul\":925:943   */\n  0x44\n  dup3\n  add\n    /* \"#utility.yul\":918:968   */\n  mstore\n    /* \"#utility.yul\":985:1003   */\n  0x64\n  add\n    /* \"contract/HITBNBBuyer_V2_flattened.sol\":22787:22839  require(_usdt != address(0), \"Invalid USDT address\") */\ntag_9:\n  mload(0x40)\n  dup1\n  swap2\n  sub\n  swap1\n  revert\ntag_8:\n  sub(shl(0xa0, 0x01), 0x01)\n    /* \"contract/HITBNBBuyer_V2_flattened.sol\":22857:22878  _hitbnb != address(0) */\n  dup4\n  and\n    /* \"contract/HITBNBBuyer_V2_flattened.sol\":22849:22905  require(_hitbnb != address(0), \"Invalid HITBNB address\") */\n  tag_11\n  jumpi\n  mload(0x40)\n  shl(0xe5, 0x461bcd)\n  dup2\n  mstore\n    /* \"#utility.yul\":1216:1218   */\n  0x20\n    /* \"contract/HITBNBBuyer_V2_flattened.sol\":22849:22905  require(_hitbnb != address(0), \"Invalid HITBNB address\") */\n  0x04\n  dup3\n  add\n    /* \"#utility.yul\":1198:1219   */\n  mstore\n    /* \"#utility.yul\":1255:1257   */\n  0x16\n    /* \"#utility.yul\":1235:1253   */\n  0x24\n  dup3\n  add\n    /* \"#utility.yul\":1228:1258   */\n  mstore\n    /* \"#utility.yul\":1294:1318   */\n  0x496e76616c696420484954424e42206164647265737300000000000000000000\n    /* \"#utility.yul\":1274:1292   */\n  0x44\n  dup3\n  add\n    /* \"#utility.yul\":1267:1319   */\n  mstore\n    /* \"#utility.yul\":1336:1354   */\n  0x64\n  add\n    /* \"contract/HITBNBBuyer_V2_flattened.sol\":22849:22905  require(_hitbnb != address(0), \"Invalid HITBNB address\") */\n  tag_9\n    /* \"#utility.yul\":1014:1360   */\n  jump\n    /* \"contract/HITBNBBuyer_V2_flattened.sol\":22849:22905  require(_hitbnb != address(0), \"Invalid HITBNB address\") */\ntag_11:\n  sub(shl(0xa0, 0x01), 0x01)\n    /* \"contract/HITBNBBuyer_V2_flattened.sol\":22923:22947  _roiWallet != address(0) */\n  dup3\n  and\n    /* \"contract/HITBNBBuyer_V2_flattened.sol\":22915:22970  require(_roiWallet != address(0), \"Invalid ROI wallet\") */\n  tag_14\n  jumpi\n  mload(0x40)\n  shl(0xe5, 0x461bcd)\n  dup2\n  mstore\n    /* \"#utility.yul\":1567:1569   */\n  0x20\n    /* \"contract/HITBNBBuyer_V2_flattened.sol\":22915:22970  require(_roiWallet != address(0), \"Invalid ROI wallet\") */\n  0x04\n  dup3\n  add\n    /* \"#utility.yul\":1549:1570   */\n  mstore\n    /* \"#utility.yul\":1606:1608   */\n  0x12\n    /* \"#utility.yul\":1586:1604   */\n  0x24\n  dup3\n  add\n    /* \"#utility.yul\":1579:1609   */\n  mstore\n  shl(0x72, 0x125b9d985b1a59081493d2481dd85b1b195d)\n    /* \"#utility.yul\":1625:1643   */\n  0x44\n  dup3\n  add\n    /* \"#utility.yul\":1618:1666   */\n  mstore\n    /* \"#utility.yul\":1683:1701   */\n  0x64\n  add\n    /* \"contract/HITBNBBuyer_V2_flattened.sol\":22915:22970  require(_roiWallet != address(0), \"Invalid ROI wallet\") */\n  tag_9\n    /* \"#utility.yul\":1365:1707   */\n  jump\n    /* \"contract/HITBNBBuyer_V2_flattened.sol\":22915:22970  require(_roiWallet != address(0), \"Invalid ROI wallet\") */\ntag_14:\n  sub(shl(0xa0, 0x01), 0x01)\n    /* \"contract/HITBNBBuyer_V2_flattened.sol\":22988:23009  _router != address(0) */\n  dup2\n  and\n    /* \"contract/HITBNBBuyer_V2_flattened.sol\":22980:23028  require(_router != address(0), \"Invalid router\") */\n  tag_17\n  jumpi\n  mload(0x40)\n  shl(0xe5, 0x461bcd)\n  dup2\n  mstore\n    /* \"#utility.yul\":1914:1916   */\n  0x20\n    /* \"contract/HITBNBBuyer_V2_flattened.sol\":22980:23028  require(_router != address(0), \"Invalid router\") */\n  0x04\n  dup3\n  add\n    /* \"#utility.yul\":1896:1917   */\n  mstore\n    /* \"#utility.yul\":1953:1955   */\n  0x0e\n    /* \"#utility.yul\":1933:1951   */\n  0x24\n  dup3\n  add\n    /* \"#utility.yul\":1926:1956   */\n  mstore\n  shl(0x91, 0x24b73b30b634b2103937baba32b9)\n    /* \"#utility.yul\":1972:1990   */\n  0x44\n  dup3\n  add\n    /* \"#utility.yul\":1965:2009   */\n  mstore\n    /* \"#utility.yul\":2026:2044   */\n  0x64\n  add\n    /* \"contract/HITBNBBuyer_V2_flattened.sol\":22980:23028  require(_router != address(0), \"Invalid router\") */\n  tag_9\n    /* \"#utility.yul\":1712:2050   */\n  jump\n    /* \"contract/HITBNBBuyer_V2_flattened.sol\":22980:23028  require(_router != address(0), \"Invalid router\") */\ntag_17:\n    /* \"contract/HITBNBBuyer_V2_flattened.sol\":23039:23044  owner */\n  0x01\n    /* \"contract/HITBNBBuyer_V2_flattened.sol\":23039:23057  owner = msg.sender */\n  dup1\n  sload\n  not(sub(shl(0xa0, 0x01), 0x01))\n  and\n    /* \"contract/HITBNBBuyer_V2_flattened.sol\":23047:23057  msg.sender */\n  caller\n    /* \"contract/HITBNBBuyer_V2_flattened.sol\":23039:23057  owner = msg.sender */\n  or\n  swap1\n  sstore\n  sub(shl(0xa0, 0x01), 0x01)\n    /* \"contract/HITBNBBuyer_V2_flattened.sol\":23067:23079  usdt = _usdt */\n  swap4\n  dup5\n  and\n  0x80\n  mstore\n    /* \"contract/HITBNBBuyer_V2_flattened.sol\":23089:23105  hitbnb = _hitbnb */\n  swap2\n  dup4\n  and\n  0xa0\n  mstore\n    /* \"contract/HITBNBBuyer_V2_flattened.sol\":23115:23137  roiWallet = _roiWallet */\n  dup3\n  and\n  0xc0\n  mstore\n    /* \"contract/HITBNBBuyer_V2_flattened.sol\":23147:23163  router = _router */\n  and\n  0xe0\n  mstore\n    /* \"contract/HITBNBBuyer_V2_flattened.sol\":21959:24811  contract HITBNBBuyer is ReentrancyGuard {... */\n  jump(tag_22)\n    /* \"#utility.yul\":14:191   */\ntag_21:\n    /* \"#utility.yul\":93:106   */\n  dup1\n  mload\n  sub(shl(0xa0, 0x01), 0x01)\n    /* \"#utility.yul\":135:166   */\n  dup2\n  and\n    /* \"#utility.yul\":125:167   */\n  dup2\n  eq\n    /* \"#utility.yul\":115:185   */\n  tag_24\n  jumpi\n    /* \"#utility.yul\":181:182   */\n  0x00\n    /* \"#utility.yul\":178:179   */\n  dup1\n    /* \"#utility.yul\":171:183   */\n  revert\n    /* \"#utility.yul\":115:185   */\ntag_24:\n    /* \"#utility.yul\":14:191   */\n  swap2\n  swap1\n  pop\n  jump\t// out\n    /* \"#utility.yul\":196:660   */\ntag_3:\n    /* \"#utility.yul\":293:299   */\n  0x00\n    /* \"#utility.yul\":301:307   */\n  dup1\n    /* \"#utility.yul\":309:315   */\n  0x00\n    /* \"#utility.yul\":317:323   */\n  dup1\n    /* \"#utility.yul\":370:373   */\n  0x80\n    /* \"#utility.yul\":358:367   */\n  dup6\n    /* \"#utility.yul\":349:356   */\n  dup8\n    /* \"#utility.yul\":345:368   */\n  sub\n    /* \"#utility.yul\":341:374   */\n  slt\n    /* \"#utility.yul\":338:391   */\n  iszero\n  tag_26\n  jumpi\n    /* \"#utility.yul\":387:388   */\n  0x00\n    /* \"#utility.yul\":384:385   */\n  dup1\n    /* \"#utility.yul\":377:389   */\n  revert\n    /* \"#utility.yul\":338:391   */\ntag_26:\n    /* \"#utility.yul\":410:450   */\n  tag_27\n    /* \"#utility.yul\":440:449   */\n  dup6\n    /* \"#utility.yul\":410:450   */\n  tag_21\n  jump\t// in\ntag_27:\n    /* \"#utility.yul\":400:450   */\n  swap4\n  pop\n    /* \"#utility.yul\":469:518   */\n  tag_28\n    /* \"#utility.yul\":514:516   */\n  0x20\n    /* \"#utility.yul\":503:512   */\n  dup7\n    /* \"#utility.yul\":499:517   */\n  add\n    /* \"#utility.yul\":469:518   */\n  tag_21\n  jump\t// in\ntag_28:\n    /* \"#utility.yul\":459:518   */\n  swap3\n  pop\n    /* \"#utility.yul\":537:586   */\n  tag_29\n    /* \"#utility.yul\":582:584   */\n  0x40\n    /* \"#utility.yul\":571:580   */\n  dup7\n    /* \"#utility.yul\":567:585   */\n  add\n    /* \"#utility.yul\":537:586   */\n  tag_21\n  jump\t// in\ntag_29:\n    /* \"#utility.yul\":527:586   */\n  swap2\n  pop\n    /* \"#utility.yul\":605:654   */\n  tag_30\n    /* \"#utility.yul\":650:652   */\n  0x60\n    /* \"#utility.yul\":639:648   */\n  dup7\n    /* \"#utility.yul\":635:653   */\n  add\n    /* \"#utility.yul\":605:654   */\n  tag_21\n  jump\t// in\ntag_30:\n    /* \"#utility.yul\":595:654   */\n  swap1\n  pop\n    /* \"#utility.yul\":196:660   */\n  swap3\n  swap6\n  swap2\n  swap5\n  pop\n  swap3\n  pop\n  jump\t// out\n    /* \"#utility.yul\":1712:2050   */\ntag_22:\n    /* \"contract/HITBNBBuyer_V2_flattened.sol\":21959:24811  contract HITBNBBuyer is ReentrancyGuard {... */\n  mload(0x80)\n  mload(0xa0)\n  mload(0xc0)\n  mload(0xe0)\n  codecopy(0x00, dataOffset(sub_0), dataSize(sub_0))\n  0x00\n  assignImmutable(\"0x9dba651fe92c782dda8c593c3d8da3497c4efc99f38999b5ec4b9f051734219f\")\n  0x00\n  assignImmutable(\"0x4c643d5d9b0441803235e222732b65e2dc488f209ae20302cca6cafc813933a8\")\n  0x00\n  assignImmutable(\"0x777852512dc63fa8e441f03006b749793ff7c58fe5517f59d47a8bd550149fb3\")\n  0x00\n  assignImmutable(\"0x45d94b36b6c591269b78e981be09aa23f420e08a8de62d492aecd72fd20b693b\")\n  return(0x00, dataSize(sub_0))\nstop\n\nsub_0: assembly {\n        /* \"contract/HITBNBBuyer_V2_flattened.sol\":21959:24811  contract HITBNBBuyer is ReentrancyGuard {... */\n      mstore(0x40, 0x80)\n      jumpi(tag_1, lt(calldatasize, 0x04))\n      shr(0xe0, calldataload(0x00))\n      dup1\n      0x8da5cb5b\n      gt\n      tag_12\n      jumpi\n      dup1\n      0x8da5cb5b\n      eq\n      tag_7\n      jumpi\n      dup1\n      0xe2bbb158\n      eq\n      tag_8\n      jumpi\n      dup1\n      0xe8d2b571\n      eq\n      tag_9\n      jumpi\n      dup1\n      0xf2fde38b\n      eq\n      tag_10\n      jumpi\n      dup1\n      0xf887ea40\n      eq\n      tag_11\n      jumpi\n      0x00\n      dup1\n      revert\n    tag_12:\n      dup1\n      0x2f48ab7d\n      eq\n      tag_3\n      jumpi\n      dup1\n      0x42d50f19\n      eq\n      tag_4\n      jumpi\n      dup1\n      0x602db890\n      eq\n      tag_5\n      jumpi\n      dup1\n      0x6382d9ad\n      eq\n      tag_6\n      jumpi\n      0x00\n      dup1\n      revert\n    tag_1:\n      jumpi(tag_2, calldatasize)\n      stop\n    tag_2:\n      0x00\n      dup1\n      revert\n        /* \"contract/HITBNBBuyer_V2_flattened.sol\":22064:22093  address public immutable usdt */\n    tag_3:\n      callvalue\n      dup1\n      iszero\n      tag_15\n      jumpi\n      0x00\n      dup1\n      revert\n    tag_15:\n      pop\n      tag_16\n      immutable(\"0x45d94b36b6c591269b78e981be09aa23f420e08a8de62d492aecd72fd20b693b\")\n      dup2\n      jump\n    tag_16:\n      mload(0x40)\n      sub(shl(0xa0, 0x01), 0x01)\n        /* \"#utility.yul\":178:210   */\n      swap1\n      swap2\n      and\n        /* \"#utility.yul\":160:211   */\n      dup2\n      mstore\n        /* \"#utility.yul\":148:150   */\n      0x20\n        /* \"#utility.yul\":133:151   */\n      add\n        /* \"contract/HITBNBBuyer_V2_flattened.sol\":22064:22093  address public immutable usdt */\n      mload(0x40)\n      dup1\n      swap2\n      sub\n      swap1\n      return\n        /* \"contract/HITBNBBuyer_V2_flattened.sol\":22136:22170  address public immutable roiWallet */\n    tag_4:\n      callvalue\n      dup1\n      iszero\n      tag_20\n      jumpi\n      0x00\n      dup1\n      revert\n    tag_20:\n      pop\n      tag_16\n      immutable(\"0x4c643d5d9b0441803235e222732b65e2dc488f209ae20302cca6cafc813933a8\")\n      dup2\n      jump\n        /* \"contract/HITBNBBuyer_V2_flattened.sol\":24523:24774  function emergencyWithdrawBNB(address payable to) external onlyOwner {... */\n    tag_5:\n      callvalue\n      dup1\n      iszero\n      tag_24\n      jumpi\n      0x00\n      dup1\n      revert\n    tag_24:\n      pop\n      tag_25\n      tag_26\n      calldatasize\n      0x04\n      tag_27\n      jump\t// in\n    tag_26:\n      tag_28\n      jump\t// in\n    tag_25:\n      stop\n        /* \"contract/HITBNBBuyer_V2_flattened.sol\":24220:24517  function emergencyWithdraw(address token, address to) external onlyOwner {... */\n    tag_6:\n      callvalue\n      dup1\n      iszero\n      tag_29\n      jumpi\n      0x00\n      dup1\n      revert\n    tag_29:\n      pop\n      tag_25\n      tag_31\n      calldatasize\n      0x04\n      tag_32\n      jump\t// in\n    tag_31:\n      tag_33\n      jump\t// in\n        /* \"contract/HITBNBBuyer_V2_flattened.sol\":22038:22058  address public owner */\n    tag_7:\n      callvalue\n      dup1\n      iszero\n      tag_34\n      jumpi\n      0x00\n      dup1\n      revert\n    tag_34:\n      pop\n      sload(0x01)\n      tag_16\n      swap1\n      sub(shl(0xa0, 0x01), 0x01)\n      and\n      dup2\n      jump\n        /* \"contract/HITBNBBuyer_V2_flattened.sol\":23401:24214  function deposit(uint256 amount, uint256 amountOutMin) external nonReentrant {... */\n    tag_8:\n      callvalue\n      dup1\n      iszero\n      tag_38\n      jumpi\n      0x00\n      dup1\n      revert\n    tag_38:\n      pop\n      tag_25\n      tag_40\n      calldatasize\n      0x04\n      tag_41\n      jump\t// in\n    tag_40:\n      tag_42\n      jump\t// in\n        /* \"contract/HITBNBBuyer_V2_flattened.sol\":22099:22130  address public immutable hitbnb */\n    tag_9:\n      callvalue\n      dup1\n      iszero\n      tag_43\n      jumpi\n      0x00\n      dup1\n      revert\n    tag_43:\n      pop\n      tag_16\n      immutable(\"0x777852512dc63fa8e441f03006b749793ff7c58fe5517f59d47a8bd550149fb3\")\n      dup2\n      jump\n        /* \"contract/HITBNBBuyer_V2_flattened.sol\":23176:23395  function transferOwnership(address newOwner) external onlyOwner {... */\n    tag_10:\n      callvalue\n      dup1\n      iszero\n      tag_47\n      jumpi\n      0x00\n      dup1\n      revert\n    tag_47:\n      pop\n      tag_25\n      tag_49\n      calldatasize\n      0x04\n      tag_27\n      jump\t// in\n    tag_49:\n      tag_51\n      jump\t// in\n        /* \"contract/HITBNBBuyer_V2_flattened.sol\":22176:22207  address public immutable router */\n    tag_11:\n      callvalue\n      dup1\n      iszero\n      tag_52\n      jumpi\n      0x00\n      dup1\n      revert\n    tag_52:\n      pop\n      tag_16\n      immutable(\"0x9dba651fe92c782dda8c593c3d8da3497c4efc99f38999b5ec4b9f051734219f\")\n      dup2\n      jump\n        /* \"contract/HITBNBBuyer_V2_flattened.sol\":24523:24774  function emergencyWithdrawBNB(address payable to) external onlyOwner {... */\n    tag_28:\n        /* \"contract/HITBNBBuyer_V2_flattened.sol\":22614:22619  owner */\n      and(sub(shl(0xa0, 0x01), 0x01), sload(0x01))\n        /* \"contract/HITBNBBuyer_V2_flattened.sol\":22600:22610  msg.sender */\n      caller\n        /* \"contract/HITBNBBuyer_V2_flattened.sol\":22600:22619  msg.sender == owner */\n      eq\n        /* \"contract/HITBNBBuyer_V2_flattened.sol\":22592:22634  require(msg.sender == owner, \"Only owner\") */\n      tag_57\n      jumpi\n      mload(0x40)\n      shl(0xe5, 0x461bcd)\n      dup2\n      mstore\n      0x04\n      add\n      tag_58\n      swap1\n      tag_59\n      jump\t// in\n    tag_58:\n      mload(0x40)\n      dup1\n      swap2\n      sub\n      swap1\n      revert\n    tag_57:\n        /* \"contract/HITBNBBuyer_V2_flattened.sol\":24620:24641  address(this).balance */\n      selfbalance\n        /* \"contract/HITBNBBuyer_V2_flattened.sol\":24659:24670  balance > 0 */\n      dup1\n        /* \"contract/HITBNBBuyer_V2_flattened.sol\":24651:24689  require(balance > 0, \"No BNB balance\") */\n      tag_61\n      jumpi\n      mload(0x40)\n      shl(0xe5, 0x461bcd)\n      dup2\n      mstore\n        /* \"#utility.yul\":2097:2099   */\n      0x20\n        /* \"contract/HITBNBBuyer_V2_flattened.sol\":24651:24689  require(balance > 0, \"No BNB balance\") */\n      0x04\n      dup3\n      add\n        /* \"#utility.yul\":2079:2100   */\n      mstore\n        /* \"#utility.yul\":2136:2138   */\n      0x0e\n        /* \"#utility.yul\":2116:2134   */\n      0x24\n      dup3\n      add\n        /* \"#utility.yul\":2109:2139   */\n      mstore\n      shl(0x90, 0x4e6f20424e422062616c616e6365)\n        /* \"#utility.yul\":2155:2173   */\n      0x44\n      dup3\n      add\n        /* \"#utility.yul\":2148:2192   */\n      mstore\n        /* \"#utility.yul\":2209:2227   */\n      0x64\n      add\n        /* \"contract/HITBNBBuyer_V2_flattened.sol\":24651:24689  require(balance > 0, \"No BNB balance\") */\n      tag_58\n        /* \"#utility.yul\":1895:2233   */\n      jump\n        /* \"contract/HITBNBBuyer_V2_flattened.sol\":24651:24689  require(balance > 0, \"No BNB balance\") */\n    tag_61:\n        /* \"contract/HITBNBBuyer_V2_flattened.sol\":24699:24719  to.transfer(balance) */\n      mload(0x40)\n      sub(shl(0xa0, 0x01), 0x01)\n        /* \"contract/HITBNBBuyer_V2_flattened.sol\":24699:24710  to.transfer */\n      dup4\n      and\n      swap1\n        /* \"contract/HITBNBBuyer_V2_flattened.sol\":24699:24719  to.transfer(balance) */\n      dup3\n      iszero\n      0x08fc\n      mul\n      swap1\n        /* \"contract/HITBNBBuyer_V2_flattened.sol\":24711:24718  balance */\n      dup4\n      swap1\n        /* \"contract/HITBNBBuyer_V2_flattened.sol\":24699:24719  to.transfer(balance) */\n      0x00\n      dup2\n      dup2\n      dup2\n        /* \"contract/HITBNBBuyer_V2_flattened.sol\":24711:24718  balance */\n      dup6\n        /* \"contract/HITBNBBuyer_V2_flattened.sol\":24699:24710  to.transfer */\n      dup9\n        /* \"contract/HITBNBBuyer_V2_flattened.sol\":24699:24719  to.transfer(balance) */\n      dup9\n      call\n      swap4\n      pop\n      pop\n      pop\n      pop\n      iszero\n      dup1\n      iszero\n      tag_65\n      jumpi\n      returndatasize\n      0x00\n      dup1\n      returndatacopy\n      revert(0x00, returndatasize)\n    tag_65:\n      pop\n        /* \"contract/HITBNBBuyer_V2_flattened.sol\":24755:24757  to */\n      dup2\n      sub(shl(0xa0, 0x01), 0x01)\n        /* \"contract/HITBNBBuyer_V2_flattened.sol\":24734:24767  EmergencyBNBWithdraw(to, balance) */\n      and\n      0x91045e6e748ca8a27b6e2281f519acaeec9d1c9b38a4f5003a630c2bc2fb9689\n        /* \"contract/HITBNBBuyer_V2_flattened.sol\":24759:24766  balance */\n      dup3\n        /* \"contract/HITBNBBuyer_V2_flattened.sol\":24734:24767  EmergencyBNBWithdraw(to, balance) */\n      mload(0x40)\n      tag_66\n      swap2\n        /* \"#utility.yul\":2384:2409   */\n      dup2\n      mstore\n        /* \"#utility.yul\":2372:2374   */\n      0x20\n        /* \"#utility.yul\":2357:2375   */\n      add\n      swap1\n        /* \"#utility.yul\":2238:2415   */\n      jump\n        /* \"contract/HITBNBBuyer_V2_flattened.sol\":24734:24767  EmergencyBNBWithdraw(to, balance) */\n    tag_66:\n      mload(0x40)\n      dup1\n      swap2\n      sub\n      swap1\n      log2\n        /* \"contract/HITBNBBuyer_V2_flattened.sol\":24592:24774  {... */\n      pop\n        /* \"contract/HITBNBBuyer_V2_flattened.sol\":24523:24774  function emergencyWithdrawBNB(address payable to) external onlyOwner {... */\n      pop\n      jump\t// out\n        /* \"contract/HITBNBBuyer_V2_flattened.sol\":24220:24517  function emergencyWithdraw(address token, address to) external onlyOwner {... */\n    tag_33:\n        /* \"contract/HITBNBBuyer_V2_flattened.sol\":22614:22619  owner */\n      and(sub(shl(0xa0, 0x01), 0x01), sload(0x01))\n        /* \"contract/HITBNBBuyer_V2_flattened.sol\":22600:22610  msg.sender */\n      caller\n        /* \"contract/HITBNBBuyer_V2_flattened.sol\":22600:22619  msg.sender == owner */\n      eq\n        /* \"contract/HITBNBBuyer_V2_flattened.sol\":22592:22634  require(msg.sender == owner, \"Only owner\") */\n      tag_69\n      jumpi\n      mload(0x40)\n      shl(0xe5, 0x461bcd)\n      dup2\n      mstore\n      0x04\n      add\n      tag_58\n      swap1\n      tag_59\n      jump\t// in\n    tag_69:\n        /* \"contract/HITBNBBuyer_V2_flattened.sol\":24321:24359  IERC20(token).balanceOf(address(this)) */\n      mload(0x40)\n      shl(0xe0, 0x70a08231)\n      dup2\n      mstore\n        /* \"contract/HITBNBBuyer_V2_flattened.sol\":24353:24357  this */\n      address\n        /* \"contract/HITBNBBuyer_V2_flattened.sol\":24321:24359  IERC20(token).balanceOf(address(this)) */\n      0x04\n      dup3\n      add\n        /* \"#utility.yul\":160:211   */\n      mstore\n        /* \"contract/HITBNBBuyer_V2_flattened.sol\":24303:24318  uint256 balance */\n      0x00\n      swap1\n      sub(shl(0xa0, 0x01), 0x01)\n        /* \"contract/HITBNBBuyer_V2_flattened.sol\":24321:24344  IERC20(token).balanceOf */\n      dup5\n      and\n      swap1\n      0x70a08231\n      swap1\n        /* \"#utility.yul\":133:151   */\n      0x24\n      add\n        /* \"contract/HITBNBBuyer_V2_flattened.sol\":24321:24359  IERC20(token).balanceOf(address(this)) */\n      0x20\n      mload(0x40)\n      dup1\n      dup4\n      sub\n      dup2\n      dup7\n      gas\n      staticcall\n      iszero\n      dup1\n      iszero\n      tag_74\n      jumpi\n      returndatasize\n      0x00\n      dup1\n      returndatacopy\n      revert(0x00, returndatasize)\n    tag_74:\n      pop\n      pop\n      pop\n      pop\n      mload(0x40)\n      returndatasize\n      not(0x1f)\n      0x1f\n      dup3\n      add\n      and\n      dup3\n      add\n      dup1\n      0x40\n      mstore\n      pop\n      dup2\n      add\n      swap1\n      tag_75\n      swap2\n      swap1\n      tag_76\n      jump\t// in\n    tag_75:\n        /* \"contract/HITBNBBuyer_V2_flattened.sol\":24303:24359  uint256 balance = IERC20(token).balanceOf(address(this)) */\n      swap1\n      pop\n        /* \"contract/HITBNBBuyer_V2_flattened.sol\":24387:24388  0 */\n      0x00\n        /* \"contract/HITBNBBuyer_V2_flattened.sol\":24377:24384  balance */\n      dup2\n        /* \"contract/HITBNBBuyer_V2_flattened.sol\":24377:24388  balance > 0 */\n      gt\n        /* \"contract/HITBNBBuyer_V2_flattened.sol\":24369:24409  require(balance > 0, \"No token balance\") */\n      tag_77\n      jumpi\n      mload(0x40)\n      shl(0xe5, 0x461bcd)\n      dup2\n      mstore\n        /* \"#utility.yul\":2811:2813   */\n      0x20\n        /* \"contract/HITBNBBuyer_V2_flattened.sol\":24369:24409  require(balance > 0, \"No token balance\") */\n      0x04\n      dup3\n      add\n        /* \"#utility.yul\":2793:2814   */\n      mstore\n        /* \"#utility.yul\":2850:2852   */\n      0x10\n        /* \"#utility.yul\":2830:2848   */\n      0x24\n      dup3\n      add\n        /* \"#utility.yul\":2823:2853   */\n      mstore\n      shl(0x80, 0x4e6f20746f6b656e2062616c616e6365)\n        /* \"#utility.yul\":2869:2887   */\n      0x44\n      dup3\n      add\n        /* \"#utility.yul\":2862:2908   */\n      mstore\n        /* \"#utility.yul\":2925:2943   */\n      0x64\n      add\n        /* \"contract/HITBNBBuyer_V2_flattened.sol\":24369:24409  require(balance > 0, \"No token balance\") */\n      tag_58\n        /* \"#utility.yul\":2609:2949   */\n      jump\n        /* \"contract/HITBNBBuyer_V2_flattened.sol\":24369:24409  require(balance > 0, \"No token balance\") */\n    tag_77:\n        /* \"contract/HITBNBBuyer_V2_flattened.sol\":24419:24458  IERC20(token).safeTransfer(to, balance) */\n      tag_80\n      sub(shl(0xa0, 0x01), 0x01)\n        /* \"contract/HITBNBBuyer_V2_flattened.sol\":24419:24445  IERC20(token).safeTransfer */\n      dup5\n      and\n        /* \"contract/HITBNBBuyer_V2_flattened.sol\":24446:24448  to */\n      dup4\n        /* \"contract/HITBNBBuyer_V2_flattened.sol\":24450:24457  balance */\n      dup4\n        /* \"contract/HITBNBBuyer_V2_flattened.sol\":24419:24445  IERC20(token).safeTransfer */\n      tag_81\n        /* \"contract/HITBNBBuyer_V2_flattened.sol\":24419:24458  IERC20(token).safeTransfer(to, balance) */\n      jump\t// in\n    tag_80:\n        /* \"contract/HITBNBBuyer_V2_flattened.sol\":24498:24500  to */\n      dup2\n      sub(shl(0xa0, 0x01), 0x01)\n        /* \"contract/HITBNBBuyer_V2_flattened.sol\":24473:24510  EmergencyWithdraw(token, to, balance) */\n      and\n        /* \"contract/HITBNBBuyer_V2_flattened.sol\":24491:24496  token */\n      dup4\n      sub(shl(0xa0, 0x01), 0x01)\n        /* \"contract/HITBNBBuyer_V2_flattened.sol\":24473:24510  EmergencyWithdraw(token, to, balance) */\n      and\n      0xf24ef89f38eadc1bde50701ad6e4d6d11a2dc24f7cf834a486991f3883328504\n        /* \"contract/HITBNBBuyer_V2_flattened.sol\":24502:24509  balance */\n      dup4\n        /* \"contract/HITBNBBuyer_V2_flattened.sol\":24473:24510  EmergencyWithdraw(token, to, balance) */\n      mload(0x40)\n      tag_82\n      swap2\n        /* \"#utility.yul\":2384:2409   */\n      dup2\n      mstore\n        /* \"#utility.yul\":2372:2374   */\n      0x20\n        /* \"#utility.yul\":2357:2375   */\n      add\n      swap1\n        /* \"#utility.yul\":2238:2415   */\n      jump\n        /* \"contract/HITBNBBuyer_V2_flattened.sol\":24473:24510  EmergencyWithdraw(token, to, balance) */\n    tag_82:\n      mload(0x40)\n      dup1\n      swap2\n      sub\n      swap1\n      log3\n        /* \"contract/HITBNBBuyer_V2_flattened.sol\":24293:24517  {... */\n      pop\n        /* \"contract/HITBNBBuyer_V2_flattened.sol\":24220:24517  function emergencyWithdraw(address token, address to) external onlyOwner {... */\n      pop\n      pop\n      jump\t// out\n        /* \"contract/HITBNBBuyer_V2_flattened.sol\":23401:24214  function deposit(uint256 amount, uint256 amountOutMin) external nonReentrant {... */\n    tag_42:\n        /* \"contract/HITBNBBuyer_V2_flattened.sol\":20776:20797  _nonReentrantBefore() */\n      tag_84\n        /* \"contract/HITBNBBuyer_V2_flattened.sol\":20776:20795  _nonReentrantBefore */\n      tag_85\n        /* \"contract/HITBNBBuyer_V2_flattened.sol\":20776:20797  _nonReentrantBefore() */\n      jump\t// in\n    tag_84:\n        /* \"contract/HITBNBBuyer_V2_flattened.sol\":23488:23552  IERC20(usdt).safeTransferFrom(msg.sender, address(this), amount) */\n      tag_87\n      sub(shl(0xa0, 0x01), 0x01)\n        /* \"contract/HITBNBBuyer_V2_flattened.sol\":23495:23499  usdt */\n      immutable(\"0x45d94b36b6c591269b78e981be09aa23f420e08a8de62d492aecd72fd20b693b\")\n        /* \"contract/HITBNBBuyer_V2_flattened.sol\":23488:23517  IERC20(usdt).safeTransferFrom */\n      and\n        /* \"contract/HITBNBBuyer_V2_flattened.sol\":23518:23528  msg.sender */\n      caller\n        /* \"contract/HITBNBBuyer_V2_flattened.sol\":23538:23542  this */\n      address\n        /* \"contract/HITBNBBuyer_V2_flattened.sol\":23545:23551  amount */\n      dup6\n        /* \"contract/HITBNBBuyer_V2_flattened.sol\":23488:23517  IERC20(usdt).safeTransferFrom */\n      tag_88\n        /* \"contract/HITBNBBuyer_V2_flattened.sol\":23488:23552  IERC20(usdt).safeTransferFrom(msg.sender, address(this), amount) */\n      jump\t// in\n    tag_87:\n        /* \"contract/HITBNBBuyer_V2_flattened.sol\":23590:23635  IERC20(usdt).allowance(address(this), router) */\n      mload(0x40)\n      shl(0xe1, 0x6eb1769f)\n      dup2\n      mstore\n        /* \"contract/HITBNBBuyer_V2_flattened.sol\":23621:23625  this */\n      address\n        /* \"contract/HITBNBBuyer_V2_flattened.sol\":23590:23635  IERC20(usdt).allowance(address(this), router) */\n      0x04\n      dup3\n      add\n        /* \"#utility.yul\":3166:3200   */\n      mstore\n      sub(shl(0xa0, 0x01), 0x01)\n        /* \"contract/HITBNBBuyer_V2_flattened.sol\":23628:23634  router */\n      immutable(\"0x9dba651fe92c782dda8c593c3d8da3497c4efc99f38999b5ec4b9f051734219f\")\n        /* \"#utility.yul\":3236:3251   */\n      dup2\n      and\n        /* \"#utility.yul\":3216:3234   */\n      0x24\n      dup4\n      add\n        /* \"#utility.yul\":3209:3252   */\n      mstore\n      0x00\n      swap2\n        /* \"contract/HITBNBBuyer_V2_flattened.sol\":23597:23601  usdt */\n      immutable(\"0x45d94b36b6c591269b78e981be09aa23f420e08a8de62d492aecd72fd20b693b\")\n        /* \"contract/HITBNBBuyer_V2_flattened.sol\":23590:23612  IERC20(usdt).allowance */\n      swap1\n      swap2\n      and\n      swap1\n      0xdd62ed3e\n      swap1\n        /* \"#utility.yul\":3101:3119   */\n      0x44\n      add\n        /* \"contract/HITBNBBuyer_V2_flattened.sol\":23590:23635  IERC20(usdt).allowance(address(this), router) */\n      0x20\n      mload(0x40)\n      dup1\n      dup4\n      sub\n      dup2\n      dup7\n      gas\n      staticcall\n      iszero\n      dup1\n      iszero\n      tag_92\n      jumpi\n      returndatasize\n      0x00\n      dup1\n      returndatacopy\n      revert(0x00, returndatasize)\n    tag_92:\n      pop\n      pop\n      pop\n      pop\n      mload(0x40)\n      returndatasize\n      not(0x1f)\n      0x1f\n      dup3\n      add\n      and\n      dup3\n      add\n      dup1\n      0x40\n      mstore\n      pop\n      dup2\n      add\n      swap1\n      tag_93\n      swap2\n      swap1\n      tag_76\n      jump\t// in\n    tag_93:\n        /* \"contract/HITBNBBuyer_V2_flattened.sol\":23563:23635  uint256 currentAllowance = IERC20(usdt).allowance(address(this), router) */\n      swap1\n      pop\n        /* \"contract/HITBNBBuyer_V2_flattened.sol\":23668:23674  amount */\n      dup3\n        /* \"contract/HITBNBBuyer_V2_flattened.sol\":23649:23665  currentAllowance */\n      dup2\n        /* \"contract/HITBNBBuyer_V2_flattened.sol\":23649:23674  currentAllowance < amount */\n      lt\n        /* \"contract/HITBNBBuyer_V2_flattened.sol\":23645:23793  if (currentAllowance < amount) {... */\n      iszero\n      tag_94\n      jumpi\n        /* \"contract/HITBNBBuyer_V2_flattened.sol\":23690:23721  IERC20(usdt).approve(router, 0) */\n      mload(0x40)\n      shl(0xe0, 0x095ea7b3)\n      dup2\n      mstore\n      sub(shl(0xa0, 0x01), 0x01)\n        /* \"contract/HITBNBBuyer_V2_flattened.sol\":23711:23717  router */\n      immutable(\"0x9dba651fe92c782dda8c593c3d8da3497c4efc99f38999b5ec4b9f051734219f\")\n        /* \"#utility.yul\":3463:3495   */\n      dup2\n      and\n        /* \"contract/HITBNBBuyer_V2_flattened.sol\":23690:23721  IERC20(usdt).approve(router, 0) */\n      0x04\n      dup4\n      add\n        /* \"#utility.yul\":3445:3496   */\n      mstore\n      0x00\n        /* \"#utility.yul\":3512:3530   */\n      0x24\n      dup4\n      add\n        /* \"#utility.yul\":3505:3539   */\n      mstore\n        /* \"contract/HITBNBBuyer_V2_flattened.sol\":23697:23701  usdt */\n      immutable(\"0x45d94b36b6c591269b78e981be09aa23f420e08a8de62d492aecd72fd20b693b\")\n        /* \"contract/HITBNBBuyer_V2_flattened.sol\":23690:23710  IERC20(usdt).approve */\n      and\n      swap1\n      0x095ea7b3\n      swap1\n        /* \"#utility.yul\":3418:3436   */\n      0x44\n      add\n        /* \"contract/HITBNBBuyer_V2_flattened.sol\":23690:23721  IERC20(usdt).approve(router, 0) */\n      0x20\n      mload(0x40)\n      dup1\n      dup4\n      sub\n      dup2\n      0x00\n      dup8\n      gas\n      call\n      iszero\n      dup1\n      iszero\n      tag_98\n      jumpi\n      returndatasize\n      0x00\n      dup1\n      returndatacopy\n      revert(0x00, returndatasize)\n    tag_98:\n      pop\n      pop\n      pop\n      pop\n      mload(0x40)\n      returndatasize\n      not(0x1f)\n      0x1f\n      dup3\n      add\n      and\n      dup3\n      add\n      dup1\n      0x40\n      mstore\n      pop\n      dup2\n      add\n      swap1\n      tag_99\n      swap2\n      swap1\n      tag_100\n      jump\t// in\n    tag_99:\n      pop\n        /* \"contract/HITBNBBuyer_V2_flattened.sol\":23735:23782  IERC20(usdt).approve(router, type(uint256).max) */\n      mload(0x40)\n      shl(0xe0, 0x095ea7b3)\n      dup2\n      mstore\n      sub(shl(0xa0, 0x01), 0x01)\n        /* \"contract/HITBNBBuyer_V2_flattened.sol\":23756:23762  router */\n      immutable(\"0x9dba651fe92c782dda8c593c3d8da3497c4efc99f38999b5ec4b9f051734219f\")\n        /* \"#utility.yul\":3463:3495   */\n      dup2\n      and\n        /* \"contract/HITBNBBuyer_V2_flattened.sol\":23735:23782  IERC20(usdt).approve(router, type(uint256).max) */\n      0x04\n      dup4\n      add\n        /* \"#utility.yul\":3445:3496   */\n      mstore\n      not(0x00)\n        /* \"#utility.yul\":3512:3530   */\n      0x24\n      dup4\n      add\n        /* \"#utility.yul\":3505:3539   */\n      mstore\n        /* \"contract/HITBNBBuyer_V2_flattened.sol\":23742:23746  usdt */\n      immutable(\"0x45d94b36b6c591269b78e981be09aa23f420e08a8de62d492aecd72fd20b693b\")\n        /* \"contract/HITBNBBuyer_V2_flattened.sol\":23735:23755  IERC20(usdt).approve */\n      and\n      swap1\n      0x095ea7b3\n      swap1\n        /* \"#utility.yul\":3418:3436   */\n      0x44\n      add\n        /* \"contract/HITBNBBuyer_V2_flattened.sol\":23735:23782  IERC20(usdt).approve(router, type(uint256).max) */\n      0x20\n      mload(0x40)\n      dup1\n      dup4\n      sub\n      dup2\n      0x00\n      dup8\n      gas\n      call\n      iszero\n      dup1\n      iszero\n      tag_104\n      jumpi\n      returndatasize\n      0x00\n      dup1\n      returndatacopy\n      revert(0x00, returndatasize)\n    tag_104:\n      pop\n      pop\n      pop\n      pop\n      mload(0x40)\n      returndatasize\n      not(0x1f)\n      0x1f\n      dup3\n      add\n      and\n      dup3\n      add\n      dup1\n      0x40\n      mstore\n      pop\n      dup2\n      add\n      swap1\n      tag_105\n      swap2\n      swap1\n      tag_100\n      jump\t// in\n    tag_105:\n      pop\n        /* \"contract/HITBNBBuyer_V2_flattened.sol\":23645:23793  if (currentAllowance < amount) {... */\n    tag_94:\n        /* \"contract/HITBNBBuyer_V2_flattened.sol\":23827:23843  new address[](2) */\n      0x40\n      dup1\n      mload\n        /* \"contract/HITBNBBuyer_V2_flattened.sol\":23841:23842  2 */\n      0x02\n        /* \"contract/HITBNBBuyer_V2_flattened.sol\":23827:23843  new address[](2) */\n      dup1\n      dup3\n      mstore\n      0x60\n      dup3\n      add\n      dup4\n      mstore\n        /* \"contract/HITBNBBuyer_V2_flattened.sol\":23803:23824  address[] memory path */\n      0x00\n      swap3\n        /* \"contract/HITBNBBuyer_V2_flattened.sol\":23827:23843  new address[](2) */\n      0x20\n      dup4\n      add\n      swap1\n      dup1\n      calldatasize\n      dup4\n      calldatacopy\n      add\n      swap1\n      pop\n      pop\n        /* \"contract/HITBNBBuyer_V2_flattened.sol\":23803:23843  address[] memory path = new address[](2) */\n      swap1\n      pop\n        /* \"contract/HITBNBBuyer_V2_flattened.sol\":23867:23871  usdt */\n      immutable(\"0x45d94b36b6c591269b78e981be09aa23f420e08a8de62d492aecd72fd20b693b\")\n        /* \"contract/HITBNBBuyer_V2_flattened.sol\":23857:23861  path */\n      dup2\n        /* \"contract/HITBNBBuyer_V2_flattened.sol\":23862:23863  0 */\n      0x00\n        /* \"contract/HITBNBBuyer_V2_flattened.sol\":23857:23864  path[0] */\n      dup2\n      mload\n      dup2\n      lt\n      tag_111\n      jumpi\n      tag_111\n      tag_112\n      jump\t// in\n    tag_111:\n      0x20\n      mul\n      0x20\n      add\n      add\n        /* \"contract/HITBNBBuyer_V2_flattened.sol\":23857:23871  path[0] = usdt */\n      swap1\n      sub(shl(0xa0, 0x01), 0x01)\n      and\n      swap1\n      dup2\n      sub(shl(0xa0, 0x01), 0x01)\n      and\n      dup2\n      mstore\n      pop\n      pop\n        /* \"contract/HITBNBBuyer_V2_flattened.sol\":23895:23901  hitbnb */\n      immutable(\"0x777852512dc63fa8e441f03006b749793ff7c58fe5517f59d47a8bd550149fb3\")\n        /* \"contract/HITBNBBuyer_V2_flattened.sol\":23885:23889  path */\n      dup2\n        /* \"contract/HITBNBBuyer_V2_flattened.sol\":23890:23891  1 */\n      0x01\n        /* \"contract/HITBNBBuyer_V2_flattened.sol\":23885:23892  path[1] */\n      dup2\n      mload\n      dup2\n      lt\n      tag_114\n      jumpi\n      tag_114\n      tag_112\n      jump\t// in\n    tag_114:\n      sub(shl(0xa0, 0x01), 0x01)\n        /* \"contract/HITBNBBuyer_V2_flattened.sol\":23885:23901  path[1] = hitbnb */\n      swap3\n      dup4\n      and\n        /* \"contract/HITBNBBuyer_V2_flattened.sol\":23885:23892  path[1] */\n      0x20\n      swap2\n      dup3\n      mul\n      swap3\n      swap1\n      swap3\n      add\n      add\n        /* \"contract/HITBNBBuyer_V2_flattened.sol\":23885:23901  path[1] = hitbnb */\n      mstore\n        /* \"contract/HITBNBBuyer_V2_flattened.sol\":23935:23941  router */\n      immutable(\"0x9dba651fe92c782dda8c593c3d8da3497c4efc99f38999b5ec4b9f051734219f\")\n        /* \"contract/HITBNBBuyer_V2_flattened.sol\":23920:23996  IPancakeRouter(router).swapExactTokensForTokensSupportingFeeOnTransferTokens */\n      and\n      0x5c11d795\n        /* \"contract/HITBNBBuyer_V2_flattened.sol\":24010:24016  amount */\n      dup6\n        /* \"contract/HITBNBBuyer_V2_flattened.sol\":24030:24042  amountOutMin */\n      dup6\n        /* \"contract/HITBNBBuyer_V2_flattened.sol\":24056:24060  path */\n      dup5\n        /* \"contract/HITBNBBuyer_V2_flattened.sol\":24074:24083  roiWallet */\n      immutable(\"0x4c643d5d9b0441803235e222732b65e2dc488f209ae20302cca6cafc813933a8\")\n        /* \"contract/HITBNBBuyer_V2_flattened.sol\":24097:24118  block.timestamp + 300 */\n      tag_115\n        /* \"contract/HITBNBBuyer_V2_flattened.sol\":24097:24112  block.timestamp */\n      timestamp\n        /* \"contract/HITBNBBuyer_V2_flattened.sol\":24115:24118  300 */\n      0x012c\n        /* \"contract/HITBNBBuyer_V2_flattened.sol\":24097:24118  block.timestamp + 300 */\n      tag_116\n      jump\t// in\n    tag_115:\n        /* \"contract/HITBNBBuyer_V2_flattened.sol\":23920:24128  IPancakeRouter(router).swapExactTokensForTokensSupportingFeeOnTransferTokens(... */\n      mload(0x40)\n      dup7\n      0xffffffff\n      and\n      0xe0\n      shl\n      dup2\n      mstore\n      0x04\n      add\n      tag_117\n      swap6\n      swap5\n      swap4\n      swap3\n      swap2\n      swap1\n      tag_118\n      jump\t// in\n    tag_117:\n      0x00\n      mload(0x40)\n      dup1\n      dup4\n      sub\n      dup2\n      0x00\n      dup8\n      dup1\n      extcodesize\n      iszero\n      dup1\n      iszero\n      tag_119\n      jumpi\n      0x00\n      dup1\n      revert\n    tag_119:\n      pop\n      gas\n      call\n      iszero\n      dup1\n      iszero\n      tag_121\n      jumpi\n      returndatasize\n      0x00\n      dup1\n      returndatacopy\n      revert(0x00, returndatasize)\n    tag_121:\n      pop\n      pop\n        /* \"contract/HITBNBBuyer_V2_flattened.sol\":24144:24207  TokenSwapped(msg.sender, amount, amountOutMin, block.timestamp) */\n      0x40\n      dup1\n      mload\n        /* \"#utility.yul\":5781:5806   */\n      dup8\n      dup2\n      mstore\n        /* \"#utility.yul\":5837:5839   */\n      0x20\n        /* \"#utility.yul\":5822:5840   */\n      dup2\n      add\n        /* \"#utility.yul\":5815:5849   */\n      dup8\n      swap1\n      mstore\n        /* \"contract/HITBNBBuyer_V2_flattened.sol\":24191:24206  block.timestamp */\n      timestamp\n        /* \"#utility.yul\":5865:5883   */\n      dup2\n      dup4\n      add\n        /* \"#utility.yul\":5858:5892   */\n      mstore\n        /* \"contract/HITBNBBuyer_V2_flattened.sol\":24144:24207  TokenSwapped(msg.sender, amount, amountOutMin, block.timestamp) */\n      swap1\n      mload\n        /* \"contract/HITBNBBuyer_V2_flattened.sol\":24157:24167  msg.sender */\n      caller\n      swap4\n      pop\n        /* \"contract/HITBNBBuyer_V2_flattened.sol\":24144:24207  TokenSwapped(msg.sender, amount, amountOutMin, block.timestamp) */\n      0xd0dfdc42f329395b5b942c700951e54f587bd4bb1f893019dd09d857c2b5ad7f\n      swap3\n      pop\n      swap1\n      dup2\n      swap1\n      sub\n        /* \"#utility.yul\":5769:5771   */\n      0x60\n        /* \"contract/HITBNBBuyer_V2_flattened.sol\":24144:24207  TokenSwapped(msg.sender, amount, amountOutMin, block.timestamp) */\n      add\n      swap1\n      log2\n        /* \"contract/HITBNBBuyer_V2_flattened.sol\":23478:24214  {... */\n      pop\n      pop\n        /* \"contract/HITBNBBuyer_V2_flattened.sol\":20818:20838  _nonReentrantAfter() */\n      tag_124\n        /* \"contract/HITBNBBuyer_V2_flattened.sol\":20231:20232  1 */\n      0x01\n        /* \"contract/HITBNBBuyer_V2_flattened.sol\":21324:21331  _status */\n      0x00\n        /* \"contract/HITBNBBuyer_V2_flattened.sol\":21324:21346  _status = _NOT_ENTERED */\n      sstore\n        /* \"contract/HITBNBBuyer_V2_flattened.sol\":21144:21353  function _nonReentrantAfter() private {... */\n      jump\n        /* \"contract/HITBNBBuyer_V2_flattened.sol\":20818:20838  _nonReentrantAfter() */\n    tag_124:\n        /* \"contract/HITBNBBuyer_V2_flattened.sol\":23401:24214  function deposit(uint256 amount, uint256 amountOutMin) external nonReentrant {... */\n      pop\n      pop\n      jump\t// out\n        /* \"contract/HITBNBBuyer_V2_flattened.sol\":23176:23395  function transferOwnership(address newOwner) external onlyOwner {... */\n    tag_51:\n        /* \"contract/HITBNBBuyer_V2_flattened.sol\":22614:22619  owner */\n      and(sub(shl(0xa0, 0x01), 0x01), sload(0x01))\n        /* \"contract/HITBNBBuyer_V2_flattened.sol\":22600:22610  msg.sender */\n      caller\n        /* \"contract/HITBNBBuyer_V2_flattened.sol\":22600:22619  msg.sender == owner */\n      eq\n        /* \"contract/HITBNBBuyer_V2_flattened.sol\":22592:22634  require(msg.sender == owner, \"Only owner\") */\n      tag_127\n      jumpi\n      mload(0x40)\n      shl(0xe5, 0x461bcd)\n      dup2\n      mstore\n      0x04\n      add\n      tag_58\n      swap1\n      tag_59\n      jump\t// in\n    tag_127:\n      sub(shl(0xa0, 0x01), 0x01)\n        /* \"contract/HITBNBBuyer_V2_flattened.sol\":23258:23280  newOwner != address(0) */\n      dup2\n      and\n        /* \"contract/HITBNBBuyer_V2_flattened.sol\":23250:23310  require(newOwner != address(0), \"New owner is zero address\") */\n      tag_130\n      jumpi\n      mload(0x40)\n      shl(0xe5, 0x461bcd)\n      dup2\n      mstore\n        /* \"#utility.yul\":6105:6107   */\n      0x20\n        /* \"contract/HITBNBBuyer_V2_flattened.sol\":23250:23310  require(newOwner != address(0), \"New owner is zero address\") */\n      0x04\n      dup3\n      add\n        /* \"#utility.yul\":6087:6108   */\n      mstore\n        /* \"#utility.yul\":6144:6146   */\n      0x19\n        /* \"#utility.yul\":6124:6142   */\n      0x24\n      dup3\n      add\n        /* \"#utility.yul\":6117:6147   */\n      mstore\n        /* \"#utility.yul\":6183:6210   */\n      0x4e6577206f776e6572206973207a65726f206164647265737300000000000000\n        /* \"#utility.yul\":6163:6181   */\n      0x44\n      dup3\n      add\n        /* \"#utility.yul\":6156:6211   */\n      mstore\n        /* \"#utility.yul\":6228:6246   */\n      0x64\n      add\n        /* \"contract/HITBNBBuyer_V2_flattened.sol\":23250:23310  require(newOwner != address(0), \"New owner is zero address\") */\n      tag_58\n        /* \"#utility.yul\":5903:6252   */\n      jump\n        /* \"contract/HITBNBBuyer_V2_flattened.sol\":23250:23310  require(newOwner != address(0), \"New owner is zero address\") */\n    tag_130:\n        /* \"contract/HITBNBBuyer_V2_flattened.sol\":23346:23351  owner */\n      sload(0x01)\n        /* \"contract/HITBNBBuyer_V2_flattened.sol\":23325:23362  OwnershipTransferred(owner, newOwner) */\n      mload(0x40)\n      sub(shl(0xa0, 0x01), 0x01)\n      dup1\n      dup5\n      and\n      swap3\n        /* \"contract/HITBNBBuyer_V2_flattened.sol\":23346:23351  owner */\n      and\n      swap1\n        /* \"contract/HITBNBBuyer_V2_flattened.sol\":23325:23362  OwnershipTransferred(owner, newOwner) */\n      0x8be0079c531659141344cd1fd0a4f28419497f9722a3daafe3b4186f6b6457e0\n      swap1\n        /* \"contract/HITBNBBuyer_V2_flattened.sol\":23346:23351  owner */\n      0x00\n      swap1\n        /* \"contract/HITBNBBuyer_V2_flattened.sol\":23325:23362  OwnershipTransferred(owner, newOwner) */\n      log3\n        /* \"contract/HITBNBBuyer_V2_flattened.sol\":23372:23377  owner */\n      0x01\n        /* \"contract/HITBNBBuyer_V2_flattened.sol\":23372:23388  owner = newOwner */\n      dup1\n      sload\n      not(sub(shl(0xa0, 0x01), 0x01))\n      and\n      sub(shl(0xa0, 0x01), 0x01)\n      swap3\n      swap1\n      swap3\n      and\n      swap2\n      swap1\n      swap2\n      or\n      swap1\n      sstore\n        /* \"contract/HITBNBBuyer_V2_flattened.sol\":23176:23395  function transferOwnership(address newOwner) external onlyOwner {... */\n      jump\t// out\n        /* \"contract/HITBNBBuyer_V2_flattened.sol\":9626:9786  function safeTransfer(IERC20 token, address to, uint256 value) internal {... */\n    tag_81:\n        /* \"contract/HITBNBBuyer_V2_flattened.sol\":9735:9778  abi.encodeCall(token.transfer, (to, value)) */\n      mload(0x40)\n      sub(shl(0xa0, 0x01), 0x01)\n        /* \"#utility.yul\":3463:3495   */\n      dup4\n      dup2\n      and\n        /* \"contract/HITBNBBuyer_V2_flattened.sol\":9735:9778  abi.encodeCall(token.transfer, (to, value)) */\n      0x24\n      dup4\n      add\n        /* \"#utility.yul\":3445:3496   */\n      mstore\n        /* \"#utility.yul\":3512:3530   */\n      0x44\n      dup3\n      add\n        /* \"#utility.yul\":3505:3539   */\n      dup4\n      swap1\n      mstore\n        /* \"contract/HITBNBBuyer_V2_flattened.sol\":9708:9779  _callOptionalReturn(token, abi.encodeCall(token.transfer, (to, value))) */\n      tag_134\n      swap2\n        /* \"contract/HITBNBBuyer_V2_flattened.sol\":9728:9733  token */\n      dup6\n      swap2\n        /* \"contract/HITBNBBuyer_V2_flattened.sol\":9750:9764  token.transfer */\n      dup3\n      and\n      swap1\n      0xa9059cbb\n      swap1\n        /* \"#utility.yul\":3418:3436   */\n      0x64\n      add\n        /* \"contract/HITBNBBuyer_V2_flattened.sol\":9735:9778  abi.encodeCall(token.transfer, (to, value)) */\n    tag_135:\n      mload(0x40)\n      0x20\n      dup2\n      dup4\n      sub\n      sub\n      dup2\n      mstore\n      swap1\n      0x40\n      mstore\n      swap2\n      pop\n      0xe0\n      shl\n      0x20\n      dup3\n      add\n      dup1\n      mload\n      sub(shl(0xe0, 0x01), 0x01)\n      dup4\n      dup2\n      dup4\n      and\n      or\n      dup4\n      mstore\n      pop\n      pop\n      pop\n      pop\n        /* \"contract/HITBNBBuyer_V2_flattened.sol\":9708:9727  _callOptionalReturn */\n      tag_136\n        /* \"contract/HITBNBBuyer_V2_flattened.sol\":9708:9779  _callOptionalReturn(token, abi.encodeCall(token.transfer, (to, value))) */\n      jump\t// in\n    tag_134:\n        /* \"contract/HITBNBBuyer_V2_flattened.sol\":9626:9786  function safeTransfer(IERC20 token, address to, uint256 value) internal {... */\n      pop\n      pop\n      pop\n      jump\t// out\n        /* \"contract/HITBNBBuyer_V2_flattened.sol\":20851:21138  function _nonReentrantBefore() private {... */\n    tag_85:\n        /* \"contract/HITBNBBuyer_V2_flattened.sol\":20274:20275  2 */\n      0x02\n        /* \"contract/HITBNBBuyer_V2_flattened.sol\":20983:20990  _status */\n      sload(0x00)\n        /* \"contract/HITBNBBuyer_V2_flattened.sol\":20983:21002  _status != _ENTERED */\n      sub\n        /* \"contract/HITBNBBuyer_V2_flattened.sol\":20975:21038  require(_status != _ENTERED, \"ReentrancyGuard: reentrant call\") */\n      tag_138\n      jumpi\n      mload(0x40)\n      shl(0xe5, 0x461bcd)\n      dup2\n      mstore\n        /* \"#utility.yul\":6459:6461   */\n      0x20\n        /* \"contract/HITBNBBuyer_V2_flattened.sol\":20975:21038  require(_status != _ENTERED, \"ReentrancyGuard: reentrant call\") */\n      0x04\n      dup3\n      add\n        /* \"#utility.yul\":6441:6462   */\n      mstore\n        /* \"#utility.yul\":6498:6500   */\n      0x1f\n        /* \"#utility.yul\":6478:6496   */\n      0x24\n      dup3\n      add\n        /* \"#utility.yul\":6471:6501   */\n      mstore\n        /* \"#utility.yul\":6537:6570   */\n      0x5265656e7472616e637947756172643a207265656e7472616e742063616c6c00\n        /* \"#utility.yul\":6517:6535   */\n      0x44\n      dup3\n      add\n        /* \"#utility.yul\":6510:6571   */\n      mstore\n        /* \"#utility.yul\":6588:6606   */\n      0x64\n      add\n        /* \"contract/HITBNBBuyer_V2_flattened.sol\":20975:21038  require(_status != _ENTERED, \"ReentrancyGuard: reentrant call\") */\n      tag_58\n        /* \"#utility.yul\":6257:6612   */\n      jump\n        /* \"contract/HITBNBBuyer_V2_flattened.sol\":20975:21038  require(_status != _ENTERED, \"ReentrancyGuard: reentrant call\") */\n    tag_138:\n        /* \"contract/HITBNBBuyer_V2_flattened.sol\":20274:20275  2 */\n      0x02\n        /* \"contract/HITBNBBuyer_V2_flattened.sol\":21113:21120  _status */\n      0x00\n        /* \"contract/HITBNBBuyer_V2_flattened.sol\":21113:21131  _status = _ENTERED */\n      sstore\n        /* \"contract/HITBNBBuyer_V2_flattened.sol\":20851:21138  function _nonReentrantBefore() private {... */\n      jump\t// out\n        /* \"contract/HITBNBBuyer_V2_flattened.sol\":10025:10213  function safeTransferFrom(IERC20 token, address from, address to, uint256 value) internal {... */\n    tag_88:\n        /* \"contract/HITBNBBuyer_V2_flattened.sol\":10152:10205  abi.encodeCall(token.transferFrom, (from, to, value)) */\n      mload(0x40)\n      sub(shl(0xa0, 0x01), 0x01)\n        /* \"#utility.yul\":6875:6890   */\n      dup5\n      dup2\n      and\n        /* \"contract/HITBNBBuyer_V2_flattened.sol\":10152:10205  abi.encodeCall(token.transferFrom, (from, to, value)) */\n      0x24\n      dup4\n      add\n        /* \"#utility.yul\":6857:6891   */\n      mstore\n        /* \"#utility.yul\":6927:6942   */\n      dup4\n      dup2\n      and\n        /* \"#utility.yul\":6907:6925   */\n      0x44\n      dup4\n      add\n        /* \"#utility.yul\":6900:6943   */\n      mstore\n        /* \"#utility.yul\":6959:6977   */\n      0x64\n      dup3\n      add\n        /* \"#utility.yul\":6952:6986   */\n      dup4\n      swap1\n      mstore\n        /* \"contract/HITBNBBuyer_V2_flattened.sol\":10125:10206  _callOptionalReturn(token, abi.encodeCall(token.transferFrom, (from, to, value))) */\n      tag_142\n      swap2\n        /* \"contract/HITBNBBuyer_V2_flattened.sol\":10145:10150  token */\n      dup7\n      swap2\n        /* \"contract/HITBNBBuyer_V2_flattened.sol\":10167:10185  token.transferFrom */\n      dup3\n      and\n      swap1\n      0x23b872dd\n      swap1\n        /* \"#utility.yul\":6792:6810   */\n      0x84\n      add\n        /* \"contract/HITBNBBuyer_V2_flattened.sol\":10152:10205  abi.encodeCall(token.transferFrom, (from, to, value)) */\n      tag_135\n        /* \"#utility.yul\":6617:6992   */\n      jump\n        /* \"contract/HITBNBBuyer_V2_flattened.sol\":10125:10206  _callOptionalReturn(token, abi.encodeCall(token.transferFrom, (from, to, value))) */\n    tag_142:\n        /* \"contract/HITBNBBuyer_V2_flattened.sol\":10025:10213  function safeTransferFrom(IERC20 token, address from, address to, uint256 value) internal {... */\n      pop\n      pop\n      pop\n      pop\n      jump\t// out\n        /* \"contract/HITBNBBuyer_V2_flattened.sol\":16777:17497  function _callOptionalReturn(IERC20 token, bytes memory data) private {... */\n    tag_136:\n        /* \"contract/HITBNBBuyer_V2_flattened.sol\":16857:16875  uint256 returnSize */\n      0x00\n        /* \"contract/HITBNBBuyer_V2_flattened.sol\":16885:16904  uint256 returnValue */\n      dup1\n        /* \"contract/HITBNBBuyer_V2_flattened.sol\":17023:17027  0x20 */\n      0x20\n        /* \"contract/HITBNBBuyer_V2_flattened.sol\":17020:17021  0 */\n      0x00\n        /* \"contract/HITBNBBuyer_V2_flattened.sol\":17013:17017  data */\n      dup5\n        /* \"contract/HITBNBBuyer_V2_flattened.sol\":17007:17018  mload(data) */\n      mload\n        /* \"contract/HITBNBBuyer_V2_flattened.sol\":17000:17004  0x20 */\n      0x20\n        /* \"contract/HITBNBBuyer_V2_flattened.sol\":16994:16998  data */\n      dup7\n        /* \"contract/HITBNBBuyer_V2_flattened.sol\":16990:17005  add(data, 0x20) */\n      add\n        /* \"contract/HITBNBBuyer_V2_flattened.sol\":16987:16988  0 */\n      0x00\n        /* \"contract/HITBNBBuyer_V2_flattened.sol\":16980:16985  token */\n      dup9\n        /* \"contract/HITBNBBuyer_V2_flattened.sol\":16973:16978  gas() */\n      gas\n        /* \"contract/HITBNBBuyer_V2_flattened.sol\":16968:17028  call(gas(), token, 0, add(data, 0x20), mload(data), 0, 0x20) */\n      call\n        /* \"contract/HITBNBBuyer_V2_flattened.sol\":17080:17087  success */\n      dup1\n        /* \"contract/HITBNBBuyer_V2_flattened.sol\":17070:17246  if iszero(success) {... */\n      tag_147\n      jumpi\n        /* \"contract/HITBNBBuyer_V2_flattened.sol\":17124:17128  0x40 */\n      0x40\n        /* \"contract/HITBNBBuyer_V2_flattened.sol\":17118:17129  mload(0x40) */\n      mload\n        /* \"contract/HITBNBBuyer_V2_flattened.sol\":17169:17185  returndatasize() */\n      returndatasize\n        /* \"contract/HITBNBBuyer_V2_flattened.sol\":17166:17167  0 */\n      0x00\n        /* \"contract/HITBNBBuyer_V2_flattened.sol\":17161:17164  ptr */\n      dup3\n        /* \"contract/HITBNBBuyer_V2_flattened.sol\":17146:17186  returndatacopy(ptr, 0, returndatasize()) */\n      returndatacopy\n        /* \"contract/HITBNBBuyer_V2_flattened.sol\":17215:17231  returndatasize() */\n      returndatasize\n        /* \"contract/HITBNBBuyer_V2_flattened.sol\":17210:17213  ptr */\n      dup2\n        /* \"contract/HITBNBBuyer_V2_flattened.sol\":17203:17232  revert(ptr, returndatasize()) */\n      revert\n        /* \"contract/HITBNBBuyer_V2_flattened.sol\":17070:17246  if iszero(success) {... */\n    tag_147:\n      pop\n      pop\n        /* \"contract/HITBNBBuyer_V2_flattened.sol\":17323:17324  0 */\n      0x00\n        /* \"contract/HITBNBBuyer_V2_flattened.sol\":17317:17325  mload(0) */\n      mload\n        /* \"contract/HITBNBBuyer_V2_flattened.sol\":17273:17289  returndatasize() */\n      returndatasize\n      swap2\n      pop\n        /* \"contract/HITBNBBuyer_V2_flattened.sol\":17349:17364  returnSize == 0 */\n      dup2\n      iszero\n        /* \"contract/HITBNBBuyer_V2_flattened.sol\":17349:17417  returnSize == 0 ? address(token).code.length == 0 : returnValue != 1 */\n      tag_148\n      jumpi\n        /* \"contract/HITBNBBuyer_V2_flattened.sol\":17401:17412  returnValue */\n      dup1\n        /* \"contract/HITBNBBuyer_V2_flattened.sol\":17416:17417  1 */\n      0x01\n        /* \"contract/HITBNBBuyer_V2_flattened.sol\":17401:17417  returnValue != 1 */\n      eq\n      iszero\n        /* \"contract/HITBNBBuyer_V2_flattened.sol\":17349:17417  returnSize == 0 ? address(token).code.length == 0 : returnValue != 1 */\n      jump(tag_149)\n    tag_148:\n      sub(shl(0xa0, 0x01), 0x01)\n        /* \"contract/HITBNBBuyer_V2_flattened.sol\":17367:17393  address(token).code.length */\n      dup5\n      and\n      extcodesize\n        /* \"contract/HITBNBBuyer_V2_flattened.sol\":17367:17398  address(token).code.length == 0 */\n      iszero\n        /* \"contract/HITBNBBuyer_V2_flattened.sol\":17349:17417  returnSize == 0 ? address(token).code.length == 0 : returnValue != 1 */\n    tag_149:\n        /* \"contract/HITBNBBuyer_V2_flattened.sol\":17345:17491  if (returnSize == 0 ? address(token).code.length == 0 : returnValue != 1) {... */\n      iszero\n      tag_142\n      jumpi\n        /* \"contract/HITBNBBuyer_V2_flattened.sol\":17440:17480  SafeERC20FailedOperation(address(token)) */\n      mload(0x40)\n      shl(0xe0, 0x5274afe7)\n      dup2\n      mstore\n      sub(shl(0xa0, 0x01), 0x01)\n        /* \"#utility.yul\":178:210   */\n      dup6\n      and\n        /* \"contract/HITBNBBuyer_V2_flattened.sol\":17440:17480  SafeERC20FailedOperation(address(token)) */\n      0x04\n      dup3\n      add\n        /* \"#utility.yul\":160:211   */\n      mstore\n        /* \"#utility.yul\":133:151   */\n      0x24\n      add\n        /* \"contract/HITBNBBuyer_V2_flattened.sol\":17440:17480  SafeERC20FailedOperation(address(token)) */\n      tag_58\n        /* \"#utility.yul\":14:217   */\n      jump\n        /* \"#utility.yul\":222:361   */\n    tag_152:\n      sub(shl(0xa0, 0x01), 0x01)\n        /* \"#utility.yul\":305:336   */\n      dup2\n      and\n        /* \"#utility.yul\":295:337   */\n      dup2\n      eq\n        /* \"#utility.yul\":285:355   */\n      tag_156\n      jumpi\n        /* \"#utility.yul\":351:352   */\n      0x00\n        /* \"#utility.yul\":348:349   */\n      dup1\n        /* \"#utility.yul\":341:353   */\n      revert\n        /* \"#utility.yul\":285:355   */\n    tag_156:\n        /* \"#utility.yul\":222:361   */\n      pop\n      jump\t// out\n        /* \"#utility.yul\":366:629   */\n    tag_27:\n        /* \"#utility.yul\":433:439   */\n      0x00\n        /* \"#utility.yul\":486:488   */\n      0x20\n        /* \"#utility.yul\":474:483   */\n      dup3\n        /* \"#utility.yul\":465:472   */\n      dup5\n        /* \"#utility.yul\":461:484   */\n      sub\n        /* \"#utility.yul\":457:489   */\n      slt\n        /* \"#utility.yul\":454:506   */\n      iszero\n      tag_158\n      jumpi\n        /* \"#utility.yul\":502:503   */\n      0x00\n        /* \"#utility.yul\":499:500   */\n      dup1\n        /* \"#utility.yul\":492:504   */\n      revert\n        /* \"#utility.yul\":454:506   */\n    tag_158:\n        /* \"#utility.yul\":541:550   */\n      dup2\n        /* \"#utility.yul\":528:551   */\n      calldataload\n        /* \"#utility.yul\":560:599   */\n      tag_159\n        /* \"#utility.yul\":593:598   */\n      dup2\n        /* \"#utility.yul\":560:599   */\n      tag_152\n      jump\t// in\n    tag_159:\n        /* \"#utility.yul\":618:623   */\n      swap4\n        /* \"#utility.yul\":366:629   */\n      swap3\n      pop\n      pop\n      pop\n      jump\t// out\n        /* \"#utility.yul\":634:1038   */\n    tag_32:\n        /* \"#utility.yul\":702:708   */\n      0x00\n        /* \"#utility.yul\":710:716   */\n      dup1\n        /* \"#utility.yul\":763:765   */\n      0x40\n        /* \"#utility.yul\":751:760   */\n      dup4\n        /* \"#utility.yul\":742:749   */\n      dup6\n        /* \"#utility.yul\":738:761   */\n      sub\n        /* \"#utility.yul\":734:766   */\n      slt\n        /* \"#utility.yul\":731:783   */\n      iszero\n      tag_161\n      jumpi\n        /* \"#utility.yul\":779:780   */\n      0x00\n        /* \"#utility.yul\":776:777   */\n      dup1\n        /* \"#utility.yul\":769:781   */\n      revert\n        /* \"#utility.yul\":731:783   */\n    tag_161:\n        /* \"#utility.yul\":818:827   */\n      dup3\n        /* \"#utility.yul\":805:828   */\n      calldataload\n        /* \"#utility.yul\":837:876   */\n      tag_162\n        /* \"#utility.yul\":870:875   */\n      dup2\n        /* \"#utility.yul\":837:876   */\n      tag_152\n      jump\t// in\n    tag_162:\n        /* \"#utility.yul\":895:900   */\n      swap2\n      pop\n        /* \"#utility.yul\":952:954   */\n      0x20\n        /* \"#utility.yul\":937:955   */\n      dup4\n      add\n        /* \"#utility.yul\":924:956   */\n      calldataload\n        /* \"#utility.yul\":965:1006   */\n      tag_163\n        /* \"#utility.yul\":924:956   */\n      dup2\n        /* \"#utility.yul\":965:1006   */\n      tag_152\n      jump\t// in\n    tag_163:\n        /* \"#utility.yul\":1025:1032   */\n      dup1\n        /* \"#utility.yul\":1015:1032   */\n      swap2\n      pop\n      pop\n        /* \"#utility.yul\":634:1038   */\n      swap3\n      pop\n      swap3\n      swap1\n      pop\n      jump\t// out\n        /* \"#utility.yul\":1043:1291   */\n    tag_41:\n        /* \"#utility.yul\":1111:1117   */\n      0x00\n        /* \"#utility.yul\":1119:1125   */\n      dup1\n        /* \"#utility.yul\":1172:1174   */\n      0x40\n        /* \"#utility.yul\":1160:1169   */\n      dup4\n        /* \"#utility.yul\":1151:1158   */\n      dup6\n        /* \"#utility.yul\":1147:1170   */\n      sub\n        /* \"#utility.yul\":1143:1175   */\n      slt\n        /* \"#utility.yul\":1140:1192   */\n      iszero\n      tag_165\n      jumpi\n        /* \"#utility.yul\":1188:1189   */\n      0x00\n        /* \"#utility.yul\":1185:1186   */\n      dup1\n        /* \"#utility.yul\":1178:1190   */\n      revert\n        /* \"#utility.yul\":1140:1192   */\n    tag_165:\n      pop\n      pop\n        /* \"#utility.yul\":1211:1234   */\n      dup1\n      calldataload\n      swap3\n        /* \"#utility.yul\":1281:1283   */\n      0x20\n        /* \"#utility.yul\":1266:1284   */\n      swap1\n      swap2\n      add\n        /* \"#utility.yul\":1253:1285   */\n      calldataload\n      swap2\n      pop\n        /* \"#utility.yul\":1043:1291   */\n      jump\t// out\n        /* \"#utility.yul\":1556:1890   */\n    tag_59:\n        /* \"#utility.yul\":1758:1760   */\n      0x20\n        /* \"#utility.yul\":1740:1761   */\n      dup1\n      dup3\n      mstore\n        /* \"#utility.yul\":1797:1799   */\n      0x0a\n        /* \"#utility.yul\":1777:1795   */\n      swap1\n      dup3\n      add\n        /* \"#utility.yul\":1770:1800   */\n      mstore\n      shl(0xb1, 0x27b7363c9037bbb732b9)\n        /* \"#utility.yul\":1831:1833   */\n      0x40\n        /* \"#utility.yul\":1816:1834   */\n      dup3\n      add\n        /* \"#utility.yul\":1809:1849   */\n      mstore\n        /* \"#utility.yul\":1881:1883   */\n      0x60\n        /* \"#utility.yul\":1866:1884   */\n      add\n      swap1\n        /* \"#utility.yul\":1556:1890   */\n      jump\t// out\n        /* \"#utility.yul\":2420:2604   */\n    tag_76:\n        /* \"#utility.yul\":2490:2496   */\n      0x00\n        /* \"#utility.yul\":2543:2545   */\n      0x20\n        /* \"#utility.yul\":2531:2540   */\n      dup3\n        /* \"#utility.yul\":2522:2529   */\n      dup5\n        /* \"#utility.yul\":2518:2541   */\n      sub\n        /* \"#utility.yul\":2514:2546   */\n      slt\n        /* \"#utility.yul\":2511:2563   */\n      iszero\n      tag_173\n      jumpi\n        /* \"#utility.yul\":2559:2560   */\n      0x00\n        /* \"#utility.yul\":2556:2557   */\n      dup1\n        /* \"#utility.yul\":2549:2561   */\n      revert\n        /* \"#utility.yul\":2511:2563   */\n    tag_173:\n      pop\n        /* \"#utility.yul\":2582:2598   */\n      mload\n      swap2\n        /* \"#utility.yul\":2420:2604   */\n      swap1\n      pop\n      jump\t// out\n        /* \"#utility.yul\":3550:3827   */\n    tag_100:\n        /* \"#utility.yul\":3617:3623   */\n      0x00\n        /* \"#utility.yul\":3670:3672   */\n      0x20\n        /* \"#utility.yul\":3658:3667   */\n      dup3\n        /* \"#utility.yul\":3649:3656   */\n      dup5\n        /* \"#utility.yul\":3645:3668   */\n      sub\n        /* \"#utility.yul\":3641:3673   */\n      slt\n        /* \"#utility.yul\":3638:3690   */\n      iszero\n      tag_178\n      jumpi\n        /* \"#utility.yul\":3686:3687   */\n      0x00\n        /* \"#utility.yul\":3683:3684   */\n      dup1\n        /* \"#utility.yul\":3676:3688   */\n      revert\n        /* \"#utility.yul\":3638:3690   */\n    tag_178:\n        /* \"#utility.yul\":3718:3727   */\n      dup2\n        /* \"#utility.yul\":3712:3728   */\n      mload\n        /* \"#utility.yul\":3771:3776   */\n      dup1\n        /* \"#utility.yul\":3764:3777   */\n      iszero\n        /* \"#utility.yul\":3757:3778   */\n      iszero\n        /* \"#utility.yul\":3750:3755   */\n      dup2\n        /* \"#utility.yul\":3747:3779   */\n      eq\n        /* \"#utility.yul\":3737:3797   */\n      tag_159\n      jumpi\n        /* \"#utility.yul\":3793:3794   */\n      0x00\n        /* \"#utility.yul\":3790:3791   */\n      dup1\n        /* \"#utility.yul\":3783:3795   */\n      revert\n        /* \"#utility.yul\":4243:4370   */\n    tag_112:\n        /* \"#utility.yul\":4304:4314   */\n      0x4e487b71\n        /* \"#utility.yul\":4299:4302   */\n      0xe0\n        /* \"#utility.yul\":4295:4315   */\n      shl\n        /* \"#utility.yul\":4292:4293   */\n      0x00\n        /* \"#utility.yul\":4285:4316   */\n      mstore\n        /* \"#utility.yul\":4335:4339   */\n      0x32\n        /* \"#utility.yul\":4332:4333   */\n      0x04\n        /* \"#utility.yul\":4325:4340   */\n      mstore\n        /* \"#utility.yul\":4359:4363   */\n      0x24\n        /* \"#utility.yul\":4356:4357   */\n      0x00\n        /* \"#utility.yul\":4349:4364   */\n      revert\n        /* \"#utility.yul\":4375:4597   */\n    tag_116:\n        /* \"#utility.yul\":4440:4449   */\n      dup1\n      dup3\n      add\n        /* \"#utility.yul\":4461:4471   */\n      dup1\n      dup3\n      gt\n        /* \"#utility.yul\":4458:4591   */\n      iszero\n      tag_184\n      jumpi\n        /* \"#utility.yul\":4513:4523   */\n      0x4e487b71\n        /* \"#utility.yul\":4508:4511   */\n      0xe0\n        /* \"#utility.yul\":4504:4524   */\n      shl\n        /* \"#utility.yul\":4501:4502   */\n      0x00\n        /* \"#utility.yul\":4494:4525   */\n      mstore\n        /* \"#utility.yul\":4548:4552   */\n      0x11\n        /* \"#utility.yul\":4545:4546   */\n      0x04\n        /* \"#utility.yul\":4538:4553   */\n      mstore\n        /* \"#utility.yul\":4576:4580   */\n      0x24\n        /* \"#utility.yul\":4573:4574   */\n      0x00\n        /* \"#utility.yul\":4566:4581   */\n      revert\n        /* \"#utility.yul\":4458:4591   */\n    tag_184:\n        /* \"#utility.yul\":4375:4597   */\n      swap3\n      swap2\n      pop\n      pop\n      jump\t// out\n        /* \"#utility.yul\":4602:5574   */\n    tag_118:\n        /* \"#utility.yul\":4856:4860   */\n      0x00\n        /* \"#utility.yul\":4904:4907   */\n      0xa0\n        /* \"#utility.yul\":4893:4902   */\n      dup3\n        /* \"#utility.yul\":4889:4908   */\n      add\n        /* \"#utility.yul\":4935:4941   */\n      dup8\n        /* \"#utility.yul\":4924:4933   */\n      dup4\n        /* \"#utility.yul\":4917:4942   */\n      mstore\n        /* \"#utility.yul\":4961:4963   */\n      0x20\n        /* \"#utility.yul\":4999:5005   */\n      dup8\n        /* \"#utility.yul\":4994:4996   */\n      0x20\n        /* \"#utility.yul\":4983:4992   */\n      dup6\n        /* \"#utility.yul\":4979:4997   */\n      add\n        /* \"#utility.yul\":4972:5006   */\n      mstore\n        /* \"#utility.yul\":5042:5045   */\n      0xa0\n        /* \"#utility.yul\":5037:5039   */\n      0x40\n        /* \"#utility.yul\":5026:5035   */\n      dup6\n        /* \"#utility.yul\":5022:5040   */\n      add\n        /* \"#utility.yul\":5015:5046   */\n      mstore\n        /* \"#utility.yul\":5066:5072   */\n      dup2\n        /* \"#utility.yul\":5101:5107   */\n      dup8\n        /* \"#utility.yul\":5095:5108   */\n      mload\n        /* \"#utility.yul\":5132:5138   */\n      dup1\n        /* \"#utility.yul\":5124:5130   */\n      dup5\n        /* \"#utility.yul\":5117:5139   */\n      mstore\n        /* \"#utility.yul\":5170:5173   */\n      0xc0\n        /* \"#utility.yul\":5159:5168   */\n      dup7\n        /* \"#utility.yul\":5155:5174   */\n      add\n        /* \"#utility.yul\":5148:5174   */\n      swap2\n      pop\n        /* \"#utility.yul\":5209:5211   */\n      0x20\n        /* \"#utility.yul\":5201:5207   */\n      dup10\n        /* \"#utility.yul\":5197:5212   */\n      add\n        /* \"#utility.yul\":5183:5212   */\n      swap4\n      pop\n        /* \"#utility.yul\":5230:5231   */\n      0x00\n        /* \"#utility.yul\":5240:5435   */\n    tag_186:\n        /* \"#utility.yul\":5254:5260   */\n      dup2\n        /* \"#utility.yul\":5251:5252   */\n      dup2\n        /* \"#utility.yul\":5248:5261   */\n      lt\n        /* \"#utility.yul\":5240:5435   */\n      iszero\n      tag_188\n      jumpi\n        /* \"#utility.yul\":5319:5332   */\n      dup5\n      mload\n      sub(shl(0xa0, 0x01), 0x01)\n        /* \"#utility.yul\":5315:5354   */\n      and\n        /* \"#utility.yul\":5303:5355   */\n      dup4\n      mstore\n        /* \"#utility.yul\":5410:5425   */\n      swap4\n      dup4\n      add\n      swap4\n        /* \"#utility.yul\":5375:5387   */\n      swap2\n      dup4\n      add\n      swap2\n        /* \"#utility.yul\":5351:5352   */\n      0x01\n        /* \"#utility.yul\":5269:5278   */\n      add\n        /* \"#utility.yul\":5240:5435   */\n      jump(tag_186)\n    tag_188:\n      pop\n      pop\n      sub(shl(0xa0, 0x01), 0x01)\n        /* \"#utility.yul\":5491:5523   */\n      swap7\n      swap1\n      swap7\n      and\n        /* \"#utility.yul\":5486:5488   */\n      0x60\n        /* \"#utility.yul\":5471:5489   */\n      dup6\n      add\n        /* \"#utility.yul\":5464:5524   */\n      mstore\n      pop\n      pop\n      pop\n        /* \"#utility.yul\":5555:5558   */\n      0x80\n        /* \"#utility.yul\":5540:5559   */\n      add\n        /* \"#utility.yul\":5533:5568   */\n      mstore\n        /* \"#utility.yul\":5452:5455   */\n      swap4\n        /* \"#utility.yul\":4602:5574   */\n      swap3\n      pop\n      pop\n      pop\n      jump\t// out\n\n    auxdata: 0xa2646970667358221220d7b0a687f6552c904e7278c83640e156a80235dffe7c8bdcd6b368e632f3b66364736f6c63430008180033\n}\n",
				"bytecode": {
					"linkReferences": {},
					"object": "61010060405234801562000011575f80fd5b5060405162000f0438038062000f048339810160408190526200003491620001d3565b60015f556001600160a01b038416620000945760405162461bcd60e51b815260206004820152601460248201527f496e76616c69642055534454206164647265737300000000000000000000000060448201526064015b60405180910390fd5b6001600160a01b038316620000ec5760405162461bcd60e51b815260206004820152601660248201527f496e76616c696420484954424e4220616464726573730000000000000000000060448201526064016200008b565b6001600160a01b038216620001395760405162461bcd60e51b8152602060048201526012602482015271125b9d985b1a59081493d2481dd85b1b195d60721b60448201526064016200008b565b6001600160a01b038116620001825760405162461bcd60e51b815260206004820152600e60248201526d24b73b30b634b2103937baba32b960911b60448201526064016200008b565b600180546001600160a01b031916331790556001600160a01b0393841660805291831660a052821660c0521660e0526200022d565b80516001600160a01b0381168114620001ce575f80fd5b919050565b5f805f8060808587031215620001e7575f80fd5b620001f285620001b7565b93506200020260208601620001b7565b92506200021260408601620001b7565b91506200022260608601620001b7565b905092959194509250565b60805160a05160c05160e051610c58620002ac5f395f81816101f50152818161049a0152818161055001528181610600015261075a01525f818160f2015261078401525f81816101a3015261071001525f818160a301528181610455015281816104c40152818161057e0152818161062f01526106bd0152610c585ff3fe608060405260043610610087575f3560e01c80638da5cb5b116100575780638da5cb5b14610154578063e2bbb15814610173578063e8d2b57114610192578063f2fde38b146101c5578063f887ea40146101e4575f80fd5b80632f48ab7d1461009257806342d50f19146100e1578063602db890146101145780636382d9ad14610135575f80fd5b3661008e57005b5f80fd5b34801561009d575f80fd5b506100c57f000000000000000000000000000000000000000000000000000000000000000081565b6040516001600160a01b03909116815260200160405180910390f35b3480156100ec575f80fd5b506100c57f000000000000000000000000000000000000000000000000000000000000000081565b34801561011f575f80fd5b5061013361012e366004610aa5565b610217565b005b348015610140575f80fd5b5061013361014f366004610ac7565b610304565b34801561015f575f80fd5b506001546100c5906001600160a01b031681565b34801561017e575f80fd5b5061013361018d366004610afe565b610440565b34801561019d575f80fd5b506100c57f000000000000000000000000000000000000000000000000000000000000000081565b3480156101d0575f80fd5b506101336101df366004610aa5565b61084d565b3480156101ef575f80fd5b506100c57f000000000000000000000000000000000000000000000000000000000000000081565b6001546001600160a01b0316331461024a5760405162461bcd60e51b815260040161024190610b1e565b60405180910390fd5b47806102895760405162461bcd60e51b815260206004820152600e60248201526d4e6f20424e422062616c616e636560901b6044820152606401610241565b6040516001600160a01b0383169082156108fc029083905f818181858888f193505050501580156102bc573d5f803e3d5ffd5b50816001600160a01b03167f91045e6e748ca8a27b6e2281f519acaeec9d1c9b38a4f5003a630c2bc2fb9689826040516102f891815260200190565b60405180910390a25050565b6001546001600160a01b0316331461032e5760405162461bcd60e51b815260040161024190610b1e565b6040516370a0823160e01b81523060048201525f906001600160a01b038416906370a0823190602401602060405180830381865afa158015610372573d5f803e3d5ffd5b505050506040513d601f19601f820116820180604052508101906103969190610b42565b90505f81116103da5760405162461bcd60e51b815260206004820152601060248201526f4e6f20746f6b656e2062616c616e636560801b6044820152606401610241565b6103ee6001600160a01b0384168383610928565b816001600160a01b0316836001600160a01b03167ff24ef89f38eadc1bde50701ad6e4d6d11a2dc24f7cf834a486991f38833285048360405161043391815260200190565b60405180910390a3505050565b61044861098c565b61047d6001600160a01b037f0000000000000000000000000000000000000000000000000000000000000000163330856109e3565b604051636eb1769f60e11b81523060048201526001600160a01b037f0000000000000000000000000000000000000000000000000000000000000000811660248301525f917f00000000000000000000000000000000000000000000000000000000000000009091169063dd62ed3e90604401602060405180830381865afa15801561050b573d5f803e3d5ffd5b505050506040513d601f19601f8201168201806040525081019061052f9190610b42565b90508281101561069b5760405163095ea7b360e01b81526001600160a01b037f0000000000000000000000000000000000000000000000000000000000000000811660048301525f60248301527f0000000000000000000000000000000000000000000000000000000000000000169063095ea7b3906044016020604051808303815f875af11580156105c4573d5f803e3d5ffd5b505050506040513d601f19601f820116820180604052508101906105e89190610b59565b5060405163095ea7b360e01b81526001600160a01b037f0000000000000000000000000000000000000000000000000000000000000000811660048301525f1960248301527f0000000000000000000000000000000000000000000000000000000000000000169063095ea7b3906044016020604051808303815f875af1158015610675573d5f803e3d5ffd5b505050506040513d601f19601f820116820180604052508101906106999190610b59565b505b6040805160028082526060820183525f926020830190803683370190505090507f0000000000000000000000000000000000000000000000000000000000000000815f815181106106ee576106ee610b78565b60200260200101906001600160a01b031690816001600160a01b0316815250507f00000000000000000000000000000000000000000000000000000000000000008160018151811061074257610742610b78565b6001600160a01b0392831660209182029290920101527f000000000000000000000000000000000000000000000000000000000000000016635c11d7958585847f00000000000000000000000000000000000000000000000000000000000000006107af4261012c610b8c565b6040518663ffffffff1660e01b81526004016107cf959493929190610bb1565b5f604051808303815f87803b1580156107e6575f80fd5b505af11580156107f8573d5f803e3d5ffd5b50506040805187815260208101879052428183015290513393507fd0dfdc42f329395b5b942c700951e54f587bd4bb1f893019dd09d857c2b5ad7f92509081900360600190a2505061084960015f55565b5050565b6001546001600160a01b031633146108775760405162461bcd60e51b815260040161024190610b1e565b6001600160a01b0381166108cd5760405162461bcd60e51b815260206004820152601960248201527f4e6577206f776e6572206973207a65726f2061646472657373000000000000006044820152606401610241565b6001546040516001600160a01b038084169216907f8be0079c531659141344cd1fd0a4f28419497f9722a3daafe3b4186f6b6457e0905f90a3600180546001600160a01b0319166001600160a01b0392909216919091179055565b6040516001600160a01b0383811660248301526044820183905261098791859182169063a9059cbb906064015b604051602081830303815290604052915060e01b6020820180516001600160e01b038381831617835250505050610a22565b505050565b60025f54036109dd5760405162461bcd60e51b815260206004820152601f60248201527f5265656e7472616e637947756172643a207265656e7472616e742063616c6c006044820152606401610241565b60025f55565b6040516001600160a01b038481166024830152838116604483015260648201839052610a1c9186918216906323b872dd90608401610955565b50505050565b5f8060205f8451602086015f885af180610a41576040513d5f823e3d81fd5b50505f513d91508115610a58578060011415610a65565b6001600160a01b0384163b155b15610a1c57604051635274afe760e01b81526001600160a01b0385166004820152602401610241565b6001600160a01b0381168114610aa2575f80fd5b50565b5f60208284031215610ab5575f80fd5b8135610ac081610a8e565b9392505050565b5f8060408385031215610ad8575f80fd5b8235610ae381610a8e565b91506020830135610af381610a8e565b809150509250929050565b5f8060408385031215610b0f575f80fd5b50508035926020909101359150565b6020808252600a908201526927b7363c9037bbb732b960b11b604082015260600190565b5f60208284031215610b52575f80fd5b5051919050565b5f60208284031215610b69575f80fd5b81518015158114610ac0575f80fd5b634e487b7160e01b5f52603260045260245ffd5b80820180821115610bab57634e487b7160e01b5f52601160045260245ffd5b92915050565b5f60a08201878352602087602085015260a0604085015281875180845260c0860191506020890193505f5b81811015610c015784516001600160a01b031683529383019391830191600101610bdc565b50506001600160a01b0396909616606085015250505060800152939250505056fea2646970667358221220d7b0a687f6552c904e7278c83640e156a80235dffe7c8bdcd6b368e632f3b66364736f6c63430008180033",
					"opcodes": "PUSH2 0x100 PUSH1 0x40 MSTORE CALLVALUE DUP1 ISZERO PUSH3 0x11 JUMPI PUSH0 DUP1 REVERT JUMPDEST POP PUSH1 0x40 MLOAD PUSH3 0xF04 CODESIZE SUB DUP1 PUSH3 0xF04 DUP4 CODECOPY DUP2 ADD PUSH1 0x40 DUP2 SWAP1 MSTORE PUSH3 0x34 SWAP2 PUSH3 0x1D3 JUMP JUMPDEST PUSH1 0x1 PUSH0 SSTORE PUSH1 0x1 PUSH1 0x1 PUSH1 0xA0 SHL SUB DUP5 AND PUSH3 0x94 JUMPI PUSH1 0x40 MLOAD PUSH3 0x461BCD PUSH1 0xE5 SHL DUP2 MSTORE PUSH1 0x20 PUSH1 0x4 DUP3 ADD MSTORE PUSH1 0x14 PUSH1 0x24 DUP3 ADD MSTORE PUSH32 0x496E76616C696420555344542061646472657373000000000000000000000000 PUSH1 0x44 DUP3 ADD MSTORE PUSH1 0x64 ADD JUMPDEST PUSH1 0x40 MLOAD DUP1 SWAP2 SUB SWAP1 REVERT JUMPDEST PUSH1 0x1 PUSH1 0x1 PUSH1 0xA0 SHL SUB DUP4 AND PUSH3 0xEC JUMPI PUSH1 0x40 MLOAD PUSH3 0x461BCD PUSH1 0xE5 SHL DUP2 MSTORE PUSH1 0x20 PUSH1 0x4 DUP3 ADD MSTORE PUSH1 0x16 PUSH1 0x24 DUP3 ADD MSTORE PUSH32 0x496E76616C696420484954424E42206164647265737300000000000000000000 PUSH1 0x44 DUP3 ADD MSTORE PUSH1 0x64 ADD PUSH3 0x8B JUMP JUMPDEST PUSH1 0x1 PUSH1 0x1 PUSH1 0xA0 SHL SUB DUP3 AND PUSH3 0x139 JUMPI PUSH1 0x40 MLOAD PUSH3 0x461BCD PUSH1 0xE5 SHL DUP2 MSTORE PUSH1 0x20 PUSH1 0x4 DUP3 ADD MSTORE PUSH1 0x12 PUSH1 0x24 DUP3 ADD MSTORE PUSH18 0x125B9D985B1A59081493D2481DD85B1B195D PUSH1 0x72 SHL PUSH1 0x44 DUP3 ADD MSTORE PUSH1 0x64 ADD PUSH3 0x8B JUMP JUMPDEST PUSH1 0x1 PUSH1 0x1 PUSH1 0xA0 SHL SUB DUP2 AND PUSH3 0x182 JUMPI PUSH1 0x40 MLOAD PUSH3 0x461BCD PUSH1 0xE5 SHL DUP2 MSTORE PUSH1 0x20 PUSH1 0x4 DUP3 ADD MSTORE PUSH1 0xE PUSH1 0x24 DUP3 ADD MSTORE PUSH14 0x24B73B30B634B2103937BABA32B9 PUSH1 0x91 SHL PUSH1 0x44 DUP3 ADD MSTORE PUSH1 0x64 ADD PUSH3 0x8B JUMP JUMPDEST PUSH1 0x1 DUP1 SLOAD PUSH1 0x1 PUSH1 0x1 PUSH1 0xA0 SHL SUB NOT AND CALLER OR SWAP1 SSTORE PUSH1 0x1 PUSH1 0x1 PUSH1 0xA0 SHL SUB SWAP4 DUP5 AND PUSH1 0x80 MSTORE SWAP2 DUP4 AND PUSH1 0xA0 MSTORE DUP3 AND PUSH1 0xC0 MSTORE AND PUSH1 0xE0 MSTORE PUSH3 0x22D JUMP JUMPDEST DUP1 MLOAD PUSH1 0x1 PUSH1 0x1 PUSH1 0xA0 SHL SUB DUP2 AND DUP2 EQ PUSH3 0x1CE JUMPI PUSH0 DUP1 REVERT JUMPDEST SWAP2 SWAP1 POP JUMP JUMPDEST PUSH0 DUP1 PUSH0 DUP1 PUSH1 0x80 DUP6 DUP8 SUB SLT ISZERO PUSH3 0x1E7 JUMPI PUSH0 DUP1 REVERT JUMPDEST PUSH3 0x1F2 DUP6 PUSH3 0x1B7 JUMP JUMPDEST SWAP4 POP PUSH3 0x202 PUSH1 0x20 DUP7 ADD PUSH3 0x1B7 JUMP JUMPDEST SWAP3 POP PUSH3 0x212 PUSH1 0x40 DUP7 ADD PUSH3 0x1B7 JUMP JUMPDEST SWAP2 POP PUSH3 0x222 PUSH1 0x60 DUP7 ADD PUSH3 0x1B7 JUMP JUMPDEST SWAP1 POP SWAP3 SWAP6 SWAP2 SWAP5 POP SWAP3 POP JUMP JUMPDEST PUSH1 0x80 MLOAD PUSH1 0xA0 MLOAD PUSH1 0xC0 MLOAD PUSH1 0xE0 MLOAD PUSH2 0xC58 PUSH3 0x2AC PUSH0 CODECOPY PUSH0 DUP2 DUP2 PUSH2 0x1F5 ADD MSTORE DUP2 DUP2 PUSH2 0x49A ADD MSTORE DUP2 DUP2 PUSH2 0x550 ADD MSTORE DUP2 DUP2 PUSH2 0x600 ADD MSTORE PUSH2 0x75A ADD MSTORE PUSH0 DUP2 DUP2 PUSH1 0xF2 ADD MSTORE PUSH2 0x784 ADD MSTORE PUSH0 DUP2 DUP2 PUSH2 0x1A3 ADD MSTORE PUSH2 0x710 ADD MSTORE PUSH0 DUP2 DUP2 PUSH1 0xA3 ADD MSTORE DUP2 DUP2 PUSH2 0x455 ADD MSTORE DUP2 DUP2 PUSH2 0x4C4 ADD MSTORE DUP2 DUP2 PUSH2 0x57E ADD MSTORE DUP2 DUP2 PUSH2 0x62F ADD MSTORE PUSH2 0x6BD ADD MSTORE PUSH2 0xC58 PUSH0 RETURN INVALID PUSH1 0x80 PUSH1 0x40 MSTORE PUSH1 0x4 CALLDATASIZE LT PUSH2 0x87 JUMPI PUSH0 CALLDATALOAD PUSH1 0xE0 SHR DUP1 PUSH4 0x8DA5CB5B GT PUSH2 0x57 JUMPI DUP1 PUSH4 0x8DA5CB5B EQ PUSH2 0x154 JUMPI DUP1 PUSH4 0xE2BBB158 EQ PUSH2 0x173 JUMPI DUP1 PUSH4 0xE8D2B571 EQ PUSH2 0x192 JUMPI DUP1 PUSH4 0xF2FDE38B EQ PUSH2 0x1C5 JUMPI DUP1 PUSH4 0xF887EA40 EQ PUSH2 0x1E4 JUMPI PUSH0 DUP1 REVERT JUMPDEST DUP1 PUSH4 0x2F48AB7D EQ PUSH2 0x92 JUMPI DUP1 PUSH4 0x42D50F19 EQ PUSH2 0xE1 JUMPI DUP1 PUSH4 0x602DB890 EQ PUSH2 0x114 JUMPI DUP1 PUSH4 0x6382D9AD EQ PUSH2 0x135 JUMPI PUSH0 DUP1 REVERT JUMPDEST CALLDATASIZE PUSH2 0x8E JUMPI STOP JUMPDEST PUSH0 DUP1 REVERT JUMPDEST CALLVALUE DUP1 ISZERO PUSH2 0x9D JUMPI PUSH0 DUP1 REVERT JUMPDEST POP PUSH2 0xC5 PUSH32 0x0 DUP2 JUMP JUMPDEST PUSH1 0x40 MLOAD PUSH1 0x1 PUSH1 0x1 PUSH1 0xA0 SHL SUB SWAP1 SWAP2 AND DUP2 MSTORE PUSH1 0x20 ADD PUSH1 0x40 MLOAD DUP1 SWAP2 SUB SWAP1 RETURN JUMPDEST CALLVALUE DUP1 ISZERO PUSH2 0xEC JUMPI PUSH0 DUP1 REVERT JUMPDEST POP PUSH2 0xC5 PUSH32 0x0 DUP2 JUMP JUMPDEST CALLVALUE DUP1 ISZERO PUSH2 0x11F JUMPI PUSH0 DUP1 REVERT JUMPDEST POP PUSH2 0x133 PUSH2 0x12E CALLDATASIZE PUSH1 0x4 PUSH2 0xAA5 JUMP JUMPDEST PUSH2 0x217 JUMP JUMPDEST STOP JUMPDEST CALLVALUE DUP1 ISZERO PUSH2 0x140 JUMPI PUSH0 DUP1 REVERT JUMPDEST POP PUSH2 0x133 PUSH2 0x14F CALLDATASIZE PUSH1 0x4 PUSH2 0xAC7 JUMP JUMPDEST PUSH2 0x304 JUMP JUMPDEST CALLVALUE DUP1 ISZERO PUSH2 0x15F JUMPI PUSH0 DUP1 REVERT JUMPDEST POP PUSH1 0x1 SLOAD PUSH2 0xC5 SWAP1 PUSH1 0x1 PUSH1 0x1 PUSH1 0xA0 SHL SUB AND DUP2 JUMP JUMPDEST CALLVALUE DUP1 ISZERO PUSH2 0x17E JUMPI PUSH0 DUP1 REVERT JUMPDEST POP PUSH2 0x133 PUSH2 0x18D CALLDATASIZE PUSH1 0x4 PUSH2 0xAFE JUMP JUMPDEST PUSH2 0x440 JUMP JUMPDEST CALLVALUE DUP1 ISZERO PUSH2 0x19D JUMPI PUSH0 DUP1 REVERT JUMPDEST POP PUSH2 0xC5 PUSH32 0x0 DUP2 JUMP JUMPDEST CALLVALUE DUP1 ISZERO PUSH2 0x1D0 JUMPI PUSH0 DUP1 REVERT JUMPDEST POP PUSH2 0x133 PUSH2 0x1DF CALLDATASIZE PUSH1 0x4 PUSH2 0xAA5 JUMP JUMPDEST PUSH2 0x84D JUMP JUMPDEST CALLVALUE DUP1 ISZERO PUSH2 0x1EF JUMPI PUSH0 DUP1 REVERT JUMPDEST POP PUSH2 0xC5 PUSH32 0x0 DUP2 JUMP JUMPDEST PUSH1 0x1 SLOAD PUSH1 0x1 PUSH1 0x1 PUSH1 0xA0 SHL SUB AND CALLER EQ PUSH2 0x24A JUMPI PUSH1 0x40 MLOAD PUSH3 0x461BCD PUSH1 0xE5 SHL DUP2 MSTORE PUSH1 0x4 ADD PUSH2 0x241 SWAP1 PUSH2 0xB1E JUMP JUMPDEST PUSH1 0x40 MLOAD DUP1 SWAP2 SUB SWAP1 REVERT JUMPDEST SELFBALANCE DUP1 PUSH2 0x289 JUMPI PUSH1 0x40 MLOAD PUSH3 0x461BCD PUSH1 0xE5 SHL DUP2 MSTORE PUSH1 0x20 PUSH1 0x4 DUP3 ADD MSTORE PUSH1 0xE PUSH1 0x24 DUP3 ADD MSTORE PUSH14 0x4E6F20424E422062616C616E6365 PUSH1 0x90 SHL PUSH1 0x44 DUP3 ADD MSTORE PUSH1 0x64 ADD PUSH2 0x241 JUMP JUMPDEST PUSH1 0x40 MLOAD PUSH1 0x1 PUSH1 0x1 PUSH1 0xA0 SHL SUB DUP4 AND SWAP1 DUP3 ISZERO PUSH2 0x8FC MUL SWAP1 DUP4 SWAP1 PUSH0 DUP2 DUP2 DUP2 DUP6 DUP9 DUP9 CALL SWAP4 POP POP POP POP ISZERO DUP1 ISZERO PUSH2 0x2BC JUMPI RETURNDATASIZE PUSH0 DUP1 RETURNDATACOPY RETURNDATASIZE PUSH0 REVERT JUMPDEST POP DUP2 PUSH1 0x1 PUSH1 0x1 PUSH1 0xA0 SHL SUB AND PUSH32 0x91045E6E748CA8A27B6E2281F519ACAEEC9D1C9B38A4F5003A630C2BC2FB9689 DUP3 PUSH1 0x40 MLOAD PUSH2 0x2F8 SWAP2 DUP2 MSTORE PUSH1 0x20 ADD SWAP1 JUMP JUMPDEST PUSH1 0x40 MLOAD DUP1 SWAP2 SUB SWAP1 LOG2 POP POP JUMP JUMPDEST PUSH1 0x1 SLOAD PUSH1 0x1 PUSH1 0x1 PUSH1 0xA0 SHL SUB AND CALLER EQ PUSH2 0x32E JUMPI PUSH1 0x40 MLOAD PUSH3 0x461BCD PUSH1 0xE5 SHL DUP2 MSTORE PUSH1 0x4 ADD PUSH2 0x241 SWAP1 PUSH2 0xB1E JUMP JUMPDEST PUSH1 0x40 MLOAD PUSH4 0x70A08231 PUSH1 0xE0 SHL DUP2 MSTORE ADDRESS PUSH1 0x4 DUP3 ADD MSTORE PUSH0 SWAP1 PUSH1 0x1 PUSH1 0x1 PUSH1 0xA0 SHL SUB DUP5 AND SWAP1 PUSH4 0x70A08231 SWAP1 PUSH1 0x24 ADD PUSH1 0x20 PUSH1 0x40 MLOAD DUP1 DUP4 SUB DUP2 DUP7 GAS STATICCALL ISZERO DUP1 ISZERO PUSH2 0x372 JUMPI RETURNDATASIZE PUSH0 DUP1 RETURNDATACOPY RETURNDATASIZE PUSH0 REVERT JUMPDEST POP POP POP POP PUSH1 0x40 MLOAD RETURNDATASIZE PUSH1 0x1F NOT PUSH1 0x1F DUP3 ADD AND DUP3 ADD DUP1 PUSH1 0x40 MSTORE POP DUP2 ADD SWAP1 PUSH2 0x396 SWAP2 SWAP1 PUSH2 0xB42 JUMP JUMPDEST SWAP1 POP PUSH0 DUP2 GT PUSH2 0x3DA JUMPI PUSH1 0x40 MLOAD PUSH3 0x461BCD PUSH1 0xE5 SHL DUP2 MSTORE PUSH1 0x20 PUSH1 0x4 DUP3 ADD MSTORE PUSH1 0x10 PUSH1 0x24 DUP3 ADD MSTORE PUSH16 0x4E6F20746F6B656E2062616C616E6365 PUSH1 0x80 SHL PUSH1 0x44 DUP3 ADD MSTORE PUSH1 0x64 ADD PUSH2 0x241 JUMP JUMPDEST PUSH2 0x3EE PUSH1 0x1 PUSH1 0x1 PUSH1 0xA0 SHL SUB DUP5 AND DUP4 DUP4 PUSH2 0x928 JUMP JUMPDEST DUP2 PUSH1 0x1 PUSH1 0x1 PUSH1 0xA0 SHL SUB AND DUP4 PUSH1 0x1 PUSH1 0x1 PUSH1 0xA0 SHL SUB AND PUSH32 0xF24EF89F38EADC1BDE50701AD6E4D6D11A2DC24F7CF834A486991F3883328504 DUP4 PUSH1 0x40 MLOAD PUSH2 0x433 SWAP2 DUP2 MSTORE PUSH1 0x20 ADD SWAP1 JUMP JUMPDEST PUSH1 0x40 MLOAD DUP1 SWAP2 SUB SWAP1 LOG3 POP POP POP JUMP JUMPDEST PUSH2 0x448 PUSH2 0x98C JUMP JUMPDEST PUSH2 0x47D PUSH1 0x1 PUSH1 0x1 PUSH1 0xA0 SHL SUB PUSH32 0x0 AND CALLER ADDRESS DUP6 PUSH2 0x9E3 JUMP JUMPDEST PUSH1 0x40 MLOAD PUSH4 0x6EB1769F PUSH1 0xE1 SHL DUP2 MSTORE ADDRESS PUSH1 0x4 DUP3 ADD MSTORE PUSH1 0x1 PUSH1 0x1 PUSH1 0xA0 SHL SUB PUSH32 0x0 DUP2 AND PUSH1 0x24 DUP4 ADD MSTORE PUSH0 SWAP2 PUSH32 0x0 SWAP1 SWAP2 AND SWAP1 PUSH4 0xDD62ED3E SWAP1 PUSH1 0x44 ADD PUSH1 0x20 PUSH1 0x40 MLOAD DUP1 DUP4 SUB DUP2 DUP7 GAS STATICCALL ISZERO DUP1 ISZERO PUSH2 0x50B JUMPI RETURNDATASIZE PUSH0 DUP1 RETURNDATACOPY RETURNDATASIZE PUSH0 REVERT JUMPDEST POP POP POP POP PUSH1 0x40 MLOAD RETURNDATASIZE PUSH1 0x1F NOT PUSH1 0x1F DUP3 ADD AND DUP3 ADD DUP1 PUSH1 0x40 MSTORE POP DUP2 ADD SWAP1 PUSH2 0x52F SWAP2 SWAP1 PUSH2 0xB42 JUMP JUMPDEST SWAP1 POP DUP3 DUP2 LT ISZERO PUSH2 0x69B JUMPI PUSH1 0x40 MLOAD PUSH4 0x95EA7B3 PUSH1 0xE0 SHL DUP2 MSTORE PUSH1 0x1 PUSH1 0x1 PUSH1 0xA0 SHL SUB PUSH32 0x0 DUP2 AND PUSH1 0x4 DUP4 ADD MSTORE PUSH0 PUSH1 0x24 DUP4 ADD MSTORE PUSH32 0x0 AND SWAP1 PUSH4 0x95EA7B3 SWAP1 PUSH1 0x44 ADD PUSH1 0x20 PUSH1 0x40 MLOAD DUP1 DUP4 SUB DUP2 PUSH0 DUP8 GAS CALL ISZERO DUP1 ISZERO PUSH2 0x5C4 JUMPI RETURNDATASIZE PUSH0 DUP1 RETURNDATACOPY RETURNDATASIZE PUSH0 REVERT JUMPDEST POP POP POP POP PUSH1 0x40 MLOAD RETURNDATASIZE PUSH1 0x1F NOT PUSH1 0x1F DUP3 ADD AND DUP3 ADD DUP1 PUSH1 0x40 MSTORE POP DUP2 ADD SWAP1 PUSH2 0x5E8 SWAP2 SWAP1 PUSH2 0xB59 JUMP JUMPDEST POP PUSH1 0x40 MLOAD PUSH4 0x95EA7B3 PUSH1 0xE0 SHL DUP2 MSTORE PUSH1 0x1 PUSH1 0x1 PUSH1 0xA0 SHL SUB PUSH32 0x0 DUP2 AND PUSH1 0x4 DUP4 ADD MSTORE PUSH0 NOT PUSH1 0x24 DUP4 ADD MSTORE PUSH32 0x0 AND SWAP1 PUSH4 0x95EA7B3 SWAP1 PUSH1 0x44 ADD PUSH1 0x20 PUSH1 0x40 MLOAD DUP1 DUP4 SUB DUP2 PUSH0 DUP8 GAS CALL ISZERO DUP1 ISZERO PUSH2 0x675 JUMPI RETURNDATASIZE PUSH0 DUP1 RETURNDATACOPY RETURNDATASIZE PUSH0 REVERT JUMPDEST POP POP POP POP PUSH1 0x40 MLOAD RETURNDATASIZE PUSH1 0x1F NOT PUSH1 0x1F DUP3 ADD AND DUP3 ADD DUP1 PUSH1 0x40 MSTORE POP DUP2 ADD SWAP1 PUSH2 0x699 SWAP2 SWAP1 PUSH2 0xB59 JUMP JUMPDEST POP JUMPDEST PUSH1 0x40 DUP1 MLOAD PUSH1 0x2 DUP1 DUP3 MSTORE PUSH1 0x60 DUP3 ADD DUP4 MSTORE PUSH0 SWAP3 PUSH1 0x20 DUP4 ADD SWAP1 DUP1 CALLDATASIZE DUP4 CALLDATACOPY ADD SWAP1 POP POP SWAP1 POP PUSH32 0x0 DUP2 PUSH0 DUP2 MLOAD DUP2 LT PUSH2 0x6EE JUMPI PUSH2 0x6EE PUSH2 0xB78 JUMP JUMPDEST PUSH1 0x20 MUL PUSH1 0x20 ADD ADD SWAP1 PUSH1 0x1 PUSH1 0x1 PUSH1 0xA0 SHL SUB AND SWAP1 DUP2 PUSH1 0x1 PUSH1 0x1 PUSH1 0xA0 SHL SUB AND DUP2 MSTORE POP POP PUSH32 0x0 DUP2 PUSH1 0x1 DUP2 MLOAD DUP2 LT PUSH2 0x742 JUMPI PUSH2 0x742 PUSH2 0xB78 JUMP JUMPDEST PUSH1 0x1 PUSH1 0x1 PUSH1 0xA0 SHL SUB SWAP3 DUP4 AND PUSH1 0x20 SWAP2 DUP3 MUL SWAP3 SWAP1 SWAP3 ADD ADD MSTORE PUSH32 0x0 AND PUSH4 0x5C11D795 DUP6 DUP6 DUP5 PUSH32 0x0 PUSH2 0x7AF TIMESTAMP PUSH2 0x12C PUSH2 0xB8C JUMP JUMPDEST PUSH1 0x40 MLOAD DUP7 PUSH4 0xFFFFFFFF AND PUSH1 0xE0 SHL DUP2 MSTORE PUSH1 0x4 ADD PUSH2 0x7CF SWAP6 SWAP5 SWAP4 SWAP3 SWAP2 SWAP1 PUSH2 0xBB1 JUMP JUMPDEST PUSH0 PUSH1 0x40 MLOAD DUP1 DUP4 SUB DUP2 PUSH0 DUP8 DUP1 EXTCODESIZE ISZERO DUP1 ISZERO PUSH2 0x7E6 JUMPI PUSH0 DUP1 REVERT JUMPDEST POP GAS CALL ISZERO DUP1 ISZERO PUSH2 0x7F8 JUMPI RETURNDATASIZE PUSH0 DUP1 RETURNDATACOPY RETURNDATASIZE PUSH0 REVERT JUMPDEST POP POP PUSH1 0x40 DUP1 MLOAD DUP8 DUP2 MSTORE PUSH1 0x20 DUP2 ADD DUP8 SWAP1 MSTORE TIMESTAMP DUP2 DUP4 ADD MSTORE SWAP1 MLOAD CALLER SWAP4 POP PUSH32 0xD0DFDC42F329395B5B942C700951E54F587BD4BB1F893019DD09D857C2B5AD7F SWAP3 POP SWAP1 DUP2 SWAP1 SUB PUSH1 0x60 ADD SWAP1 LOG2 POP POP PUSH2 0x849 PUSH1 0x1 PUSH0 SSTORE JUMP JUMPDEST POP POP JUMP JUMPDEST PUSH1 0x1 SLOAD PUSH1 0x1 PUSH1 0x1 PUSH1 0xA0 SHL SUB AND CALLER EQ PUSH2 0x877 JUMPI PUSH1 0x40 MLOAD PUSH3 0x461BCD PUSH1 0xE5 SHL DUP2 MSTORE PUSH1 0x4 ADD PUSH2 0x241 SWAP1 PUSH2 0xB1E JUMP JUMPDEST PUSH1 0x1 PUSH1 0x1 PUSH1 0xA0 SHL SUB DUP2 AND PUSH2 0x8CD JUMPI PUSH1 0x40 MLOAD PUSH3 0x461BCD PUSH1 0xE5 SHL DUP2 MSTORE PUSH1 0x20 PUSH1 0x4 DUP3 ADD MSTORE PUSH1 0x19 PUSH1 0x24 DUP3 ADD MSTORE PUSH32 0x4E6577206F776E6572206973207A65726F206164647265737300000000000000 PUSH1 0x44 DUP3 ADD MSTORE PUSH1 0x64 ADD PUSH2 0x241 JUMP JUMPDEST PUSH1 0x1 SLOAD PUSH1 0x40 MLOAD PUSH1 0x1 PUSH1 0x1 PUSH1 0xA0 SHL SUB DUP1 DUP5 AND SWAP3 AND SWAP1 PUSH32 0x8BE0079C531659141344CD1FD0A4F28419497F9722A3DAAFE3B4186F6B6457E0 SWAP1 PUSH0 SWAP1 LOG3 PUSH1 0x1 DUP1 SLOAD PUSH1 0x1 PUSH1 0x1 PUSH1 0xA0 SHL SUB NOT AND PUSH1 0x1 PUSH1 0x1 PUSH1 0xA0 SHL SUB SWAP3 SWAP1 SWAP3 AND SWAP2 SWAP1 SWAP2 OR SWAP1 SSTORE JUMP JUMPDEST PUSH1 0x40 MLOAD PUSH1 0x1 PUSH1 0x1 PUSH1 0xA0 SHL SUB DUP4 DUP2 AND PUSH1 0x24 DUP4 ADD MSTORE PUSH1 0x44 DUP3 ADD DUP4 SWAP1 MSTORE PUSH2 0x987 SWAP2 DUP6 SWAP2 DUP3 AND SWAP1 PUSH4 0xA9059CBB SWAP1 PUSH1 0x64 ADD JUMPDEST PUSH1 0x40 MLOAD PUSH1 0x20 DUP2 DUP4 SUB SUB DUP2 MSTORE SWAP1 PUSH1 0x40 MSTORE SWAP2 POP PUSH1 0xE0 SHL PUSH1 0x20 DUP3 ADD DUP1 MLOAD PUSH1 0x1 PUSH1 0x1 PUSH1 0xE0 SHL SUB DUP4 DUP2 DUP4 AND OR DUP4 MSTORE POP POP POP POP PUSH2 0xA22 JUMP JUMPDEST POP POP POP JUMP JUMPDEST PUSH1 0x2 PUSH0 SLOAD SUB PUSH2 0x9DD JUMPI PUSH1 0x40 MLOAD PUSH3 0x461BCD PUSH1 0xE5 SHL DUP2 MSTORE PUSH1 0x20 PUSH1 0x4 DUP3 ADD MSTORE PUSH1 0x1F PUSH1 0x24 DUP3 ADD MSTORE PUSH32 0x5265656E7472616E637947756172643A207265656E7472616E742063616C6C00 PUSH1 0x44 DUP3 ADD MSTORE PUSH1 0x64 ADD PUSH2 0x241 JUMP JUMPDEST PUSH1 0x2 PUSH0 SSTORE JUMP JUMPDEST PUSH1 0x40 MLOAD PUSH1 0x1 PUSH1 0x1 PUSH1 0xA0 SHL SUB DUP5 DUP2 AND PUSH1 0x24 DUP4 ADD MSTORE DUP4 DUP2 AND PUSH1 0x44 DUP4 ADD MSTORE PUSH1 0x64 DUP3 ADD DUP4 SWAP1 MSTORE PUSH2 0xA1C SWAP2 DUP7 SWAP2 DUP3 AND SWAP1 PUSH4 0x23B872DD SWAP1 PUSH1 0x84 ADD PUSH2 0x955 JUMP JUMPDEST POP POP POP POP JUMP JUMPDEST PUSH0 DUP1 PUSH1 0x20 PUSH0 DUP5 MLOAD PUSH1 0x20 DUP7 ADD PUSH0 DUP9 GAS CALL DUP1 PUSH2 0xA41 JUMPI PUSH1 0x40 MLOAD RETURNDATASIZE PUSH0 DUP3 RETURNDATACOPY RETURNDATASIZE DUP2 REVERT JUMPDEST POP POP PUSH0 MLOAD RETURNDATASIZE SWAP2 POP DUP2 ISZERO PUSH2 0xA58 JUMPI DUP1 PUSH1 0x1 EQ ISZERO PUSH2 0xA65 JUMP JUMPDEST PUSH1 0x1 PUSH1 0x1 PUSH1 0xA0 SHL SUB DUP5 AND EXTCODESIZE ISZERO JUMPDEST ISZERO PUSH2 0xA1C JUMPI PUSH1 0x40 MLOAD PUSH4 0x5274AFE7 PUSH1 0xE0 SHL DUP2 MSTORE PUSH1 0x1 PUSH1 0x1 PUSH1 0xA0 SHL SUB DUP6 AND PUSH1 0x4 DUP3 ADD MSTORE PUSH1 0x24 ADD PUSH2 0x241 JUMP JUMPDEST PUSH1 0x1 PUSH1 0x1 PUSH1 0xA0 SHL SUB DUP2 AND DUP2 EQ PUSH2 0xAA2 JUMPI PUSH0 DUP1 REVERT JUMPDEST POP JUMP JUMPDEST PUSH0 PUSH1 0x20 DUP3 DUP5 SUB SLT ISZERO PUSH2 0xAB5 JUMPI PUSH0 DUP1 REVERT JUMPDEST DUP2 CALLDATALOAD PUSH2 0xAC0 DUP2 PUSH2 0xA8E JUMP JUMPDEST SWAP4 SWAP3 POP POP POP JUMP JUMPDEST PUSH0 DUP1 PUSH1 0x40 DUP4 DUP6 SUB SLT ISZERO PUSH2 0xAD8 JUMPI PUSH0 DUP1 REVERT JUMPDEST DUP3 CALLDATALOAD PUSH2 0xAE3 DUP2 PUSH2 0xA8E JUMP JUMPDEST SWAP2 POP PUSH1 0x20 DUP4 ADD CALLDATALOAD PUSH2 0xAF3 DUP2 PUSH2 0xA8E JUMP JUMPDEST DUP1 SWAP2 POP POP SWAP3 POP SWAP3 SWAP1 POP JUMP JUMPDEST PUSH0 DUP1 PUSH1 0x40 DUP4 DUP6 SUB SLT ISZERO PUSH2 0xB0F JUMPI PUSH0 DUP1 REVERT JUMPDEST POP POP DUP1 CALLDATALOAD SWAP3 PUSH1 0x20 SWAP1 SWAP2 ADD CALLDATALOAD SWAP2 POP JUMP JUMPDEST PUSH1 0x20 DUP1 DUP3 MSTORE PUSH1 0xA SWAP1 DUP3 ADD MSTORE PUSH10 0x27B7363C9037BBB732B9 PUSH1 0xB1 SHL PUSH1 0x40 DUP3 ADD MSTORE PUSH1 0x60 ADD SWAP1 JUMP JUMPDEST PUSH0 PUSH1 0x20 DUP3 DUP5 SUB SLT ISZERO PUSH2 0xB52 JUMPI PUSH0 DUP1 REVERT JUMPDEST POP MLOAD SWAP2 SWAP1 POP JUMP JUMPDEST PUSH0 PUSH1 0x20 DUP3 DUP5 SUB SLT ISZERO PUSH2 0xB69 JUMPI PUSH0 DUP1 REVERT JUMPDEST DUP2 MLOAD DUP1 ISZERO ISZERO DUP2 EQ PUSH2 0xAC0 JUMPI PUSH0 DUP1 REVERT JUMPDEST PUSH4 0x4E487B71 PUSH1 0xE0 SHL PUSH0 MSTORE PUSH1 0x32 PUSH1 0x4 MSTORE PUSH1 0x24 PUSH0 REVERT JUMPDEST DUP1 DUP3 ADD DUP1 DUP3 GT ISZERO PUSH2 0xBAB JUMPI PUSH4 0x4E487B71 PUSH1 0xE0 SHL PUSH0 MSTORE PUSH1 0x11 PUSH1 0x4 MSTORE PUSH1 0x24 PUSH0 REVERT JUMPDEST SWAP3 SWAP2 POP POP JUMP JUMPDEST PUSH0 PUSH1 0xA0 DUP3 ADD DUP8 DUP4 MSTORE PUSH1 0x20 DUP8 PUSH1 0x20 DUP6 ADD MSTORE PUSH1 0xA0 PUSH1 0x40 DUP6 ADD MSTORE DUP2 DUP8 MLOAD DUP1 DUP5 MSTORE PUSH1 0xC0 DUP7 ADD SWAP2 POP PUSH1 0x20 DUP10 ADD SWAP4 POP PUSH0 JUMPDEST DUP2 DUP2 LT ISZERO PUSH2 0xC01 JUMPI DUP5 MLOAD PUSH1 0x1 PUSH1 0x1 PUSH1 0xA0 SHL SUB AND DUP4 MSTORE SWAP4 DUP4 ADD SWAP4 SWAP2 DUP4 ADD SWAP2 PUSH1 0x1 ADD PUSH2 0xBDC JUMP JUMPDEST POP POP PUSH1 0x1 PUSH1 0x1 PUSH1 0xA0 SHL SUB SWAP7 SWAP1 SWAP7 AND PUSH1 0x60 DUP6 ADD MSTORE POP POP POP PUSH1 0x80 ADD MSTORE SWAP4 SWAP3 POP POP POP JUMP INVALID LOG2 PUSH5 0x6970667358 0x22 SLT KECCAK256 0xD7 0xB0 0xA6 DUP8 0xF6 SSTORE 0x2C SWAP1 0x4E PUSH19 0x78C83640E156A80235DFFE7C8BDCD6B368E632 RETURN 0xB6 PUSH4 0x64736F6C PUSH4 0x43000818 STOP CALLER "
				},
				"gasEstimates": {
					"creation": {
						"codeDepositCost": "632000",
						"executionCost": "infinite",
						"totalCost": "infinite"
					},
					"external": {
						"deposit(uint256,uint256)": "infinite",
						"emergencyWithdraw(address,address)": "infinite",
						"emergencyWithdrawBNB(address)": "infinite",
						"hitbnb()": "infinite",
						"owner()": "2324",
						"roiWallet()": "infinite",
						"router()": "infinite",
						"transferOwnership(address)": "30457",
						"usdt()": "infinite"
					}
				},
				"methodIdentifiers": {
					"deposit(uint256,uint256)": "e2bbb158",
					"emergencyWithdraw(address,address)": "6382d9ad",
					"emergencyWithdrawBNB(address)": "602db890",
					"hitbnb()": "e8d2b571",
					"owner()": "8da5cb5b",
					"roiWallet()": "42d50f19",
					"router()": "f887ea40",
					"transferOwnership(address)": "f2fde38b",
					"usdt()": "2f48ab7d"
				}
			},
			"storageLayout": {
				"storage": [
					{
						"astId": 636,
						"contract": "contract/HITBNBBuyer_V2_flattened.sol:HITBNBBuyer",
						"label": "_status",
						"offset": 0,
						"slot": "0",
						"type": "t_uint256"
					},
					{
						"astId": 714,
						"contract": "contract/HITBNBBuyer_V2_flattened.sol:HITBNBBuyer",
						"label": "owner",
						"offset": 0,
						"slot": "1",
						"type": "t_address"
					}
				],
				"types": {
					"t_address": {
						"encoding": "inplace",
						"label": "address",
						"numberOfBytes": "20"
					},
					"t_uint256": {
						"encoding": "inplace",
						"label": "uint256",
						"numberOfBytes": "32"
					}
				}
			},
			"userdoc": {
				"kind": "user",
				"methods": {},
				"version": 1
			}
		}
	}
}