{
	"contract/HITBNBBuyer_V3.2.sol": {
		"AutoSwapHITBNB": {
			"abi": [
				{
					"inputs": [
						{
							"internalType": "address",
							"name": "_hitbnbAddress",
							"type": "address"
						},
						{
							"internalType": "address",
							"name": "_roiWallet",
							"type": "address"
						}
					],
					"stateMutability": "nonpayable",
					"type": "constructor"
				},
				{
					"anonymous": false,
					"inputs": [
						{
							"indexed": true,
							"internalType": "address",
							"name": "user",
							"type": "address"
						},
						{
							"indexed": false,
							"internalType": "uint256",
							"name": "usdtAmount",
							"type": "uint256"
						},
						{
							"indexed": false,
							"internalType": "uint256",
							"name": "hitbnbReceived",
							"type": "uint256"
						}
					],
					"name": "DepositedAndSwapped",
					"type": "event"
				},
				{
					"inputs": [],
					"name": "USDT",
					"outputs": [
						{
							"internalType": "address",
							"name": "",
							"type": "address"
						}
					],
					"stateMutability": "view",
					"type": "function"
				},
				{
					"inputs": [
						{
							"internalType": "uint256",
							"name": "amount",
							"type": "uint256"
						}
					],
					"name": "depositAndSwap",
					"outputs": [],
					"stateMutability": "nonpayable",
					"type": "function"
				},
				{
					"inputs": [],
					"name": "hitbnbAddress",
					"outputs": [
						{
							"internalType": "address",
							"name": "",
							"type": "address"
						}
					],
					"stateMutability": "view",
					"type": "function"
				},
				{
					"inputs": [],
					"name": "manualTransferHITBNB",
					"outputs": [],
					"stateMutability": "nonpayable",
					"type": "function"
				},
				{
					"inputs": [],
					"name": "owner",
					"outputs": [
						{
							"internalType": "address",
							"name": "",
							"type": "address"
						}
					],
					"stateMutability": "view",
					"type": "function"
				},
				{
					"inputs": [],
					"name": "pancakeRouter",
					"outputs": [
						{
							"internalType": "contract IPancakeRouter",
							"name": "",
							"type": "address"
						}
					],
					"stateMutability": "view",
					"type": "function"
				},
				{
					"inputs": [
						{
							"internalType": "address",
							"name": "tokenAddress",
							"type": "address"
						}
					],
					"name": "recoverERC20",
					"outputs": [],
					"stateMutability": "nonpayable",
					"type": "function"
				},
				{
					"inputs": [],
					"name": "roiWallet",
					"outputs": [
						{
							"internalType": "address",
							"name": "",
							"type": "address"
						}
					],
					"stateMutability": "view",
					"type": "function"
				},
				{
					"inputs": [
						{
							"internalType": "address",
							"name": "_roiWallet",
							"type": "address"
						}
					],
					"name": "updateROIWallet",
					"outputs": [],
					"stateMutability": "nonpayable",
					"type": "function"
				},
				{
					"inputs": [
						{
							"internalType": "address",
							"name": "_hitbnbAddress",
							"type": "address"
						}
					],
					"name": "updateTokenAddresses",
					"outputs": [],
					"stateMutability": "nonpayable",
					"type": "function"
				}
			],
			"devdoc": {
				"kind": "dev",
				"methods": {},
				"version": 1
			},
			"evm": {
				"assembly": "    /* \"contract/HITBNBBuyer_V3.2.sol\":767:3720  contract AutoSwapHITBNB {... */\n  mstore(0x40, 0x80)\n    /* \"contract/HITBNBBuyer_V3.2.sol\":1302:1469  constructor(address _hitbnbAddress, address _roiWallet) {... */\n  callvalue\n  dup1\n  iszero\n  tag_1\n  jumpi\n  0x00\n  dup1\n  revert\ntag_1:\n  pop\n  mload(0x40)\n  sub(codesize, bytecodeSize)\n  dup1\n  bytecodeSize\n  dup4\n  codecopy\n  dup2\n  add\n  0x40\n  dup2\n  swap1\n  mstore\n  tag_2\n  swap2\n  tag_3\n  jump\t// in\ntag_2:\n    /* \"contract/HITBNBBuyer_V3.2.sol\":1369:1382  hitbnbAddress */\n  0x00\n    /* \"contract/HITBNBBuyer_V3.2.sol\":1369:1399  hitbnbAddress = _hitbnbAddress */\n  dup1\n  sload\n  sub(shl(0xa0, 0x01), 0x01)\n  swap4\n  dup5\n  and\n  not(sub(shl(0xa0, 0x01), 0x01))\n  swap2\n  dup3\n  and\n  or\n  swap1\n  swap2\n  sstore\n    /* \"contract/HITBNBBuyer_V3.2.sol\":1410:1419  roiWallet */\n  0x02\n    /* \"contract/HITBNBBuyer_V3.2.sol\":1410:1432  roiWallet = _roiWallet */\n  dup1\n  sload\n  swap3\n  swap1\n  swap4\n  and\n  swap2\n  dup2\n  and\n  swap2\n  swap1\n  swap2\n  or\n  swap1\n  swap2\n  sstore\n    /* \"contract/HITBNBBuyer_V3.2.sol\":1369:1399  hitbnbAddress = _hitbnbAddress */\n  0x01\n    /* \"contract/HITBNBBuyer_V3.2.sol\":1443:1461  owner = msg.sender */\n  dup1\n  sload\n  swap1\n  swap2\n  and\n    /* \"contract/HITBNBBuyer_V3.2.sol\":1451:1461  msg.sender */\n  caller\n    /* \"contract/HITBNBBuyer_V3.2.sol\":1443:1461  owner = msg.sender */\n  or\n  swap1\n  sstore\n    /* \"contract/HITBNBBuyer_V3.2.sol\":767:3720  contract AutoSwapHITBNB {... */\n  jump(tag_8)\n    /* \"#utility.yul\":14:191   */\ntag_7:\n    /* \"#utility.yul\":93:106   */\n  dup1\n  mload\n  sub(shl(0xa0, 0x01), 0x01)\n    /* \"#utility.yul\":135:166   */\n  dup2\n  and\n    /* \"#utility.yul\":125:167   */\n  dup2\n  eq\n    /* \"#utility.yul\":115:185   */\n  tag_10\n  jumpi\n    /* \"#utility.yul\":181:182   */\n  0x00\n    /* \"#utility.yul\":178:179   */\n  dup1\n    /* \"#utility.yul\":171:183   */\n  revert\n    /* \"#utility.yul\":115:185   */\ntag_10:\n    /* \"#utility.yul\":14:191   */\n  swap2\n  swap1\n  pop\n  jump\t// out\n    /* \"#utility.yul\":196:489   */\ntag_3:\n    /* \"#utility.yul\":275:281   */\n  0x00\n    /* \"#utility.yul\":283:289   */\n  dup1\n    /* \"#utility.yul\":336:338   */\n  0x40\n    /* \"#utility.yul\":324:333   */\n  dup4\n    /* \"#utility.yul\":315:322   */\n  dup6\n    /* \"#utility.yul\":311:334   */\n  sub\n    /* \"#utility.yul\":307:339   */\n  slt\n    /* \"#utility.yul\":304:356   */\n  iszero\n  tag_12\n  jumpi\n    /* \"#utility.yul\":352:353   */\n  0x00\n    /* \"#utility.yul\":349:350   */\n  dup1\n    /* \"#utility.yul\":342:354   */\n  revert\n    /* \"#utility.yul\":304:356   */\ntag_12:\n    /* \"#utility.yul\":375:415   */\n  tag_13\n    /* \"#utility.yul\":405:414   */\n  dup4\n    /* \"#utility.yul\":375:415   */\n  tag_7\n  jump\t// in\ntag_13:\n    /* \"#utility.yul\":365:415   */\n  swap2\n  pop\n    /* \"#utility.yul\":434:483   */\n  tag_14\n    /* \"#utility.yul\":479:481   */\n  0x20\n    /* \"#utility.yul\":468:477   */\n  dup5\n    /* \"#utility.yul\":464:482   */\n  add\n    /* \"#utility.yul\":434:483   */\n  tag_7\n  jump\t// in\ntag_14:\n    /* \"#utility.yul\":424:483   */\n  swap1\n  pop\n    /* \"#utility.yul\":196:489   */\n  swap3\n  pop\n  swap3\n  swap1\n  pop\n  jump\t// out\ntag_8:\n    /* \"contract/HITBNBBuyer_V3.2.sol\":767:3720  contract AutoSwapHITBNB {... */\n  dataSize(sub_0)\n  dup1\n  dataOffset(sub_0)\n  0x00\n  codecopy\n  0x00\n  return\nstop\n\nsub_0: assembly {\n        /* \"contract/HITBNBBuyer_V3.2.sol\":767:3720  contract AutoSwapHITBNB {... */\n      mstore(0x40, 0x80)\n      callvalue\n      dup1\n      iszero\n      tag_1\n      jumpi\n      0x00\n      dup1\n      revert\n    tag_1:\n      pop\n      jumpi(tag_2, lt(calldatasize, 0x04))\n      shr(0xe0, calldataload(0x00))\n      dup1\n      0x9b7f4e29\n      gt\n      tag_13\n      jumpi\n      dup1\n      0x9b7f4e29\n      eq\n      tag_8\n      jumpi\n      dup1\n      0x9c406f94\n      eq\n      tag_9\n      jumpi\n      dup1\n      0x9e8c708e\n      eq\n      tag_10\n      jumpi\n      dup1\n      0xc21ebd07\n      eq\n      tag_11\n      jumpi\n      dup1\n      0xc54e44eb\n      eq\n      tag_12\n      jumpi\n      0x00\n      dup1\n      revert\n    tag_13:\n      dup1\n      0x225fc38d\n      eq\n      tag_3\n      jumpi\n      dup1\n      0x3fa2a5f0\n      eq\n      tag_4\n      jumpi\n      dup1\n      0x42d50f19\n      eq\n      tag_5\n      jumpi\n      dup1\n      0x8da5cb5b\n      eq\n      tag_6\n      jumpi\n      dup1\n      0x93feb8a9\n      eq\n      tag_7\n      jumpi\n    tag_2:\n      0x00\n      dup1\n      revert\n        /* \"contract/HITBNBBuyer_V3.2.sol\":890:918  address public hitbnbAddress */\n    tag_3:\n      sload(0x00)\n      tag_14\n      swap1\n      sub(shl(0xa0, 0x01), 0x01)\n      and\n      dup2\n      jump\n    tag_14:\n      mload(0x40)\n      sub(shl(0xa0, 0x01), 0x01)\n        /* \"#utility.yul\":178:210   */\n      swap1\n      swap2\n      and\n        /* \"#utility.yul\":160:211   */\n      dup2\n      mstore\n        /* \"#utility.yul\":148:150   */\n      0x20\n        /* \"#utility.yul\":133:151   */\n      add\n        /* \"contract/HITBNBBuyer_V3.2.sol\":890:918  address public hitbnbAddress */\n      mload(0x40)\n      dup1\n      swap2\n      sub\n      swap1\n      return\n        /* \"contract/HITBNBBuyer_V3.2.sol\":3158:3280  function updateTokenAddresses(address _hitbnbAddress) external onlyOwner {... */\n    tag_4:\n      tag_18\n      tag_19\n      calldatasize\n      0x04\n      tag_20\n      jump\t// in\n    tag_19:\n      tag_21\n      jump\t// in\n    tag_18:\n      stop\n        /* \"contract/HITBNBBuyer_V3.2.sol\":952:976  address public roiWallet */\n    tag_5:\n      sload(0x02)\n      tag_14\n      swap1\n      sub(shl(0xa0, 0x01), 0x01)\n      and\n      dup2\n      jump\n        /* \"contract/HITBNBBuyer_V3.2.sol\":925:945  address public owner */\n    tag_6:\n      sload(0x01)\n      tag_14\n      swap1\n      sub(shl(0xa0, 0x01), 0x01)\n      and\n      dup2\n      jump\n        /* \"contract/HITBNBBuyer_V3.2.sol\":2851:3126  function manualTransferHITBNB() external onlyOwner {... */\n    tag_7:\n      tag_18\n      tag_29\n      jump\t// in\n        /* \"contract/HITBNBBuyer_V3.2.sol\":3288:3393  function updateROIWallet(address _roiWallet) external onlyOwner {... */\n    tag_8:\n      tag_18\n      tag_31\n      calldatasize\n      0x04\n      tag_20\n      jump\t// in\n    tag_31:\n      tag_32\n      jump\t// in\n        /* \"contract/HITBNBBuyer_V3.2.sol\":1552:2794  function depositAndSwap(uint256 amount) external {... */\n    tag_9:\n      tag_18\n      tag_34\n      calldatasize\n      0x04\n      tag_35\n      jump\t// in\n    tag_34:\n      tag_36\n      jump\t// in\n        /* \"contract/HITBNBBuyer_V3.2.sol\":3442:3717  function recoverERC20(address tokenAddress) external onlyOwner {... */\n    tag_10:\n      tag_18\n      tag_38\n      calldatasize\n      0x04\n      tag_20\n      jump\t// in\n    tag_38:\n      tag_39\n      jump\t// in\n        /* \"contract/HITBNBBuyer_V3.2.sol\":983:1088  IPancakeRouter public constant pancakeRouter = IPancakeRouter(0x10ED43C718714eb63d5aA57B78B54704E256024E) */\n    tag_11:\n      tag_14\n        /* \"contract/HITBNBBuyer_V3.2.sol\":1045:1087  0x10ED43C718714eb63d5aA57B78B54704E256024E */\n      0x10ed43c718714eb63d5aa57b78b54704e256024e\n        /* \"contract/HITBNBBuyer_V3.2.sol\":983:1088  IPancakeRouter public constant pancakeRouter = IPancakeRouter(0x10ED43C718714eb63d5aA57B78B54704E256024E) */\n      dup2\n      jump\n        /* \"contract/HITBNBBuyer_V3.2.sol\":798:871  address public constant USDT = 0x55d398326f99059fF775485246999027B3197955 */\n    tag_12:\n      tag_14\n        /* \"contract/HITBNBBuyer_V3.2.sol\":829:871  0x55d398326f99059fF775485246999027B3197955 */\n      0x55d398326f99059ff775485246999027b3197955\n        /* \"contract/HITBNBBuyer_V3.2.sol\":798:871  address public constant USDT = 0x55d398326f99059fF775485246999027B3197955 */\n      dup2\n      jump\n        /* \"contract/HITBNBBuyer_V3.2.sol\":3158:3280  function updateTokenAddresses(address _hitbnbAddress) external onlyOwner {... */\n    tag_21:\n        /* \"contract/HITBNBBuyer_V3.2.sol\":1255:1260  owner */\n      and(sub(shl(0xa0, 0x01), 0x01), sload(0x01))\n        /* \"contract/HITBNBBuyer_V3.2.sol\":1241:1251  msg.sender */\n      caller\n        /* \"contract/HITBNBBuyer_V3.2.sol\":1241:1260  msg.sender == owner */\n      eq\n        /* \"contract/HITBNBBuyer_V3.2.sol\":1233:1274  require(msg.sender == owner, \"Not owner\") */\n      tag_48\n      jumpi\n      mload(0x40)\n      shl(0xe5, 0x461bcd)\n      dup2\n      mstore\n      0x04\n      add\n      tag_49\n      swap1\n      tag_50\n      jump\t// in\n    tag_49:\n      mload(0x40)\n      dup1\n      swap2\n      sub\n      swap1\n      revert\n    tag_48:\n        /* \"contract/HITBNBBuyer_V3.2.sol\":3242:3255  hitbnbAddress */\n      0x00\n        /* \"contract/HITBNBBuyer_V3.2.sol\":3242:3272  hitbnbAddress = _hitbnbAddress */\n      dup1\n      sload\n      not(sub(shl(0xa0, 0x01), 0x01))\n      and\n      sub(shl(0xa0, 0x01), 0x01)\n      swap3\n      swap1\n      swap3\n      and\n      swap2\n      swap1\n      swap2\n      or\n      swap1\n      sstore\n        /* \"contract/HITBNBBuyer_V3.2.sol\":3158:3280  function updateTokenAddresses(address _hitbnbAddress) external onlyOwner {... */\n      jump\t// out\n        /* \"contract/HITBNBBuyer_V3.2.sol\":2851:3126  function manualTransferHITBNB() external onlyOwner {... */\n    tag_29:\n        /* \"contract/HITBNBBuyer_V3.2.sol\":1255:1260  owner */\n      and(sub(shl(0xa0, 0x01), 0x01), sload(0x01))\n        /* \"contract/HITBNBBuyer_V3.2.sol\":1241:1251  msg.sender */\n      caller\n        /* \"contract/HITBNBBuyer_V3.2.sol\":1241:1260  msg.sender == owner */\n      eq\n        /* \"contract/HITBNBBuyer_V3.2.sol\":1233:1274  require(msg.sender == owner, \"Not owner\") */\n      tag_53\n      jumpi\n      mload(0x40)\n      shl(0xe5, 0x461bcd)\n      dup2\n      mstore\n      0x04\n      add\n      tag_49\n      swap1\n      tag_50\n      jump\t// in\n    tag_53:\n        /* \"contract/HITBNBBuyer_V3.2.sol\":2913:2928  uint256 balance */\n      0x00\n        /* \"contract/HITBNBBuyer_V3.2.sol\":2938:2951  hitbnbAddress */\n      dup1\n      sload\n        /* \"contract/HITBNBBuyer_V3.2.sol\":2931:2977  IERC20(hitbnbAddress).balanceOf(address(this)) */\n      mload(0x40)\n      shl(0xe0, 0x70a08231)\n      dup2\n      mstore\n        /* \"contract/HITBNBBuyer_V3.2.sol\":2971:2975  this */\n      address\n        /* \"contract/HITBNBBuyer_V3.2.sol\":2931:2977  IERC20(hitbnbAddress).balanceOf(address(this)) */\n      0x04\n      dup3\n      add\n        /* \"#utility.yul\":160:211   */\n      mstore\n      sub(shl(0xa0, 0x01), 0x01)\n        /* \"contract/HITBNBBuyer_V3.2.sol\":2938:2951  hitbnbAddress */\n      swap1\n      swap2\n      and\n      swap1\n        /* \"contract/HITBNBBuyer_V3.2.sol\":2931:2962  IERC20(hitbnbAddress).balanceOf */\n      0x70a08231\n      swap1\n        /* \"#utility.yul\":133:151   */\n      0x24\n      add\n        /* \"contract/HITBNBBuyer_V3.2.sol\":2931:2977  IERC20(hitbnbAddress).balanceOf(address(this)) */\n      0x20\n      mload(0x40)\n      dup1\n      dup4\n      sub\n      dup2\n      dup7\n      gas\n      staticcall\n      iszero\n      dup1\n      iszero\n      tag_58\n      jumpi\n      returndatasize\n      0x00\n      dup1\n      returndatacopy\n      revert(0x00, returndatasize)\n    tag_58:\n      pop\n      pop\n      pop\n      pop\n      mload(0x40)\n      returndatasize\n      not(0x1f)\n      0x1f\n      dup3\n      add\n      and\n      dup3\n      add\n      dup1\n      0x40\n      mstore\n      pop\n      dup2\n      add\n      swap1\n      tag_59\n      swap2\n      swap1\n      tag_60\n      jump\t// in\n    tag_59:\n        /* \"contract/HITBNBBuyer_V3.2.sol\":2913:2977  uint256 balance = IERC20(hitbnbAddress).balanceOf(address(this)) */\n      swap1\n      pop\n        /* \"contract/HITBNBBuyer_V3.2.sol\":3006:3007  0 */\n      0x00\n        /* \"contract/HITBNBBuyer_V3.2.sol\":2996:3003  balance */\n      dup2\n        /* \"contract/HITBNBBuyer_V3.2.sol\":2996:3007  balance > 0 */\n      gt\n        /* \"contract/HITBNBBuyer_V3.2.sol\":2988:3029  require(balance > 0, \"No HITBNB balance\") */\n      tag_61\n      jumpi\n      mload(0x40)\n      shl(0xe5, 0x461bcd)\n      dup2\n      mstore\n        /* \"#utility.yul\":1655:1657   */\n      0x20\n        /* \"contract/HITBNBBuyer_V3.2.sol\":2988:3029  require(balance > 0, \"No HITBNB balance\") */\n      0x04\n      dup3\n      add\n        /* \"#utility.yul\":1637:1658   */\n      mstore\n        /* \"#utility.yul\":1694:1696   */\n      0x11\n        /* \"#utility.yul\":1674:1692   */\n      0x24\n      dup3\n      add\n        /* \"#utility.yul\":1667:1697   */\n      mstore\n      shl(0x78, 0x4e6f20484954424e422062616c616e6365)\n        /* \"#utility.yul\":1713:1731   */\n      0x44\n      dup3\n      add\n        /* \"#utility.yul\":1706:1753   */\n      mstore\n        /* \"#utility.yul\":1770:1788   */\n      0x64\n      add\n        /* \"contract/HITBNBBuyer_V3.2.sol\":2988:3029  require(balance > 0, \"No HITBNB balance\") */\n      tag_49\n        /* \"#utility.yul\":1453:1794   */\n      jump\n        /* \"contract/HITBNBBuyer_V3.2.sol\":2988:3029  require(balance > 0, \"No HITBNB balance\") */\n    tag_61:\n        /* \"contract/HITBNBBuyer_V3.2.sol\":3055:3068  hitbnbAddress */\n      sload(0x00)\n        /* \"contract/HITBNBBuyer_V3.2.sol\":3079:3088  roiWallet */\n      sload(0x02)\n        /* \"contract/HITBNBBuyer_V3.2.sol\":3048:3098  IERC20(hitbnbAddress).transfer(roiWallet, balance) */\n      mload(0x40)\n      shl(0xe0, 0xa9059cbb)\n      dup2\n      mstore\n      sub(shl(0xa0, 0x01), 0x01)\n        /* \"contract/HITBNBBuyer_V3.2.sol\":3079:3088  roiWallet */\n      swap2\n      dup3\n      and\n        /* \"contract/HITBNBBuyer_V3.2.sol\":3048:3098  IERC20(hitbnbAddress).transfer(roiWallet, balance) */\n      0x04\n      dup3\n      add\n        /* \"#utility.yul\":1973:2024   */\n      mstore\n        /* \"#utility.yul\":2040:2058   */\n      0x24\n      dup2\n      add\n        /* \"#utility.yul\":2033:2067   */\n      dup5\n      swap1\n      mstore\n        /* \"contract/HITBNBBuyer_V3.2.sol\":3055:3068  hitbnbAddress */\n      swap2\n      and\n      swap1\n        /* \"contract/HITBNBBuyer_V3.2.sol\":3048:3078  IERC20(hitbnbAddress).transfer */\n      0xa9059cbb\n      swap1\n        /* \"#utility.yul\":1946:1964   */\n      0x44\n      add\n        /* \"contract/HITBNBBuyer_V3.2.sol\":3048:3098  IERC20(hitbnbAddress).transfer(roiWallet, balance) */\n      0x20\n      mload(0x40)\n      dup1\n      dup4\n      sub\n      dup2\n      0x00\n      dup8\n      gas\n      call\n      iszero\n      dup1\n      iszero\n      tag_67\n      jumpi\n      returndatasize\n      0x00\n      dup1\n      returndatacopy\n      revert(0x00, returndatasize)\n    tag_67:\n      pop\n      pop\n      pop\n      pop\n      mload(0x40)\n      returndatasize\n      not(0x1f)\n      0x1f\n      dup3\n      add\n      and\n      dup3\n      add\n      dup1\n      0x40\n      mstore\n      pop\n      dup2\n      add\n      swap1\n      tag_68\n      swap2\n      swap1\n      tag_69\n      jump\t// in\n    tag_68:\n        /* \"contract/HITBNBBuyer_V3.2.sol\":3040:3118  require(IERC20(hitbnbAddress).transfer(roiWallet, balance), \"Transfer failed\") */\n      tag_70\n      jumpi\n      mload(0x40)\n      shl(0xe5, 0x461bcd)\n      dup2\n      mstore\n        /* \"#utility.yul\":2562:2564   */\n      0x20\n        /* \"contract/HITBNBBuyer_V3.2.sol\":3040:3118  require(IERC20(hitbnbAddress).transfer(roiWallet, balance), \"Transfer failed\") */\n      0x04\n      dup3\n      add\n        /* \"#utility.yul\":2544:2565   */\n      mstore\n        /* \"#utility.yul\":2601:2603   */\n      0x0f\n        /* \"#utility.yul\":2581:2599   */\n      0x24\n      dup3\n      add\n        /* \"#utility.yul\":2574:2604   */\n      mstore\n      shl(0x8a, 0x151c985b9cd9995c8819985a5b1959)\n        /* \"#utility.yul\":2620:2638   */\n      0x44\n      dup3\n      add\n        /* \"#utility.yul\":2613:2658   */\n      mstore\n        /* \"#utility.yul\":2675:2693   */\n      0x64\n      add\n        /* \"contract/HITBNBBuyer_V3.2.sol\":3040:3118  require(IERC20(hitbnbAddress).transfer(roiWallet, balance), \"Transfer failed\") */\n      tag_49\n        /* \"#utility.yul\":2360:2699   */\n      jump\n        /* \"contract/HITBNBBuyer_V3.2.sol\":3040:3118  require(IERC20(hitbnbAddress).transfer(roiWallet, balance), \"Transfer failed\") */\n    tag_70:\n        /* \"contract/HITBNBBuyer_V3.2.sol\":2902:3126  {... */\n      pop\n        /* \"contract/HITBNBBuyer_V3.2.sol\":2851:3126  function manualTransferHITBNB() external onlyOwner {... */\n      jump\t// out\n        /* \"contract/HITBNBBuyer_V3.2.sol\":3288:3393  function updateROIWallet(address _roiWallet) external onlyOwner {... */\n    tag_32:\n        /* \"contract/HITBNBBuyer_V3.2.sol\":1255:1260  owner */\n      and(sub(shl(0xa0, 0x01), 0x01), sload(0x01))\n        /* \"contract/HITBNBBuyer_V3.2.sol\":1241:1251  msg.sender */\n      caller\n        /* \"contract/HITBNBBuyer_V3.2.sol\":1241:1260  msg.sender == owner */\n      eq\n        /* \"contract/HITBNBBuyer_V3.2.sol\":1233:1274  require(msg.sender == owner, \"Not owner\") */\n      tag_74\n      jumpi\n      mload(0x40)\n      shl(0xe5, 0x461bcd)\n      dup2\n      mstore\n      0x04\n      add\n      tag_49\n      swap1\n      tag_50\n      jump\t// in\n    tag_74:\n        /* \"contract/HITBNBBuyer_V3.2.sol\":3363:3372  roiWallet */\n      0x02\n        /* \"contract/HITBNBBuyer_V3.2.sol\":3363:3385  roiWallet = _roiWallet */\n      dup1\n      sload\n      not(sub(shl(0xa0, 0x01), 0x01))\n      and\n      sub(shl(0xa0, 0x01), 0x01)\n      swap3\n      swap1\n      swap3\n      and\n      swap2\n      swap1\n      swap2\n      or\n      swap1\n      sstore\n        /* \"contract/HITBNBBuyer_V3.2.sol\":3288:3393  function updateROIWallet(address _roiWallet) external onlyOwner {... */\n      jump\t// out\n        /* \"contract/HITBNBBuyer_V3.2.sol\":1552:2794  function depositAndSwap(uint256 amount) external {... */\n    tag_36:\n        /* \"contract/HITBNBBuyer_V3.2.sol\":1629:1630  0 */\n      0x00\n        /* \"contract/HITBNBBuyer_V3.2.sol\":1620:1626  amount */\n      dup2\n        /* \"contract/HITBNBBuyer_V3.2.sol\":1620:1630  amount > 0 */\n      gt\n        /* \"contract/HITBNBBuyer_V3.2.sol\":1612:1653  require(amount > 0, \"Amount must be > 0\") */\n      tag_78\n      jumpi\n      mload(0x40)\n      shl(0xe5, 0x461bcd)\n      dup2\n      mstore\n        /* \"#utility.yul\":2906:2908   */\n      0x20\n        /* \"contract/HITBNBBuyer_V3.2.sol\":1612:1653  require(amount > 0, \"Amount must be > 0\") */\n      0x04\n      dup3\n      add\n        /* \"#utility.yul\":2888:2909   */\n      mstore\n        /* \"#utility.yul\":2945:2947   */\n      0x12\n        /* \"#utility.yul\":2925:2943   */\n      0x24\n      dup3\n      add\n        /* \"#utility.yul\":2918:2948   */\n      mstore\n      shl(0x74, 0x0416d6f756e74206d757374206265203e203)\n        /* \"#utility.yul\":2964:2982   */\n      0x44\n      dup3\n      add\n        /* \"#utility.yul\":2957:3005   */\n      mstore\n        /* \"#utility.yul\":3022:3040   */\n      0x64\n      add\n        /* \"contract/HITBNBBuyer_V3.2.sol\":1612:1653  require(amount > 0, \"Amount must be > 0\") */\n      tag_49\n        /* \"#utility.yul\":2704:3046   */\n      jump\n        /* \"contract/HITBNBBuyer_V3.2.sol\":1612:1653  require(amount > 0, \"Amount must be > 0\") */\n    tag_78:\n        /* \"contract/HITBNBBuyer_V3.2.sol\":1733:1793  IERC20(USDT).transferFrom(msg.sender, address(this), amount) */\n      mload(0x40)\n      shl(0xe0, 0x23b872dd)\n      dup2\n      mstore\n        /* \"contract/HITBNBBuyer_V3.2.sol\":1759:1769  msg.sender */\n      caller\n        /* \"contract/HITBNBBuyer_V3.2.sol\":1733:1793  IERC20(USDT).transferFrom(msg.sender, address(this), amount) */\n      0x04\n      dup3\n      add\n        /* \"#utility.yul\":3291:3325   */\n      mstore\n        /* \"contract/HITBNBBuyer_V3.2.sol\":1779:1783  this */\n      address\n        /* \"#utility.yul\":3341:3359   */\n      0x24\n      dup3\n      add\n        /* \"#utility.yul\":3334:3377   */\n      mstore\n        /* \"#utility.yul\":3393:3411   */\n      0x44\n      dup2\n      add\n        /* \"#utility.yul\":3386:3420   */\n      dup3\n      swap1\n      mstore\n        /* \"contract/HITBNBBuyer_V3.2.sol\":829:871  0x55d398326f99059fF775485246999027B3197955 */\n      0x55d398326f99059ff775485246999027b3197955\n      swap1\n        /* \"contract/HITBNBBuyer_V3.2.sol\":1733:1758  IERC20(USDT).transferFrom */\n      0x23b872dd\n      swap1\n        /* \"#utility.yul\":3226:3244   */\n      0x64\n      add\n        /* \"contract/HITBNBBuyer_V3.2.sol\":1733:1793  IERC20(USDT).transferFrom(msg.sender, address(this), amount) */\n      0x20\n      mload(0x40)\n      dup1\n      dup4\n      sub\n      dup2\n      0x00\n      dup8\n      gas\n      call\n      iszero\n      dup1\n      iszero\n      tag_84\n      jumpi\n      returndatasize\n      0x00\n      dup1\n      returndatacopy\n      revert(0x00, returndatasize)\n    tag_84:\n      pop\n      pop\n      pop\n      pop\n      mload(0x40)\n      returndatasize\n      not(0x1f)\n      0x1f\n      dup3\n      add\n      and\n      dup3\n      add\n      dup1\n      0x40\n      mstore\n      pop\n      dup2\n      add\n      swap1\n      tag_85\n      swap2\n      swap1\n      tag_69\n      jump\t// in\n    tag_85:\n        /* \"contract/HITBNBBuyer_V3.2.sol\":1725:1818  require(IERC20(USDT).transferFrom(msg.sender, address(this), amount), \"USDT transfer failed\") */\n      tag_86\n      jumpi\n      mload(0x40)\n      shl(0xe5, 0x461bcd)\n      dup2\n      mstore\n        /* \"#utility.yul\":3633:3635   */\n      0x20\n        /* \"contract/HITBNBBuyer_V3.2.sol\":1725:1818  require(IERC20(USDT).transferFrom(msg.sender, address(this), amount), \"USDT transfer failed\") */\n      0x04\n      dup3\n      add\n        /* \"#utility.yul\":3615:3636   */\n      mstore\n        /* \"#utility.yul\":3672:3674   */\n      0x14\n        /* \"#utility.yul\":3652:3670   */\n      0x24\n      dup3\n      add\n        /* \"#utility.yul\":3645:3675   */\n      mstore\n      shl(0x62, 0x1554d115081d1c985b9cd9995c8819985a5b1959)\n        /* \"#utility.yul\":3691:3709   */\n      0x44\n      dup3\n      add\n        /* \"#utility.yul\":3684:3734   */\n      mstore\n        /* \"#utility.yul\":3751:3769   */\n      0x64\n      add\n        /* \"contract/HITBNBBuyer_V3.2.sol\":1725:1818  require(IERC20(USDT).transferFrom(msg.sender, address(this), amount), \"USDT transfer failed\") */\n      tag_49\n        /* \"#utility.yul\":3431:3775   */\n      jump\n        /* \"contract/HITBNBBuyer_V3.2.sol\":1725:1818  require(IERC20(USDT).transferFrom(msg.sender, address(this), amount), \"USDT transfer failed\") */\n    tag_86:\n        /* \"contract/HITBNBBuyer_V3.2.sol\":1888:1940  IERC20(USDT).approve(address(pancakeRouter), amount) */\n      mload(0x40)\n      shl(0xe0, 0x095ea7b3)\n      dup2\n      mstore\n        /* \"contract/HITBNBBuyer_V3.2.sol\":1045:1087  0x10ED43C718714eb63d5aA57B78B54704E256024E */\n      0x10ed43c718714eb63d5aa57b78b54704e256024e\n        /* \"contract/HITBNBBuyer_V3.2.sol\":1888:1940  IERC20(USDT).approve(address(pancakeRouter), amount) */\n      0x04\n      dup3\n      add\n        /* \"#utility.yul\":1973:2024   */\n      mstore\n        /* \"#utility.yul\":2040:2058   */\n      0x24\n      dup2\n      add\n        /* \"#utility.yul\":2033:2067   */\n      dup3\n      swap1\n      mstore\n        /* \"contract/HITBNBBuyer_V3.2.sol\":829:871  0x55d398326f99059fF775485246999027B3197955 */\n      0x55d398326f99059ff775485246999027b3197955\n      swap1\n        /* \"contract/HITBNBBuyer_V3.2.sol\":1888:1908  IERC20(USDT).approve */\n      0x095ea7b3\n      swap1\n        /* \"#utility.yul\":1946:1964   */\n      0x44\n      add\n        /* \"contract/HITBNBBuyer_V3.2.sol\":1888:1940  IERC20(USDT).approve(address(pancakeRouter), amount) */\n      0x20\n      mload(0x40)\n      dup1\n      dup4\n      sub\n      dup2\n      0x00\n      dup8\n      gas\n      call\n      iszero\n      dup1\n      iszero\n      tag_91\n      jumpi\n      returndatasize\n      0x00\n      dup1\n      returndatacopy\n      revert(0x00, returndatasize)\n    tag_91:\n      pop\n      pop\n      pop\n      pop\n      mload(0x40)\n      returndatasize\n      not(0x1f)\n      0x1f\n      dup3\n      add\n      and\n      dup3\n      add\n      dup1\n      0x40\n      mstore\n      pop\n      dup2\n      add\n      swap1\n      tag_92\n      swap2\n      swap1\n      tag_69\n      jump\t// in\n    tag_92:\n      pop\n        /* \"contract/HITBNBBuyer_V3.2.sol\":2020:2036  new address[](2) */\n      0x40\n      dup1\n      mload\n        /* \"contract/HITBNBBuyer_V3.2.sol\":2034:2035  2 */\n      0x02\n        /* \"contract/HITBNBBuyer_V3.2.sol\":2020:2036  new address[](2) */\n      dup1\n      dup3\n      mstore\n      0x60\n      dup3\n      add\n      dup4\n      mstore\n        /* \"contract/HITBNBBuyer_V3.2.sol\":1996:2017  address[] memory path */\n      0x00\n      swap3\n        /* \"contract/HITBNBBuyer_V3.2.sol\":2020:2036  new address[](2) */\n      0x20\n      dup4\n      add\n      swap1\n      dup1\n      calldatasize\n      dup4\n      calldatacopy\n      add\n      swap1\n      pop\n      pop\n        /* \"contract/HITBNBBuyer_V3.2.sol\":1996:2036  address[] memory path = new address[](2) */\n      swap1\n      pop\n        /* \"contract/HITBNBBuyer_V3.2.sol\":829:871  0x55d398326f99059fF775485246999027B3197955 */\n      0x55d398326f99059ff775485246999027b3197955\n        /* \"contract/HITBNBBuyer_V3.2.sol\":2047:2051  path */\n      dup2\n        /* \"contract/HITBNBBuyer_V3.2.sol\":2052:2053  0 */\n      0x00\n        /* \"contract/HITBNBBuyer_V3.2.sol\":2047:2054  path[0] */\n      dup2\n      mload\n      dup2\n      lt\n      tag_98\n      jumpi\n      tag_98\n      tag_99\n      jump\t// in\n    tag_98:\n      sub(shl(0xa0, 0x01), 0x01)\n        /* \"contract/HITBNBBuyer_V3.2.sol\":2047:2061  path[0] = USDT */\n      swap3\n      dup4\n      and\n        /* \"contract/HITBNBBuyer_V3.2.sol\":2047:2054  path[0] */\n      0x20\n      swap2\n      dup3\n      mul\n      swap3\n      swap1\n      swap3\n      add\n      add\n        /* \"contract/HITBNBBuyer_V3.2.sol\":2047:2061  path[0] = USDT */\n      mstore\n        /* \"contract/HITBNBBuyer_V3.2.sol\":2082:2095  hitbnbAddress */\n      sload(0x00)\n        /* \"contract/HITBNBBuyer_V3.2.sol\":2072:2079  path[1] */\n      dup3\n      mload\n        /* \"contract/HITBNBBuyer_V3.2.sol\":2082:2095  hitbnbAddress */\n      swap2\n      and\n      swap1\n        /* \"contract/HITBNBBuyer_V3.2.sol\":2072:2076  path */\n      dup3\n      swap1\n        /* \"contract/HITBNBBuyer_V3.2.sol\":2082:2095  hitbnbAddress */\n      0x01\n      swap1\n        /* \"contract/HITBNBBuyer_V3.2.sol\":2072:2079  path[1] */\n      dup2\n      lt\n      tag_101\n      jumpi\n      tag_101\n      tag_99\n      jump\t// in\n    tag_101:\n      sub(shl(0xa0, 0x01), 0x01)\n        /* \"contract/HITBNBBuyer_V3.2.sol\":2072:2095  path[1] = hitbnbAddress */\n      swap3\n      dup4\n      and\n        /* \"contract/HITBNBBuyer_V3.2.sol\":2072:2079  path[1] */\n      0x20\n      swap2\n      dup3\n      mul\n      swap3\n      swap1\n      swap3\n      add\n      add\n        /* \"contract/HITBNBBuyer_V3.2.sol\":2072:2095  path[1] = hitbnbAddress */\n      mstore\n        /* \"contract/HITBNBBuyer_V3.2.sol\":2116:2136  uint256 hitbnbBefore */\n      0x00\n        /* \"contract/HITBNBBuyer_V3.2.sol\":2146:2159  hitbnbAddress */\n      dup1\n      sload\n        /* \"contract/HITBNBBuyer_V3.2.sol\":2139:2185  IERC20(hitbnbAddress).balanceOf(address(this)) */\n      mload(0x40)\n      shl(0xe0, 0x70a08231)\n      dup2\n      mstore\n        /* \"contract/HITBNBBuyer_V3.2.sol\":2179:2183  this */\n      address\n        /* \"contract/HITBNBBuyer_V3.2.sol\":2139:2185  IERC20(hitbnbAddress).balanceOf(address(this)) */\n      0x04\n      dup3\n      add\n        /* \"#utility.yul\":160:211   */\n      mstore\n        /* \"contract/HITBNBBuyer_V3.2.sol\":2116:2136  uint256 hitbnbBefore */\n      swap2\n      swap3\n        /* \"contract/HITBNBBuyer_V3.2.sol\":2146:2159  hitbnbAddress */\n      and\n      swap1\n        /* \"contract/HITBNBBuyer_V3.2.sol\":2139:2170  IERC20(hitbnbAddress).balanceOf */\n      0x70a08231\n      swap1\n        /* \"#utility.yul\":133:151   */\n      0x24\n      add\n        /* \"contract/HITBNBBuyer_V3.2.sol\":2139:2185  IERC20(hitbnbAddress).balanceOf(address(this)) */\n      0x20\n      mload(0x40)\n      dup1\n      dup4\n      sub\n      dup2\n      dup7\n      gas\n      staticcall\n      iszero\n      dup1\n      iszero\n      tag_104\n      jumpi\n      returndatasize\n      0x00\n      dup1\n      returndatacopy\n      revert(0x00, returndatasize)\n    tag_104:\n      pop\n      pop\n      pop\n      pop\n      mload(0x40)\n      returndatasize\n      not(0x1f)\n      0x1f\n      dup3\n      add\n      and\n      dup3\n      add\n      dup1\n      0x40\n      mstore\n      pop\n      dup2\n      add\n      swap1\n      tag_105\n      swap2\n      swap1\n      tag_60\n      jump\t// in\n    tag_105:\n        /* \"contract/HITBNBBuyer_V3.2.sol\":2116:2185  uint256 hitbnbBefore = IERC20(hitbnbAddress).balanceOf(address(this)) */\n      swap1\n      pop\n        /* \"contract/HITBNBBuyer_V3.2.sol\":1045:1087  0x10ED43C718714eb63d5aA57B78B54704E256024E */\n      0x10ed43c718714eb63d5aa57b78b54704e256024e\n        /* \"contract/HITBNBBuyer_V3.2.sol\":2196:2234  pancakeRouter.swapExactTokensForTokens */\n      0x38ed1739\n        /* \"contract/HITBNBBuyer_V3.2.sol\":2249:2255  amount */\n      dup5\n        /* \"contract/HITBNBBuyer_V3.2.sol\":2270:2271  0 */\n      0x00\n        /* \"contract/HITBNBBuyer_V3.2.sol\":2309:2313  path */\n      dup6\n        /* \"contract/HITBNBBuyer_V3.2.sol\":2336:2340  this */\n      address\n        /* \"contract/HITBNBBuyer_V3.2.sol\":2356:2377  block.timestamp + 300 */\n      tag_106\n        /* \"contract/HITBNBBuyer_V3.2.sol\":2356:2371  block.timestamp */\n      timestamp\n        /* \"contract/HITBNBBuyer_V3.2.sol\":2374:2377  300 */\n      0x012c\n        /* \"contract/HITBNBBuyer_V3.2.sol\":2356:2377  block.timestamp + 300 */\n      tag_107\n      jump\t// in\n    tag_106:\n        /* \"contract/HITBNBBuyer_V3.2.sol\":2196:2406  pancakeRouter.swapExactTokensForTokens(... */\n      mload(0x40)\n      dup7\n      0xffffffff\n      and\n      0xe0\n      shl\n      dup2\n      mstore\n      0x04\n      add\n      tag_108\n      swap6\n      swap5\n      swap4\n      swap3\n      swap2\n      swap1\n      tag_109\n      jump\t// in\n    tag_108:\n      0x00\n      mload(0x40)\n      dup1\n      dup4\n      sub\n      dup2\n      0x00\n      dup8\n      gas\n      call\n      iszero\n      dup1\n      iszero\n      tag_111\n      jumpi\n      returndatasize\n      0x00\n      dup1\n      returndatacopy\n      revert(0x00, returndatasize)\n    tag_111:\n      pop\n      pop\n      pop\n      pop\n      mload(0x40)\n      returndatasize\n      0x00\n      dup3\n      returndatacopy\n      0x1f\n      returndatasize\n      swap1\n      dup2\n      add\n      not(0x1f)\n      and\n      dup3\n      add\n      0x40\n      mstore\n      tag_112\n      swap2\n      swap1\n      dup2\n      add\n      swap1\n      tag_113\n      jump\t// in\n    tag_112:\n      pop\n        /* \"contract/HITBNBBuyer_V3.2.sol\":2417:2436  uint256 hitbnbAfter */\n      0x00\n        /* \"contract/HITBNBBuyer_V3.2.sol\":2446:2459  hitbnbAddress */\n      dup1\n      sload\n        /* \"contract/HITBNBBuyer_V3.2.sol\":2439:2485  IERC20(hitbnbAddress).balanceOf(address(this)) */\n      mload(0x40)\n      shl(0xe0, 0x70a08231)\n      dup2\n      mstore\n        /* \"contract/HITBNBBuyer_V3.2.sol\":2479:2483  this */\n      address\n        /* \"contract/HITBNBBuyer_V3.2.sol\":2439:2485  IERC20(hitbnbAddress).balanceOf(address(this)) */\n      0x04\n      dup3\n      add\n        /* \"#utility.yul\":160:211   */\n      mstore\n      sub(shl(0xa0, 0x01), 0x01)\n        /* \"contract/HITBNBBuyer_V3.2.sol\":2446:2459  hitbnbAddress */\n      swap1\n      swap2\n      and\n      swap1\n        /* \"contract/HITBNBBuyer_V3.2.sol\":2439:2470  IERC20(hitbnbAddress).balanceOf */\n      0x70a08231\n      swap1\n        /* \"#utility.yul\":133:151   */\n      0x24\n      add\n        /* \"contract/HITBNBBuyer_V3.2.sol\":2439:2485  IERC20(hitbnbAddress).balanceOf(address(this)) */\n      0x20\n      mload(0x40)\n      dup1\n      dup4\n      sub\n      dup2\n      dup7\n      gas\n      staticcall\n      iszero\n      dup1\n      iszero\n      tag_116\n      jumpi\n      returndatasize\n      0x00\n      dup1\n      returndatacopy\n      revert(0x00, returndatasize)\n    tag_116:\n      pop\n      pop\n      pop\n      pop\n      mload(0x40)\n      returndatasize\n      not(0x1f)\n      0x1f\n      dup3\n      add\n      and\n      dup3\n      add\n      dup1\n      0x40\n      mstore\n      pop\n      dup2\n      add\n      swap1\n      tag_117\n      swap2\n      swap1\n      tag_60\n      jump\t// in\n    tag_117:\n        /* \"contract/HITBNBBuyer_V3.2.sol\":2417:2485  uint256 hitbnbAfter = IERC20(hitbnbAddress).balanceOf(address(this)) */\n      swap1\n      pop\n        /* \"contract/HITBNBBuyer_V3.2.sol\":2496:2518  uint256 hitbnbReceived */\n      0x00\n        /* \"contract/HITBNBBuyer_V3.2.sol\":2521:2547  hitbnbAfter - hitbnbBefore */\n      tag_118\n        /* \"contract/HITBNBBuyer_V3.2.sol\":2535:2547  hitbnbBefore */\n      dup4\n        /* \"contract/HITBNBBuyer_V3.2.sol\":2417:2485  uint256 hitbnbAfter = IERC20(hitbnbAddress).balanceOf(address(this)) */\n      dup4\n        /* \"contract/HITBNBBuyer_V3.2.sol\":2521:2547  hitbnbAfter - hitbnbBefore */\n      tag_119\n      jump\t// in\n    tag_118:\n        /* \"contract/HITBNBBuyer_V3.2.sol\":2628:2641  hitbnbAddress */\n      sload(0x00)\n        /* \"contract/HITBNBBuyer_V3.2.sol\":2652:2661  roiWallet */\n      sload(0x02)\n        /* \"contract/HITBNBBuyer_V3.2.sol\":2621:2678  IERC20(hitbnbAddress).transfer(roiWallet, hitbnbReceived) */\n      mload(0x40)\n      shl(0xe0, 0xa9059cbb)\n      dup2\n      mstore\n      sub(shl(0xa0, 0x01), 0x01)\n        /* \"contract/HITBNBBuyer_V3.2.sol\":2652:2661  roiWallet */\n      swap2\n      dup3\n      and\n        /* \"contract/HITBNBBuyer_V3.2.sol\":2621:2678  IERC20(hitbnbAddress).transfer(roiWallet, hitbnbReceived) */\n      0x04\n      dup3\n      add\n        /* \"#utility.yul\":1973:2024   */\n      mstore\n        /* \"#utility.yul\":2040:2058   */\n      0x24\n      dup2\n      add\n        /* \"#utility.yul\":2033:2067   */\n      dup5\n      swap1\n      mstore\n        /* \"contract/HITBNBBuyer_V3.2.sol\":2496:2547  uint256 hitbnbReceived = hitbnbAfter - hitbnbBefore */\n      swap3\n      swap4\n      pop\n        /* \"contract/HITBNBBuyer_V3.2.sol\":2628:2641  hitbnbAddress */\n      and\n      swap1\n        /* \"contract/HITBNBBuyer_V3.2.sol\":2621:2651  IERC20(hitbnbAddress).transfer */\n      0xa9059cbb\n      swap1\n        /* \"#utility.yul\":1946:1964   */\n      0x44\n      add\n        /* \"contract/HITBNBBuyer_V3.2.sol\":2621:2678  IERC20(hitbnbAddress).transfer(roiWallet, hitbnbReceived) */\n      0x20\n      mload(0x40)\n      dup1\n      dup4\n      sub\n      dup2\n      0x00\n      dup8\n      gas\n      call\n      iszero\n      dup1\n      iszero\n      tag_122\n      jumpi\n      returndatasize\n      0x00\n      dup1\n      returndatacopy\n      revert(0x00, returndatasize)\n    tag_122:\n      pop\n      pop\n      pop\n      pop\n      mload(0x40)\n      returndatasize\n      not(0x1f)\n      0x1f\n      dup3\n      add\n      and\n      dup3\n      add\n      dup1\n      0x40\n      mstore\n      pop\n      dup2\n      add\n      swap1\n      tag_123\n      swap2\n      swap1\n      tag_69\n      jump\t// in\n    tag_123:\n        /* \"contract/HITBNBBuyer_V3.2.sol\":2613:2705  require(IERC20(hitbnbAddress).transfer(roiWallet, hitbnbReceived), \"HITBNB transfer failed\") */\n      tag_124\n      jumpi\n      mload(0x40)\n      shl(0xe5, 0x461bcd)\n      dup2\n      mstore\n        /* \"#utility.yul\":6736:6738   */\n      0x20\n        /* \"contract/HITBNBBuyer_V3.2.sol\":2613:2705  require(IERC20(hitbnbAddress).transfer(roiWallet, hitbnbReceived), \"HITBNB transfer failed\") */\n      0x04\n      dup3\n      add\n        /* \"#utility.yul\":6718:6739   */\n      mstore\n        /* \"#utility.yul\":6775:6777   */\n      0x16\n        /* \"#utility.yul\":6755:6773   */\n      0x24\n      dup3\n      add\n        /* \"#utility.yul\":6748:6778   */\n      mstore\n      shl(0x52, 0x121255109390881d1c985b9cd9995c8819985a5b1959)\n        /* \"#utility.yul\":6794:6812   */\n      0x44\n      dup3\n      add\n        /* \"#utility.yul\":6787:6839   */\n      mstore\n        /* \"#utility.yul\":6856:6874   */\n      0x64\n      add\n        /* \"contract/HITBNBBuyer_V3.2.sol\":2613:2705  require(IERC20(hitbnbAddress).transfer(roiWallet, hitbnbReceived), \"HITBNB transfer failed\") */\n      tag_49\n        /* \"#utility.yul\":6534:6880   */\n      jump\n        /* \"contract/HITBNBBuyer_V3.2.sol\":2613:2705  require(IERC20(hitbnbAddress).transfer(roiWallet, hitbnbReceived), \"HITBNB transfer failed\") */\n    tag_124:\n        /* \"contract/HITBNBBuyer_V3.2.sol\":2731:2786  DepositedAndSwapped(msg.sender, amount, hitbnbReceived) */\n      0x40\n      dup1\n      mload\n        /* \"#utility.yul\":7059:7084   */\n      dup7\n      dup2\n      mstore\n        /* \"#utility.yul\":7115:7117   */\n      0x20\n        /* \"#utility.yul\":7100:7118   */\n      dup2\n      add\n        /* \"#utility.yul\":7093:7127   */\n      dup4\n      swap1\n      mstore\n        /* \"contract/HITBNBBuyer_V3.2.sol\":2751:2761  msg.sender */\n      caller\n      swap2\n        /* \"contract/HITBNBBuyer_V3.2.sol\":2731:2786  DepositedAndSwapped(msg.sender, amount, hitbnbReceived) */\n      0x0d5a7ab525fa75e55d40be811859d7e1802f4778bd1f863933bfd76ace96e78c\n      swap2\n        /* \"#utility.yul\":7032:7050   */\n      add\n        /* \"contract/HITBNBBuyer_V3.2.sol\":2731:2786  DepositedAndSwapped(msg.sender, amount, hitbnbReceived) */\n      mload(0x40)\n      dup1\n      swap2\n      sub\n      swap1\n      log2\n        /* \"contract/HITBNBBuyer_V3.2.sol\":1601:2794  {... */\n      pop\n      pop\n      pop\n      pop\n        /* \"contract/HITBNBBuyer_V3.2.sol\":1552:2794  function depositAndSwap(uint256 amount) external {... */\n      pop\n      jump\t// out\n        /* \"contract/HITBNBBuyer_V3.2.sol\":3442:3717  function recoverERC20(address tokenAddress) external onlyOwner {... */\n    tag_39:\n        /* \"contract/HITBNBBuyer_V3.2.sol\":1255:1260  owner */\n      and(sub(shl(0xa0, 0x01), 0x01), sload(0x01))\n        /* \"contract/HITBNBBuyer_V3.2.sol\":1241:1251  msg.sender */\n      caller\n        /* \"contract/HITBNBBuyer_V3.2.sol\":1241:1260  msg.sender == owner */\n      eq\n        /* \"contract/HITBNBBuyer_V3.2.sol\":1233:1274  require(msg.sender == owner, \"Not owner\") */\n      tag_130\n      jumpi\n      mload(0x40)\n      shl(0xe5, 0x461bcd)\n      dup2\n      mstore\n      0x04\n      add\n      tag_49\n      swap1\n      tag_50\n      jump\t// in\n    tag_130:\n        /* \"contract/HITBNBBuyer_V3.2.sol\":3540:3553  hitbnbAddress */\n      sload(0x00)\n      sub(shl(0xa0, 0x01), 0x01)\n      swap1\n      dup2\n      and\n        /* \"contract/HITBNBBuyer_V3.2.sol\":3524:3553  tokenAddress != hitbnbAddress */\n      swap1\n      dup3\n      and\n      sub\n        /* \"contract/HITBNBBuyer_V3.2.sol\":3516:3579  require(tokenAddress != hitbnbAddress, \"Cannot recover HITBNB\") */\n      tag_133\n      jumpi\n      mload(0x40)\n      shl(0xe5, 0x461bcd)\n      dup2\n      mstore\n        /* \"#utility.yul\":7340:7342   */\n      0x20\n        /* \"contract/HITBNBBuyer_V3.2.sol\":3516:3579  require(tokenAddress != hitbnbAddress, \"Cannot recover HITBNB\") */\n      0x04\n      dup3\n      add\n        /* \"#utility.yul\":7322:7343   */\n      mstore\n        /* \"#utility.yul\":7379:7381   */\n      0x15\n        /* \"#utility.yul\":7359:7377   */\n      0x24\n      dup3\n      add\n        /* \"#utility.yul\":7352:7382   */\n      mstore\n      shl(0x59, 0x21b0b73737ba103932b1b7bb32b9102424aa212721)\n        /* \"#utility.yul\":7398:7416   */\n      0x44\n      dup3\n      add\n        /* \"#utility.yul\":7391:7442   */\n      mstore\n        /* \"#utility.yul\":7459:7477   */\n      0x64\n      add\n        /* \"contract/HITBNBBuyer_V3.2.sol\":3516:3579  require(tokenAddress != hitbnbAddress, \"Cannot recover HITBNB\") */\n      tag_49\n        /* \"#utility.yul\":7138:7483   */\n      jump\n        /* \"contract/HITBNBBuyer_V3.2.sol\":3516:3579  require(tokenAddress != hitbnbAddress, \"Cannot recover HITBNB\") */\n    tag_133:\n        /* \"contract/HITBNBBuyer_V3.2.sol\":3608:3653  IERC20(tokenAddress).balanceOf(address(this)) */\n      mload(0x40)\n      shl(0xe0, 0x70a08231)\n      dup2\n      mstore\n        /* \"contract/HITBNBBuyer_V3.2.sol\":3647:3651  this */\n      address\n        /* \"contract/HITBNBBuyer_V3.2.sol\":3608:3653  IERC20(tokenAddress).balanceOf(address(this)) */\n      0x04\n      dup3\n      add\n        /* \"#utility.yul\":160:211   */\n      mstore\n        /* \"contract/HITBNBBuyer_V3.2.sol\":3590:3605  uint256 balance */\n      0x00\n      swap1\n      sub(shl(0xa0, 0x01), 0x01)\n        /* \"contract/HITBNBBuyer_V3.2.sol\":3608:3638  IERC20(tokenAddress).balanceOf */\n      dup4\n      and\n      swap1\n      0x70a08231\n      swap1\n        /* \"#utility.yul\":133:151   */\n      0x24\n      add\n        /* \"contract/HITBNBBuyer_V3.2.sol\":3608:3653  IERC20(tokenAddress).balanceOf(address(this)) */\n      0x20\n      mload(0x40)\n      dup1\n      dup4\n      sub\n      dup2\n      dup7\n      gas\n      staticcall\n      iszero\n      dup1\n      iszero\n      tag_138\n      jumpi\n      returndatasize\n      0x00\n      dup1\n      returndatacopy\n      revert(0x00, returndatasize)\n    tag_138:\n      pop\n      pop\n      pop\n      pop\n      mload(0x40)\n      returndatasize\n      not(0x1f)\n      0x1f\n      dup3\n      add\n      and\n      dup3\n      add\n      dup1\n      0x40\n      mstore\n      pop\n      dup2\n      add\n      swap1\n      tag_139\n      swap2\n      swap1\n      tag_60\n      jump\t// in\n    tag_139:\n        /* \"contract/HITBNBBuyer_V3.2.sol\":3694:3699  owner */\n      sload(0x01)\n        /* \"contract/HITBNBBuyer_V3.2.sol\":3664:3709  IERC20(tokenAddress).transfer(owner, balance) */\n      mload(0x40)\n      shl(0xe0, 0xa9059cbb)\n      dup2\n      mstore\n      sub(shl(0xa0, 0x01), 0x01)\n        /* \"contract/HITBNBBuyer_V3.2.sol\":3694:3699  owner */\n      swap2\n      dup3\n      and\n        /* \"contract/HITBNBBuyer_V3.2.sol\":3664:3709  IERC20(tokenAddress).transfer(owner, balance) */\n      0x04\n      dup3\n      add\n        /* \"#utility.yul\":1973:2024   */\n      mstore\n        /* \"#utility.yul\":2040:2058   */\n      0x24\n      dup2\n      add\n        /* \"#utility.yul\":2033:2067   */\n      dup4\n      swap1\n      mstore\n        /* \"contract/HITBNBBuyer_V3.2.sol\":3590:3653  uint256 balance = IERC20(tokenAddress).balanceOf(address(this)) */\n      swap2\n      swap3\n      pop\n        /* \"contract/HITBNBBuyer_V3.2.sol\":3664:3693  IERC20(tokenAddress).transfer */\n      dup4\n      and\n      swap1\n      0xa9059cbb\n      swap1\n        /* \"#utility.yul\":1946:1964   */\n      0x44\n      add\n        /* \"contract/HITBNBBuyer_V3.2.sol\":3664:3709  IERC20(tokenAddress).transfer(owner, balance) */\n      0x20\n      mload(0x40)\n      dup1\n      dup4\n      sub\n      dup2\n      0x00\n      dup8\n      gas\n      call\n      iszero\n      dup1\n      iszero\n      tag_142\n      jumpi\n      returndatasize\n      0x00\n      dup1\n      returndatacopy\n      revert(0x00, returndatasize)\n    tag_142:\n      pop\n      pop\n      pop\n      pop\n      mload(0x40)\n      returndatasize\n      not(0x1f)\n      0x1f\n      dup3\n      add\n      and\n      dup3\n      add\n      dup1\n      0x40\n      mstore\n      pop\n      dup2\n      add\n      swap1\n      tag_143\n      swap2\n      swap1\n      tag_69\n      jump\t// in\n    tag_143:\n      pop\n        /* \"contract/HITBNBBuyer_V3.2.sol\":3505:3717  {... */\n      pop\n        /* \"contract/HITBNBBuyer_V3.2.sol\":3442:3717  function recoverERC20(address tokenAddress) external onlyOwner {... */\n      pop\n      jump\t// out\n        /* \"#utility.yul\":222:508   */\n    tag_20:\n        /* \"#utility.yul\":281:287   */\n      0x00\n        /* \"#utility.yul\":334:336   */\n      0x20\n        /* \"#utility.yul\":322:331   */\n      dup3\n        /* \"#utility.yul\":313:320   */\n      dup5\n        /* \"#utility.yul\":309:332   */\n      sub\n        /* \"#utility.yul\":305:337   */\n      slt\n        /* \"#utility.yul\":302:354   */\n      iszero\n      tag_148\n      jumpi\n        /* \"#utility.yul\":350:351   */\n      0x00\n        /* \"#utility.yul\":347:348   */\n      dup1\n        /* \"#utility.yul\":340:352   */\n      revert\n        /* \"#utility.yul\":302:354   */\n    tag_148:\n        /* \"#utility.yul\":376:399   */\n      dup2\n      calldataload\n      sub(shl(0xa0, 0x01), 0x01)\n        /* \"#utility.yul\":428:459   */\n      dup2\n      and\n        /* \"#utility.yul\":418:460   */\n      dup2\n      eq\n        /* \"#utility.yul\":408:478   */\n      tag_149\n      jumpi\n        /* \"#utility.yul\":474:475   */\n      0x00\n        /* \"#utility.yul\":471:472   */\n      dup1\n        /* \"#utility.yul\":464:476   */\n      revert\n        /* \"#utility.yul\":408:478   */\n    tag_149:\n        /* \"#utility.yul\":497:502   */\n      swap4\n        /* \"#utility.yul\":222:508   */\n      swap3\n      pop\n      pop\n      pop\n      jump\t// out\n        /* \"#utility.yul\":513:693   */\n    tag_35:\n        /* \"#utility.yul\":572:578   */\n      0x00\n        /* \"#utility.yul\":625:627   */\n      0x20\n        /* \"#utility.yul\":613:622   */\n      dup3\n        /* \"#utility.yul\":604:611   */\n      dup5\n        /* \"#utility.yul\":600:623   */\n      sub\n        /* \"#utility.yul\":596:628   */\n      slt\n        /* \"#utility.yul\":593:645   */\n      iszero\n      tag_151\n      jumpi\n        /* \"#utility.yul\":641:642   */\n      0x00\n        /* \"#utility.yul\":638:639   */\n      dup1\n        /* \"#utility.yul\":631:643   */\n      revert\n        /* \"#utility.yul\":593:645   */\n    tag_151:\n      pop\n        /* \"#utility.yul\":664:687   */\n      calldataload\n      swap2\n        /* \"#utility.yul\":513:693   */\n      swap1\n      pop\n      jump\t// out\n        /* \"#utility.yul\":927:1259   */\n    tag_50:\n        /* \"#utility.yul\":1129:1131   */\n      0x20\n        /* \"#utility.yul\":1111:1132   */\n      dup1\n      dup3\n      mstore\n        /* \"#utility.yul\":1168:1169   */\n      0x09\n        /* \"#utility.yul\":1148:1166   */\n      swap1\n      dup3\n      add\n        /* \"#utility.yul\":1141:1170   */\n      mstore\n      shl(0xb9, 0x2737ba1037bbb732b9)\n        /* \"#utility.yul\":1201:1203   */\n      0x40\n        /* \"#utility.yul\":1186:1204   */\n      dup3\n      add\n        /* \"#utility.yul\":1179:1218   */\n      mstore\n        /* \"#utility.yul\":1250:1252   */\n      0x60\n        /* \"#utility.yul\":1235:1253   */\n      add\n      swap1\n        /* \"#utility.yul\":927:1259   */\n      jump\t// out\n        /* \"#utility.yul\":1264:1448   */\n    tag_60:\n        /* \"#utility.yul\":1334:1340   */\n      0x00\n        /* \"#utility.yul\":1387:1389   */\n      0x20\n        /* \"#utility.yul\":1375:1384   */\n      dup3\n        /* \"#utility.yul\":1366:1373   */\n      dup5\n        /* \"#utility.yul\":1362:1385   */\n      sub\n        /* \"#utility.yul\":1358:1390   */\n      slt\n        /* \"#utility.yul\":1355:1407   */\n      iszero\n      tag_155\n      jumpi\n        /* \"#utility.yul\":1403:1404   */\n      0x00\n        /* \"#utility.yul\":1400:1401   */\n      dup1\n        /* \"#utility.yul\":1393:1405   */\n      revert\n        /* \"#utility.yul\":1355:1407   */\n    tag_155:\n      pop\n        /* \"#utility.yul\":1426:1442   */\n      mload\n      swap2\n        /* \"#utility.yul\":1264:1448   */\n      swap1\n      pop\n      jump\t// out\n        /* \"#utility.yul\":2078:2355   */\n    tag_69:\n        /* \"#utility.yul\":2145:2151   */\n      0x00\n        /* \"#utility.yul\":2198:2200   */\n      0x20\n        /* \"#utility.yul\":2186:2195   */\n      dup3\n        /* \"#utility.yul\":2177:2184   */\n      dup5\n        /* \"#utility.yul\":2173:2196   */\n      sub\n        /* \"#utility.yul\":2169:2201   */\n      slt\n        /* \"#utility.yul\":2166:2218   */\n      iszero\n      tag_159\n      jumpi\n        /* \"#utility.yul\":2214:2215   */\n      0x00\n        /* \"#utility.yul\":2211:2212   */\n      dup1\n        /* \"#utility.yul\":2204:2216   */\n      revert\n        /* \"#utility.yul\":2166:2218   */\n    tag_159:\n        /* \"#utility.yul\":2246:2255   */\n      dup2\n        /* \"#utility.yul\":2240:2256   */\n      mload\n        /* \"#utility.yul\":2299:2304   */\n      dup1\n        /* \"#utility.yul\":2292:2305   */\n      iszero\n        /* \"#utility.yul\":2285:2306   */\n      iszero\n        /* \"#utility.yul\":2278:2283   */\n      dup2\n        /* \"#utility.yul\":2275:2307   */\n      eq\n        /* \"#utility.yul\":2265:2325   */\n      tag_149\n      jumpi\n        /* \"#utility.yul\":2321:2322   */\n      0x00\n        /* \"#utility.yul\":2318:2319   */\n      dup1\n        /* \"#utility.yul\":2311:2323   */\n      revert\n        /* \"#utility.yul\":3780:3907   */\n    tag_95:\n        /* \"#utility.yul\":3841:3851   */\n      0x4e487b71\n        /* \"#utility.yul\":3836:3839   */\n      0xe0\n        /* \"#utility.yul\":3832:3852   */\n      shl\n        /* \"#utility.yul\":3829:3830   */\n      0x00\n        /* \"#utility.yul\":3822:3853   */\n      mstore\n        /* \"#utility.yul\":3872:3876   */\n      0x41\n        /* \"#utility.yul\":3869:3870   */\n      0x04\n        /* \"#utility.yul\":3862:3877   */\n      mstore\n        /* \"#utility.yul\":3896:3900   */\n      0x24\n        /* \"#utility.yul\":3893:3894   */\n      0x00\n        /* \"#utility.yul\":3886:3901   */\n      revert\n        /* \"#utility.yul\":3912:4039   */\n    tag_99:\n        /* \"#utility.yul\":3973:3983   */\n      0x4e487b71\n        /* \"#utility.yul\":3968:3971   */\n      0xe0\n        /* \"#utility.yul\":3964:3984   */\n      shl\n        /* \"#utility.yul\":3961:3962   */\n      0x00\n        /* \"#utility.yul\":3954:3985   */\n      mstore\n        /* \"#utility.yul\":4004:4008   */\n      0x32\n        /* \"#utility.yul\":4001:4002   */\n      0x04\n        /* \"#utility.yul\":3994:4009   */\n      mstore\n        /* \"#utility.yul\":4028:4032   */\n      0x24\n        /* \"#utility.yul\":4025:4026   */\n      0x00\n        /* \"#utility.yul\":4018:4033   */\n      revert\n        /* \"#utility.yul\":4044:4171   */\n    tag_144:\n        /* \"#utility.yul\":4105:4115   */\n      0x4e487b71\n        /* \"#utility.yul\":4100:4103   */\n      0xe0\n        /* \"#utility.yul\":4096:4116   */\n      shl\n        /* \"#utility.yul\":4093:4094   */\n      0x00\n        /* \"#utility.yul\":4086:4117   */\n      mstore\n        /* \"#utility.yul\":4136:4140   */\n      0x11\n        /* \"#utility.yul\":4133:4134   */\n      0x04\n        /* \"#utility.yul\":4126:4141   */\n      mstore\n        /* \"#utility.yul\":4160:4164   */\n      0x24\n        /* \"#utility.yul\":4157:4158   */\n      0x00\n        /* \"#utility.yul\":4150:4165   */\n      revert\n        /* \"#utility.yul\":4176:4301   */\n    tag_107:\n        /* \"#utility.yul\":4241:4250   */\n      dup1\n      dup3\n      add\n        /* \"#utility.yul\":4262:4272   */\n      dup1\n      dup3\n      gt\n        /* \"#utility.yul\":4259:4295   */\n      iszero\n      tag_170\n      jumpi\n        /* \"#utility.yul\":4275:4293   */\n      tag_170\n      tag_144\n      jump\t// in\n    tag_170:\n        /* \"#utility.yul\":4176:4301   */\n      swap3\n      swap2\n      pop\n      pop\n      jump\t// out\n        /* \"#utility.yul\":4306:5286   */\n    tag_109:\n        /* \"#utility.yul\":4568:4572   */\n      0x00\n        /* \"#utility.yul\":4616:4619   */\n      0xa0\n        /* \"#utility.yul\":4605:4614   */\n      dup3\n        /* \"#utility.yul\":4601:4620   */\n      add\n        /* \"#utility.yul\":4647:4653   */\n      dup8\n        /* \"#utility.yul\":4636:4645   */\n      dup4\n        /* \"#utility.yul\":4629:4654   */\n      mstore\n        /* \"#utility.yul\":4673:4675   */\n      0x20\n        /* \"#utility.yul\":4711:4717   */\n      dup8\n        /* \"#utility.yul\":4706:4708   */\n      0x20\n        /* \"#utility.yul\":4695:4704   */\n      dup6\n        /* \"#utility.yul\":4691:4709   */\n      add\n        /* \"#utility.yul\":4684:4718   */\n      mstore\n        /* \"#utility.yul\":4754:4757   */\n      0xa0\n        /* \"#utility.yul\":4749:4751   */\n      0x40\n        /* \"#utility.yul\":4738:4747   */\n      dup6\n        /* \"#utility.yul\":4734:4752   */\n      add\n        /* \"#utility.yul\":4727:4758   */\n      mstore\n        /* \"#utility.yul\":4778:4784   */\n      dup2\n        /* \"#utility.yul\":4813:4819   */\n      dup8\n        /* \"#utility.yul\":4807:4820   */\n      mload\n        /* \"#utility.yul\":4844:4850   */\n      dup1\n        /* \"#utility.yul\":4836:4842   */\n      dup5\n        /* \"#utility.yul\":4829:4851   */\n      mstore\n        /* \"#utility.yul\":4882:4885   */\n      0xc0\n        /* \"#utility.yul\":4871:4880   */\n      dup7\n        /* \"#utility.yul\":4867:4886   */\n      add\n        /* \"#utility.yul\":4860:4886   */\n      swap2\n      pop\n        /* \"#utility.yul\":4921:4923   */\n      0x20\n        /* \"#utility.yul\":4913:4919   */\n      dup10\n        /* \"#utility.yul\":4909:4924   */\n      add\n        /* \"#utility.yul\":4895:4924   */\n      swap4\n      pop\n        /* \"#utility.yul\":4942:4943   */\n      0x00\n        /* \"#utility.yul\":4952:5147   */\n    tag_172:\n        /* \"#utility.yul\":4966:4972   */\n      dup2\n        /* \"#utility.yul\":4963:4964   */\n      dup2\n        /* \"#utility.yul\":4960:4973   */\n      lt\n        /* \"#utility.yul\":4952:5147   */\n      iszero\n      tag_174\n      jumpi\n        /* \"#utility.yul\":5031:5044   */\n      dup5\n      mload\n      sub(shl(0xa0, 0x01), 0x01)\n        /* \"#utility.yul\":5027:5066   */\n      and\n        /* \"#utility.yul\":5015:5067   */\n      dup4\n      mstore\n        /* \"#utility.yul\":5122:5137   */\n      swap4\n      dup4\n      add\n      swap4\n        /* \"#utility.yul\":5087:5099   */\n      swap2\n      dup4\n      add\n      swap2\n        /* \"#utility.yul\":5063:5064   */\n      0x01\n        /* \"#utility.yul\":4981:4990   */\n      add\n        /* \"#utility.yul\":4952:5147   */\n      jump(tag_172)\n    tag_174:\n      pop\n      pop\n      sub(shl(0xa0, 0x01), 0x01)\n        /* \"#utility.yul\":5203:5235   */\n      swap7\n      swap1\n      swap7\n      and\n        /* \"#utility.yul\":5198:5200   */\n      0x60\n        /* \"#utility.yul\":5183:5201   */\n      dup6\n      add\n        /* \"#utility.yul\":5176:5236   */\n      mstore\n      pop\n      pop\n      pop\n        /* \"#utility.yul\":5267:5270   */\n      0x80\n        /* \"#utility.yul\":5252:5271   */\n      add\n        /* \"#utility.yul\":5245:5280   */\n      mstore\n        /* \"#utility.yul\":5164:5167   */\n      swap4\n        /* \"#utility.yul\":4306:5286   */\n      swap3\n      pop\n      pop\n      pop\n      jump\t// out\n        /* \"#utility.yul\":5291:6396   */\n    tag_113:\n        /* \"#utility.yul\":5386:5392   */\n      0x00\n        /* \"#utility.yul\":5417:5419   */\n      0x20\n        /* \"#utility.yul\":5460:5462   */\n      dup1\n        /* \"#utility.yul\":5448:5457   */\n      dup4\n        /* \"#utility.yul\":5439:5446   */\n      dup6\n        /* \"#utility.yul\":5435:5458   */\n      sub\n        /* \"#utility.yul\":5431:5463   */\n      slt\n        /* \"#utility.yul\":5428:5480   */\n      iszero\n      tag_176\n      jumpi\n        /* \"#utility.yul\":5476:5477   */\n      0x00\n        /* \"#utility.yul\":5473:5474   */\n      dup1\n        /* \"#utility.yul\":5466:5478   */\n      revert\n        /* \"#utility.yul\":5428:5480   */\n    tag_176:\n        /* \"#utility.yul\":5509:5518   */\n      dup3\n        /* \"#utility.yul\":5503:5519   */\n      mload\n        /* \"#utility.yul\":5538:5556   */\n      0xffffffffffffffff\n        /* \"#utility.yul\":5579:5581   */\n      dup1\n        /* \"#utility.yul\":5571:5577   */\n      dup3\n        /* \"#utility.yul\":5568:5582   */\n      gt\n        /* \"#utility.yul\":5565:5599   */\n      iszero\n      tag_177\n      jumpi\n        /* \"#utility.yul\":5595:5596   */\n      0x00\n        /* \"#utility.yul\":5592:5593   */\n      dup1\n        /* \"#utility.yul\":5585:5597   */\n      revert\n        /* \"#utility.yul\":5565:5599   */\n    tag_177:\n        /* \"#utility.yul\":5633:5639   */\n      dup2\n        /* \"#utility.yul\":5622:5631   */\n      dup6\n        /* \"#utility.yul\":5618:5640   */\n      add\n        /* \"#utility.yul\":5608:5640   */\n      swap2\n      pop\n        /* \"#utility.yul\":5678:5685   */\n      dup6\n        /* \"#utility.yul\":5671:5675   */\n      0x1f\n        /* \"#utility.yul\":5667:5669   */\n      dup4\n        /* \"#utility.yul\":5663:5676   */\n      add\n        /* \"#utility.yul\":5659:5686   */\n      slt\n        /* \"#utility.yul\":5649:5704   */\n      tag_178\n      jumpi\n        /* \"#utility.yul\":5700:5701   */\n      0x00\n        /* \"#utility.yul\":5697:5698   */\n      dup1\n        /* \"#utility.yul\":5690:5702   */\n      revert\n        /* \"#utility.yul\":5649:5704   */\n    tag_178:\n        /* \"#utility.yul\":5729:5731   */\n      dup2\n        /* \"#utility.yul\":5723:5732   */\n      mload\n        /* \"#utility.yul\":5751:5753   */\n      dup2\n        /* \"#utility.yul\":5747:5749   */\n      dup2\n        /* \"#utility.yul\":5744:5754   */\n      gt\n        /* \"#utility.yul\":5741:5777   */\n      iszero\n      tag_180\n      jumpi\n        /* \"#utility.yul\":5757:5775   */\n      tag_180\n      tag_95\n      jump\t// in\n    tag_180:\n        /* \"#utility.yul\":5803:5805   */\n      dup1\n        /* \"#utility.yul\":5800:5801   */\n      0x05\n        /* \"#utility.yul\":5796:5806   */\n      shl\n        /* \"#utility.yul\":5835:5837   */\n      0x40\n        /* \"#utility.yul\":5829:5838   */\n      mload\n        /* \"#utility.yul\":5898:5900   */\n      0x1f\n        /* \"#utility.yul\":5894:5901   */\n      not\n        /* \"#utility.yul\":5889:5891   */\n      0x3f\n        /* \"#utility.yul\":5885:5887   */\n      dup4\n        /* \"#utility.yul\":5881:5892   */\n      add\n        /* \"#utility.yul\":5877:5902   */\n      and\n        /* \"#utility.yul\":5869:5875   */\n      dup2\n        /* \"#utility.yul\":5865:5903   */\n      add\n        /* \"#utility.yul\":5953:5959   */\n      dup2\n        /* \"#utility.yul\":5941:5951   */\n      dup2\n        /* \"#utility.yul\":5938:5960   */\n      lt\n        /* \"#utility.yul\":5933:5935   */\n      dup6\n        /* \"#utility.yul\":5921:5931   */\n      dup3\n        /* \"#utility.yul\":5918:5936   */\n      gt\n        /* \"#utility.yul\":5915:5961   */\n      or\n        /* \"#utility.yul\":5912:5984   */\n      iszero\n      tag_182\n      jumpi\n        /* \"#utility.yul\":5964:5982   */\n      tag_182\n      tag_95\n      jump\t// in\n    tag_182:\n        /* \"#utility.yul\":6000:6002   */\n      0x40\n        /* \"#utility.yul\":5993:6015   */\n      mstore\n        /* \"#utility.yul\":6050:6068   */\n      swap2\n      dup3\n      mstore\n        /* \"#utility.yul\":6084:6099   */\n      dup5\n      dup3\n      add\n      swap3\n      pop\n        /* \"#utility.yul\":6126:6137   */\n      dup4\n      dup2\n      add\n        /* \"#utility.yul\":6122:6142   */\n      dup6\n      add\n      swap2\n        /* \"#utility.yul\":6154:6173   */\n      dup9\n      dup4\n      gt\n        /* \"#utility.yul\":6151:6190   */\n      iszero\n      tag_183\n      jumpi\n        /* \"#utility.yul\":6186:6187   */\n      0x00\n        /* \"#utility.yul\":6183:6184   */\n      dup1\n        /* \"#utility.yul\":6176:6188   */\n      revert\n        /* \"#utility.yul\":6151:6190   */\n    tag_183:\n        /* \"#utility.yul\":6210:6221   */\n      swap4\n      dup6\n      add\n      swap4\n        /* \"#utility.yul\":6230:6365   */\n    tag_184:\n        /* \"#utility.yul\":6246:6252   */\n      dup3\n        /* \"#utility.yul\":6241:6244   */\n      dup6\n        /* \"#utility.yul\":6238:6253   */\n      lt\n        /* \"#utility.yul\":6230:6365   */\n      iszero\n      tag_186\n      jumpi\n        /* \"#utility.yul\":6312:6322   */\n      dup5\n      mload\n        /* \"#utility.yul\":6300:6323   */\n      dup5\n      mstore\n        /* \"#utility.yul\":6263:6275   */\n      swap4\n      dup6\n      add\n      swap4\n        /* \"#utility.yul\":6343:6355   */\n      swap3\n      dup6\n      add\n      swap3\n        /* \"#utility.yul\":6230:6365   */\n      jump(tag_184)\n    tag_186:\n        /* \"#utility.yul\":6384:6390   */\n      swap9\n        /* \"#utility.yul\":5291:6396   */\n      swap8\n      pop\n      pop\n      pop\n      pop\n      pop\n      pop\n      pop\n      pop\n      jump\t// out\n        /* \"#utility.yul\":6401:6529   */\n    tag_119:\n        /* \"#utility.yul\":6468:6477   */\n      dup2\n      dup2\n      sub\n        /* \"#utility.yul\":6489:6500   */\n      dup2\n      dup2\n      gt\n        /* \"#utility.yul\":6486:6523   */\n      iszero\n      tag_170\n      jumpi\n        /* \"#utility.yul\":6503:6521   */\n      tag_170\n      tag_144\n      jump\t// in\n\n    auxdata: 0xa2646970667358221220e3d762bc1388880ce8a3bc18a21a59775ffb26bcd58bd5ad8e81aabf7e93cb7964736f6c63430008180033\n}\n",
				"bytecode": {
					"linkReferences": {},
					"object": "608060405234801561000f575f80fd5b50604051610cc3380380610cc383398101604081905261002e91610089565b5f80546001600160a01b039384166001600160a01b03199182161790915560028054929093169181169190911790915560018054909116331790556100ba565b80516001600160a01b0381168114610084575f80fd5b919050565b5f806040838503121561009a575f80fd5b6100a38361006e565b91506100b16020840161006e565b90509250929050565b610bfc806100c75f395ff3fe608060405234801561000f575f80fd5b506004361061009b575f3560e01c80639b7f4e29116100635780639b7f4e29146101105780639c406f94146101235780639e8c708e14610136578063c21ebd0714610149578063c54e44eb14610164575f80fd5b8063225fc38d1461009f5780633fa2a5f0146100cd57806342d50f19146100e25780638da5cb5b146100f557806393feb8a914610108575b5f80fd5b5f546100b1906001600160a01b031681565b6040516001600160a01b03909116815260200160405180910390f35b6100e06100db366004610997565b61017f565b005b6002546100b1906001600160a01b031681565b6001546100b1906001600160a01b031681565b6100e06101d3565b6100e061011e366004610997565b610362565b6100e06101313660046109c4565b6103ae565b6100e0610144366004610997565b610835565b6100b17310ed43c718714eb63d5aa57b78b54704e256024e81565b6100b17355d398326f99059ff775485246999027b319795581565b6001546001600160a01b031633146101b25760405162461bcd60e51b81526004016101a9906109db565b60405180910390fd5b5f80546001600160a01b0319166001600160a01b0392909216919091179055565b6001546001600160a01b031633146101fd5760405162461bcd60e51b81526004016101a9906109db565b5f80546040516370a0823160e01b81523060048201526001600160a01b03909116906370a0823190602401602060405180830381865afa158015610243573d5f803e3d5ffd5b505050506040513d601f19601f8201168201806040525081019061026791906109fe565b90505f81116102ac5760405162461bcd60e51b81526020600482015260116024820152704e6f20484954424e422062616c616e636560781b60448201526064016101a9565b5f5460025460405163a9059cbb60e01b81526001600160a01b0391821660048201526024810184905291169063a9059cbb906044016020604051808303815f875af11580156102fd573d5f803e3d5ffd5b505050506040513d601f19601f820116820180604052508101906103219190610a15565b61035f5760405162461bcd60e51b815260206004820152600f60248201526e151c985b9cd9995c8819985a5b1959608a1b60448201526064016101a9565b50565b6001546001600160a01b0316331461038c5760405162461bcd60e51b81526004016101a9906109db565b600280546001600160a01b0319166001600160a01b0392909216919091179055565b5f81116103f25760405162461bcd60e51b81526020600482015260126024820152710416d6f756e74206d757374206265203e20360741b60448201526064016101a9565b6040516323b872dd60e01b8152336004820152306024820152604481018290527355d398326f99059ff775485246999027b3197955906323b872dd906064016020604051808303815f875af115801561044d573d5f803e3d5ffd5b505050506040513d601f19601f820116820180604052508101906104719190610a15565b6104b45760405162461bcd60e51b81526020600482015260146024820152731554d115081d1c985b9cd9995c8819985a5b195960621b60448201526064016101a9565b60405163095ea7b360e01b81527310ed43c718714eb63d5aa57b78b54704e256024e6004820152602481018290527355d398326f99059ff775485246999027b31979559063095ea7b3906044016020604051808303815f875af115801561051d573d5f803e3d5ffd5b505050506040513d601f19601f820116820180604052508101906105419190610a15565b506040805160028082526060820183525f926020830190803683370190505090507355d398326f99059ff775485246999027b3197955815f8151811061058957610589610a48565b6001600160a01b0392831660209182029290920101525f548251911690829060019081106105b9576105b9610a48565b6001600160a01b0392831660209182029290920101525f80546040516370a0823160e01b8152306004820152919216906370a0823190602401602060405180830381865afa15801561060d573d5f803e3d5ffd5b505050506040513d601f19601f8201168201806040525081019061063191906109fe565b90507310ed43c718714eb63d5aa57b78b54704e256024e6338ed1739845f853061065d4261012c610a70565b6040518663ffffffff1660e01b815260040161067d959493929190610a89565b5f604051808303815f875af1158015610698573d5f803e3d5ffd5b505050506040513d5f823e601f3d908101601f191682016040526106bf9190810190610afa565b505f80546040516370a0823160e01b81523060048201526001600160a01b03909116906370a0823190602401602060405180830381865afa158015610706573d5f803e3d5ffd5b505050506040513d601f19601f8201168201806040525081019061072a91906109fe565b90505f6107378383610bb3565b5f5460025460405163a9059cbb60e01b81526001600160a01b03918216600482015260248101849052929350169063a9059cbb906044016020604051808303815f875af115801561078a573d5f803e3d5ffd5b505050506040513d601f19601f820116820180604052508101906107ae9190610a15565b6107f35760405162461bcd60e51b8152602060048201526016602482015275121255109390881d1c985b9cd9995c8819985a5b195960521b60448201526064016101a9565b604080518681526020810183905233917f0d5a7ab525fa75e55d40be811859d7e1802f4778bd1f863933bfd76ace96e78c910160405180910390a25050505050565b6001546001600160a01b0316331461085f5760405162461bcd60e51b81526004016101a9906109db565b5f546001600160a01b03908116908216036108b45760405162461bcd60e51b815260206004820152601560248201527421b0b73737ba103932b1b7bb32b9102424aa21272160591b60448201526064016101a9565b6040516370a0823160e01b81523060048201525f906001600160a01b038316906370a0823190602401602060405180830381865afa1580156108f8573d5f803e3d5ffd5b505050506040513d601f19601f8201168201806040525081019061091c91906109fe565b60015460405163a9059cbb60e01b81526001600160a01b0391821660048201526024810183905291925083169063a9059cbb906044016020604051808303815f875af115801561096e573d5f803e3d5ffd5b505050506040513d601f19601f820116820180604052508101906109929190610a15565b505050565b5f602082840312156109a7575f80fd5b81356001600160a01b03811681146109bd575f80fd5b9392505050565b5f602082840312156109d4575f80fd5b5035919050565b6020808252600990820152682737ba1037bbb732b960b91b604082015260600190565b5f60208284031215610a0e575f80fd5b5051919050565b5f60208284031215610a25575f80fd5b815180151581146109bd575f80fd5b634e487b7160e01b5f52604160045260245ffd5b634e487b7160e01b5f52603260045260245ffd5b634e487b7160e01b5f52601160045260245ffd5b80820180821115610a8357610a83610a5c565b92915050565b5f60a08201878352602087602085015260a0604085015281875180845260c0860191506020890193505f5b81811015610ad95784516001600160a01b031683529383019391830191600101610ab4565b50506001600160a01b03969096166060850152505050608001529392505050565b5f6020808385031215610b0b575f80fd5b825167ffffffffffffffff80821115610b22575f80fd5b818501915085601f830112610b35575f80fd5b815181811115610b4757610b47610a34565b8060051b604051601f19603f83011681018181108582111715610b6c57610b6c610a34565b604052918252848201925083810185019188831115610b89575f80fd5b938501935b82851015610ba757845184529385019392850192610b8e565b98975050505050505050565b81810381811115610a8357610a83610a5c56fea2646970667358221220e3d762bc1388880ce8a3bc18a21a59775ffb26bcd58bd5ad8e81aabf7e93cb7964736f6c63430008180033",
					"opcodes": "PUSH1 0x80 PUSH1 0x40 MSTORE CALLVALUE DUP1 ISZERO PUSH2 0xF JUMPI PUSH0 DUP1 REVERT JUMPDEST POP PUSH1 0x40 MLOAD PUSH2 0xCC3 CODESIZE SUB DUP1 PUSH2 0xCC3 DUP4 CODECOPY DUP2 ADD PUSH1 0x40 DUP2 SWAP1 MSTORE PUSH2 0x2E SWAP2 PUSH2 0x89 JUMP JUMPDEST PUSH0 DUP1 SLOAD PUSH1 0x1 PUSH1 0x1 PUSH1 0xA0 SHL SUB SWAP4 DUP5 AND PUSH1 0x1 PUSH1 0x1 PUSH1 0xA0 SHL SUB NOT SWAP2 DUP3 AND OR SWAP1 SWAP2 SSTORE PUSH1 0x2 DUP1 SLOAD SWAP3 SWAP1 SWAP4 AND SWAP2 DUP2 AND SWAP2 SWAP1 SWAP2 OR SWAP1 SWAP2 SSTORE PUSH1 0x1 DUP1 SLOAD SWAP1 SWAP2 AND CALLER OR SWAP1 SSTORE PUSH2 0xBA JUMP JUMPDEST DUP1 MLOAD PUSH1 0x1 PUSH1 0x1 PUSH1 0xA0 SHL SUB DUP2 AND DUP2 EQ PUSH2 0x84 JUMPI PUSH0 DUP1 REVERT JUMPDEST SWAP2 SWAP1 POP JUMP JUMPDEST PUSH0 DUP1 PUSH1 0x40 DUP4 DUP6 SUB SLT ISZERO PUSH2 0x9A JUMPI PUSH0 DUP1 REVERT JUMPDEST PUSH2 0xA3 DUP4 PUSH2 0x6E JUMP JUMPDEST SWAP2 POP PUSH2 0xB1 PUSH1 0x20 DUP5 ADD PUSH2 0x6E JUMP JUMPDEST SWAP1 POP SWAP3 POP SWAP3 SWAP1 POP JUMP JUMPDEST PUSH2 0xBFC DUP1 PUSH2 0xC7 PUSH0 CODECOPY PUSH0 RETURN INVALID PUSH1 0x80 PUSH1 0x40 MSTORE CALLVALUE DUP1 ISZERO PUSH2 0xF JUMPI PUSH0 DUP1 REVERT JUMPDEST POP PUSH1 0x4 CALLDATASIZE LT PUSH2 0x9B JUMPI PUSH0 CALLDATALOAD PUSH1 0xE0 SHR DUP1 PUSH4 0x9B7F4E29 GT PUSH2 0x63 JUMPI DUP1 PUSH4 0x9B7F4E29 EQ PUSH2 0x110 JUMPI DUP1 PUSH4 0x9C406F94 EQ PUSH2 0x123 JUMPI DUP1 PUSH4 0x9E8C708E EQ PUSH2 0x136 JUMPI DUP1 PUSH4 0xC21EBD07 EQ PUSH2 0x149 JUMPI DUP1 PUSH4 0xC54E44EB EQ PUSH2 0x164 JUMPI PUSH0 DUP1 REVERT JUMPDEST DUP1 PUSH4 0x225FC38D EQ PUSH2 0x9F JUMPI DUP1 PUSH4 0x3FA2A5F0 EQ PUSH2 0xCD JUMPI DUP1 PUSH4 0x42D50F19 EQ PUSH2 0xE2 JUMPI DUP1 PUSH4 0x8DA5CB5B EQ PUSH2 0xF5 JUMPI DUP1 PUSH4 0x93FEB8A9 EQ PUSH2 0x108 JUMPI JUMPDEST PUSH0 DUP1 REVERT JUMPDEST PUSH0 SLOAD PUSH2 0xB1 SWAP1 PUSH1 0x1 PUSH1 0x1 PUSH1 0xA0 SHL SUB AND DUP2 JUMP JUMPDEST PUSH1 0x40 MLOAD PUSH1 0x1 PUSH1 0x1 PUSH1 0xA0 SHL SUB SWAP1 SWAP2 AND DUP2 MSTORE PUSH1 0x20 ADD PUSH1 0x40 MLOAD DUP1 SWAP2 SUB SWAP1 RETURN JUMPDEST PUSH2 0xE0 PUSH2 0xDB CALLDATASIZE PUSH1 0x4 PUSH2 0x997 JUMP JUMPDEST PUSH2 0x17F JUMP JUMPDEST STOP JUMPDEST PUSH1 0x2 SLOAD PUSH2 0xB1 SWAP1 PUSH1 0x1 PUSH1 0x1 PUSH1 0xA0 SHL SUB AND DUP2 JUMP JUMPDEST PUSH1 0x1 SLOAD PUSH2 0xB1 SWAP1 PUSH1 0x1 PUSH1 0x1 PUSH1 0xA0 SHL SUB AND DUP2 JUMP JUMPDEST PUSH2 0xE0 PUSH2 0x1D3 JUMP JUMPDEST PUSH2 0xE0 PUSH2 0x11E CALLDATASIZE PUSH1 0x4 PUSH2 0x997 JUMP JUMPDEST PUSH2 0x362 JUMP JUMPDEST PUSH2 0xE0 PUSH2 0x131 CALLDATASIZE PUSH1 0x4 PUSH2 0x9C4 JUMP JUMPDEST PUSH2 0x3AE JUMP JUMPDEST PUSH2 0xE0 PUSH2 0x144 CALLDATASIZE PUSH1 0x4 PUSH2 0x997 JUMP JUMPDEST PUSH2 0x835 JUMP JUMPDEST PUSH2 0xB1 PUSH20 0x10ED43C718714EB63D5AA57B78B54704E256024E DUP2 JUMP JUMPDEST PUSH2 0xB1 PUSH20 0x55D398326F99059FF775485246999027B3197955 DUP2 JUMP JUMPDEST PUSH1 0x1 SLOAD PUSH1 0x1 PUSH1 0x1 PUSH1 0xA0 SHL SUB AND CALLER EQ PUSH2 0x1B2 JUMPI PUSH1 0x40 MLOAD PUSH3 0x461BCD PUSH1 0xE5 SHL DUP2 MSTORE PUSH1 0x4 ADD PUSH2 0x1A9 SWAP1 PUSH2 0x9DB JUMP JUMPDEST PUSH1 0x40 MLOAD DUP1 SWAP2 SUB SWAP1 REVERT JUMPDEST PUSH0 DUP1 SLOAD PUSH1 0x1 PUSH1 0x1 PUSH1 0xA0 SHL SUB NOT AND PUSH1 0x1 PUSH1 0x1 PUSH1 0xA0 SHL SUB SWAP3 SWAP1 SWAP3 AND SWAP2 SWAP1 SWAP2 OR SWAP1 SSTORE JUMP JUMPDEST PUSH1 0x1 SLOAD PUSH1 0x1 PUSH1 0x1 PUSH1 0xA0 SHL SUB AND CALLER EQ PUSH2 0x1FD JUMPI PUSH1 0x40 MLOAD PUSH3 0x461BCD PUSH1 0xE5 SHL DUP2 MSTORE PUSH1 0x4 ADD PUSH2 0x1A9 SWAP1 PUSH2 0x9DB JUMP JUMPDEST PUSH0 DUP1 SLOAD PUSH1 0x40 MLOAD PUSH4 0x70A08231 PUSH1 0xE0 SHL DUP2 MSTORE ADDRESS PUSH1 0x4 DUP3 ADD MSTORE PUSH1 0x1 PUSH1 0x1 PUSH1 0xA0 SHL SUB SWAP1 SWAP2 AND SWAP1 PUSH4 0x70A08231 SWAP1 PUSH1 0x24 ADD PUSH1 0x20 PUSH1 0x40 MLOAD DUP1 DUP4 SUB DUP2 DUP7 GAS STATICCALL ISZERO DUP1 ISZERO PUSH2 0x243 JUMPI RETURNDATASIZE PUSH0 DUP1 RETURNDATACOPY RETURNDATASIZE PUSH0 REVERT JUMPDEST POP POP POP POP PUSH1 0x40 MLOAD RETURNDATASIZE PUSH1 0x1F NOT PUSH1 0x1F DUP3 ADD AND DUP3 ADD DUP1 PUSH1 0x40 MSTORE POP DUP2 ADD SWAP1 PUSH2 0x267 SWAP2 SWAP1 PUSH2 0x9FE JUMP JUMPDEST SWAP1 POP PUSH0 DUP2 GT PUSH2 0x2AC JUMPI PUSH1 0x40 MLOAD PUSH3 0x461BCD PUSH1 0xE5 SHL DUP2 MSTORE PUSH1 0x20 PUSH1 0x4 DUP3 ADD MSTORE PUSH1 0x11 PUSH1 0x24 DUP3 ADD MSTORE PUSH17 0x4E6F20484954424E422062616C616E6365 PUSH1 0x78 SHL PUSH1 0x44 DUP3 ADD MSTORE PUSH1 0x64 ADD PUSH2 0x1A9 JUMP JUMPDEST PUSH0 SLOAD PUSH1 0x2 SLOAD PUSH1 0x40 MLOAD PUSH4 0xA9059CBB PUSH1 0xE0 SHL DUP2 MSTORE PUSH1 0x1 PUSH1 0x1 PUSH1 0xA0 SHL SUB SWAP2 DUP3 AND PUSH1 0x4 DUP3 ADD MSTORE PUSH1 0x24 DUP2 ADD DUP5 SWAP1 MSTORE SWAP2 AND SWAP1 PUSH4 0xA9059CBB SWAP1 PUSH1 0x44 ADD PUSH1 0x20 PUSH1 0x40 MLOAD DUP1 DUP4 SUB DUP2 PUSH0 DUP8 GAS CALL ISZERO DUP1 ISZERO PUSH2 0x2FD JUMPI RETURNDATASIZE PUSH0 DUP1 RETURNDATACOPY RETURNDATASIZE PUSH0 REVERT JUMPDEST POP POP POP POP PUSH1 0x40 MLOAD RETURNDATASIZE PUSH1 0x1F NOT PUSH1 0x1F DUP3 ADD AND DUP3 ADD DUP1 PUSH1 0x40 MSTORE POP DUP2 ADD SWAP1 PUSH2 0x321 SWAP2 SWAP1 PUSH2 0xA15 JUMP JUMPDEST PUSH2 0x35F JUMPI PUSH1 0x40 MLOAD PUSH3 0x461BCD PUSH1 0xE5 SHL DUP2 MSTORE PUSH1 0x20 PUSH1 0x4 DUP3 ADD MSTORE PUSH1 0xF PUSH1 0x24 DUP3 ADD MSTORE PUSH15 0x151C985B9CD9995C8819985A5B1959 PUSH1 0x8A SHL PUSH1 0x44 DUP3 ADD MSTORE PUSH1 0x64 ADD PUSH2 0x1A9 JUMP JUMPDEST POP JUMP JUMPDEST PUSH1 0x1 SLOAD PUSH1 0x1 PUSH1 0x1 PUSH1 0xA0 SHL SUB AND CALLER EQ PUSH2 0x38C JUMPI PUSH1 0x40 MLOAD PUSH3 0x461BCD PUSH1 0xE5 SHL DUP2 MSTORE PUSH1 0x4 ADD PUSH2 0x1A9 SWAP1 PUSH2 0x9DB JUMP JUMPDEST PUSH1 0x2 DUP1 SLOAD PUSH1 0x1 PUSH1 0x1 PUSH1 0xA0 SHL SUB NOT AND PUSH1 0x1 PUSH1 0x1 PUSH1 0xA0 SHL SUB SWAP3 SWAP1 SWAP3 AND SWAP2 SWAP1 SWAP2 OR SWAP1 SSTORE JUMP JUMPDEST PUSH0 DUP2 GT PUSH2 0x3F2 JUMPI PUSH1 0x40 MLOAD PUSH3 0x461BCD PUSH1 0xE5 SHL DUP2 MSTORE PUSH1 0x20 PUSH1 0x4 DUP3 ADD MSTORE PUSH1 0x12 PUSH1 0x24 DUP3 ADD MSTORE PUSH18 0x416D6F756E74206D757374206265203E203 PUSH1 0x74 SHL PUSH1 0x44 DUP3 ADD MSTORE PUSH1 0x64 ADD PUSH2 0x1A9 JUMP JUMPDEST PUSH1 0x40 MLOAD PUSH4 0x23B872DD PUSH1 0xE0 SHL DUP2 MSTORE CALLER PUSH1 0x4 DUP3 ADD MSTORE ADDRESS PUSH1 0x24 DUP3 ADD MSTORE PUSH1 0x44 DUP2 ADD DUP3 SWAP1 MSTORE PUSH20 0x55D398326F99059FF775485246999027B3197955 SWAP1 PUSH4 0x23B872DD SWAP1 PUSH1 0x64 ADD PUSH1 0x20 PUSH1 0x40 MLOAD DUP1 DUP4 SUB DUP2 PUSH0 DUP8 GAS CALL ISZERO DUP1 ISZERO PUSH2 0x44D JUMPI RETURNDATASIZE PUSH0 DUP1 RETURNDATACOPY RETURNDATASIZE PUSH0 REVERT JUMPDEST POP POP POP POP PUSH1 0x40 MLOAD RETURNDATASIZE PUSH1 0x1F NOT PUSH1 0x1F DUP3 ADD AND DUP3 ADD DUP1 PUSH1 0x40 MSTORE POP DUP2 ADD SWAP1 PUSH2 0x471 SWAP2 SWAP1 PUSH2 0xA15 JUMP JUMPDEST PUSH2 0x4B4 JUMPI PUSH1 0x40 MLOAD PUSH3 0x461BCD PUSH1 0xE5 SHL DUP2 MSTORE PUSH1 0x20 PUSH1 0x4 DUP3 ADD MSTORE PUSH1 0x14 PUSH1 0x24 DUP3 ADD MSTORE PUSH20 0x1554D115081D1C985B9CD9995C8819985A5B1959 PUSH1 0x62 SHL PUSH1 0x44 DUP3 ADD MSTORE PUSH1 0x64 ADD PUSH2 0x1A9 JUMP JUMPDEST PUSH1 0x40 MLOAD PUSH4 0x95EA7B3 PUSH1 0xE0 SHL DUP2 MSTORE PUSH20 0x10ED43C718714EB63D5AA57B78B54704E256024E PUSH1 0x4 DUP3 ADD MSTORE PUSH1 0x24 DUP2 ADD DUP3 SWAP1 MSTORE PUSH20 0x55D398326F99059FF775485246999027B3197955 SWAP1 PUSH4 0x95EA7B3 SWAP1 PUSH1 0x44 ADD PUSH1 0x20 PUSH1 0x40 MLOAD DUP1 DUP4 SUB DUP2 PUSH0 DUP8 GAS CALL ISZERO DUP1 ISZERO PUSH2 0x51D JUMPI RETURNDATASIZE PUSH0 DUP1 RETURNDATACOPY RETURNDATASIZE PUSH0 REVERT JUMPDEST POP POP POP POP PUSH1 0x40 MLOAD RETURNDATASIZE PUSH1 0x1F NOT PUSH1 0x1F DUP3 ADD AND DUP3 ADD DUP1 PUSH1 0x40 MSTORE POP DUP2 ADD SWAP1 PUSH2 0x541 SWAP2 SWAP1 PUSH2 0xA15 JUMP JUMPDEST POP PUSH1 0x40 DUP1 MLOAD PUSH1 0x2 DUP1 DUP3 MSTORE PUSH1 0x60 DUP3 ADD DUP4 MSTORE PUSH0 SWAP3 PUSH1 0x20 DUP4 ADD SWAP1 DUP1 CALLDATASIZE DUP4 CALLDATACOPY ADD SWAP1 POP POP SWAP1 POP PUSH20 0x55D398326F99059FF775485246999027B3197955 DUP2 PUSH0 DUP2 MLOAD DUP2 LT PUSH2 0x589 JUMPI PUSH2 0x589 PUSH2 0xA48 JUMP JUMPDEST PUSH1 0x1 PUSH1 0x1 PUSH1 0xA0 SHL SUB SWAP3 DUP4 AND PUSH1 0x20 SWAP2 DUP3 MUL SWAP3 SWAP1 SWAP3 ADD ADD MSTORE PUSH0 SLOAD DUP3 MLOAD SWAP2 AND SWAP1 DUP3 SWAP1 PUSH1 0x1 SWAP1 DUP2 LT PUSH2 0x5B9 JUMPI PUSH2 0x5B9 PUSH2 0xA48 JUMP JUMPDEST PUSH1 0x1 PUSH1 0x1 PUSH1 0xA0 SHL SUB SWAP3 DUP4 AND PUSH1 0x20 SWAP2 DUP3 MUL SWAP3 SWAP1 SWAP3 ADD ADD MSTORE PUSH0 DUP1 SLOAD PUSH1 0x40 MLOAD PUSH4 0x70A08231 PUSH1 0xE0 SHL DUP2 MSTORE ADDRESS PUSH1 0x4 DUP3 ADD MSTORE SWAP2 SWAP3 AND SWAP1 PUSH4 0x70A08231 SWAP1 PUSH1 0x24 ADD PUSH1 0x20 PUSH1 0x40 MLOAD DUP1 DUP4 SUB DUP2 DUP7 GAS STATICCALL ISZERO DUP1 ISZERO PUSH2 0x60D JUMPI RETURNDATASIZE PUSH0 DUP1 RETURNDATACOPY RETURNDATASIZE PUSH0 REVERT JUMPDEST POP POP POP POP PUSH1 0x40 MLOAD RETURNDATASIZE PUSH1 0x1F NOT PUSH1 0x1F DUP3 ADD AND DUP3 ADD DUP1 PUSH1 0x40 MSTORE POP DUP2 ADD SWAP1 PUSH2 0x631 SWAP2 SWAP1 PUSH2 0x9FE JUMP JUMPDEST SWAP1 POP PUSH20 0x10ED43C718714EB63D5AA57B78B54704E256024E PUSH4 0x38ED1739 DUP5 PUSH0 DUP6 ADDRESS PUSH2 0x65D TIMESTAMP PUSH2 0x12C PUSH2 0xA70 JUMP JUMPDEST PUSH1 0x40 MLOAD DUP7 PUSH4 0xFFFFFFFF AND PUSH1 0xE0 SHL DUP2 MSTORE PUSH1 0x4 ADD PUSH2 0x67D SWAP6 SWAP5 SWAP4 SWAP3 SWAP2 SWAP1 PUSH2 0xA89 JUMP JUMPDEST PUSH0 PUSH1 0x40 MLOAD DUP1 DUP4 SUB DUP2 PUSH0 DUP8 GAS CALL ISZERO DUP1 ISZERO PUSH2 0x698 JUMPI RETURNDATASIZE PUSH0 DUP1 RETURNDATACOPY RETURNDATASIZE PUSH0 REVERT JUMPDEST POP POP POP POP PUSH1 0x40 MLOAD RETURNDATASIZE PUSH0 DUP3 RETURNDATACOPY PUSH1 0x1F RETURNDATASIZE SWAP1 DUP2 ADD PUSH1 0x1F NOT AND DUP3 ADD PUSH1 0x40 MSTORE PUSH2 0x6BF SWAP2 SWAP1 DUP2 ADD SWAP1 PUSH2 0xAFA JUMP JUMPDEST POP PUSH0 DUP1 SLOAD PUSH1 0x40 MLOAD PUSH4 0x70A08231 PUSH1 0xE0 SHL DUP2 MSTORE ADDRESS PUSH1 0x4 DUP3 ADD MSTORE PUSH1 0x1 PUSH1 0x1 PUSH1 0xA0 SHL SUB SWAP1 SWAP2 AND SWAP1 PUSH4 0x70A08231 SWAP1 PUSH1 0x24 ADD PUSH1 0x20 PUSH1 0x40 MLOAD DUP1 DUP4 SUB DUP2 DUP7 GAS STATICCALL ISZERO DUP1 ISZERO PUSH2 0x706 JUMPI RETURNDATASIZE PUSH0 DUP1 RETURNDATACOPY RETURNDATASIZE PUSH0 REVERT JUMPDEST POP POP POP POP PUSH1 0x40 MLOAD RETURNDATASIZE PUSH1 0x1F NOT PUSH1 0x1F DUP3 ADD AND DUP3 ADD DUP1 PUSH1 0x40 MSTORE POP DUP2 ADD SWAP1 PUSH2 0x72A SWAP2 SWAP1 PUSH2 0x9FE JUMP JUMPDEST SWAP1 POP PUSH0 PUSH2 0x737 DUP4 DUP4 PUSH2 0xBB3 JUMP JUMPDEST PUSH0 SLOAD PUSH1 0x2 SLOAD PUSH1 0x40 MLOAD PUSH4 0xA9059CBB PUSH1 0xE0 SHL DUP2 MSTORE PUSH1 0x1 PUSH1 0x1 PUSH1 0xA0 SHL SUB SWAP2 DUP3 AND PUSH1 0x4 DUP3 ADD MSTORE PUSH1 0x24 DUP2 ADD DUP5 SWAP1 MSTORE SWAP3 SWAP4 POP AND SWAP1 PUSH4 0xA9059CBB SWAP1 PUSH1 0x44 ADD PUSH1 0x20 PUSH1 0x40 MLOAD DUP1 DUP4 SUB DUP2 PUSH0 DUP8 GAS CALL ISZERO DUP1 ISZERO PUSH2 0x78A JUMPI RETURNDATASIZE PUSH0 DUP1 RETURNDATACOPY RETURNDATASIZE PUSH0 REVERT JUMPDEST POP POP POP POP PUSH1 0x40 MLOAD RETURNDATASIZE PUSH1 0x1F NOT PUSH1 0x1F DUP3 ADD AND DUP3 ADD DUP1 PUSH1 0x40 MSTORE POP DUP2 ADD SWAP1 PUSH2 0x7AE SWAP2 SWAP1 PUSH2 0xA15 JUMP JUMPDEST PUSH2 0x7F3 JUMPI PUSH1 0x40 MLOAD PUSH3 0x461BCD PUSH1 0xE5 SHL DUP2 MSTORE PUSH1 0x20 PUSH1 0x4 DUP3 ADD MSTORE PUSH1 0x16 PUSH1 0x24 DUP3 ADD MSTORE PUSH22 0x121255109390881D1C985B9CD9995C8819985A5B1959 PUSH1 0x52 SHL PUSH1 0x44 DUP3 ADD MSTORE PUSH1 0x64 ADD PUSH2 0x1A9 JUMP JUMPDEST PUSH1 0x40 DUP1 MLOAD DUP7 DUP2 MSTORE PUSH1 0x20 DUP2 ADD DUP4 SWAP1 MSTORE CALLER SWAP2 PUSH32 0xD5A7AB525FA75E55D40BE811859D7E1802F4778BD1F863933BFD76ACE96E78C SWAP2 ADD PUSH1 0x40 MLOAD DUP1 SWAP2 SUB SWAP1 LOG2 POP POP POP POP POP JUMP JUMPDEST PUSH1 0x1 SLOAD PUSH1 0x1 PUSH1 0x1 PUSH1 0xA0 SHL SUB AND CALLER EQ PUSH2 0x85F JUMPI PUSH1 0x40 MLOAD PUSH3 0x461BCD PUSH1 0xE5 SHL DUP2 MSTORE PUSH1 0x4 ADD PUSH2 0x1A9 SWAP1 PUSH2 0x9DB JUMP JUMPDEST PUSH0 SLOAD PUSH1 0x1 PUSH1 0x1 PUSH1 0xA0 SHL SUB SWAP1 DUP2 AND SWAP1 DUP3 AND SUB PUSH2 0x8B4 JUMPI PUSH1 0x40 MLOAD PUSH3 0x461BCD PUSH1 0xE5 SHL DUP2 MSTORE PUSH1 0x20 PUSH1 0x4 DUP3 ADD MSTORE PUSH1 0x15 PUSH1 0x24 DUP3 ADD MSTORE PUSH21 0x21B0B73737BA103932B1B7BB32B9102424AA212721 PUSH1 0x59 SHL PUSH1 0x44 DUP3 ADD MSTORE PUSH1 0x64 ADD PUSH2 0x1A9 JUMP JUMPDEST PUSH1 0x40 MLOAD PUSH4 0x70A08231 PUSH1 0xE0 SHL DUP2 MSTORE ADDRESS PUSH1 0x4 DUP3 ADD MSTORE PUSH0 SWAP1 PUSH1 0x1 PUSH1 0x1 PUSH1 0xA0 SHL SUB DUP4 AND SWAP1 PUSH4 0x70A08231 SWAP1 PUSH1 0x24 ADD PUSH1 0x20 PUSH1 0x40 MLOAD DUP1 DUP4 SUB DUP2 DUP7 GAS STATICCALL ISZERO DUP1 ISZERO PUSH2 0x8F8 JUMPI RETURNDATASIZE PUSH0 DUP1 RETURNDATACOPY RETURNDATASIZE PUSH0 REVERT JUMPDEST POP POP POP POP PUSH1 0x40 MLOAD RETURNDATASIZE PUSH1 0x1F NOT PUSH1 0x1F DUP3 ADD AND DUP3 ADD DUP1 PUSH1 0x40 MSTORE POP DUP2 ADD SWAP1 PUSH2 0x91C SWAP2 SWAP1 PUSH2 0x9FE JUMP JUMPDEST PUSH1 0x1 SLOAD PUSH1 0x40 MLOAD PUSH4 0xA9059CBB PUSH1 0xE0 SHL DUP2 MSTORE PUSH1 0x1 PUSH1 0x1 PUSH1 0xA0 SHL SUB SWAP2 DUP3 AND PUSH1 0x4 DUP3 ADD MSTORE PUSH1 0x24 DUP2 ADD DUP4 SWAP1 MSTORE SWAP2 SWAP3 POP DUP4 AND SWAP1 PUSH4 0xA9059CBB SWAP1 PUSH1 0x44 ADD PUSH1 0x20 PUSH1 0x40 MLOAD DUP1 DUP4 SUB DUP2 PUSH0 DUP8 GAS CALL ISZERO DUP1 ISZERO PUSH2 0x96E JUMPI RETURNDATASIZE PUSH0 DUP1 RETURNDATACOPY RETURNDATASIZE PUSH0 REVERT JUMPDEST POP POP POP POP PUSH1 0x40 MLOAD RETURNDATASIZE PUSH1 0x1F NOT PUSH1 0x1F DUP3 ADD AND DUP3 ADD DUP1 PUSH1 0x40 MSTORE POP DUP2 ADD SWAP1 PUSH2 0x992 SWAP2 SWAP1 PUSH2 0xA15 JUMP JUMPDEST POP POP POP JUMP JUMPDEST PUSH0 PUSH1 0x20 DUP3 DUP5 SUB SLT ISZERO PUSH2 0x9A7 JUMPI PUSH0 DUP1 REVERT JUMPDEST DUP2 CALLDATALOAD PUSH1 0x1 PUSH1 0x1 PUSH1 0xA0 SHL SUB DUP2 AND DUP2 EQ PUSH2 0x9BD JUMPI PUSH0 DUP1 REVERT JUMPDEST SWAP4 SWAP3 POP POP POP JUMP JUMPDEST PUSH0 PUSH1 0x20 DUP3 DUP5 SUB SLT ISZERO PUSH2 0x9D4 JUMPI PUSH0 DUP1 REVERT JUMPDEST POP CALLDATALOAD SWAP2 SWAP1 POP JUMP JUMPDEST PUSH1 0x20 DUP1 DUP3 MSTORE PUSH1 0x9 SWAP1 DUP3 ADD MSTORE PUSH9 0x2737BA1037BBB732B9 PUSH1 0xB9 SHL PUSH1 0x40 DUP3 ADD MSTORE PUSH1 0x60 ADD SWAP1 JUMP JUMPDEST PUSH0 PUSH1 0x20 DUP3 DUP5 SUB SLT ISZERO PUSH2 0xA0E JUMPI PUSH0 DUP1 REVERT JUMPDEST POP MLOAD SWAP2 SWAP1 POP JUMP JUMPDEST PUSH0 PUSH1 0x20 DUP3 DUP5 SUB SLT ISZERO PUSH2 0xA25 JUMPI PUSH0 DUP1 REVERT JUMPDEST DUP2 MLOAD DUP1 ISZERO ISZERO DUP2 EQ PUSH2 0x9BD JUMPI PUSH0 DUP1 REVERT JUMPDEST PUSH4 0x4E487B71 PUSH1 0xE0 SHL PUSH0 MSTORE PUSH1 0x41 PUSH1 0x4 MSTORE PUSH1 0x24 PUSH0 REVERT JUMPDEST PUSH4 0x4E487B71 PUSH1 0xE0 SHL PUSH0 MSTORE PUSH1 0x32 PUSH1 0x4 MSTORE PUSH1 0x24 PUSH0 REVERT JUMPDEST PUSH4 0x4E487B71 PUSH1 0xE0 SHL PUSH0 MSTORE PUSH1 0x11 PUSH1 0x4 MSTORE PUSH1 0x24 PUSH0 REVERT JUMPDEST DUP1 DUP3 ADD DUP1 DUP3 GT ISZERO PUSH2 0xA83 JUMPI PUSH2 0xA83 PUSH2 0xA5C JUMP JUMPDEST SWAP3 SWAP2 POP POP JUMP JUMPDEST PUSH0 PUSH1 0xA0 DUP3 ADD DUP8 DUP4 MSTORE PUSH1 0x20 DUP8 PUSH1 0x20 DUP6 ADD MSTORE PUSH1 0xA0 PUSH1 0x40 DUP6 ADD MSTORE DUP2 DUP8 MLOAD DUP1 DUP5 MSTORE PUSH1 0xC0 DUP7 ADD SWAP2 POP PUSH1 0x20 DUP10 ADD SWAP4 POP PUSH0 JUMPDEST DUP2 DUP2 LT ISZERO PUSH2 0xAD9 JUMPI DUP5 MLOAD PUSH1 0x1 PUSH1 0x1 PUSH1 0xA0 SHL SUB AND DUP4 MSTORE SWAP4 DUP4 ADD SWAP4 SWAP2 DUP4 ADD SWAP2 PUSH1 0x1 ADD PUSH2 0xAB4 JUMP JUMPDEST POP POP PUSH1 0x1 PUSH1 0x1 PUSH1 0xA0 SHL SUB SWAP7 SWAP1 SWAP7 AND PUSH1 0x60 DUP6 ADD MSTORE POP POP POP PUSH1 0x80 ADD MSTORE SWAP4 SWAP3 POP POP POP JUMP JUMPDEST PUSH0 PUSH1 0x20 DUP1 DUP4 DUP6 SUB SLT ISZERO PUSH2 0xB0B JUMPI PUSH0 DUP1 REVERT JUMPDEST DUP3 MLOAD PUSH8 0xFFFFFFFFFFFFFFFF DUP1 DUP3 GT ISZERO PUSH2 0xB22 JUMPI PUSH0 DUP1 REVERT JUMPDEST DUP2 DUP6 ADD SWAP2 POP DUP6 PUSH1 0x1F DUP4 ADD SLT PUSH2 0xB35 JUMPI PUSH0 DUP1 REVERT JUMPDEST DUP2 MLOAD DUP2 DUP2 GT ISZERO PUSH2 0xB47 JUMPI PUSH2 0xB47 PUSH2 0xA34 JUMP JUMPDEST DUP1 PUSH1 0x5 SHL PUSH1 0x40 MLOAD PUSH1 0x1F NOT PUSH1 0x3F DUP4 ADD AND DUP2 ADD DUP2 DUP2 LT DUP6 DUP3 GT OR ISZERO PUSH2 0xB6C JUMPI PUSH2 0xB6C PUSH2 0xA34 JUMP JUMPDEST PUSH1 0x40 MSTORE SWAP2 DUP3 MSTORE DUP5 DUP3 ADD SWAP3 POP DUP4 DUP2 ADD DUP6 ADD SWAP2 DUP9 DUP4 GT ISZERO PUSH2 0xB89 JUMPI PUSH0 DUP1 REVERT JUMPDEST SWAP4 DUP6 ADD SWAP4 JUMPDEST DUP3 DUP6 LT ISZERO PUSH2 0xBA7 JUMPI DUP5 MLOAD DUP5 MSTORE SWAP4 DUP6 ADD SWAP4 SWAP3 DUP6 ADD SWAP3 PUSH2 0xB8E JUMP JUMPDEST SWAP9 SWAP8 POP POP POP POP POP POP POP POP JUMP JUMPDEST DUP2 DUP2 SUB DUP2 DUP2 GT ISZERO PUSH2 0xA83 JUMPI PUSH2 0xA83 PUSH2 0xA5C JUMP INVALID LOG2 PUSH5 0x6970667358 0x22 SLT KECCAK256 0xE3 0xD7 PUSH3 0xBC1388 DUP9 0xC 0xE8 LOG3 0xBC XOR LOG2 BYTE MSIZE PUSH24 0x5FFB26BCD58BD5AD8E81AABF7E93CB7964736F6C63430008 XOR STOP CALLER "
				},
				"gasEstimates": {
					"creation": {
						"codeDepositCost": "613600",
						"executionCost": "infinite",
						"totalCost": "infinite"
					},
					"external": {
						"USDT()": "291",
						"depositAndSwap(uint256)": "infinite",
						"hitbnbAddress()": "2324",
						"manualTransferHITBNB()": "infinite",
						"owner()": "2391",
						"pancakeRouter()": "269",
						"recoverERC20(address)": "infinite",
						"roiWallet()": "2369",
						"updateROIWallet(address)": "26674",
						"updateTokenAddresses(address)": "26696"
					}
				},
				"methodIdentifiers": {
					"USDT()": "c54e44eb",
					"depositAndSwap(uint256)": "9c406f94",
					"hitbnbAddress()": "225fc38d",
					"manualTransferHITBNB()": "93feb8a9",
					"owner()": "8da5cb5b",
					"pancakeRouter()": "c21ebd07",
					"recoverERC20(address)": "9e8c708e",
					"roiWallet()": "42d50f19",
					"updateROIWallet(address)": "9b7f4e29",
					"updateTokenAddresses(address)": "3fa2a5f0"
				}
			},
			"storageLayout": {
				"storage": [
					{
						"astId": 70,
						"contract": "contract/HITBNBBuyer_V3.2.sol:AutoSwapHITBNB",
						"label": "hitbnbAddress",
						"offset": 0,
						"slot": "0",
						"type": "t_address"
					},
					{
						"astId": 72,
						"contract": "contract/HITBNBBuyer_V3.2.sol:AutoSwapHITBNB",
						"label": "owner",
						"offset": 0,
						"slot": "1",
						"type": "t_address"
					},
					{
						"astId": 74,
						"contract": "contract/HITBNBBuyer_V3.2.sol:AutoSwapHITBNB",
						"label": "roiWallet",
						"offset": 0,
						"slot": "2",
						"type": "t_address"
					}
				],
				"types": {
					"t_address": {
						"encoding": "inplace",
						"label": "address",
						"numberOfBytes": "20"
					}
				}
			},
			"userdoc": {
				"kind": "user",
				"methods": {},
				"version": 1
			}
		}
	}
}