{
	"contract/HITBNBBuyer_V3.sol": {
		"USDTtoHITBNB": {
			"abi": [
				{
					"inputs": [
						{
							"internalType": "address",
							"name": "_usdtAddress",
							"type": "address"
						},
						{
							"internalType": "address",
							"name": "_hitbnbAddress",
							"type": "address"
						},
						{
							"internalType": "address",
							"name": "_pancakeRouter",
							"type": "address"
						},
						{
							"internalType": "address",
							"name": "_roiWallet",
							"type": "address"
						}
					],
					"stateMutability": "nonpayable",
					"type": "constructor"
				},
				{
					"anonymous": false,
					"inputs": [
						{
							"indexed": true,
							"internalType": "address",
							"name": "user",
							"type": "address"
						},
						{
							"indexed": false,
							"internalType": "uint256",
							"name": "amount",
							"type": "uint256"
						}
					],
					"name": "Deposit",
					"type": "event"
				},
				{
					"anonymous": false,
					"inputs": [
						{
							"indexed": true,
							"internalType": "address",
							"name": "user",
							"type": "address"
						},
						{
							"indexed": false,
							"internalType": "uint256",
							"name": "usdtAmount",
							"type": "uint256"
						},
						{
							"indexed": false,
							"internalType": "uint256",
							"name": "hitbnbAmount",
							"type": "uint256"
						}
					],
					"name": "Swap",
					"type": "event"
				},
				{
					"anonymous": false,
					"inputs": [
						{
							"indexed": false,
							"internalType": "uint256",
							"name": "amount",
							"type": "uint256"
						}
					],
					"name": "TransferToROI",
					"type": "event"
				},
				{
					"inputs": [
						{
							"internalType": "uint256",
							"name": "amount",
							"type": "uint256"
						}
					],
					"name": "depositUSDT",
					"outputs": [],
					"stateMutability": "nonpayable",
					"type": "function"
				},
				{
					"inputs": [],
					"name": "hitbnbAddress",
					"outputs": [
						{
							"internalType": "address",
							"name": "",
							"type": "address"
						}
					],
					"stateMutability": "view",
					"type": "function"
				},
				{
					"inputs": [],
					"name": "owner",
					"outputs": [
						{
							"internalType": "address",
							"name": "",
							"type": "address"
						}
					],
					"stateMutability": "view",
					"type": "function"
				},
				{
					"inputs": [],
					"name": "pancakeRouter",
					"outputs": [
						{
							"internalType": "contract IPancakeRouter",
							"name": "",
							"type": "address"
						}
					],
					"stateMutability": "view",
					"type": "function"
				},
				{
					"inputs": [],
					"name": "roiWallet",
					"outputs": [
						{
							"internalType": "address",
							"name": "",
							"type": "address"
						}
					],
					"stateMutability": "view",
					"type": "function"
				},
				{
					"inputs": [
						{
							"internalType": "uint256",
							"name": "amountIn",
							"type": "uint256"
						}
					],
					"name": "swapUSDTForHITBNB",
					"outputs": [],
					"stateMutability": "nonpayable",
					"type": "function"
				},
				{
					"inputs": [],
					"name": "transferHITBNBToROI",
					"outputs": [],
					"stateMutability": "nonpayable",
					"type": "function"
				},
				{
					"inputs": [
						{
							"internalType": "address",
							"name": "newWallet",
							"type": "address"
						}
					],
					"name": "updateROIWallet",
					"outputs": [],
					"stateMutability": "nonpayable",
					"type": "function"
				},
				{
					"inputs": [],
					"name": "usdtAddress",
					"outputs": [
						{
							"internalType": "address",
							"name": "",
							"type": "address"
						}
					],
					"stateMutability": "view",
					"type": "function"
				},
				{
					"inputs": [
						{
							"internalType": "address",
							"name": "",
							"type": "address"
						}
					],
					"name": "whitelistedUsers",
					"outputs": [
						{
							"internalType": "bool",
							"name": "",
							"type": "bool"
						}
					],
					"stateMutability": "view",
					"type": "function"
				},
				{
					"inputs": [],
					"name": "withdrawHITBNB",
					"outputs": [],
					"stateMutability": "nonpayable",
					"type": "function"
				},
				{
					"inputs": [],
					"name": "withdrawUSDT",
					"outputs": [],
					"stateMutability": "nonpayable",
					"type": "function"
				}
			],
			"devdoc": {
				"kind": "dev",
				"methods": {},
				"version": 1
			},
			"evm": {
				"assembly": "    /* \"contract/HITBNBBuyer_V3.sol\":678:3996  contract USDTtoHITBNB {... */\n  mstore(0x40, 0x80)\n    /* \"contract/HITBNBBuyer_V3.sol\":1227:1534  constructor(address _usdtAddress, address _hitbnbAddress, address _pancakeRouter, address _roiWallet) {... */\n  callvalue\n  dup1\n  iszero\n  tag_1\n  jumpi\n  0x00\n  dup1\n  revert\ntag_1:\n  pop\n  mload(0x40)\n  sub(codesize, bytecodeSize)\n  dup1\n  bytecodeSize\n  dup4\n  codecopy\n  dup2\n  add\n  0x40\n  dup2\n  swap1\n  mstore\n  tag_2\n  swap2\n  tag_3\n  jump\t// in\ntag_2:\n    /* \"contract/HITBNBBuyer_V3.sol\":1340:1351  usdtAddress */\n  0x00\n    /* \"contract/HITBNBBuyer_V3.sol\":1340:1366  usdtAddress = _usdtAddress */\n  dup1\n  sload\n  not(sub(shl(0xa0, 0x01), 0x01))\n  swap1\n  dup2\n  and\n  sub(shl(0xa0, 0x01), 0x01)\n  swap7\n  dup8\n  and\n  or\n  swap1\n  swap2\n  sstore\n  0x01\n    /* \"contract/HITBNBBuyer_V3.sol\":1377:1407  hitbnbAddress = _hitbnbAddress */\n  dup1\n  sload\n  dup3\n  and\n  swap5\n  dup7\n  and\n  swap5\n  swap1\n  swap5\n  or\n  swap1\n  swap4\n  sstore\n    /* \"contract/HITBNBBuyer_V3.sol\":1418:1431  pancakeRouter */\n  0x04\n    /* \"contract/HITBNBBuyer_V3.sol\":1418:1464  pancakeRouter = IPancakeRouter(_pancakeRouter) */\n  dup1\n  sload\n  dup5\n  and\n  swap3\n  dup6\n  and\n  swap3\n  swap1\n  swap3\n  or\n  swap1\n  swap2\n  sstore\n    /* \"contract/HITBNBBuyer_V3.sol\":1475:1484  roiWallet */\n  0x03\n    /* \"contract/HITBNBBuyer_V3.sol\":1475:1497  roiWallet = _roiWallet */\n  dup1\n  sload\n  dup4\n  and\n  swap2\n  swap1\n  swap4\n  and\n  or\n  swap1\n  swap2\n  sstore\n    /* \"contract/HITBNBBuyer_V3.sol\":1508:1513  owner */\n  0x02\n    /* \"contract/HITBNBBuyer_V3.sol\":1508:1526  owner = msg.sender */\n  dup1\n  sload\n    /* \"contract/HITBNBBuyer_V3.sol\":1516:1526  msg.sender */\n  caller\n    /* \"contract/HITBNBBuyer_V3.sol\":1508:1526  owner = msg.sender */\n  swap3\n  and\n  swap2\n  swap1\n  swap2\n  or\n  swap1\n  sstore\n    /* \"contract/HITBNBBuyer_V3.sol\":678:3996  contract USDTtoHITBNB {... */\n  jump(tag_8)\n    /* \"#utility.yul\":14:191   */\ntag_7:\n    /* \"#utility.yul\":93:106   */\n  dup1\n  mload\n  sub(shl(0xa0, 0x01), 0x01)\n    /* \"#utility.yul\":135:166   */\n  dup2\n  and\n    /* \"#utility.yul\":125:167   */\n  dup2\n  eq\n    /* \"#utility.yul\":115:185   */\n  tag_10\n  jumpi\n    /* \"#utility.yul\":181:182   */\n  0x00\n    /* \"#utility.yul\":178:179   */\n  dup1\n    /* \"#utility.yul\":171:183   */\n  revert\n    /* \"#utility.yul\":115:185   */\ntag_10:\n    /* \"#utility.yul\":14:191   */\n  swap2\n  swap1\n  pop\n  jump\t// out\n    /* \"#utility.yul\":196:660   */\ntag_3:\n    /* \"#utility.yul\":293:299   */\n  0x00\n    /* \"#utility.yul\":301:307   */\n  dup1\n    /* \"#utility.yul\":309:315   */\n  0x00\n    /* \"#utility.yul\":317:323   */\n  dup1\n    /* \"#utility.yul\":370:373   */\n  0x80\n    /* \"#utility.yul\":358:367   */\n  dup6\n    /* \"#utility.yul\":349:356   */\n  dup8\n    /* \"#utility.yul\":345:368   */\n  sub\n    /* \"#utility.yul\":341:374   */\n  slt\n    /* \"#utility.yul\":338:391   */\n  iszero\n  tag_12\n  jumpi\n    /* \"#utility.yul\":387:388   */\n  0x00\n    /* \"#utility.yul\":384:385   */\n  dup1\n    /* \"#utility.yul\":377:389   */\n  revert\n    /* \"#utility.yul\":338:391   */\ntag_12:\n    /* \"#utility.yul\":410:450   */\n  tag_13\n    /* \"#utility.yul\":440:449   */\n  dup6\n    /* \"#utility.yul\":410:450   */\n  tag_7\n  jump\t// in\ntag_13:\n    /* \"#utility.yul\":400:450   */\n  swap4\n  pop\n    /* \"#utility.yul\":469:518   */\n  tag_14\n    /* \"#utility.yul\":514:516   */\n  0x20\n    /* \"#utility.yul\":503:512   */\n  dup7\n    /* \"#utility.yul\":499:517   */\n  add\n    /* \"#utility.yul\":469:518   */\n  tag_7\n  jump\t// in\ntag_14:\n    /* \"#utility.yul\":459:518   */\n  swap3\n  pop\n    /* \"#utility.yul\":537:586   */\n  tag_15\n    /* \"#utility.yul\":582:584   */\n  0x40\n    /* \"#utility.yul\":571:580   */\n  dup7\n    /* \"#utility.yul\":567:585   */\n  add\n    /* \"#utility.yul\":537:586   */\n  tag_7\n  jump\t// in\ntag_15:\n    /* \"#utility.yul\":527:586   */\n  swap2\n  pop\n    /* \"#utility.yul\":605:654   */\n  tag_16\n    /* \"#utility.yul\":650:652   */\n  0x60\n    /* \"#utility.yul\":639:648   */\n  dup7\n    /* \"#utility.yul\":635:653   */\n  add\n    /* \"#utility.yul\":605:654   */\n  tag_7\n  jump\t// in\ntag_16:\n    /* \"#utility.yul\":595:654   */\n  swap1\n  pop\n    /* \"#utility.yul\":196:660   */\n  swap3\n  swap6\n  swap2\n  swap5\n  pop\n  swap3\n  pop\n  jump\t// out\ntag_8:\n    /* \"contract/HITBNBBuyer_V3.sol\":678:3996  contract USDTtoHITBNB {... */\n  dataSize(sub_0)\n  dup1\n  dataOffset(sub_0)\n  0x00\n  codecopy\n  0x00\n  return\nstop\n\nsub_0: assembly {\n        /* \"contract/HITBNBBuyer_V3.sol\":678:3996  contract USDTtoHITBNB {... */\n      mstore(0x40, 0x80)\n      callvalue\n      dup1\n      iszero\n      tag_1\n      jumpi\n      0x00\n      dup1\n      revert\n    tag_1:\n      pop\n      jumpi(tag_2, lt(calldatasize, 0x04))\n      shr(0xe0, calldataload(0x00))\n      dup1\n      0x9ab4a445\n      gt\n      tag_15\n      jumpi\n      dup1\n      0x9ab4a445\n      eq\n      tag_9\n      jumpi\n      dup1\n      0x9b7f4e29\n      eq\n      tag_10\n      jumpi\n      dup1\n      0xc21ebd07\n      eq\n      tag_11\n      jumpi\n      dup1\n      0xcbf1328b\n      eq\n      tag_12\n      jumpi\n      dup1\n      0xe7c80f17\n      eq\n      tag_13\n      jumpi\n      dup1\n      0xf621cc48\n      eq\n      tag_14\n      jumpi\n      0x00\n      dup1\n      revert\n    tag_15:\n      dup1\n      0x225fc38d\n      eq\n      tag_3\n      jumpi\n      dup1\n      0x2cbd53af\n      eq\n      tag_4\n      jumpi\n      dup1\n      0x362e496b\n      eq\n      tag_5\n      jumpi\n      dup1\n      0x41d9a548\n      eq\n      tag_6\n      jumpi\n      dup1\n      0x42d50f19\n      eq\n      tag_7\n      jumpi\n      dup1\n      0x8da5cb5b\n      eq\n      tag_8\n      jumpi\n    tag_2:\n      0x00\n      dup1\n      revert\n        /* \"contract/HITBNBBuyer_V3.sol\":740:768  address public hitbnbAddress */\n    tag_3:\n      sload(0x01)\n      tag_16\n      swap1\n      sub(shl(0xa0, 0x01), 0x01)\n      and\n      dup2\n      jump\n    tag_16:\n      mload(0x40)\n      sub(shl(0xa0, 0x01), 0x01)\n        /* \"#utility.yul\":178:210   */\n      swap1\n      swap2\n      and\n        /* \"#utility.yul\":160:211   */\n      dup2\n      mstore\n        /* \"#utility.yul\":148:150   */\n      0x20\n        /* \"#utility.yul\":133:151   */\n      add\n        /* \"contract/HITBNBBuyer_V3.sol\":740:768  address public hitbnbAddress */\n    tag_18:\n      mload(0x40)\n      dup1\n      swap2\n      sub\n      swap1\n      return\n        /* \"contract/HITBNBBuyer_V3.sol\":3722:3993  function withdrawHITBNB() external onlyOwner {... */\n    tag_4:\n      tag_20\n      tag_21\n      jump\t// in\n    tag_20:\n      stop\n        /* \"contract/HITBNBBuyer_V3.sol\":3451:3714  function withdrawUSDT() external onlyOwner {... */\n    tag_5:\n      tag_20\n      tag_23\n      jump\t// in\n        /* \"contract/HITBNBBuyer_V3.sol\":2958:3308  function transferHITBNBToROI() external onlyOwner {... */\n    tag_6:\n      tag_20\n      tag_25\n      jump\t// in\n        /* \"contract/HITBNBBuyer_V3.sol\":802:826  address public roiWallet */\n    tag_7:\n      sload(0x03)\n      tag_16\n      swap1\n      sub(shl(0xa0, 0x01), 0x01)\n      and\n      dup2\n      jump\n        /* \"contract/HITBNBBuyer_V3.sol\":775:795  address public owner */\n    tag_8:\n      sload(0x02)\n      tag_16\n      swap1\n      sub(shl(0xa0, 0x01), 0x01)\n      and\n      dup2\n      jump\n        /* \"contract/HITBNBBuyer_V3.sol\":707:733  address public usdtAddress */\n    tag_9:\n      sload(0x00)\n      tag_16\n      swap1\n      sub(shl(0xa0, 0x01), 0x01)\n      and\n      dup2\n      jump\n        /* \"contract/HITBNBBuyer_V3.sol\":3340:3443  function updateROIWallet(address newWallet) external onlyOwner {... */\n    tag_10:\n      tag_20\n      tag_36\n      calldatasize\n      0x04\n      tag_37\n      jump\t// in\n    tag_36:\n      tag_38\n      jump\t// in\n        /* \"contract/HITBNBBuyer_V3.sol\":833:868  IPancakeRouter public pancakeRouter */\n    tag_11:\n      sload(0x04)\n      tag_16\n      swap1\n      sub(shl(0xa0, 0x01), 0x01)\n      and\n      dup2\n      jump\n        /* \"contract/HITBNBBuyer_V3.sol\":1893:2912  function swapUSDTForHITBNB(uint256 amountIn) external onlyOwner {... */\n    tag_12:\n      tag_20\n      tag_44\n      calldatasize\n      0x04\n      tag_45\n      jump\t// in\n    tag_44:\n      tag_46\n      jump\t// in\n        /* \"contract/HITBNBBuyer_V3.sol\":1578:1849  function depositUSDT(uint256 amount) external {... */\n    tag_13:\n      tag_20\n      tag_48\n      calldatasize\n      0x04\n      tag_45\n      jump\t// in\n    tag_48:\n      tag_49\n      jump\t// in\n        /* \"contract/HITBNBBuyer_V3.sol\":881:929  mapping(address => bool) public whitelistedUsers */\n    tag_14:\n      tag_50\n      tag_51\n      calldatasize\n      0x04\n      tag_37\n      jump\t// in\n    tag_51:\n      mstore(0x20, 0x05)\n      0x00\n      swap1\n      dup2\n      mstore\n      0x40\n      swap1\n      keccak256\n      sload\n      0xff\n      and\n      dup2\n      jump\n    tag_50:\n      mload(0x40)\n        /* \"#utility.yul\":1092:1106   */\n      swap1\n      iszero\n        /* \"#utility.yul\":1085:1107   */\n      iszero\n        /* \"#utility.yul\":1067:1108   */\n      dup2\n      mstore\n        /* \"#utility.yul\":1055:1057   */\n      0x20\n        /* \"#utility.yul\":1040:1058   */\n      add\n        /* \"contract/HITBNBBuyer_V3.sol\":881:929  mapping(address => bool) public whitelistedUsers */\n      tag_18\n        /* \"#utility.yul\":927:1114   */\n      jump\n        /* \"contract/HITBNBBuyer_V3.sol\":3722:3993  function withdrawHITBNB() external onlyOwner {... */\n    tag_21:\n        /* \"contract/HITBNBBuyer_V3.sol\":1175:1180  owner */\n      and(sub(shl(0xa0, 0x01), 0x01), sload(0x02))\n        /* \"contract/HITBNBBuyer_V3.sol\":1161:1171  msg.sender */\n      caller\n        /* \"contract/HITBNBBuyer_V3.sol\":1161:1180  msg.sender == owner */\n      eq\n        /* \"contract/HITBNBBuyer_V3.sol\":1153:1199  require(msg.sender == owner, \"Not authorized\") */\n      tag_56\n      jumpi\n      mload(0x40)\n      shl(0xe5, 0x461bcd)\n      dup2\n      mstore\n      0x04\n      add\n      tag_57\n      swap1\n      tag_58\n      jump\t// in\n    tag_57:\n      mload(0x40)\n      dup1\n      swap2\n      sub\n      swap1\n      revert\n    tag_56:\n        /* \"contract/HITBNBBuyer_V3.sol\":3803:3816  hitbnbAddress */\n      sload(0x01)\n        /* \"contract/HITBNBBuyer_V3.sol\":3796:3842  IERC20(hitbnbAddress).balanceOf(address(this)) */\n      mload(0x40)\n      shl(0xe0, 0x70a08231)\n      dup2\n      mstore\n        /* \"contract/HITBNBBuyer_V3.sol\":3836:3840  this */\n      address\n        /* \"contract/HITBNBBuyer_V3.sol\":3796:3842  IERC20(hitbnbAddress).balanceOf(address(this)) */\n      0x04\n      dup3\n      add\n        /* \"#utility.yul\":160:211   */\n      mstore\n        /* \"contract/HITBNBBuyer_V3.sol\":3778:3793  uint256 balance */\n      0x00\n      swap2\n      sub(shl(0xa0, 0x01), 0x01)\n        /* \"contract/HITBNBBuyer_V3.sol\":3803:3816  hitbnbAddress */\n      and\n      swap1\n        /* \"contract/HITBNBBuyer_V3.sol\":3796:3827  IERC20(hitbnbAddress).balanceOf */\n      0x70a08231\n      swap1\n        /* \"#utility.yul\":133:151   */\n      0x24\n      add\n        /* \"contract/HITBNBBuyer_V3.sol\":3796:3842  IERC20(hitbnbAddress).balanceOf(address(this)) */\n      0x20\n      mload(0x40)\n      dup1\n      dup4\n      sub\n      dup2\n      dup7\n      gas\n      staticcall\n      iszero\n      dup1\n      iszero\n      tag_62\n      jumpi\n      returndatasize\n      0x00\n      dup1\n      returndatacopy\n      revert(0x00, returndatasize)\n    tag_62:\n      pop\n      pop\n      pop\n      pop\n      mload(0x40)\n      returndatasize\n      not(0x1f)\n      0x1f\n      dup3\n      add\n      and\n      dup3\n      add\n      dup1\n      0x40\n      mstore\n      pop\n      dup2\n      add\n      swap1\n      tag_63\n      swap2\n      swap1\n      tag_64\n      jump\t// in\n    tag_63:\n        /* \"contract/HITBNBBuyer_V3.sol\":3778:3842  uint256 balance = IERC20(hitbnbAddress).balanceOf(address(this)) */\n      swap1\n      pop\n        /* \"contract/HITBNBBuyer_V3.sol\":3871:3872  0 */\n      0x00\n        /* \"contract/HITBNBBuyer_V3.sol\":3861:3868  balance */\n      dup2\n        /* \"contract/HITBNBBuyer_V3.sol\":3861:3872  balance > 0 */\n      gt\n        /* \"contract/HITBNBBuyer_V3.sol\":3853:3898  require(balance > 0, \"No HITBNB to withdraw\") */\n      tag_65\n      jumpi\n      mload(0x40)\n      shl(0xe5, 0x461bcd)\n      dup2\n      mstore\n        /* \"#utility.yul\":1853:1855   */\n      0x20\n        /* \"contract/HITBNBBuyer_V3.sol\":3853:3898  require(balance > 0, \"No HITBNB to withdraw\") */\n      0x04\n      dup3\n      add\n        /* \"#utility.yul\":1835:1856   */\n      mstore\n        /* \"#utility.yul\":1892:1894   */\n      0x15\n        /* \"#utility.yul\":1872:1890   */\n      0x24\n      dup3\n      add\n        /* \"#utility.yul\":1865:1895   */\n      mstore\n      shl(0x58, 0x4e6f20484954424e4220746f207769746864726177)\n        /* \"#utility.yul\":1911:1929   */\n      0x44\n      dup3\n      add\n        /* \"#utility.yul\":1904:1955   */\n      mstore\n        /* \"#utility.yul\":1972:1990   */\n      0x64\n      add\n        /* \"contract/HITBNBBuyer_V3.sol\":3853:3898  require(balance > 0, \"No HITBNB to withdraw\") */\n      tag_57\n        /* \"#utility.yul\":1651:1996   */\n      jump\n        /* \"contract/HITBNBBuyer_V3.sol\":3853:3898  require(balance > 0, \"No HITBNB to withdraw\") */\n    tag_65:\n        /* \"contract/HITBNBBuyer_V3.sol\":3924:3937  hitbnbAddress */\n      sload(0x01)\n        /* \"contract/HITBNBBuyer_V3.sol\":3948:3953  owner */\n      sload(0x02)\n        /* \"contract/HITBNBBuyer_V3.sol\":3917:3963  IERC20(hitbnbAddress).transfer(owner, balance) */\n      mload(0x40)\n      shl(0xe0, 0xa9059cbb)\n      dup2\n      mstore\n      sub(shl(0xa0, 0x01), 0x01)\n        /* \"contract/HITBNBBuyer_V3.sol\":3948:3953  owner */\n      swap2\n      dup3\n      and\n        /* \"contract/HITBNBBuyer_V3.sol\":3917:3963  IERC20(hitbnbAddress).transfer(owner, balance) */\n      0x04\n      dup3\n      add\n        /* \"#utility.yul\":2175:2226   */\n      mstore\n        /* \"#utility.yul\":2242:2260   */\n      0x24\n      dup2\n      add\n        /* \"#utility.yul\":2235:2269   */\n      dup5\n      swap1\n      mstore\n        /* \"contract/HITBNBBuyer_V3.sol\":3924:3937  hitbnbAddress */\n      swap2\n      and\n      swap1\n        /* \"contract/HITBNBBuyer_V3.sol\":3917:3947  IERC20(hitbnbAddress).transfer */\n      0xa9059cbb\n      swap1\n        /* \"#utility.yul\":2148:2166   */\n      0x44\n      add\n        /* \"contract/HITBNBBuyer_V3.sol\":3917:3963  IERC20(hitbnbAddress).transfer(owner, balance) */\n    tag_68:\n      0x20\n      mload(0x40)\n      dup1\n      dup4\n      sub\n      dup2\n      0x00\n      dup8\n      gas\n      call\n      iszero\n      dup1\n      iszero\n      tag_71\n      jumpi\n      returndatasize\n      0x00\n      dup1\n      returndatacopy\n      revert(0x00, returndatasize)\n    tag_71:\n      pop\n      pop\n      pop\n      pop\n      mload(0x40)\n      returndatasize\n      not(0x1f)\n      0x1f\n      dup3\n      add\n      and\n      dup3\n      add\n      dup1\n      0x40\n      mstore\n      pop\n      dup2\n      add\n      swap1\n      tag_72\n      swap2\n      swap1\n      tag_73\n      jump\t// in\n    tag_72:\n        /* \"contract/HITBNBBuyer_V3.sol\":3909:3985  require(IERC20(hitbnbAddress).transfer(owner, balance), \"Withdrawal failed\") */\n      tag_74\n      jumpi\n      mload(0x40)\n      shl(0xe5, 0x461bcd)\n      dup2\n      mstore\n        /* \"#utility.yul\":2764:2766   */\n      0x20\n        /* \"contract/HITBNBBuyer_V3.sol\":3909:3985  require(IERC20(hitbnbAddress).transfer(owner, balance), \"Withdrawal failed\") */\n      0x04\n      dup3\n      add\n        /* \"#utility.yul\":2746:2767   */\n      mstore\n        /* \"#utility.yul\":2803:2805   */\n      0x11\n        /* \"#utility.yul\":2783:2801   */\n      0x24\n      dup3\n      add\n        /* \"#utility.yul\":2776:2806   */\n      mstore\n      shl(0x7a, 0x15da5d1a191c985dd85b0819985a5b1959)\n        /* \"#utility.yul\":2822:2840   */\n      0x44\n      dup3\n      add\n        /* \"#utility.yul\":2815:2862   */\n      mstore\n        /* \"#utility.yul\":2879:2897   */\n      0x64\n      add\n        /* \"contract/HITBNBBuyer_V3.sol\":3909:3985  require(IERC20(hitbnbAddress).transfer(owner, balance), \"Withdrawal failed\") */\n      tag_57\n        /* \"#utility.yul\":2562:2903   */\n      jump\n        /* \"contract/HITBNBBuyer_V3.sol\":3909:3985  require(IERC20(hitbnbAddress).transfer(owner, balance), \"Withdrawal failed\") */\n    tag_74:\n        /* \"contract/HITBNBBuyer_V3.sol\":3767:3993  {... */\n      pop\n        /* \"contract/HITBNBBuyer_V3.sol\":3722:3993  function withdrawHITBNB() external onlyOwner {... */\n      jump\t// out\n        /* \"contract/HITBNBBuyer_V3.sol\":3451:3714  function withdrawUSDT() external onlyOwner {... */\n    tag_23:\n        /* \"contract/HITBNBBuyer_V3.sol\":1175:1180  owner */\n      and(sub(shl(0xa0, 0x01), 0x01), sload(0x02))\n        /* \"contract/HITBNBBuyer_V3.sol\":1161:1171  msg.sender */\n      caller\n        /* \"contract/HITBNBBuyer_V3.sol\":1161:1180  msg.sender == owner */\n      eq\n        /* \"contract/HITBNBBuyer_V3.sol\":1153:1199  require(msg.sender == owner, \"Not authorized\") */\n      tag_78\n      jumpi\n      mload(0x40)\n      shl(0xe5, 0x461bcd)\n      dup2\n      mstore\n      0x04\n      add\n      tag_57\n      swap1\n      tag_58\n      jump\t// in\n    tag_78:\n        /* \"contract/HITBNBBuyer_V3.sol\":3505:3520  uint256 balance */\n      0x00\n        /* \"contract/HITBNBBuyer_V3.sol\":3530:3541  usdtAddress */\n      dup1\n      sload\n        /* \"contract/HITBNBBuyer_V3.sol\":3523:3567  IERC20(usdtAddress).balanceOf(address(this)) */\n      mload(0x40)\n      shl(0xe0, 0x70a08231)\n      dup2\n      mstore\n        /* \"contract/HITBNBBuyer_V3.sol\":3561:3565  this */\n      address\n        /* \"contract/HITBNBBuyer_V3.sol\":3523:3567  IERC20(usdtAddress).balanceOf(address(this)) */\n      0x04\n      dup3\n      add\n        /* \"#utility.yul\":160:211   */\n      mstore\n      sub(shl(0xa0, 0x01), 0x01)\n        /* \"contract/HITBNBBuyer_V3.sol\":3530:3541  usdtAddress */\n      swap1\n      swap2\n      and\n      swap1\n        /* \"contract/HITBNBBuyer_V3.sol\":3523:3552  IERC20(usdtAddress).balanceOf */\n      0x70a08231\n      swap1\n        /* \"#utility.yul\":133:151   */\n      0x24\n      add\n        /* \"contract/HITBNBBuyer_V3.sol\":3523:3567  IERC20(usdtAddress).balanceOf(address(this)) */\n      0x20\n      mload(0x40)\n      dup1\n      dup4\n      sub\n      dup2\n      dup7\n      gas\n      staticcall\n      iszero\n      dup1\n      iszero\n      tag_83\n      jumpi\n      returndatasize\n      0x00\n      dup1\n      returndatacopy\n      revert(0x00, returndatasize)\n    tag_83:\n      pop\n      pop\n      pop\n      pop\n      mload(0x40)\n      returndatasize\n      not(0x1f)\n      0x1f\n      dup3\n      add\n      and\n      dup3\n      add\n      dup1\n      0x40\n      mstore\n      pop\n      dup2\n      add\n      swap1\n      tag_84\n      swap2\n      swap1\n      tag_64\n      jump\t// in\n    tag_84:\n        /* \"contract/HITBNBBuyer_V3.sol\":3505:3567  uint256 balance = IERC20(usdtAddress).balanceOf(address(this)) */\n      swap1\n      pop\n        /* \"contract/HITBNBBuyer_V3.sol\":3596:3597  0 */\n      0x00\n        /* \"contract/HITBNBBuyer_V3.sol\":3586:3593  balance */\n      dup2\n        /* \"contract/HITBNBBuyer_V3.sol\":3586:3597  balance > 0 */\n      gt\n        /* \"contract/HITBNBBuyer_V3.sol\":3578:3621  require(balance > 0, \"No USDT to withdraw\") */\n      tag_85\n      jumpi\n      mload(0x40)\n      shl(0xe5, 0x461bcd)\n      dup2\n      mstore\n        /* \"#utility.yul\":3110:3112   */\n      0x20\n        /* \"contract/HITBNBBuyer_V3.sol\":3578:3621  require(balance > 0, \"No USDT to withdraw\") */\n      0x04\n      dup3\n      add\n        /* \"#utility.yul\":3092:3113   */\n      mstore\n        /* \"#utility.yul\":3149:3151   */\n      0x13\n        /* \"#utility.yul\":3129:3147   */\n      0x24\n      dup3\n      add\n        /* \"#utility.yul\":3122:3152   */\n      mstore\n      shl(0x68, 0x4e6f205553445420746f207769746864726177)\n        /* \"#utility.yul\":3168:3186   */\n      0x44\n      dup3\n      add\n        /* \"#utility.yul\":3161:3210   */\n      mstore\n        /* \"#utility.yul\":3227:3245   */\n      0x64\n      add\n        /* \"contract/HITBNBBuyer_V3.sol\":3578:3621  require(balance > 0, \"No USDT to withdraw\") */\n      tag_57\n        /* \"#utility.yul\":2908:3251   */\n      jump\n        /* \"contract/HITBNBBuyer_V3.sol\":3578:3621  require(balance > 0, \"No USDT to withdraw\") */\n    tag_85:\n        /* \"contract/HITBNBBuyer_V3.sol\":3647:3658  usdtAddress */\n      sload(0x00)\n        /* \"contract/HITBNBBuyer_V3.sol\":3669:3674  owner */\n      sload(0x02)\n        /* \"contract/HITBNBBuyer_V3.sol\":3640:3684  IERC20(usdtAddress).transfer(owner, balance) */\n      mload(0x40)\n      shl(0xe0, 0xa9059cbb)\n      dup2\n      mstore\n      sub(shl(0xa0, 0x01), 0x01)\n        /* \"contract/HITBNBBuyer_V3.sol\":3669:3674  owner */\n      swap2\n      dup3\n      and\n        /* \"contract/HITBNBBuyer_V3.sol\":3640:3684  IERC20(usdtAddress).transfer(owner, balance) */\n      0x04\n      dup3\n      add\n        /* \"#utility.yul\":2175:2226   */\n      mstore\n        /* \"#utility.yul\":2242:2260   */\n      0x24\n      dup2\n      add\n        /* \"#utility.yul\":2235:2269   */\n      dup5\n      swap1\n      mstore\n        /* \"contract/HITBNBBuyer_V3.sol\":3647:3658  usdtAddress */\n      swap2\n      and\n      swap1\n        /* \"contract/HITBNBBuyer_V3.sol\":3640:3668  IERC20(usdtAddress).transfer */\n      0xa9059cbb\n      swap1\n        /* \"#utility.yul\":2148:2166   */\n      0x44\n      add\n        /* \"contract/HITBNBBuyer_V3.sol\":3640:3684  IERC20(usdtAddress).transfer(owner, balance) */\n      tag_68\n        /* \"#utility.yul\":2001:2275   */\n      jump\n        /* \"contract/HITBNBBuyer_V3.sol\":2958:3308  function transferHITBNBToROI() external onlyOwner {... */\n    tag_25:\n        /* \"contract/HITBNBBuyer_V3.sol\":1175:1180  owner */\n      and(sub(shl(0xa0, 0x01), 0x01), sload(0x02))\n        /* \"contract/HITBNBBuyer_V3.sol\":1161:1171  msg.sender */\n      caller\n        /* \"contract/HITBNBBuyer_V3.sol\":1161:1180  msg.sender == owner */\n      eq\n        /* \"contract/HITBNBBuyer_V3.sol\":1153:1199  require(msg.sender == owner, \"Not authorized\") */\n      tag_95\n      jumpi\n      mload(0x40)\n      shl(0xe5, 0x461bcd)\n      dup2\n      mstore\n      0x04\n      add\n      tag_57\n      swap1\n      tag_58\n      jump\t// in\n    tag_95:\n        /* \"contract/HITBNBBuyer_V3.sol\":3050:3063  hitbnbAddress */\n      sload(0x01)\n        /* \"contract/HITBNBBuyer_V3.sol\":3043:3089  IERC20(hitbnbAddress).balanceOf(address(this)) */\n      mload(0x40)\n      shl(0xe0, 0x70a08231)\n      dup2\n      mstore\n        /* \"contract/HITBNBBuyer_V3.sol\":3083:3087  this */\n      address\n        /* \"contract/HITBNBBuyer_V3.sol\":3043:3089  IERC20(hitbnbAddress).balanceOf(address(this)) */\n      0x04\n      dup3\n      add\n        /* \"#utility.yul\":160:211   */\n      mstore\n        /* \"contract/HITBNBBuyer_V3.sol\":3019:3040  uint256 hitbnbBalance */\n      0x00\n      swap2\n      sub(shl(0xa0, 0x01), 0x01)\n        /* \"contract/HITBNBBuyer_V3.sol\":3050:3063  hitbnbAddress */\n      and\n      swap1\n        /* \"contract/HITBNBBuyer_V3.sol\":3043:3074  IERC20(hitbnbAddress).balanceOf */\n      0x70a08231\n      swap1\n        /* \"#utility.yul\":133:151   */\n      0x24\n      add\n        /* \"contract/HITBNBBuyer_V3.sol\":3043:3089  IERC20(hitbnbAddress).balanceOf(address(this)) */\n      0x20\n      mload(0x40)\n      dup1\n      dup4\n      sub\n      dup2\n      dup7\n      gas\n      staticcall\n      iszero\n      dup1\n      iszero\n      tag_100\n      jumpi\n      returndatasize\n      0x00\n      dup1\n      returndatacopy\n      revert(0x00, returndatasize)\n    tag_100:\n      pop\n      pop\n      pop\n      pop\n      mload(0x40)\n      returndatasize\n      not(0x1f)\n      0x1f\n      dup3\n      add\n      and\n      dup3\n      add\n      dup1\n      0x40\n      mstore\n      pop\n      dup2\n      add\n      swap1\n      tag_101\n      swap2\n      swap1\n      tag_64\n      jump\t// in\n    tag_101:\n        /* \"contract/HITBNBBuyer_V3.sol\":3019:3089  uint256 hitbnbBalance = IERC20(hitbnbAddress).balanceOf(address(this)) */\n      swap1\n      pop\n        /* \"contract/HITBNBBuyer_V3.sol\":3124:3125  0 */\n      0x00\n        /* \"contract/HITBNBBuyer_V3.sol\":3108:3121  hitbnbBalance */\n      dup2\n        /* \"contract/HITBNBBuyer_V3.sol\":3108:3125  hitbnbBalance > 0 */\n      gt\n        /* \"contract/HITBNBBuyer_V3.sol\":3100:3151  require(hitbnbBalance > 0, \"No HITBNB to transfer\") */\n      tag_102\n      jumpi\n      mload(0x40)\n      shl(0xe5, 0x461bcd)\n      dup2\n      mstore\n        /* \"#utility.yul\":3458:3460   */\n      0x20\n        /* \"contract/HITBNBBuyer_V3.sol\":3100:3151  require(hitbnbBalance > 0, \"No HITBNB to transfer\") */\n      0x04\n      dup3\n      add\n        /* \"#utility.yul\":3440:3461   */\n      mstore\n        /* \"#utility.yul\":3497:3499   */\n      0x15\n        /* \"#utility.yul\":3477:3495   */\n      0x24\n      dup3\n      add\n        /* \"#utility.yul\":3470:3500   */\n      mstore\n      shl(0x59, 0x2737902424aa212721103a37903a3930b739b332b9)\n        /* \"#utility.yul\":3516:3534   */\n      0x44\n      dup3\n      add\n        /* \"#utility.yul\":3509:3560   */\n      mstore\n        /* \"#utility.yul\":3577:3595   */\n      0x64\n      add\n        /* \"contract/HITBNBBuyer_V3.sol\":3100:3151  require(hitbnbBalance > 0, \"No HITBNB to transfer\") */\n      tag_57\n        /* \"#utility.yul\":3256:3601   */\n      jump\n        /* \"contract/HITBNBBuyer_V3.sol\":3100:3151  require(hitbnbBalance > 0, \"No HITBNB to transfer\") */\n    tag_102:\n        /* \"contract/HITBNBBuyer_V3.sol\":3187:3200  hitbnbAddress */\n      sload(0x01)\n        /* \"contract/HITBNBBuyer_V3.sol\":3211:3220  roiWallet */\n      sload(0x03)\n        /* \"contract/HITBNBBuyer_V3.sol\":3180:3236  IERC20(hitbnbAddress).transfer(roiWallet, hitbnbBalance) */\n      mload(0x40)\n      shl(0xe0, 0xa9059cbb)\n      dup2\n      mstore\n      sub(shl(0xa0, 0x01), 0x01)\n        /* \"contract/HITBNBBuyer_V3.sol\":3211:3220  roiWallet */\n      swap2\n      dup3\n      and\n        /* \"contract/HITBNBBuyer_V3.sol\":3180:3236  IERC20(hitbnbAddress).transfer(roiWallet, hitbnbBalance) */\n      0x04\n      dup3\n      add\n        /* \"#utility.yul\":2175:2226   */\n      mstore\n        /* \"#utility.yul\":2242:2260   */\n      0x24\n      dup2\n      add\n        /* \"#utility.yul\":2235:2269   */\n      dup5\n      swap1\n      mstore\n        /* \"contract/HITBNBBuyer_V3.sol\":3187:3200  hitbnbAddress */\n      swap2\n      and\n      swap1\n        /* \"contract/HITBNBBuyer_V3.sol\":3180:3210  IERC20(hitbnbAddress).transfer */\n      0xa9059cbb\n      swap1\n        /* \"#utility.yul\":2148:2166   */\n      0x44\n      add\n        /* \"contract/HITBNBBuyer_V3.sol\":3180:3236  IERC20(hitbnbAddress).transfer(roiWallet, hitbnbBalance) */\n      0x20\n      mload(0x40)\n      dup1\n      dup4\n      sub\n      dup2\n      0x00\n      dup8\n      gas\n      call\n      iszero\n      dup1\n      iszero\n      tag_107\n      jumpi\n      returndatasize\n      0x00\n      dup1\n      returndatacopy\n      revert(0x00, returndatasize)\n    tag_107:\n      pop\n      pop\n      pop\n      pop\n      mload(0x40)\n      returndatasize\n      not(0x1f)\n      0x1f\n      dup3\n      add\n      and\n      dup3\n      add\n      dup1\n      0x40\n      mstore\n      pop\n      dup2\n      add\n      swap1\n      tag_108\n      swap2\n      swap1\n      tag_73\n      jump\t// in\n    tag_108:\n        /* \"contract/HITBNBBuyer_V3.sol\":3172:3256  require(IERC20(hitbnbAddress).transfer(roiWallet, hitbnbBalance), \"Transfer failed\") */\n      tag_109\n      jumpi\n      mload(0x40)\n      shl(0xe5, 0x461bcd)\n      dup2\n      mstore\n        /* \"#utility.yul\":3808:3810   */\n      0x20\n        /* \"contract/HITBNBBuyer_V3.sol\":3172:3256  require(IERC20(hitbnbAddress).transfer(roiWallet, hitbnbBalance), \"Transfer failed\") */\n      0x04\n      dup3\n      add\n        /* \"#utility.yul\":3790:3811   */\n      mstore\n        /* \"#utility.yul\":3847:3849   */\n      0x0f\n        /* \"#utility.yul\":3827:3845   */\n      0x24\n      dup3\n      add\n        /* \"#utility.yul\":3820:3850   */\n      mstore\n      shl(0x8a, 0x151c985b9cd9995c8819985a5b1959)\n        /* \"#utility.yul\":3866:3884   */\n      0x44\n      dup3\n      add\n        /* \"#utility.yul\":3859:3904   */\n      mstore\n        /* \"#utility.yul\":3921:3939   */\n      0x64\n      add\n        /* \"contract/HITBNBBuyer_V3.sol\":3172:3256  require(IERC20(hitbnbAddress).transfer(roiWallet, hitbnbBalance), \"Transfer failed\") */\n      tag_57\n        /* \"#utility.yul\":3606:3945   */\n      jump\n        /* \"contract/HITBNBBuyer_V3.sol\":3172:3256  require(IERC20(hitbnbAddress).transfer(roiWallet, hitbnbBalance), \"Transfer failed\") */\n    tag_109:\n        /* \"contract/HITBNBBuyer_V3.sol\":3272:3300  TransferToROI(hitbnbBalance) */\n      mload(0x40)\n        /* \"#utility.yul\":4096:4121   */\n      dup2\n      dup2\n      mstore\n        /* \"contract/HITBNBBuyer_V3.sol\":3272:3300  TransferToROI(hitbnbBalance) */\n      0x296b295f0c233bbdeafc532330db917ee14cf23eaab161a11cec42a3d6d31a7d\n      swap1\n        /* \"#utility.yul\":4084:4086   */\n      0x20\n        /* \"#utility.yul\":4069:4087   */\n      add\n        /* \"contract/HITBNBBuyer_V3.sol\":3272:3300  TransferToROI(hitbnbBalance) */\n      mload(0x40)\n      dup1\n      swap2\n      sub\n      swap1\n      log1\n        /* \"contract/HITBNBBuyer_V3.sol\":3008:3308  {... */\n      pop\n        /* \"contract/HITBNBBuyer_V3.sol\":2958:3308  function transferHITBNBToROI() external onlyOwner {... */\n      jump\t// out\n        /* \"contract/HITBNBBuyer_V3.sol\":3340:3443  function updateROIWallet(address newWallet) external onlyOwner {... */\n    tag_38:\n        /* \"contract/HITBNBBuyer_V3.sol\":1175:1180  owner */\n      and(sub(shl(0xa0, 0x01), 0x01), sload(0x02))\n        /* \"contract/HITBNBBuyer_V3.sol\":1161:1171  msg.sender */\n      caller\n        /* \"contract/HITBNBBuyer_V3.sol\":1161:1180  msg.sender == owner */\n      eq\n        /* \"contract/HITBNBBuyer_V3.sol\":1153:1199  require(msg.sender == owner, \"Not authorized\") */\n      tag_115\n      jumpi\n      mload(0x40)\n      shl(0xe5, 0x461bcd)\n      dup2\n      mstore\n      0x04\n      add\n      tag_57\n      swap1\n      tag_58\n      jump\t// in\n    tag_115:\n        /* \"contract/HITBNBBuyer_V3.sol\":3414:3423  roiWallet */\n      0x03\n        /* \"contract/HITBNBBuyer_V3.sol\":3414:3435  roiWallet = newWallet */\n      dup1\n      sload\n      not(sub(shl(0xa0, 0x01), 0x01))\n      and\n      sub(shl(0xa0, 0x01), 0x01)\n      swap3\n      swap1\n      swap3\n      and\n      swap2\n      swap1\n      swap2\n      or\n      swap1\n      sstore\n        /* \"contract/HITBNBBuyer_V3.sol\":3340:3443  function updateROIWallet(address newWallet) external onlyOwner {... */\n      jump\t// out\n        /* \"contract/HITBNBBuyer_V3.sol\":1893:2912  function swapUSDTForHITBNB(uint256 amountIn) external onlyOwner {... */\n    tag_46:\n        /* \"contract/HITBNBBuyer_V3.sol\":1175:1180  owner */\n      and(sub(shl(0xa0, 0x01), 0x01), sload(0x02))\n        /* \"contract/HITBNBBuyer_V3.sol\":1161:1171  msg.sender */\n      caller\n        /* \"contract/HITBNBBuyer_V3.sol\":1161:1180  msg.sender == owner */\n      eq\n        /* \"contract/HITBNBBuyer_V3.sol\":1153:1199  require(msg.sender == owner, \"Not authorized\") */\n      tag_119\n      jumpi\n      mload(0x40)\n      shl(0xe5, 0x461bcd)\n      dup2\n      mstore\n      0x04\n      add\n      tag_57\n      swap1\n      tag_58\n      jump\t// in\n    tag_119:\n        /* \"contract/HITBNBBuyer_V3.sol\":1968:1983  uint256 balance */\n      0x00\n        /* \"contract/HITBNBBuyer_V3.sol\":1993:2004  usdtAddress */\n      dup1\n      sload\n        /* \"contract/HITBNBBuyer_V3.sol\":1986:2030  IERC20(usdtAddress).balanceOf(address(this)) */\n      mload(0x40)\n      shl(0xe0, 0x70a08231)\n      dup2\n      mstore\n        /* \"contract/HITBNBBuyer_V3.sol\":2024:2028  this */\n      address\n        /* \"contract/HITBNBBuyer_V3.sol\":1986:2030  IERC20(usdtAddress).balanceOf(address(this)) */\n      0x04\n      dup3\n      add\n        /* \"#utility.yul\":160:211   */\n      mstore\n      sub(shl(0xa0, 0x01), 0x01)\n        /* \"contract/HITBNBBuyer_V3.sol\":1993:2004  usdtAddress */\n      swap1\n      swap2\n      and\n      swap1\n        /* \"contract/HITBNBBuyer_V3.sol\":1986:2015  IERC20(usdtAddress).balanceOf */\n      0x70a08231\n      swap1\n        /* \"#utility.yul\":133:151   */\n      0x24\n      add\n        /* \"contract/HITBNBBuyer_V3.sol\":1986:2030  IERC20(usdtAddress).balanceOf(address(this)) */\n      0x20\n      mload(0x40)\n      dup1\n      dup4\n      sub\n      dup2\n      dup7\n      gas\n      staticcall\n      iszero\n      dup1\n      iszero\n      tag_124\n      jumpi\n      returndatasize\n      0x00\n      dup1\n      returndatacopy\n      revert(0x00, returndatasize)\n    tag_124:\n      pop\n      pop\n      pop\n      pop\n      mload(0x40)\n      returndatasize\n      not(0x1f)\n      0x1f\n      dup3\n      add\n      and\n      dup3\n      add\n      dup1\n      0x40\n      mstore\n      pop\n      dup2\n      add\n      swap1\n      tag_125\n      swap2\n      swap1\n      tag_64\n      jump\t// in\n    tag_125:\n        /* \"contract/HITBNBBuyer_V3.sol\":1968:2030  uint256 balance = IERC20(usdtAddress).balanceOf(address(this)) */\n      swap1\n      pop\n        /* \"contract/HITBNBBuyer_V3.sol\":2060:2068  amountIn */\n      dup2\n        /* \"contract/HITBNBBuyer_V3.sol\":2049:2056  balance */\n      dup2\n        /* \"contract/HITBNBBuyer_V3.sol\":2049:2068  balance >= amountIn */\n      lt\n      iszero\n        /* \"contract/HITBNBBuyer_V3.sol\":2041:2102  require(balance >= amountIn, \"Insufficient USDT in contract\") */\n      tag_126\n      jumpi\n      mload(0x40)\n      shl(0xe5, 0x461bcd)\n      dup2\n      mstore\n        /* \"#utility.yul\":4334:4336   */\n      0x20\n        /* \"contract/HITBNBBuyer_V3.sol\":2041:2102  require(balance >= amountIn, \"Insufficient USDT in contract\") */\n      0x04\n      dup3\n      add\n        /* \"#utility.yul\":4316:4337   */\n      mstore\n        /* \"#utility.yul\":4373:4375   */\n      0x1d\n        /* \"#utility.yul\":4353:4371   */\n      0x24\n      dup3\n      add\n        /* \"#utility.yul\":4346:4376   */\n      mstore\n        /* \"#utility.yul\":4412:4443   */\n      0x496e73756666696369656e74205553445420696e20636f6e7472616374000000\n        /* \"#utility.yul\":4392:4410   */\n      0x44\n      dup3\n      add\n        /* \"#utility.yul\":4385:4444   */\n      mstore\n        /* \"#utility.yul\":4461:4479   */\n      0x64\n      add\n        /* \"contract/HITBNBBuyer_V3.sol\":2041:2102  require(balance >= amountIn, \"Insufficient USDT in contract\") */\n      tag_57\n        /* \"#utility.yul\":4132:4485   */\n      jump\n        /* \"contract/HITBNBBuyer_V3.sol\":2041:2102  require(balance >= amountIn, \"Insufficient USDT in contract\") */\n    tag_126:\n        /* \"contract/HITBNBBuyer_V3.sol\":2168:2179  usdtAddress */\n      sload(0x00)\n        /* \"contract/HITBNBBuyer_V3.sol\":2197:2210  pancakeRouter */\n      0x04\n      dup1\n      sload\n        /* \"contract/HITBNBBuyer_V3.sol\":2161:2222  IERC20(usdtAddress).approve(address(pancakeRouter), amountIn) */\n      mload(0x40)\n      shl(0xe0, 0x095ea7b3)\n      dup2\n      mstore\n      sub(shl(0xa0, 0x01), 0x01)\n        /* \"contract/HITBNBBuyer_V3.sol\":2197:2210  pancakeRouter */\n      swap2\n      dup3\n      and\n        /* \"contract/HITBNBBuyer_V3.sol\":2161:2222  IERC20(usdtAddress).approve(address(pancakeRouter), amountIn) */\n      swap3\n      dup2\n      add\n        /* \"#utility.yul\":2175:2226   */\n      swap3\n      swap1\n      swap3\n      mstore\n        /* \"#utility.yul\":2242:2260   */\n      0x24\n      dup3\n      add\n        /* \"#utility.yul\":2235:2269   */\n      dup6\n      swap1\n      mstore\n        /* \"contract/HITBNBBuyer_V3.sol\":2168:2179  usdtAddress */\n      swap1\n      swap2\n      and\n      swap1\n        /* \"contract/HITBNBBuyer_V3.sol\":2161:2188  IERC20(usdtAddress).approve */\n      0x095ea7b3\n      swap1\n        /* \"#utility.yul\":2148:2166   */\n      0x44\n      add\n        /* \"contract/HITBNBBuyer_V3.sol\":2161:2222  IERC20(usdtAddress).approve(address(pancakeRouter), amountIn) */\n      0x20\n      mload(0x40)\n      dup1\n      dup4\n      sub\n      dup2\n      0x00\n      dup8\n      gas\n      call\n      iszero\n      dup1\n      iszero\n      tag_131\n      jumpi\n      returndatasize\n      0x00\n      dup1\n      returndatacopy\n      revert(0x00, returndatasize)\n    tag_131:\n      pop\n      pop\n      pop\n      pop\n      mload(0x40)\n      returndatasize\n      not(0x1f)\n      0x1f\n      dup3\n      add\n      and\n      dup3\n      add\n      dup1\n      0x40\n      mstore\n      pop\n      dup2\n      add\n      swap1\n      tag_132\n      swap2\n      swap1\n      tag_73\n      jump\t// in\n    tag_132:\n      pop\n        /* \"contract/HITBNBBuyer_V3.sol\":2259:2275  new address[](2) */\n      0x40\n      dup1\n      mload\n        /* \"contract/HITBNBBuyer_V3.sol\":2273:2274  2 */\n      0x02\n        /* \"contract/HITBNBBuyer_V3.sol\":2259:2275  new address[](2) */\n      dup1\n      dup3\n      mstore\n      0x60\n      dup3\n      add\n      dup4\n      mstore\n        /* \"contract/HITBNBBuyer_V3.sol\":2235:2256  address[] memory path */\n      0x00\n      swap3\n        /* \"contract/HITBNBBuyer_V3.sol\":2259:2275  new address[](2) */\n      0x20\n      dup4\n      add\n      swap1\n      dup1\n      calldatasize\n      dup4\n      calldatacopy\n      pop\n      pop\n        /* \"contract/HITBNBBuyer_V3.sol\":2296:2307  usdtAddress */\n      0x00\n      dup1\n      sload\n        /* \"contract/HITBNBBuyer_V3.sol\":2286:2293  path[0] */\n      dup4\n      mload\n      swap4\n      swap5\n      pop\n      sub(shl(0xa0, 0x01), 0x01)\n        /* \"contract/HITBNBBuyer_V3.sol\":2296:2307  usdtAddress */\n      and\n      swap3\n        /* \"contract/HITBNBBuyer_V3.sol\":2286:2293  path[0] */\n      dup5\n      swap3\n      pop\n      tag_138\n      jumpi\n      tag_138\n      tag_139\n      jump\t// in\n    tag_138:\n      sub(shl(0xa0, 0x01), 0x01)\n        /* \"contract/HITBNBBuyer_V3.sol\":2286:2307  path[0] = usdtAddress */\n      swap3\n      dup4\n      and\n        /* \"contract/HITBNBBuyer_V3.sol\":2286:2293  path[0] */\n      0x20\n      swap2\n      dup3\n      mul\n      swap3\n      swap1\n      swap3\n      add\n      add\n        /* \"contract/HITBNBBuyer_V3.sol\":2286:2307  path[0] = usdtAddress */\n      mstore\n        /* \"contract/HITBNBBuyer_V3.sol\":2328:2341  hitbnbAddress */\n      0x01\n      dup1\n      sload\n        /* \"contract/HITBNBBuyer_V3.sol\":2318:2325  path[1] */\n      dup4\n      mload\n        /* \"contract/HITBNBBuyer_V3.sol\":2328:2341  hitbnbAddress */\n      swap3\n      and\n      swap2\n        /* \"contract/HITBNBBuyer_V3.sol\":2318:2322  path */\n      dup4\n      swap2\n        /* \"contract/HITBNBBuyer_V3.sol\":2328:2341  hitbnbAddress */\n      swap1\n        /* \"contract/HITBNBBuyer_V3.sol\":2318:2325  path[1] */\n      dup2\n      lt\n      tag_141\n      jumpi\n      tag_141\n      tag_139\n      jump\t// in\n    tag_141:\n      sub(shl(0xa0, 0x01), 0x01)\n        /* \"contract/HITBNBBuyer_V3.sol\":2318:2341  path[1] = hitbnbAddress */\n      swap3\n      dup4\n      and\n        /* \"contract/HITBNBBuyer_V3.sol\":2318:2325  path[1] */\n      0x20\n      swap2\n      dup3\n      mul\n      swap3\n      swap1\n      swap3\n      add\n      add\n        /* \"contract/HITBNBBuyer_V3.sol\":2318:2341  path[1] = hitbnbAddress */\n      mstore\n        /* \"contract/HITBNBBuyer_V3.sol\":2391:2404  hitbnbAddress */\n      sload(0x01)\n        /* \"contract/HITBNBBuyer_V3.sol\":2384:2430  IERC20(hitbnbAddress).balanceOf(address(this)) */\n      mload(0x40)\n      shl(0xe0, 0x70a08231)\n      dup2\n      mstore\n        /* \"contract/HITBNBBuyer_V3.sol\":2424:2428  this */\n      address\n        /* \"contract/HITBNBBuyer_V3.sol\":2384:2430  IERC20(hitbnbAddress).balanceOf(address(this)) */\n      0x04\n      dup3\n      add\n        /* \"#utility.yul\":160:211   */\n      mstore\n        /* \"contract/HITBNBBuyer_V3.sol\":2354:2381  uint256 hitbnbBalanceBefore */\n      0x00\n      swap3\n        /* \"contract/HITBNBBuyer_V3.sol\":2391:2404  hitbnbAddress */\n      swap2\n      swap1\n      swap2\n      and\n      swap1\n        /* \"contract/HITBNBBuyer_V3.sol\":2384:2415  IERC20(hitbnbAddress).balanceOf */\n      0x70a08231\n      swap1\n        /* \"#utility.yul\":133:151   */\n      0x24\n      add\n        /* \"contract/HITBNBBuyer_V3.sol\":2384:2430  IERC20(hitbnbAddress).balanceOf(address(this)) */\n      0x20\n      mload(0x40)\n      dup1\n      dup4\n      sub\n      dup2\n      dup7\n      gas\n      staticcall\n      iszero\n      dup1\n      iszero\n      tag_144\n      jumpi\n      returndatasize\n      0x00\n      dup1\n      returndatacopy\n      revert(0x00, returndatasize)\n    tag_144:\n      pop\n      pop\n      pop\n      pop\n      mload(0x40)\n      returndatasize\n      not(0x1f)\n      0x1f\n      dup3\n      add\n      and\n      dup3\n      add\n      dup1\n      0x40\n      mstore\n      pop\n      dup2\n      add\n      swap1\n      tag_145\n      swap2\n      swap1\n      tag_64\n      jump\t// in\n    tag_145:\n        /* \"contract/HITBNBBuyer_V3.sol\":2451:2464  pancakeRouter */\n      0x04\n      dup1\n      sload\n        /* \"contract/HITBNBBuyer_V3.sol\":2451:2672  pancakeRouter.swapExactTokensForTokens(... */\n      mload(0x40)\n      shl(0xe0, 0x38ed1739)\n      dup2\n      mstore\n        /* \"contract/HITBNBBuyer_V3.sol\":2354:2430  uint256 hitbnbBalanceBefore = IERC20(hitbnbAddress).balanceOf(address(this)) */\n      swap3\n      swap4\n      pop\n      sub(shl(0xa0, 0x01), 0x01)\n        /* \"contract/HITBNBBuyer_V3.sol\":2451:2464  pancakeRouter */\n      and\n      swap2\n        /* \"contract/HITBNBBuyer_V3.sol\":2451:2489  pancakeRouter.swapExactTokensForTokens */\n      0x38ed1739\n      swap2\n        /* \"contract/HITBNBBuyer_V3.sol\":2451:2672  pancakeRouter.swapExactTokensForTokens(... */\n      tag_146\n      swap2\n        /* \"contract/HITBNBBuyer_V3.sol\":2504:2512  amountIn */\n      dup9\n      swap2\n        /* \"contract/HITBNBBuyer_V3.sol\":2451:2464  pancakeRouter */\n      0x00\n      swap2\n        /* \"contract/HITBNBBuyer_V3.sol\":2599:2603  path */\n      dup9\n      swap2\n        /* \"contract/HITBNBBuyer_V3.sol\":2626:2630  this */\n      address\n      swap2\n        /* \"contract/HITBNBBuyer_V3.sol\":2646:2661  block.timestamp */\n      timestamp\n      swap2\n        /* \"contract/HITBNBBuyer_V3.sol\":2451:2672  pancakeRouter.swapExactTokensForTokens(... */\n      add\n      tag_147\n      jump\t// in\n    tag_146:\n      0x00\n      mload(0x40)\n      dup1\n      dup4\n      sub\n      dup2\n      0x00\n      dup8\n      gas\n      call\n      iszero\n      dup1\n      iszero\n      tag_149\n      jumpi\n      returndatasize\n      0x00\n      dup1\n      returndatacopy\n      revert(0x00, returndatasize)\n    tag_149:\n      pop\n      pop\n      pop\n      pop\n      mload(0x40)\n      returndatasize\n      0x00\n      dup3\n      returndatacopy\n      0x1f\n      returndatasize\n      swap1\n      dup2\n      add\n      not(0x1f)\n      and\n      dup3\n      add\n      0x40\n      mstore\n      tag_150\n      swap2\n      swap1\n      dup2\n      add\n      swap1\n      tag_151\n      jump\t// in\n    tag_150:\n      pop\n        /* \"contract/HITBNBBuyer_V3.sol\":2721:2734  hitbnbAddress */\n      sload(0x01)\n        /* \"contract/HITBNBBuyer_V3.sol\":2714:2760  IERC20(hitbnbAddress).balanceOf(address(this)) */\n      mload(0x40)\n      shl(0xe0, 0x70a08231)\n      dup2\n      mstore\n        /* \"contract/HITBNBBuyer_V3.sol\":2754:2758  this */\n      address\n        /* \"contract/HITBNBBuyer_V3.sol\":2714:2760  IERC20(hitbnbAddress).balanceOf(address(this)) */\n      0x04\n      dup3\n      add\n        /* \"#utility.yul\":160:211   */\n      mstore\n        /* \"contract/HITBNBBuyer_V3.sol\":2685:2711  uint256 hitbnbBalanceAfter */\n      0x00\n      swap2\n      sub(shl(0xa0, 0x01), 0x01)\n        /* \"contract/HITBNBBuyer_V3.sol\":2721:2734  hitbnbAddress */\n      and\n      swap1\n        /* \"contract/HITBNBBuyer_V3.sol\":2714:2745  IERC20(hitbnbAddress).balanceOf */\n      0x70a08231\n      swap1\n        /* \"#utility.yul\":133:151   */\n      0x24\n      add\n        /* \"contract/HITBNBBuyer_V3.sol\":2714:2760  IERC20(hitbnbAddress).balanceOf(address(this)) */\n      0x20\n      mload(0x40)\n      dup1\n      dup4\n      sub\n      dup2\n      dup7\n      gas\n      staticcall\n      iszero\n      dup1\n      iszero\n      tag_154\n      jumpi\n      returndatasize\n      0x00\n      dup1\n      returndatacopy\n      revert(0x00, returndatasize)\n    tag_154:\n      pop\n      pop\n      pop\n      pop\n      mload(0x40)\n      returndatasize\n      not(0x1f)\n      0x1f\n      dup3\n      add\n      and\n      dup3\n      add\n      dup1\n      0x40\n      mstore\n      pop\n      dup2\n      add\n      swap1\n      tag_155\n      swap2\n      swap1\n      tag_64\n      jump\t// in\n    tag_155:\n        /* \"contract/HITBNBBuyer_V3.sol\":2685:2760  uint256 hitbnbBalanceAfter = IERC20(hitbnbAddress).balanceOf(address(this)) */\n      swap1\n      pop\n        /* \"contract/HITBNBBuyer_V3.sol\":2771:2793  uint256 hitbnbReceived */\n      0x00\n        /* \"contract/HITBNBBuyer_V3.sol\":2796:2836  hitbnbBalanceAfter - hitbnbBalanceBefore */\n      tag_156\n        /* \"contract/HITBNBBuyer_V3.sol\":2817:2836  hitbnbBalanceBefore */\n      dup4\n        /* \"contract/HITBNBBuyer_V3.sol\":2685:2760  uint256 hitbnbBalanceAfter = IERC20(hitbnbAddress).balanceOf(address(this)) */\n      dup4\n        /* \"contract/HITBNBBuyer_V3.sol\":2796:2836  hitbnbBalanceAfter - hitbnbBalanceBefore */\n      tag_157\n      jump\t// in\n    tag_156:\n        /* \"contract/HITBNBBuyer_V3.sol\":2862:2904  Swap(msg.sender, amountIn, hitbnbReceived) */\n      0x40\n      dup1\n      mload\n        /* \"#utility.yul\":7253:7278   */\n      dup9\n      dup2\n      mstore\n        /* \"#utility.yul\":7309:7311   */\n      0x20\n        /* \"#utility.yul\":7294:7312   */\n      dup2\n      add\n        /* \"#utility.yul\":7287:7321   */\n      dup4\n      swap1\n      mstore\n        /* \"contract/HITBNBBuyer_V3.sol\":2771:2836  uint256 hitbnbReceived = hitbnbBalanceAfter - hitbnbBalanceBefore */\n      swap2\n      swap3\n      pop\n        /* \"contract/HITBNBBuyer_V3.sol\":2867:2877  msg.sender */\n      caller\n      swap2\n        /* \"contract/HITBNBBuyer_V3.sol\":2862:2904  Swap(msg.sender, amountIn, hitbnbReceived) */\n      0x77f92a1b6a1a11de8ca49515ad4c1fad45632dd3442167d74b90b304a3c7a758\n      swap2\n        /* \"#utility.yul\":7226:7244   */\n      add\n        /* \"contract/HITBNBBuyer_V3.sol\":2862:2904  Swap(msg.sender, amountIn, hitbnbReceived) */\n      mload(0x40)\n      dup1\n      swap2\n      sub\n      swap1\n      log2\n        /* \"contract/HITBNBBuyer_V3.sol\":1957:2912  {... */\n      pop\n      pop\n      pop\n      pop\n      pop\n        /* \"contract/HITBNBBuyer_V3.sol\":1893:2912  function swapUSDTForHITBNB(uint256 amountIn) external onlyOwner {... */\n      pop\n      jump\t// out\n        /* \"contract/HITBNBBuyer_V3.sol\":1578:1849  function depositUSDT(uint256 amount) external {... */\n    tag_49:\n        /* \"contract/HITBNBBuyer_V3.sol\":1652:1653  0 */\n      0x00\n        /* \"contract/HITBNBBuyer_V3.sol\":1643:1649  amount */\n      dup2\n        /* \"contract/HITBNBBuyer_V3.sol\":1643:1653  amount > 0 */\n      gt\n        /* \"contract/HITBNBBuyer_V3.sol\":1635:1687  require(amount > 0, \"Amount must be greater than 0\") */\n      tag_161\n      jumpi\n      mload(0x40)\n      shl(0xe5, 0x461bcd)\n      dup2\n      mstore\n        /* \"#utility.yul\":7534:7536   */\n      0x20\n        /* \"contract/HITBNBBuyer_V3.sol\":1635:1687  require(amount > 0, \"Amount must be greater than 0\") */\n      0x04\n      dup3\n      add\n        /* \"#utility.yul\":7516:7537   */\n      mstore\n        /* \"#utility.yul\":7573:7575   */\n      0x1d\n        /* \"#utility.yul\":7553:7571   */\n      0x24\n      dup3\n      add\n        /* \"#utility.yul\":7546:7576   */\n      mstore\n        /* \"#utility.yul\":7612:7643   */\n      0x416d6f756e74206d7573742062652067726561746572207468616e2030000000\n        /* \"#utility.yul\":7592:7610   */\n      0x44\n      dup3\n      add\n        /* \"#utility.yul\":7585:7644   */\n      mstore\n        /* \"#utility.yul\":7661:7679   */\n      0x64\n      add\n        /* \"contract/HITBNBBuyer_V3.sol\":1635:1687  require(amount > 0, \"Amount must be greater than 0\") */\n      tag_57\n        /* \"#utility.yul\":7332:7685   */\n      jump\n        /* \"contract/HITBNBBuyer_V3.sol\":1635:1687  require(amount > 0, \"Amount must be greater than 0\") */\n    tag_161:\n        /* \"contract/HITBNBBuyer_V3.sol\":1713:1724  usdtAddress */\n      sload(0x00)\n        /* \"contract/HITBNBBuyer_V3.sol\":1706:1773  IERC20(usdtAddress).transferFrom(msg.sender, address(this), amount) */\n      mload(0x40)\n      shl(0xe0, 0x23b872dd)\n      dup2\n      mstore\n        /* \"contract/HITBNBBuyer_V3.sol\":1739:1749  msg.sender */\n      caller\n        /* \"contract/HITBNBBuyer_V3.sol\":1706:1773  IERC20(usdtAddress).transferFrom(msg.sender, address(this), amount) */\n      0x04\n      dup3\n      add\n        /* \"#utility.yul\":7930:7964   */\n      mstore\n        /* \"contract/HITBNBBuyer_V3.sol\":1759:1763  this */\n      address\n        /* \"#utility.yul\":7980:7998   */\n      0x24\n      dup3\n      add\n        /* \"#utility.yul\":7973:8016   */\n      mstore\n        /* \"#utility.yul\":8032:8050   */\n      0x44\n      dup2\n      add\n        /* \"#utility.yul\":8025:8059   */\n      dup4\n      swap1\n      mstore\n      sub(shl(0xa0, 0x01), 0x01)\n        /* \"contract/HITBNBBuyer_V3.sol\":1713:1724  usdtAddress */\n      swap1\n      swap2\n      and\n      swap1\n        /* \"contract/HITBNBBuyer_V3.sol\":1706:1738  IERC20(usdtAddress).transferFrom */\n      0x23b872dd\n      swap1\n        /* \"#utility.yul\":7865:7883   */\n      0x64\n      add\n        /* \"contract/HITBNBBuyer_V3.sol\":1706:1773  IERC20(usdtAddress).transferFrom(msg.sender, address(this), amount) */\n      0x20\n      mload(0x40)\n      dup1\n      dup4\n      sub\n      dup2\n      0x00\n      dup8\n      gas\n      call\n      iszero\n      dup1\n      iszero\n      tag_167\n      jumpi\n      returndatasize\n      0x00\n      dup1\n      returndatacopy\n      revert(0x00, returndatasize)\n    tag_167:\n      pop\n      pop\n      pop\n      pop\n      mload(0x40)\n      returndatasize\n      not(0x1f)\n      0x1f\n      dup3\n      add\n      and\n      dup3\n      add\n      dup1\n      0x40\n      mstore\n      pop\n      dup2\n      add\n      swap1\n      tag_168\n      swap2\n      swap1\n      tag_73\n      jump\t// in\n    tag_168:\n        /* \"contract/HITBNBBuyer_V3.sol\":1698:1798  require(IERC20(usdtAddress).transferFrom(msg.sender, address(this), amount), \"USDT transfer failed\") */\n      tag_169\n      jumpi\n      mload(0x40)\n      shl(0xe5, 0x461bcd)\n      dup2\n      mstore\n        /* \"#utility.yul\":8272:8274   */\n      0x20\n        /* \"contract/HITBNBBuyer_V3.sol\":1698:1798  require(IERC20(usdtAddress).transferFrom(msg.sender, address(this), amount), \"USDT transfer failed\") */\n      0x04\n      dup3\n      add\n        /* \"#utility.yul\":8254:8275   */\n      mstore\n        /* \"#utility.yul\":8311:8313   */\n      0x14\n        /* \"#utility.yul\":8291:8309   */\n      0x24\n      dup3\n      add\n        /* \"#utility.yul\":8284:8314   */\n      mstore\n      shl(0x62, 0x1554d115081d1c985b9cd9995c8819985a5b1959)\n        /* \"#utility.yul\":8330:8348   */\n      0x44\n      dup3\n      add\n        /* \"#utility.yul\":8323:8373   */\n      mstore\n        /* \"#utility.yul\":8390:8408   */\n      0x64\n      add\n        /* \"contract/HITBNBBuyer_V3.sol\":1698:1798  require(IERC20(usdtAddress).transferFrom(msg.sender, address(this), amount), \"USDT transfer failed\") */\n      tag_57\n        /* \"#utility.yul\":8070:8414   */\n      jump\n        /* \"contract/HITBNBBuyer_V3.sol\":1698:1798  require(IERC20(usdtAddress).transferFrom(msg.sender, address(this), amount), \"USDT transfer failed\") */\n    tag_169:\n        /* \"contract/HITBNBBuyer_V3.sol\":1814:1841  Deposit(msg.sender, amount) */\n      mload(0x40)\n        /* \"#utility.yul\":4096:4121   */\n      dup2\n      dup2\n      mstore\n        /* \"contract/HITBNBBuyer_V3.sol\":1822:1832  msg.sender */\n      caller\n      swap1\n        /* \"contract/HITBNBBuyer_V3.sol\":1814:1841  Deposit(msg.sender, amount) */\n      0xe1fffcc4923d04b559f4d29a8bfc6cda04eb5b0d3c460751c2402c5c5cc9109c\n      swap1\n        /* \"#utility.yul\":4084:4086   */\n      0x20\n        /* \"#utility.yul\":4069:4087   */\n      add\n        /* \"contract/HITBNBBuyer_V3.sol\":1814:1841  Deposit(msg.sender, amount) */\n      mload(0x40)\n      dup1\n      swap2\n      sub\n      swap1\n      log2\n        /* \"contract/HITBNBBuyer_V3.sol\":1578:1849  function depositUSDT(uint256 amount) external {... */\n      pop\n      jump\t// out\n        /* \"#utility.yul\":222:508   */\n    tag_37:\n        /* \"#utility.yul\":281:287   */\n      0x00\n        /* \"#utility.yul\":334:336   */\n      0x20\n        /* \"#utility.yul\":322:331   */\n      dup3\n        /* \"#utility.yul\":313:320   */\n      dup5\n        /* \"#utility.yul\":309:332   */\n      sub\n        /* \"#utility.yul\":305:337   */\n      slt\n        /* \"#utility.yul\":302:354   */\n      iszero\n      tag_176\n      jumpi\n        /* \"#utility.yul\":350:351   */\n      0x00\n        /* \"#utility.yul\":347:348   */\n      dup1\n        /* \"#utility.yul\":340:352   */\n      revert\n        /* \"#utility.yul\":302:354   */\n    tag_176:\n        /* \"#utility.yul\":376:399   */\n      dup2\n      calldataload\n      sub(shl(0xa0, 0x01), 0x01)\n        /* \"#utility.yul\":428:459   */\n      dup2\n      and\n        /* \"#utility.yul\":418:460   */\n      dup2\n      eq\n        /* \"#utility.yul\":408:478   */\n      tag_177\n      jumpi\n        /* \"#utility.yul\":474:475   */\n      0x00\n        /* \"#utility.yul\":471:472   */\n      dup1\n        /* \"#utility.yul\":464:476   */\n      revert\n        /* \"#utility.yul\":408:478   */\n    tag_177:\n        /* \"#utility.yul\":497:502   */\n      swap4\n        /* \"#utility.yul\":222:508   */\n      swap3\n      pop\n      pop\n      pop\n      jump\t// out\n        /* \"#utility.yul\":742:922   */\n    tag_45:\n        /* \"#utility.yul\":801:807   */\n      0x00\n        /* \"#utility.yul\":854:856   */\n      0x20\n        /* \"#utility.yul\":842:851   */\n      dup3\n        /* \"#utility.yul\":833:840   */\n      dup5\n        /* \"#utility.yul\":829:852   */\n      sub\n        /* \"#utility.yul\":825:857   */\n      slt\n        /* \"#utility.yul\":822:874   */\n      iszero\n      tag_180\n      jumpi\n        /* \"#utility.yul\":870:871   */\n      0x00\n        /* \"#utility.yul\":867:868   */\n      dup1\n        /* \"#utility.yul\":860:872   */\n      revert\n        /* \"#utility.yul\":822:874   */\n    tag_180:\n      pop\n        /* \"#utility.yul\":893:916   */\n      calldataload\n      swap2\n        /* \"#utility.yul\":742:922   */\n      swap1\n      pop\n      jump\t// out\n        /* \"#utility.yul\":1119:1457   */\n    tag_58:\n        /* \"#utility.yul\":1321:1323   */\n      0x20\n        /* \"#utility.yul\":1303:1324   */\n      dup1\n      dup3\n      mstore\n        /* \"#utility.yul\":1360:1362   */\n      0x0e\n        /* \"#utility.yul\":1340:1358   */\n      swap1\n      dup3\n      add\n        /* \"#utility.yul\":1333:1363   */\n      mstore\n      shl(0x92, 0x139bdd08185d5d1a1bdc9a5e9959)\n        /* \"#utility.yul\":1394:1396   */\n      0x40\n        /* \"#utility.yul\":1379:1397   */\n      dup3\n      add\n        /* \"#utility.yul\":1372:1416   */\n      mstore\n        /* \"#utility.yul\":1448:1450   */\n      0x60\n        /* \"#utility.yul\":1433:1451   */\n      add\n      swap1\n        /* \"#utility.yul\":1119:1457   */\n      jump\t// out\n        /* \"#utility.yul\":1462:1646   */\n    tag_64:\n        /* \"#utility.yul\":1532:1538   */\n      0x00\n        /* \"#utility.yul\":1585:1587   */\n      0x20\n        /* \"#utility.yul\":1573:1582   */\n      dup3\n        /* \"#utility.yul\":1564:1571   */\n      dup5\n        /* \"#utility.yul\":1560:1583   */\n      sub\n        /* \"#utility.yul\":1556:1588   */\n      slt\n        /* \"#utility.yul\":1553:1605   */\n      iszero\n      tag_184\n      jumpi\n        /* \"#utility.yul\":1601:1602   */\n      0x00\n        /* \"#utility.yul\":1598:1599   */\n      dup1\n        /* \"#utility.yul\":1591:1603   */\n      revert\n        /* \"#utility.yul\":1553:1605   */\n    tag_184:\n      pop\n        /* \"#utility.yul\":1624:1640   */\n      mload\n      swap2\n        /* \"#utility.yul\":1462:1646   */\n      swap1\n      pop\n      jump\t// out\n        /* \"#utility.yul\":2280:2557   */\n    tag_73:\n        /* \"#utility.yul\":2347:2353   */\n      0x00\n        /* \"#utility.yul\":2400:2402   */\n      0x20\n        /* \"#utility.yul\":2388:2397   */\n      dup3\n        /* \"#utility.yul\":2379:2386   */\n      dup5\n        /* \"#utility.yul\":2375:2398   */\n      sub\n        /* \"#utility.yul\":2371:2403   */\n      slt\n        /* \"#utility.yul\":2368:2420   */\n      iszero\n      tag_188\n      jumpi\n        /* \"#utility.yul\":2416:2417   */\n      0x00\n        /* \"#utility.yul\":2413:2414   */\n      dup1\n        /* \"#utility.yul\":2406:2418   */\n      revert\n        /* \"#utility.yul\":2368:2420   */\n    tag_188:\n        /* \"#utility.yul\":2448:2457   */\n      dup2\n        /* \"#utility.yul\":2442:2458   */\n      mload\n        /* \"#utility.yul\":2501:2506   */\n      dup1\n        /* \"#utility.yul\":2494:2507   */\n      iszero\n        /* \"#utility.yul\":2487:2508   */\n      iszero\n        /* \"#utility.yul\":2480:2485   */\n      dup2\n        /* \"#utility.yul\":2477:2509   */\n      eq\n        /* \"#utility.yul\":2467:2527   */\n      tag_177\n      jumpi\n        /* \"#utility.yul\":2523:2524   */\n      0x00\n        /* \"#utility.yul\":2520:2521   */\n      dup1\n        /* \"#utility.yul\":2513:2525   */\n      revert\n        /* \"#utility.yul\":4490:4617   */\n    tag_135:\n        /* \"#utility.yul\":4551:4561   */\n      0x4e487b71\n        /* \"#utility.yul\":4546:4549   */\n      0xe0\n        /* \"#utility.yul\":4542:4562   */\n      shl\n        /* \"#utility.yul\":4539:4540   */\n      0x00\n        /* \"#utility.yul\":4532:4563   */\n      mstore\n        /* \"#utility.yul\":4582:4586   */\n      0x41\n        /* \"#utility.yul\":4579:4580   */\n      0x04\n        /* \"#utility.yul\":4572:4587   */\n      mstore\n        /* \"#utility.yul\":4606:4610   */\n      0x24\n        /* \"#utility.yul\":4603:4604   */\n      0x00\n        /* \"#utility.yul\":4596:4611   */\n      revert\n        /* \"#utility.yul\":4622:4749   */\n    tag_139:\n        /* \"#utility.yul\":4683:4693   */\n      0x4e487b71\n        /* \"#utility.yul\":4678:4681   */\n      0xe0\n        /* \"#utility.yul\":4674:4694   */\n      shl\n        /* \"#utility.yul\":4671:4672   */\n      0x00\n        /* \"#utility.yul\":4664:4695   */\n      mstore\n        /* \"#utility.yul\":4714:4718   */\n      0x32\n        /* \"#utility.yul\":4711:4712   */\n      0x04\n        /* \"#utility.yul\":4704:4719   */\n      mstore\n        /* \"#utility.yul\":4738:4742   */\n      0x24\n        /* \"#utility.yul\":4735:4736   */\n      0x00\n        /* \"#utility.yul\":4728:4743   */\n      revert\n        /* \"#utility.yul\":4754:5734   */\n    tag_147:\n        /* \"#utility.yul\":5016:5020   */\n      0x00\n        /* \"#utility.yul\":5064:5067   */\n      0xa0\n        /* \"#utility.yul\":5053:5062   */\n      dup3\n        /* \"#utility.yul\":5049:5068   */\n      add\n        /* \"#utility.yul\":5095:5101   */\n      dup8\n        /* \"#utility.yul\":5084:5093   */\n      dup4\n        /* \"#utility.yul\":5077:5102   */\n      mstore\n        /* \"#utility.yul\":5121:5123   */\n      0x20\n        /* \"#utility.yul\":5159:5165   */\n      dup8\n        /* \"#utility.yul\":5154:5156   */\n      0x20\n        /* \"#utility.yul\":5143:5152   */\n      dup6\n        /* \"#utility.yul\":5139:5157   */\n      add\n        /* \"#utility.yul\":5132:5166   */\n      mstore\n        /* \"#utility.yul\":5202:5205   */\n      0xa0\n        /* \"#utility.yul\":5197:5199   */\n      0x40\n        /* \"#utility.yul\":5186:5195   */\n      dup6\n        /* \"#utility.yul\":5182:5200   */\n      add\n        /* \"#utility.yul\":5175:5206   */\n      mstore\n        /* \"#utility.yul\":5226:5232   */\n      dup2\n        /* \"#utility.yul\":5261:5267   */\n      dup8\n        /* \"#utility.yul\":5255:5268   */\n      mload\n        /* \"#utility.yul\":5292:5298   */\n      dup1\n        /* \"#utility.yul\":5284:5290   */\n      dup5\n        /* \"#utility.yul\":5277:5299   */\n      mstore\n        /* \"#utility.yul\":5330:5333   */\n      0xc0\n        /* \"#utility.yul\":5319:5328   */\n      dup7\n        /* \"#utility.yul\":5315:5334   */\n      add\n        /* \"#utility.yul\":5308:5334   */\n      swap2\n      pop\n        /* \"#utility.yul\":5369:5371   */\n      0x20\n        /* \"#utility.yul\":5361:5367   */\n      dup10\n        /* \"#utility.yul\":5357:5372   */\n      add\n        /* \"#utility.yul\":5343:5372   */\n      swap4\n      pop\n        /* \"#utility.yul\":5390:5391   */\n      0x00\n        /* \"#utility.yul\":5400:5595   */\n    tag_199:\n        /* \"#utility.yul\":5414:5420   */\n      dup2\n        /* \"#utility.yul\":5411:5412   */\n      dup2\n        /* \"#utility.yul\":5408:5421   */\n      lt\n        /* \"#utility.yul\":5400:5595   */\n      iszero\n      tag_201\n      jumpi\n        /* \"#utility.yul\":5479:5492   */\n      dup5\n      mload\n      sub(shl(0xa0, 0x01), 0x01)\n        /* \"#utility.yul\":5475:5514   */\n      and\n        /* \"#utility.yul\":5463:5515   */\n      dup4\n      mstore\n        /* \"#utility.yul\":5570:5585   */\n      swap4\n      dup4\n      add\n      swap4\n        /* \"#utility.yul\":5535:5547   */\n      swap2\n      dup4\n      add\n      swap2\n        /* \"#utility.yul\":5511:5512   */\n      0x01\n        /* \"#utility.yul\":5429:5438   */\n      add\n        /* \"#utility.yul\":5400:5595   */\n      jump(tag_199)\n    tag_201:\n      pop\n      pop\n      sub(shl(0xa0, 0x01), 0x01)\n        /* \"#utility.yul\":5651:5683   */\n      swap7\n      swap1\n      swap7\n      and\n        /* \"#utility.yul\":5646:5648   */\n      0x60\n        /* \"#utility.yul\":5631:5649   */\n      dup6\n      add\n        /* \"#utility.yul\":5624:5684   */\n      mstore\n      pop\n      pop\n      pop\n        /* \"#utility.yul\":5715:5718   */\n      0x80\n        /* \"#utility.yul\":5700:5719   */\n      add\n        /* \"#utility.yul\":5693:5728   */\n      mstore\n        /* \"#utility.yul\":5612:5615   */\n      swap4\n        /* \"#utility.yul\":4754:5734   */\n      swap3\n      pop\n      pop\n      pop\n      jump\t// out\n        /* \"#utility.yul\":5739:6844   */\n    tag_151:\n        /* \"#utility.yul\":5834:5840   */\n      0x00\n        /* \"#utility.yul\":5865:5867   */\n      0x20\n        /* \"#utility.yul\":5908:5910   */\n      dup1\n        /* \"#utility.yul\":5896:5905   */\n      dup4\n        /* \"#utility.yul\":5887:5894   */\n      dup6\n        /* \"#utility.yul\":5883:5906   */\n      sub\n        /* \"#utility.yul\":5879:5911   */\n      slt\n        /* \"#utility.yul\":5876:5928   */\n      iszero\n      tag_203\n      jumpi\n        /* \"#utility.yul\":5924:5925   */\n      0x00\n        /* \"#utility.yul\":5921:5922   */\n      dup1\n        /* \"#utility.yul\":5914:5926   */\n      revert\n        /* \"#utility.yul\":5876:5928   */\n    tag_203:\n        /* \"#utility.yul\":5957:5966   */\n      dup3\n        /* \"#utility.yul\":5951:5967   */\n      mload\n        /* \"#utility.yul\":5986:6004   */\n      0xffffffffffffffff\n        /* \"#utility.yul\":6027:6029   */\n      dup1\n        /* \"#utility.yul\":6019:6025   */\n      dup3\n        /* \"#utility.yul\":6016:6030   */\n      gt\n        /* \"#utility.yul\":6013:6047   */\n      iszero\n      tag_204\n      jumpi\n        /* \"#utility.yul\":6043:6044   */\n      0x00\n        /* \"#utility.yul\":6040:6041   */\n      dup1\n        /* \"#utility.yul\":6033:6045   */\n      revert\n        /* \"#utility.yul\":6013:6047   */\n    tag_204:\n        /* \"#utility.yul\":6081:6087   */\n      dup2\n        /* \"#utility.yul\":6070:6079   */\n      dup6\n        /* \"#utility.yul\":6066:6088   */\n      add\n        /* \"#utility.yul\":6056:6088   */\n      swap2\n      pop\n        /* \"#utility.yul\":6126:6133   */\n      dup6\n        /* \"#utility.yul\":6119:6123   */\n      0x1f\n        /* \"#utility.yul\":6115:6117   */\n      dup4\n        /* \"#utility.yul\":6111:6124   */\n      add\n        /* \"#utility.yul\":6107:6134   */\n      slt\n        /* \"#utility.yul\":6097:6152   */\n      tag_205\n      jumpi\n        /* \"#utility.yul\":6148:6149   */\n      0x00\n        /* \"#utility.yul\":6145:6146   */\n      dup1\n        /* \"#utility.yul\":6138:6150   */\n      revert\n        /* \"#utility.yul\":6097:6152   */\n    tag_205:\n        /* \"#utility.yul\":6177:6179   */\n      dup2\n        /* \"#utility.yul\":6171:6180   */\n      mload\n        /* \"#utility.yul\":6199:6201   */\n      dup2\n        /* \"#utility.yul\":6195:6197   */\n      dup2\n        /* \"#utility.yul\":6192:6202   */\n      gt\n        /* \"#utility.yul\":6189:6225   */\n      iszero\n      tag_207\n      jumpi\n        /* \"#utility.yul\":6205:6223   */\n      tag_207\n      tag_135\n      jump\t// in\n    tag_207:\n        /* \"#utility.yul\":6251:6253   */\n      dup1\n        /* \"#utility.yul\":6248:6249   */\n      0x05\n        /* \"#utility.yul\":6244:6254   */\n      shl\n        /* \"#utility.yul\":6283:6285   */\n      0x40\n        /* \"#utility.yul\":6277:6286   */\n      mload\n        /* \"#utility.yul\":6346:6348   */\n      0x1f\n        /* \"#utility.yul\":6342:6349   */\n      not\n        /* \"#utility.yul\":6337:6339   */\n      0x3f\n        /* \"#utility.yul\":6333:6335   */\n      dup4\n        /* \"#utility.yul\":6329:6340   */\n      add\n        /* \"#utility.yul\":6325:6350   */\n      and\n        /* \"#utility.yul\":6317:6323   */\n      dup2\n        /* \"#utility.yul\":6313:6351   */\n      add\n        /* \"#utility.yul\":6401:6407   */\n      dup2\n        /* \"#utility.yul\":6389:6399   */\n      dup2\n        /* \"#utility.yul\":6386:6408   */\n      lt\n        /* \"#utility.yul\":6381:6383   */\n      dup6\n        /* \"#utility.yul\":6369:6379   */\n      dup3\n        /* \"#utility.yul\":6366:6384   */\n      gt\n        /* \"#utility.yul\":6363:6409   */\n      or\n        /* \"#utility.yul\":6360:6432   */\n      iszero\n      tag_209\n      jumpi\n        /* \"#utility.yul\":6412:6430   */\n      tag_209\n      tag_135\n      jump\t// in\n    tag_209:\n        /* \"#utility.yul\":6448:6450   */\n      0x40\n        /* \"#utility.yul\":6441:6463   */\n      mstore\n        /* \"#utility.yul\":6498:6516   */\n      swap2\n      dup3\n      mstore\n        /* \"#utility.yul\":6532:6547   */\n      dup5\n      dup3\n      add\n      swap3\n      pop\n        /* \"#utility.yul\":6574:6585   */\n      dup4\n      dup2\n      add\n        /* \"#utility.yul\":6570:6590   */\n      dup6\n      add\n      swap2\n        /* \"#utility.yul\":6602:6621   */\n      dup9\n      dup4\n      gt\n        /* \"#utility.yul\":6599:6638   */\n      iszero\n      tag_210\n      jumpi\n        /* \"#utility.yul\":6634:6635   */\n      0x00\n        /* \"#utility.yul\":6631:6632   */\n      dup1\n        /* \"#utility.yul\":6624:6636   */\n      revert\n        /* \"#utility.yul\":6599:6638   */\n    tag_210:\n        /* \"#utility.yul\":6658:6669   */\n      swap4\n      dup6\n      add\n      swap4\n        /* \"#utility.yul\":6678:6813   */\n    tag_211:\n        /* \"#utility.yul\":6694:6700   */\n      dup3\n        /* \"#utility.yul\":6689:6692   */\n      dup6\n        /* \"#utility.yul\":6686:6701   */\n      lt\n        /* \"#utility.yul\":6678:6813   */\n      iszero\n      tag_213\n      jumpi\n        /* \"#utility.yul\":6760:6770   */\n      dup5\n      mload\n        /* \"#utility.yul\":6748:6771   */\n      dup5\n      mstore\n        /* \"#utility.yul\":6711:6723   */\n      swap4\n      dup6\n      add\n      swap4\n        /* \"#utility.yul\":6791:6803   */\n      swap3\n      dup6\n      add\n      swap3\n        /* \"#utility.yul\":6678:6813   */\n      jump(tag_211)\n    tag_213:\n        /* \"#utility.yul\":6832:6838   */\n      swap9\n        /* \"#utility.yul\":5739:6844   */\n      swap8\n      pop\n      pop\n      pop\n      pop\n      pop\n      pop\n      pop\n      pop\n      jump\t// out\n        /* \"#utility.yul\":6849:7074   */\n    tag_157:\n        /* \"#utility.yul\":6916:6925   */\n      dup2\n      dup2\n      sub\n        /* \"#utility.yul\":6937:6948   */\n      dup2\n      dup2\n      gt\n        /* \"#utility.yul\":6934:7068   */\n      iszero\n      tag_215\n      jumpi\n        /* \"#utility.yul\":6990:7000   */\n      0x4e487b71\n        /* \"#utility.yul\":6985:6988   */\n      0xe0\n        /* \"#utility.yul\":6981:7001   */\n      shl\n        /* \"#utility.yul\":6978:6979   */\n      0x00\n        /* \"#utility.yul\":6971:7002   */\n      mstore\n        /* \"#utility.yul\":7025:7029   */\n      0x11\n        /* \"#utility.yul\":7022:7023   */\n      0x04\n        /* \"#utility.yul\":7015:7030   */\n      mstore\n        /* \"#utility.yul\":7053:7057   */\n      0x24\n        /* \"#utility.yul\":7050:7051   */\n      0x00\n        /* \"#utility.yul\":7043:7058   */\n      revert\n        /* \"#utility.yul\":6934:7068   */\n    tag_215:\n        /* \"#utility.yul\":6849:7074   */\n      swap3\n      swap2\n      pop\n      pop\n      jump\t// out\n\n    auxdata: 0xa2646970667358221220db82babeb5d0d6eed7c84827aa0f6fe47dc2577a18866be546d6989e01a532c864736f6c63430008180033\n}\n",
				"bytecode": {
					"linkReferences": {},
					"object": "608060405234801561000f575f80fd5b50604051610e92380380610e9283398101604081905261002e916100a7565b5f80546001600160a01b03199081166001600160a01b039687161790915560018054821694861694909417909355600480548416928516929092179091556003805483169190931617909155600280543392169190911790556100f8565b80516001600160a01b03811681146100a2575f80fd5b919050565b5f805f80608085870312156100ba575f80fd5b6100c38561008c565b93506100d16020860161008c565b92506100df6040860161008c565b91506100ed6060860161008c565b905092959194509250565b610d8d806101055f395ff3fe608060405234801561000f575f80fd5b50600436106100b1575f3560e01c80639ab4a4451161006e5780639ab4a445146101255780639b7f4e2914610137578063c21ebd071461014a578063cbf1328b1461015d578063e7c80f1714610170578063f621cc4814610183575f80fd5b8063225fc38d146100b55780632cbd53af146100e5578063362e496b146100ef57806341d9a548146100f757806342d50f19146100ff5780638da5cb5b14610112575b5f80fd5b6001546100c8906001600160a01b031681565b6040516001600160a01b0390911681526020015b60405180910390f35b6100ed6101b5565b005b6100ed610355565b6100ed61046a565b6003546100c8906001600160a01b031681565b6002546100c8906001600160a01b031681565b5f546100c8906001600160a01b031681565b6100ed610145366004610b3e565b610631565b6004546100c8906001600160a01b031681565b6100ed61016b366004610b6b565b61067d565b6100ed61017e366004610b6b565b6109fd565b6101a5610191366004610b3e565b60056020525f908152604090205460ff1681565b60405190151581526020016100dc565b6002546001600160a01b031633146101e85760405162461bcd60e51b81526004016101df90610b82565b60405180910390fd5b6001546040516370a0823160e01b81523060048201525f916001600160a01b0316906370a0823190602401602060405180830381865afa15801561022e573d5f803e3d5ffd5b505050506040513d601f19601f820116820180604052508101906102529190610baa565b90505f811161029b5760405162461bcd60e51b81526020600482015260156024820152744e6f20484954424e4220746f20776974686472617760581b60448201526064016101df565b60015460025460405163a9059cbb60e01b81526001600160a01b0391821660048201526024810184905291169063a9059cbb906044015b6020604051808303815f875af11580156102ee573d5f803e3d5ffd5b505050506040513d601f19601f820116820180604052508101906103129190610bc1565b6103525760405162461bcd60e51b815260206004820152601160248201527015da5d1a191c985dd85b0819985a5b1959607a1b60448201526064016101df565b50565b6002546001600160a01b0316331461037f5760405162461bcd60e51b81526004016101df90610b82565b5f80546040516370a0823160e01b81523060048201526001600160a01b03909116906370a0823190602401602060405180830381865afa1580156103c5573d5f803e3d5ffd5b505050506040513d601f19601f820116820180604052508101906103e99190610baa565b90505f81116104305760405162461bcd60e51b81526020600482015260136024820152724e6f205553445420746f20776974686472617760681b60448201526064016101df565b5f5460025460405163a9059cbb60e01b81526001600160a01b0391821660048201526024810184905291169063a9059cbb906044016102d2565b6002546001600160a01b031633146104945760405162461bcd60e51b81526004016101df90610b82565b6001546040516370a0823160e01b81523060048201525f916001600160a01b0316906370a0823190602401602060405180830381865afa1580156104da573d5f803e3d5ffd5b505050506040513d601f19601f820116820180604052508101906104fe9190610baa565b90505f81116105475760405162461bcd60e51b81526020600482015260156024820152742737902424aa212721103a37903a3930b739b332b960591b60448201526064016101df565b60015460035460405163a9059cbb60e01b81526001600160a01b0391821660048201526024810184905291169063a9059cbb906044016020604051808303815f875af1158015610599573d5f803e3d5ffd5b505050506040513d601f19601f820116820180604052508101906105bd9190610bc1565b6105fb5760405162461bcd60e51b815260206004820152600f60248201526e151c985b9cd9995c8819985a5b1959608a1b60448201526064016101df565b6040518181527f296b295f0c233bbdeafc532330db917ee14cf23eaab161a11cec42a3d6d31a7d9060200160405180910390a150565b6002546001600160a01b0316331461065b5760405162461bcd60e51b81526004016101df90610b82565b600380546001600160a01b0319166001600160a01b0392909216919091179055565b6002546001600160a01b031633146106a75760405162461bcd60e51b81526004016101df90610b82565b5f80546040516370a0823160e01b81523060048201526001600160a01b03909116906370a0823190602401602060405180830381865afa1580156106ed573d5f803e3d5ffd5b505050506040513d601f19601f820116820180604052508101906107119190610baa565b9050818110156107635760405162461bcd60e51b815260206004820152601d60248201527f496e73756666696369656e74205553445420696e20636f6e747261637400000060448201526064016101df565b5f546004805460405163095ea7b360e01b81526001600160a01b0391821692810192909252602482018590529091169063095ea7b3906044016020604051808303815f875af11580156107b8573d5f803e3d5ffd5b505050506040513d601f19601f820116820180604052508101906107dc9190610bc1565b506040805160028082526060820183525f9260208301908036833750505f805483519394506001600160a01b03169284925061081a5761081a610bf4565b6001600160a01b039283166020918202929092010152600180548351921691839190811061084a5761084a610bf4565b6001600160a01b0392831660209182029290920101526001546040516370a0823160e01b81523060048201525f9291909116906370a0823190602401602060405180830381865afa1580156108a1573d5f803e3d5ffd5b505050506040513d601f19601f820116820180604052508101906108c59190610baa565b600480546040516338ed173960e01b81529293506001600160a01b0316916338ed1739916108fd9188915f9188913091429101610c08565b5f604051808303815f875af1158015610918573d5f803e3d5ffd5b505050506040513d5f823e601f3d908101601f1916820160405261093f9190810190610c79565b506001546040516370a0823160e01b81523060048201525f916001600160a01b0316906370a0823190602401602060405180830381865afa158015610986573d5f803e3d5ffd5b505050506040513d601f19601f820116820180604052508101906109aa9190610baa565b90505f6109b78383610d32565b604080518881526020810183905291925033917f77f92a1b6a1a11de8ca49515ad4c1fad45632dd3442167d74b90b304a3c7a758910160405180910390a2505050505050565b5f8111610a4c5760405162461bcd60e51b815260206004820152601d60248201527f416d6f756e74206d7573742062652067726561746572207468616e203000000060448201526064016101df565b5f546040516323b872dd60e01b8152336004820152306024820152604481018390526001600160a01b03909116906323b872dd906064016020604051808303815f875af1158015610a9f573d5f803e3d5ffd5b505050506040513d601f19601f82011682018060405250810190610ac39190610bc1565b610b065760405162461bcd60e51b81526020600482015260146024820152731554d115081d1c985b9cd9995c8819985a5b195960621b60448201526064016101df565b60405181815233907fe1fffcc4923d04b559f4d29a8bfc6cda04eb5b0d3c460751c2402c5c5cc9109c9060200160405180910390a250565b5f60208284031215610b4e575f80fd5b81356001600160a01b0381168114610b64575f80fd5b9392505050565b5f60208284031215610b7b575f80fd5b5035919050565b6020808252600e908201526d139bdd08185d5d1a1bdc9a5e995960921b604082015260600190565b5f60208284031215610bba575f80fd5b5051919050565b5f60208284031215610bd1575f80fd5b81518015158114610b64575f80fd5b634e487b7160e01b5f52604160045260245ffd5b634e487b7160e01b5f52603260045260245ffd5b5f60a08201878352602087602085015260a0604085015281875180845260c0860191506020890193505f5b81811015610c585784516001600160a01b031683529383019391830191600101610c33565b50506001600160a01b03969096166060850152505050608001529392505050565b5f6020808385031215610c8a575f80fd5b825167ffffffffffffffff80821115610ca1575f80fd5b818501915085601f830112610cb4575f80fd5b815181811115610cc657610cc6610be0565b8060051b604051601f19603f83011681018181108582111715610ceb57610ceb610be0565b604052918252848201925083810185019188831115610d08575f80fd5b938501935b82851015610d2657845184529385019392850192610d0d565b98975050505050505050565b81810381811115610d5157634e487b7160e01b5f52601160045260245ffd5b9291505056fea2646970667358221220db82babeb5d0d6eed7c84827aa0f6fe47dc2577a18866be546d6989e01a532c864736f6c63430008180033",
					"opcodes": "PUSH1 0x80 PUSH1 0x40 MSTORE CALLVALUE DUP1 ISZERO PUSH2 0xF JUMPI PUSH0 DUP1 REVERT JUMPDEST POP PUSH1 0x40 MLOAD PUSH2 0xE92 CODESIZE SUB DUP1 PUSH2 0xE92 DUP4 CODECOPY DUP2 ADD PUSH1 0x40 DUP2 SWAP1 MSTORE PUSH2 0x2E SWAP2 PUSH2 0xA7 JUMP JUMPDEST PUSH0 DUP1 SLOAD PUSH1 0x1 PUSH1 0x1 PUSH1 0xA0 SHL SUB NOT SWAP1 DUP2 AND PUSH1 0x1 PUSH1 0x1 PUSH1 0xA0 SHL SUB SWAP7 DUP8 AND OR SWAP1 SWAP2 SSTORE PUSH1 0x1 DUP1 SLOAD DUP3 AND SWAP5 DUP7 AND SWAP5 SWAP1 SWAP5 OR SWAP1 SWAP4 SSTORE PUSH1 0x4 DUP1 SLOAD DUP5 AND SWAP3 DUP6 AND SWAP3 SWAP1 SWAP3 OR SWAP1 SWAP2 SSTORE PUSH1 0x3 DUP1 SLOAD DUP4 AND SWAP2 SWAP1 SWAP4 AND OR SWAP1 SWAP2 SSTORE PUSH1 0x2 DUP1 SLOAD CALLER SWAP3 AND SWAP2 SWAP1 SWAP2 OR SWAP1 SSTORE PUSH2 0xF8 JUMP JUMPDEST DUP1 MLOAD PUSH1 0x1 PUSH1 0x1 PUSH1 0xA0 SHL SUB DUP2 AND DUP2 EQ PUSH2 0xA2 JUMPI PUSH0 DUP1 REVERT JUMPDEST SWAP2 SWAP1 POP JUMP JUMPDEST PUSH0 DUP1 PUSH0 DUP1 PUSH1 0x80 DUP6 DUP8 SUB SLT ISZERO PUSH2 0xBA JUMPI PUSH0 DUP1 REVERT JUMPDEST PUSH2 0xC3 DUP6 PUSH2 0x8C JUMP JUMPDEST SWAP4 POP PUSH2 0xD1 PUSH1 0x20 DUP7 ADD PUSH2 0x8C JUMP JUMPDEST SWAP3 POP PUSH2 0xDF PUSH1 0x40 DUP7 ADD PUSH2 0x8C JUMP JUMPDEST SWAP2 POP PUSH2 0xED PUSH1 0x60 DUP7 ADD PUSH2 0x8C JUMP JUMPDEST SWAP1 POP SWAP3 SWAP6 SWAP2 SWAP5 POP SWAP3 POP JUMP JUMPDEST PUSH2 0xD8D DUP1 PUSH2 0x105 PUSH0 CODECOPY PUSH0 RETURN INVALID PUSH1 0x80 PUSH1 0x40 MSTORE CALLVALUE DUP1 ISZERO PUSH2 0xF JUMPI PUSH0 DUP1 REVERT JUMPDEST POP PUSH1 0x4 CALLDATASIZE LT PUSH2 0xB1 JUMPI PUSH0 CALLDATALOAD PUSH1 0xE0 SHR DUP1 PUSH4 0x9AB4A445 GT PUSH2 0x6E JUMPI DUP1 PUSH4 0x9AB4A445 EQ PUSH2 0x125 JUMPI DUP1 PUSH4 0x9B7F4E29 EQ PUSH2 0x137 JUMPI DUP1 PUSH4 0xC21EBD07 EQ PUSH2 0x14A JUMPI DUP1 PUSH4 0xCBF1328B EQ PUSH2 0x15D JUMPI DUP1 PUSH4 0xE7C80F17 EQ PUSH2 0x170 JUMPI DUP1 PUSH4 0xF621CC48 EQ PUSH2 0x183 JUMPI PUSH0 DUP1 REVERT JUMPDEST DUP1 PUSH4 0x225FC38D EQ PUSH2 0xB5 JUMPI DUP1 PUSH4 0x2CBD53AF EQ PUSH2 0xE5 JUMPI DUP1 PUSH4 0x362E496B EQ PUSH2 0xEF JUMPI DUP1 PUSH4 0x41D9A548 EQ PUSH2 0xF7 JUMPI DUP1 PUSH4 0x42D50F19 EQ PUSH2 0xFF JUMPI DUP1 PUSH4 0x8DA5CB5B EQ PUSH2 0x112 JUMPI JUMPDEST PUSH0 DUP1 REVERT JUMPDEST PUSH1 0x1 SLOAD PUSH2 0xC8 SWAP1 PUSH1 0x1 PUSH1 0x1 PUSH1 0xA0 SHL SUB AND DUP2 JUMP JUMPDEST PUSH1 0x40 MLOAD PUSH1 0x1 PUSH1 0x1 PUSH1 0xA0 SHL SUB SWAP1 SWAP2 AND DUP2 MSTORE PUSH1 0x20 ADD JUMPDEST PUSH1 0x40 MLOAD DUP1 SWAP2 SUB SWAP1 RETURN JUMPDEST PUSH2 0xED PUSH2 0x1B5 JUMP JUMPDEST STOP JUMPDEST PUSH2 0xED PUSH2 0x355 JUMP JUMPDEST PUSH2 0xED PUSH2 0x46A JUMP JUMPDEST PUSH1 0x3 SLOAD PUSH2 0xC8 SWAP1 PUSH1 0x1 PUSH1 0x1 PUSH1 0xA0 SHL SUB AND DUP2 JUMP JUMPDEST PUSH1 0x2 SLOAD PUSH2 0xC8 SWAP1 PUSH1 0x1 PUSH1 0x1 PUSH1 0xA0 SHL SUB AND DUP2 JUMP JUMPDEST PUSH0 SLOAD PUSH2 0xC8 SWAP1 PUSH1 0x1 PUSH1 0x1 PUSH1 0xA0 SHL SUB AND DUP2 JUMP JUMPDEST PUSH2 0xED PUSH2 0x145 CALLDATASIZE PUSH1 0x4 PUSH2 0xB3E JUMP JUMPDEST PUSH2 0x631 JUMP JUMPDEST PUSH1 0x4 SLOAD PUSH2 0xC8 SWAP1 PUSH1 0x1 PUSH1 0x1 PUSH1 0xA0 SHL SUB AND DUP2 JUMP JUMPDEST PUSH2 0xED PUSH2 0x16B CALLDATASIZE PUSH1 0x4 PUSH2 0xB6B JUMP JUMPDEST PUSH2 0x67D JUMP JUMPDEST PUSH2 0xED PUSH2 0x17E CALLDATASIZE PUSH1 0x4 PUSH2 0xB6B JUMP JUMPDEST PUSH2 0x9FD JUMP JUMPDEST PUSH2 0x1A5 PUSH2 0x191 CALLDATASIZE PUSH1 0x4 PUSH2 0xB3E JUMP JUMPDEST PUSH1 0x5 PUSH1 0x20 MSTORE PUSH0 SWAP1 DUP2 MSTORE PUSH1 0x40 SWAP1 KECCAK256 SLOAD PUSH1 0xFF AND DUP2 JUMP JUMPDEST PUSH1 0x40 MLOAD SWAP1 ISZERO ISZERO DUP2 MSTORE PUSH1 0x20 ADD PUSH2 0xDC JUMP JUMPDEST PUSH1 0x2 SLOAD PUSH1 0x1 PUSH1 0x1 PUSH1 0xA0 SHL SUB AND CALLER EQ PUSH2 0x1E8 JUMPI PUSH1 0x40 MLOAD PUSH3 0x461BCD PUSH1 0xE5 SHL DUP2 MSTORE PUSH1 0x4 ADD PUSH2 0x1DF SWAP1 PUSH2 0xB82 JUMP JUMPDEST PUSH1 0x40 MLOAD DUP1 SWAP2 SUB SWAP1 REVERT JUMPDEST PUSH1 0x1 SLOAD PUSH1 0x40 MLOAD PUSH4 0x70A08231 PUSH1 0xE0 SHL DUP2 MSTORE ADDRESS PUSH1 0x4 DUP3 ADD MSTORE PUSH0 SWAP2 PUSH1 0x1 PUSH1 0x1 PUSH1 0xA0 SHL SUB AND SWAP1 PUSH4 0x70A08231 SWAP1 PUSH1 0x24 ADD PUSH1 0x20 PUSH1 0x40 MLOAD DUP1 DUP4 SUB DUP2 DUP7 GAS STATICCALL ISZERO DUP1 ISZERO PUSH2 0x22E JUMPI RETURNDATASIZE PUSH0 DUP1 RETURNDATACOPY RETURNDATASIZE PUSH0 REVERT JUMPDEST POP POP POP POP PUSH1 0x40 MLOAD RETURNDATASIZE PUSH1 0x1F NOT PUSH1 0x1F DUP3 ADD AND DUP3 ADD DUP1 PUSH1 0x40 MSTORE POP DUP2 ADD SWAP1 PUSH2 0x252 SWAP2 SWAP1 PUSH2 0xBAA JUMP JUMPDEST SWAP1 POP PUSH0 DUP2 GT PUSH2 0x29B JUMPI PUSH1 0x40 MLOAD PUSH3 0x461BCD PUSH1 0xE5 SHL DUP2 MSTORE PUSH1 0x20 PUSH1 0x4 DUP3 ADD MSTORE PUSH1 0x15 PUSH1 0x24 DUP3 ADD MSTORE PUSH21 0x4E6F20484954424E4220746F207769746864726177 PUSH1 0x58 SHL PUSH1 0x44 DUP3 ADD MSTORE PUSH1 0x64 ADD PUSH2 0x1DF JUMP JUMPDEST PUSH1 0x1 SLOAD PUSH1 0x2 SLOAD PUSH1 0x40 MLOAD PUSH4 0xA9059CBB PUSH1 0xE0 SHL DUP2 MSTORE PUSH1 0x1 PUSH1 0x1 PUSH1 0xA0 SHL SUB SWAP2 DUP3 AND PUSH1 0x4 DUP3 ADD MSTORE PUSH1 0x24 DUP2 ADD DUP5 SWAP1 MSTORE SWAP2 AND SWAP1 PUSH4 0xA9059CBB SWAP1 PUSH1 0x44 ADD JUMPDEST PUSH1 0x20 PUSH1 0x40 MLOAD DUP1 DUP4 SUB DUP2 PUSH0 DUP8 GAS CALL ISZERO DUP1 ISZERO PUSH2 0x2EE JUMPI RETURNDATASIZE PUSH0 DUP1 RETURNDATACOPY RETURNDATASIZE PUSH0 REVERT JUMPDEST POP POP POP POP PUSH1 0x40 MLOAD RETURNDATASIZE PUSH1 0x1F NOT PUSH1 0x1F DUP3 ADD AND DUP3 ADD DUP1 PUSH1 0x40 MSTORE POP DUP2 ADD SWAP1 PUSH2 0x312 SWAP2 SWAP1 PUSH2 0xBC1 JUMP JUMPDEST PUSH2 0x352 JUMPI PUSH1 0x40 MLOAD PUSH3 0x461BCD PUSH1 0xE5 SHL DUP2 MSTORE PUSH1 0x20 PUSH1 0x4 DUP3 ADD MSTORE PUSH1 0x11 PUSH1 0x24 DUP3 ADD MSTORE PUSH17 0x15DA5D1A191C985DD85B0819985A5B1959 PUSH1 0x7A SHL PUSH1 0x44 DUP3 ADD MSTORE PUSH1 0x64 ADD PUSH2 0x1DF JUMP JUMPDEST POP JUMP JUMPDEST PUSH1 0x2 SLOAD PUSH1 0x1 PUSH1 0x1 PUSH1 0xA0 SHL SUB AND CALLER EQ PUSH2 0x37F JUMPI PUSH1 0x40 MLOAD PUSH3 0x461BCD PUSH1 0xE5 SHL DUP2 MSTORE PUSH1 0x4 ADD PUSH2 0x1DF SWAP1 PUSH2 0xB82 JUMP JUMPDEST PUSH0 DUP1 SLOAD PUSH1 0x40 MLOAD PUSH4 0x70A08231 PUSH1 0xE0 SHL DUP2 MSTORE ADDRESS PUSH1 0x4 DUP3 ADD MSTORE PUSH1 0x1 PUSH1 0x1 PUSH1 0xA0 SHL SUB SWAP1 SWAP2 AND SWAP1 PUSH4 0x70A08231 SWAP1 PUSH1 0x24 ADD PUSH1 0x20 PUSH1 0x40 MLOAD DUP1 DUP4 SUB DUP2 DUP7 GAS STATICCALL ISZERO DUP1 ISZERO PUSH2 0x3C5 JUMPI RETURNDATASIZE PUSH0 DUP1 RETURNDATACOPY RETURNDATASIZE PUSH0 REVERT JUMPDEST POP POP POP POP PUSH1 0x40 MLOAD RETURNDATASIZE PUSH1 0x1F NOT PUSH1 0x1F DUP3 ADD AND DUP3 ADD DUP1 PUSH1 0x40 MSTORE POP DUP2 ADD SWAP1 PUSH2 0x3E9 SWAP2 SWAP1 PUSH2 0xBAA JUMP JUMPDEST SWAP1 POP PUSH0 DUP2 GT PUSH2 0x430 JUMPI PUSH1 0x40 MLOAD PUSH3 0x461BCD PUSH1 0xE5 SHL DUP2 MSTORE PUSH1 0x20 PUSH1 0x4 DUP3 ADD MSTORE PUSH1 0x13 PUSH1 0x24 DUP3 ADD MSTORE PUSH19 0x4E6F205553445420746F207769746864726177 PUSH1 0x68 SHL PUSH1 0x44 DUP3 ADD MSTORE PUSH1 0x64 ADD PUSH2 0x1DF JUMP JUMPDEST PUSH0 SLOAD PUSH1 0x2 SLOAD PUSH1 0x40 MLOAD PUSH4 0xA9059CBB PUSH1 0xE0 SHL DUP2 MSTORE PUSH1 0x1 PUSH1 0x1 PUSH1 0xA0 SHL SUB SWAP2 DUP3 AND PUSH1 0x4 DUP3 ADD MSTORE PUSH1 0x24 DUP2 ADD DUP5 SWAP1 MSTORE SWAP2 AND SWAP1 PUSH4 0xA9059CBB SWAP1 PUSH1 0x44 ADD PUSH2 0x2D2 JUMP JUMPDEST PUSH1 0x2 SLOAD PUSH1 0x1 PUSH1 0x1 PUSH1 0xA0 SHL SUB AND CALLER EQ PUSH2 0x494 JUMPI PUSH1 0x40 MLOAD PUSH3 0x461BCD PUSH1 0xE5 SHL DUP2 MSTORE PUSH1 0x4 ADD PUSH2 0x1DF SWAP1 PUSH2 0xB82 JUMP JUMPDEST PUSH1 0x1 SLOAD PUSH1 0x40 MLOAD PUSH4 0x70A08231 PUSH1 0xE0 SHL DUP2 MSTORE ADDRESS PUSH1 0x4 DUP3 ADD MSTORE PUSH0 SWAP2 PUSH1 0x1 PUSH1 0x1 PUSH1 0xA0 SHL SUB AND SWAP1 PUSH4 0x70A08231 SWAP1 PUSH1 0x24 ADD PUSH1 0x20 PUSH1 0x40 MLOAD DUP1 DUP4 SUB DUP2 DUP7 GAS STATICCALL ISZERO DUP1 ISZERO PUSH2 0x4DA JUMPI RETURNDATASIZE PUSH0 DUP1 RETURNDATACOPY RETURNDATASIZE PUSH0 REVERT JUMPDEST POP POP POP POP PUSH1 0x40 MLOAD RETURNDATASIZE PUSH1 0x1F NOT PUSH1 0x1F DUP3 ADD AND DUP3 ADD DUP1 PUSH1 0x40 MSTORE POP DUP2 ADD SWAP1 PUSH2 0x4FE SWAP2 SWAP1 PUSH2 0xBAA JUMP JUMPDEST SWAP1 POP PUSH0 DUP2 GT PUSH2 0x547 JUMPI PUSH1 0x40 MLOAD PUSH3 0x461BCD PUSH1 0xE5 SHL DUP2 MSTORE PUSH1 0x20 PUSH1 0x4 DUP3 ADD MSTORE PUSH1 0x15 PUSH1 0x24 DUP3 ADD MSTORE PUSH21 0x2737902424AA212721103A37903A3930B739B332B9 PUSH1 0x59 SHL PUSH1 0x44 DUP3 ADD MSTORE PUSH1 0x64 ADD PUSH2 0x1DF JUMP JUMPDEST PUSH1 0x1 SLOAD PUSH1 0x3 SLOAD PUSH1 0x40 MLOAD PUSH4 0xA9059CBB PUSH1 0xE0 SHL DUP2 MSTORE PUSH1 0x1 PUSH1 0x1 PUSH1 0xA0 SHL SUB SWAP2 DUP3 AND PUSH1 0x4 DUP3 ADD MSTORE PUSH1 0x24 DUP2 ADD DUP5 SWAP1 MSTORE SWAP2 AND SWAP1 PUSH4 0xA9059CBB SWAP1 PUSH1 0x44 ADD PUSH1 0x20 PUSH1 0x40 MLOAD DUP1 DUP4 SUB DUP2 PUSH0 DUP8 GAS CALL ISZERO DUP1 ISZERO PUSH2 0x599 JUMPI RETURNDATASIZE PUSH0 DUP1 RETURNDATACOPY RETURNDATASIZE PUSH0 REVERT JUMPDEST POP POP POP POP PUSH1 0x40 MLOAD RETURNDATASIZE PUSH1 0x1F NOT PUSH1 0x1F DUP3 ADD AND DUP3 ADD DUP1 PUSH1 0x40 MSTORE POP DUP2 ADD SWAP1 PUSH2 0x5BD SWAP2 SWAP1 PUSH2 0xBC1 JUMP JUMPDEST PUSH2 0x5FB JUMPI PUSH1 0x40 MLOAD PUSH3 0x461BCD PUSH1 0xE5 SHL DUP2 MSTORE PUSH1 0x20 PUSH1 0x4 DUP3 ADD MSTORE PUSH1 0xF PUSH1 0x24 DUP3 ADD MSTORE PUSH15 0x151C985B9CD9995C8819985A5B1959 PUSH1 0x8A SHL PUSH1 0x44 DUP3 ADD MSTORE PUSH1 0x64 ADD PUSH2 0x1DF JUMP JUMPDEST PUSH1 0x40 MLOAD DUP2 DUP2 MSTORE PUSH32 0x296B295F0C233BBDEAFC532330DB917EE14CF23EAAB161A11CEC42A3D6D31A7D SWAP1 PUSH1 0x20 ADD PUSH1 0x40 MLOAD DUP1 SWAP2 SUB SWAP1 LOG1 POP JUMP JUMPDEST PUSH1 0x2 SLOAD PUSH1 0x1 PUSH1 0x1 PUSH1 0xA0 SHL SUB AND CALLER EQ PUSH2 0x65B JUMPI PUSH1 0x40 MLOAD PUSH3 0x461BCD PUSH1 0xE5 SHL DUP2 MSTORE PUSH1 0x4 ADD PUSH2 0x1DF SWAP1 PUSH2 0xB82 JUMP JUMPDEST PUSH1 0x3 DUP1 SLOAD PUSH1 0x1 PUSH1 0x1 PUSH1 0xA0 SHL SUB NOT AND PUSH1 0x1 PUSH1 0x1 PUSH1 0xA0 SHL SUB SWAP3 SWAP1 SWAP3 AND SWAP2 SWAP1 SWAP2 OR SWAP1 SSTORE JUMP JUMPDEST PUSH1 0x2 SLOAD PUSH1 0x1 PUSH1 0x1 PUSH1 0xA0 SHL SUB AND CALLER EQ PUSH2 0x6A7 JUMPI PUSH1 0x40 MLOAD PUSH3 0x461BCD PUSH1 0xE5 SHL DUP2 MSTORE PUSH1 0x4 ADD PUSH2 0x1DF SWAP1 PUSH2 0xB82 JUMP JUMPDEST PUSH0 DUP1 SLOAD PUSH1 0x40 MLOAD PUSH4 0x70A08231 PUSH1 0xE0 SHL DUP2 MSTORE ADDRESS PUSH1 0x4 DUP3 ADD MSTORE PUSH1 0x1 PUSH1 0x1 PUSH1 0xA0 SHL SUB SWAP1 SWAP2 AND SWAP1 PUSH4 0x70A08231 SWAP1 PUSH1 0x24 ADD PUSH1 0x20 PUSH1 0x40 MLOAD DUP1 DUP4 SUB DUP2 DUP7 GAS STATICCALL ISZERO DUP1 ISZERO PUSH2 0x6ED JUMPI RETURNDATASIZE PUSH0 DUP1 RETURNDATACOPY RETURNDATASIZE PUSH0 REVERT JUMPDEST POP POP POP POP PUSH1 0x40 MLOAD RETURNDATASIZE PUSH1 0x1F NOT PUSH1 0x1F DUP3 ADD AND DUP3 ADD DUP1 PUSH1 0x40 MSTORE POP DUP2 ADD SWAP1 PUSH2 0x711 SWAP2 SWAP1 PUSH2 0xBAA JUMP JUMPDEST SWAP1 POP DUP2 DUP2 LT ISZERO PUSH2 0x763 JUMPI PUSH1 0x40 MLOAD PUSH3 0x461BCD PUSH1 0xE5 SHL DUP2 MSTORE PUSH1 0x20 PUSH1 0x4 DUP3 ADD MSTORE PUSH1 0x1D PUSH1 0x24 DUP3 ADD MSTORE PUSH32 0x496E73756666696369656E74205553445420696E20636F6E7472616374000000 PUSH1 0x44 DUP3 ADD MSTORE PUSH1 0x64 ADD PUSH2 0x1DF JUMP JUMPDEST PUSH0 SLOAD PUSH1 0x4 DUP1 SLOAD PUSH1 0x40 MLOAD PUSH4 0x95EA7B3 PUSH1 0xE0 SHL DUP2 MSTORE PUSH1 0x1 PUSH1 0x1 PUSH1 0xA0 SHL SUB SWAP2 DUP3 AND SWAP3 DUP2 ADD SWAP3 SWAP1 SWAP3 MSTORE PUSH1 0x24 DUP3 ADD DUP6 SWAP1 MSTORE SWAP1 SWAP2 AND SWAP1 PUSH4 0x95EA7B3 SWAP1 PUSH1 0x44 ADD PUSH1 0x20 PUSH1 0x40 MLOAD DUP1 DUP4 SUB DUP2 PUSH0 DUP8 GAS CALL ISZERO DUP1 ISZERO PUSH2 0x7B8 JUMPI RETURNDATASIZE PUSH0 DUP1 RETURNDATACOPY RETURNDATASIZE PUSH0 REVERT JUMPDEST POP POP POP POP PUSH1 0x40 MLOAD RETURNDATASIZE PUSH1 0x1F NOT PUSH1 0x1F DUP3 ADD AND DUP3 ADD DUP1 PUSH1 0x40 MSTORE POP DUP2 ADD SWAP1 PUSH2 0x7DC SWAP2 SWAP1 PUSH2 0xBC1 JUMP JUMPDEST POP PUSH1 0x40 DUP1 MLOAD PUSH1 0x2 DUP1 DUP3 MSTORE PUSH1 0x60 DUP3 ADD DUP4 MSTORE PUSH0 SWAP3 PUSH1 0x20 DUP4 ADD SWAP1 DUP1 CALLDATASIZE DUP4 CALLDATACOPY POP POP PUSH0 DUP1 SLOAD DUP4 MLOAD SWAP4 SWAP5 POP PUSH1 0x1 PUSH1 0x1 PUSH1 0xA0 SHL SUB AND SWAP3 DUP5 SWAP3 POP PUSH2 0x81A JUMPI PUSH2 0x81A PUSH2 0xBF4 JUMP JUMPDEST PUSH1 0x1 PUSH1 0x1 PUSH1 0xA0 SHL SUB SWAP3 DUP4 AND PUSH1 0x20 SWAP2 DUP3 MUL SWAP3 SWAP1 SWAP3 ADD ADD MSTORE PUSH1 0x1 DUP1 SLOAD DUP4 MLOAD SWAP3 AND SWAP2 DUP4 SWAP2 SWAP1 DUP2 LT PUSH2 0x84A JUMPI PUSH2 0x84A PUSH2 0xBF4 JUMP JUMPDEST PUSH1 0x1 PUSH1 0x1 PUSH1 0xA0 SHL SUB SWAP3 DUP4 AND PUSH1 0x20 SWAP2 DUP3 MUL SWAP3 SWAP1 SWAP3 ADD ADD MSTORE PUSH1 0x1 SLOAD PUSH1 0x40 MLOAD PUSH4 0x70A08231 PUSH1 0xE0 SHL DUP2 MSTORE ADDRESS PUSH1 0x4 DUP3 ADD MSTORE PUSH0 SWAP3 SWAP2 SWAP1 SWAP2 AND SWAP1 PUSH4 0x70A08231 SWAP1 PUSH1 0x24 ADD PUSH1 0x20 PUSH1 0x40 MLOAD DUP1 DUP4 SUB DUP2 DUP7 GAS STATICCALL ISZERO DUP1 ISZERO PUSH2 0x8A1 JUMPI RETURNDATASIZE PUSH0 DUP1 RETURNDATACOPY RETURNDATASIZE PUSH0 REVERT JUMPDEST POP POP POP POP PUSH1 0x40 MLOAD RETURNDATASIZE PUSH1 0x1F NOT PUSH1 0x1F DUP3 ADD AND DUP3 ADD DUP1 PUSH1 0x40 MSTORE POP DUP2 ADD SWAP1 PUSH2 0x8C5 SWAP2 SWAP1 PUSH2 0xBAA JUMP JUMPDEST PUSH1 0x4 DUP1 SLOAD PUSH1 0x40 MLOAD PUSH4 0x38ED1739 PUSH1 0xE0 SHL DUP2 MSTORE SWAP3 SWAP4 POP PUSH1 0x1 PUSH1 0x1 PUSH1 0xA0 SHL SUB AND SWAP2 PUSH4 0x38ED1739 SWAP2 PUSH2 0x8FD SWAP2 DUP9 SWAP2 PUSH0 SWAP2 DUP9 SWAP2 ADDRESS SWAP2 TIMESTAMP SWAP2 ADD PUSH2 0xC08 JUMP JUMPDEST PUSH0 PUSH1 0x40 MLOAD DUP1 DUP4 SUB DUP2 PUSH0 DUP8 GAS CALL ISZERO DUP1 ISZERO PUSH2 0x918 JUMPI RETURNDATASIZE PUSH0 DUP1 RETURNDATACOPY RETURNDATASIZE PUSH0 REVERT JUMPDEST POP POP POP POP PUSH1 0x40 MLOAD RETURNDATASIZE PUSH0 DUP3 RETURNDATACOPY PUSH1 0x1F RETURNDATASIZE SWAP1 DUP2 ADD PUSH1 0x1F NOT AND DUP3 ADD PUSH1 0x40 MSTORE PUSH2 0x93F SWAP2 SWAP1 DUP2 ADD SWAP1 PUSH2 0xC79 JUMP JUMPDEST POP PUSH1 0x1 SLOAD PUSH1 0x40 MLOAD PUSH4 0x70A08231 PUSH1 0xE0 SHL DUP2 MSTORE ADDRESS PUSH1 0x4 DUP3 ADD MSTORE PUSH0 SWAP2 PUSH1 0x1 PUSH1 0x1 PUSH1 0xA0 SHL SUB AND SWAP1 PUSH4 0x70A08231 SWAP1 PUSH1 0x24 ADD PUSH1 0x20 PUSH1 0x40 MLOAD DUP1 DUP4 SUB DUP2 DUP7 GAS STATICCALL ISZERO DUP1 ISZERO PUSH2 0x986 JUMPI RETURNDATASIZE PUSH0 DUP1 RETURNDATACOPY RETURNDATASIZE PUSH0 REVERT JUMPDEST POP POP POP POP PUSH1 0x40 MLOAD RETURNDATASIZE PUSH1 0x1F NOT PUSH1 0x1F DUP3 ADD AND DUP3 ADD DUP1 PUSH1 0x40 MSTORE POP DUP2 ADD SWAP1 PUSH2 0x9AA SWAP2 SWAP1 PUSH2 0xBAA JUMP JUMPDEST SWAP1 POP PUSH0 PUSH2 0x9B7 DUP4 DUP4 PUSH2 0xD32 JUMP JUMPDEST PUSH1 0x40 DUP1 MLOAD DUP9 DUP2 MSTORE PUSH1 0x20 DUP2 ADD DUP4 SWAP1 MSTORE SWAP2 SWAP3 POP CALLER SWAP2 PUSH32 0x77F92A1B6A1A11DE8CA49515AD4C1FAD45632DD3442167D74B90B304A3C7A758 SWAP2 ADD PUSH1 0x40 MLOAD DUP1 SWAP2 SUB SWAP1 LOG2 POP POP POP POP POP POP JUMP JUMPDEST PUSH0 DUP2 GT PUSH2 0xA4C JUMPI PUSH1 0x40 MLOAD PUSH3 0x461BCD PUSH1 0xE5 SHL DUP2 MSTORE PUSH1 0x20 PUSH1 0x4 DUP3 ADD MSTORE PUSH1 0x1D PUSH1 0x24 DUP3 ADD MSTORE PUSH32 0x416D6F756E74206D7573742062652067726561746572207468616E2030000000 PUSH1 0x44 DUP3 ADD MSTORE PUSH1 0x64 ADD PUSH2 0x1DF JUMP JUMPDEST PUSH0 SLOAD PUSH1 0x40 MLOAD PUSH4 0x23B872DD PUSH1 0xE0 SHL DUP2 MSTORE CALLER PUSH1 0x4 DUP3 ADD MSTORE ADDRESS PUSH1 0x24 DUP3 ADD MSTORE PUSH1 0x44 DUP2 ADD DUP4 SWAP1 MSTORE PUSH1 0x1 PUSH1 0x1 PUSH1 0xA0 SHL SUB SWAP1 SWAP2 AND SWAP1 PUSH4 0x23B872DD SWAP1 PUSH1 0x64 ADD PUSH1 0x20 PUSH1 0x40 MLOAD DUP1 DUP4 SUB DUP2 PUSH0 DUP8 GAS CALL ISZERO DUP1 ISZERO PUSH2 0xA9F JUMPI RETURNDATASIZE PUSH0 DUP1 RETURNDATACOPY RETURNDATASIZE PUSH0 REVERT JUMPDEST POP POP POP POP PUSH1 0x40 MLOAD RETURNDATASIZE PUSH1 0x1F NOT PUSH1 0x1F DUP3 ADD AND DUP3 ADD DUP1 PUSH1 0x40 MSTORE POP DUP2 ADD SWAP1 PUSH2 0xAC3 SWAP2 SWAP1 PUSH2 0xBC1 JUMP JUMPDEST PUSH2 0xB06 JUMPI PUSH1 0x40 MLOAD PUSH3 0x461BCD PUSH1 0xE5 SHL DUP2 MSTORE PUSH1 0x20 PUSH1 0x4 DUP3 ADD MSTORE PUSH1 0x14 PUSH1 0x24 DUP3 ADD MSTORE PUSH20 0x1554D115081D1C985B9CD9995C8819985A5B1959 PUSH1 0x62 SHL PUSH1 0x44 DUP3 ADD MSTORE PUSH1 0x64 ADD PUSH2 0x1DF JUMP JUMPDEST PUSH1 0x40 MLOAD DUP2 DUP2 MSTORE CALLER SWAP1 PUSH32 0xE1FFFCC4923D04B559F4D29A8BFC6CDA04EB5B0D3C460751C2402C5C5CC9109C SWAP1 PUSH1 0x20 ADD PUSH1 0x40 MLOAD DUP1 SWAP2 SUB SWAP1 LOG2 POP JUMP JUMPDEST PUSH0 PUSH1 0x20 DUP3 DUP5 SUB SLT ISZERO PUSH2 0xB4E JUMPI PUSH0 DUP1 REVERT JUMPDEST DUP2 CALLDATALOAD PUSH1 0x1 PUSH1 0x1 PUSH1 0xA0 SHL SUB DUP2 AND DUP2 EQ PUSH2 0xB64 JUMPI PUSH0 DUP1 REVERT JUMPDEST SWAP4 SWAP3 POP POP POP JUMP JUMPDEST PUSH0 PUSH1 0x20 DUP3 DUP5 SUB SLT ISZERO PUSH2 0xB7B JUMPI PUSH0 DUP1 REVERT JUMPDEST POP CALLDATALOAD SWAP2 SWAP1 POP JUMP JUMPDEST PUSH1 0x20 DUP1 DUP3 MSTORE PUSH1 0xE SWAP1 DUP3 ADD MSTORE PUSH14 0x139BDD08185D5D1A1BDC9A5E9959 PUSH1 0x92 SHL PUSH1 0x40 DUP3 ADD MSTORE PUSH1 0x60 ADD SWAP1 JUMP JUMPDEST PUSH0 PUSH1 0x20 DUP3 DUP5 SUB SLT ISZERO PUSH2 0xBBA JUMPI PUSH0 DUP1 REVERT JUMPDEST POP MLOAD SWAP2 SWAP1 POP JUMP JUMPDEST PUSH0 PUSH1 0x20 DUP3 DUP5 SUB SLT ISZERO PUSH2 0xBD1 JUMPI PUSH0 DUP1 REVERT JUMPDEST DUP2 MLOAD DUP1 ISZERO ISZERO DUP2 EQ PUSH2 0xB64 JUMPI PUSH0 DUP1 REVERT JUMPDEST PUSH4 0x4E487B71 PUSH1 0xE0 SHL PUSH0 MSTORE PUSH1 0x41 PUSH1 0x4 MSTORE PUSH1 0x24 PUSH0 REVERT JUMPDEST PUSH4 0x4E487B71 PUSH1 0xE0 SHL PUSH0 MSTORE PUSH1 0x32 PUSH1 0x4 MSTORE PUSH1 0x24 PUSH0 REVERT JUMPDEST PUSH0 PUSH1 0xA0 DUP3 ADD DUP8 DUP4 MSTORE PUSH1 0x20 DUP8 PUSH1 0x20 DUP6 ADD MSTORE PUSH1 0xA0 PUSH1 0x40 DUP6 ADD MSTORE DUP2 DUP8 MLOAD DUP1 DUP5 MSTORE PUSH1 0xC0 DUP7 ADD SWAP2 POP PUSH1 0x20 DUP10 ADD SWAP4 POP PUSH0 JUMPDEST DUP2 DUP2 LT ISZERO PUSH2 0xC58 JUMPI DUP5 MLOAD PUSH1 0x1 PUSH1 0x1 PUSH1 0xA0 SHL SUB AND DUP4 MSTORE SWAP4 DUP4 ADD SWAP4 SWAP2 DUP4 ADD SWAP2 PUSH1 0x1 ADD PUSH2 0xC33 JUMP JUMPDEST POP POP PUSH1 0x1 PUSH1 0x1 PUSH1 0xA0 SHL SUB SWAP7 SWAP1 SWAP7 AND PUSH1 0x60 DUP6 ADD MSTORE POP POP POP PUSH1 0x80 ADD MSTORE SWAP4 SWAP3 POP POP POP JUMP JUMPDEST PUSH0 PUSH1 0x20 DUP1 DUP4 DUP6 SUB SLT ISZERO PUSH2 0xC8A JUMPI PUSH0 DUP1 REVERT JUMPDEST DUP3 MLOAD PUSH8 0xFFFFFFFFFFFFFFFF DUP1 DUP3 GT ISZERO PUSH2 0xCA1 JUMPI PUSH0 DUP1 REVERT JUMPDEST DUP2 DUP6 ADD SWAP2 POP DUP6 PUSH1 0x1F DUP4 ADD SLT PUSH2 0xCB4 JUMPI PUSH0 DUP1 REVERT JUMPDEST DUP2 MLOAD DUP2 DUP2 GT ISZERO PUSH2 0xCC6 JUMPI PUSH2 0xCC6 PUSH2 0xBE0 JUMP JUMPDEST DUP1 PUSH1 0x5 SHL PUSH1 0x40 MLOAD PUSH1 0x1F NOT PUSH1 0x3F DUP4 ADD AND DUP2 ADD DUP2 DUP2 LT DUP6 DUP3 GT OR ISZERO PUSH2 0xCEB JUMPI PUSH2 0xCEB PUSH2 0xBE0 JUMP JUMPDEST PUSH1 0x40 MSTORE SWAP2 DUP3 MSTORE DUP5 DUP3 ADD SWAP3 POP DUP4 DUP2 ADD DUP6 ADD SWAP2 DUP9 DUP4 GT ISZERO PUSH2 0xD08 JUMPI PUSH0 DUP1 REVERT JUMPDEST SWAP4 DUP6 ADD SWAP4 JUMPDEST DUP3 DUP6 LT ISZERO PUSH2 0xD26 JUMPI DUP5 MLOAD DUP5 MSTORE SWAP4 DUP6 ADD SWAP4 SWAP3 DUP6 ADD SWAP3 PUSH2 0xD0D JUMP JUMPDEST SWAP9 SWAP8 POP POP POP POP POP POP POP POP JUMP JUMPDEST DUP2 DUP2 SUB DUP2 DUP2 GT ISZERO PUSH2 0xD51 JUMPI PUSH4 0x4E487B71 PUSH1 0xE0 SHL PUSH0 MSTORE PUSH1 0x11 PUSH1 0x4 MSTORE PUSH1 0x24 PUSH0 REVERT JUMPDEST SWAP3 SWAP2 POP POP JUMP INVALID LOG2 PUSH5 0x6970667358 0x22 SLT KECCAK256 0xDB DUP3 0xBA 0xBE 0xB5 0xD0 0xD6 0xEE 0xD7 0xC8 BASEFEE 0x27 0xAA 0xF PUSH16 0xE47DC2577A18866BE546D6989E01A532 0xC8 PUSH5 0x736F6C6343 STOP ADDMOD XOR STOP CALLER "
				},
				"gasEstimates": {
					"creation": {
						"codeDepositCost": "693800",
						"executionCost": "infinite",
						"totalCost": "infinite"
					},
					"external": {
						"depositUSDT(uint256)": "infinite",
						"hitbnbAddress()": "2326",
						"owner()": "2436",
						"pancakeRouter()": "2369",
						"roiWallet()": "2414",
						"swapUSDTForHITBNB(uint256)": "infinite",
						"transferHITBNBToROI()": "infinite",
						"updateROIWallet(address)": "26696",
						"usdtAddress()": "2324",
						"whitelistedUsers(address)": "2603",
						"withdrawHITBNB()": "infinite",
						"withdrawUSDT()": "infinite"
					}
				},
				"methodIdentifiers": {
					"depositUSDT(uint256)": "e7c80f17",
					"hitbnbAddress()": "225fc38d",
					"owner()": "8da5cb5b",
					"pancakeRouter()": "c21ebd07",
					"roiWallet()": "42d50f19",
					"swapUSDTForHITBNB(uint256)": "cbf1328b",
					"transferHITBNBToROI()": "41d9a548",
					"updateROIWallet(address)": "9b7f4e29",
					"usdtAddress()": "9ab4a445",
					"whitelistedUsers(address)": "f621cc48",
					"withdrawHITBNB()": "2cbd53af",
					"withdrawUSDT()": "362e496b"
				}
			},
			"storageLayout": {
				"storage": [
					{
						"astId": 58,
						"contract": "contract/HITBNBBuyer_V3.sol:USDTtoHITBNB",
						"label": "usdtAddress",
						"offset": 0,
						"slot": "0",
						"type": "t_address"
					},
					{
						"astId": 60,
						"contract": "contract/HITBNBBuyer_V3.sol:USDTtoHITBNB",
						"label": "hitbnbAddress",
						"offset": 0,
						"slot": "1",
						"type": "t_address"
					},
					{
						"astId": 62,
						"contract": "contract/HITBNBBuyer_V3.sol:USDTtoHITBNB",
						"label": "owner",
						"offset": 0,
						"slot": "2",
						"type": "t_address"
					},
					{
						"astId": 64,
						"contract": "contract/HITBNBBuyer_V3.sol:USDTtoHITBNB",
						"label": "roiWallet",
						"offset": 0,
						"slot": "3",
						"type": "t_address"
					},
					{
						"astId": 67,
						"contract": "contract/HITBNBBuyer_V3.sol:USDTtoHITBNB",
						"label": "pancakeRouter",
						"offset": 0,
						"slot": "4",
						"type": "t_contract(IPancakeRouter)56"
					},
					{
						"astId": 71,
						"contract": "contract/HITBNBBuyer_V3.sol:USDTtoHITBNB",
						"label": "whitelistedUsers",
						"offset": 0,
						"slot": "5",
						"type": "t_mapping(t_address,t_bool)"
					}
				],
				"types": {
					"t_address": {
						"encoding": "inplace",
						"label": "address",
						"numberOfBytes": "20"
					},
					"t_bool": {
						"encoding": "inplace",
						"label": "bool",
						"numberOfBytes": "1"
					},
					"t_contract(IPancakeRouter)56": {
						"encoding": "inplace",
						"label": "contract IPancakeRouter",
						"numberOfBytes": "20"
					},
					"t_mapping(t_address,t_bool)": {
						"encoding": "mapping",
						"key": "t_address",
						"label": "mapping(address => bool)",
						"numberOfBytes": "32",
						"value": "t_bool"
					}
				}
			},
			"userdoc": {
				"kind": "user",
				"methods": {},
				"version": 1
			}
		}
	}
}