{
	"contract/HITBNBBuyer.sol": {
		"HITBNBBuyer": {
			"abi": [
				{
					"inputs": [
						{
							"internalType": "address",
							"name": "_usdt",
							"type": "address"
						},
						{
							"internalType": "address",
							"name": "_hitbnb",
							"type": "address"
						},
						{
							"internalType": "address",
							"name": "_roiWallet",
							"type": "address"
						},
						{
							"internalType": "address",
							"name": "_router",
							"type": "address"
						}
					],
					"stateMutability": "nonpayable",
					"type": "constructor"
				},
				{
					"inputs": [
						{
							"internalType": "address",
							"name": "token",
							"type": "address"
						}
					],
					"name": "SafeERC20FailedOperation",
					"type": "error"
				},
				{
					"anonymous": false,
					"inputs": [
						{
							"indexed": true,
							"internalType": "address",
							"name": "to",
							"type": "address"
						},
						{
							"indexed": false,
							"internalType": "uint256",
							"name": "amount",
							"type": "uint256"
						}
					],
					"name": "EmergencyBNBWithdraw",
					"type": "event"
				},
				{
					"anonymous": false,
					"inputs": [
						{
							"indexed": true,
							"internalType": "address",
							"name": "token",
							"type": "address"
						},
						{
							"indexed": true,
							"internalType": "address",
							"name": "to",
							"type": "address"
						},
						{
							"indexed": false,
							"internalType": "uint256",
							"name": "amount",
							"type": "uint256"
						}
					],
					"name": "EmergencyWithdraw",
					"type": "event"
				},
				{
					"anonymous": false,
					"inputs": [
						{
							"indexed": true,
							"internalType": "address",
							"name": "previousOwner",
							"type": "address"
						},
						{
							"indexed": true,
							"internalType": "address",
							"name": "newOwner",
							"type": "address"
						}
					],
					"name": "OwnershipTransferred",
					"type": "event"
				},
				{
					"anonymous": false,
					"inputs": [
						{
							"indexed": true,
							"internalType": "address",
							"name": "user",
							"type": "address"
						},
						{
							"indexed": false,
							"internalType": "uint256",
							"name": "usdtAmount",
							"type": "uint256"
						},
						{
							"indexed": false,
							"internalType": "string",
							"name": "reason",
							"type": "string"
						}
					],
					"name": "SwapFailed",
					"type": "event"
				},
				{
					"anonymous": false,
					"inputs": [
						{
							"indexed": true,
							"internalType": "address",
							"name": "user",
							"type": "address"
						},
						{
							"indexed": false,
							"internalType": "uint256",
							"name": "usdtAmount",
							"type": "uint256"
						},
						{
							"indexed": false,
							"internalType": "uint256",
							"name": "minOut",
							"type": "uint256"
						},
						{
							"indexed": false,
							"internalType": "uint256",
							"name": "timestamp",
							"type": "uint256"
						}
					],
					"name": "TokenSwapped",
					"type": "event"
				},
				{
					"inputs": [
						{
							"internalType": "uint256",
							"name": "amount",
							"type": "uint256"
						},
						{
							"internalType": "uint256",
							"name": "amountOutMin",
							"type": "uint256"
						}
					],
					"name": "deposit",
					"outputs": [],
					"stateMutability": "nonpayable",
					"type": "function"
				},
				{
					"inputs": [
						{
							"internalType": "address",
							"name": "token",
							"type": "address"
						},
						{
							"internalType": "address",
							"name": "to",
							"type": "address"
						}
					],
					"name": "emergencyWithdraw",
					"outputs": [],
					"stateMutability": "nonpayable",
					"type": "function"
				},
				{
					"inputs": [
						{
							"internalType": "address payable",
							"name": "to",
							"type": "address"
						}
					],
					"name": "emergencyWithdrawBNB",
					"outputs": [],
					"stateMutability": "nonpayable",
					"type": "function"
				},
				{
					"inputs": [],
					"name": "hitbnb",
					"outputs": [
						{
							"internalType": "address",
							"name": "",
							"type": "address"
						}
					],
					"stateMutability": "view",
					"type": "function"
				},
				{
					"inputs": [],
					"name": "owner",
					"outputs": [
						{
							"internalType": "address",
							"name": "",
							"type": "address"
						}
					],
					"stateMutability": "view",
					"type": "function"
				},
				{
					"inputs": [],
					"name": "roiWallet",
					"outputs": [
						{
							"internalType": "address",
							"name": "",
							"type": "address"
						}
					],
					"stateMutability": "view",
					"type": "function"
				},
				{
					"inputs": [],
					"name": "router",
					"outputs": [
						{
							"internalType": "address",
							"name": "",
							"type": "address"
						}
					],
					"stateMutability": "view",
					"type": "function"
				},
				{
					"inputs": [
						{
							"internalType": "address",
							"name": "newOwner",
							"type": "address"
						}
					],
					"name": "transferOwnership",
					"outputs": [],
					"stateMutability": "nonpayable",
					"type": "function"
				},
				{
					"inputs": [],
					"name": "usdt",
					"outputs": [
						{
							"internalType": "address",
							"name": "",
							"type": "address"
						}
					],
					"stateMutability": "view",
					"type": "function"
				},
				{
					"stateMutability": "payable",
					"type": "receive"
				}
			],
			"devdoc": {
				"errors": {
					"SafeERC20FailedOperation(address)": [
						{
							"details": "An operation with an ERC-20 token failed."
						}
					]
				},
				"kind": "dev",
				"methods": {},
				"version": 1
			},
			"evm": {
				"assembly": "    /* \"contract/HITBNBBuyer.sol\":510:3660  contract HITBNBBuyer is ReentrancyGuard {... */\n  mstore(0x40, 0x0100)\n    /* \"contract/HITBNBBuyer.sol\":1308:1836  constructor(... */\n  callvalue\n  dup1\n  iszero\n  tag_1\n  jumpi\n  0x00\n  dup1\n  revert\ntag_1:\n  pop\n  mload(0x40)\n  sub(codesize, bytecodeSize)\n  dup1\n  bytecodeSize\n  dup4\n  codecopy\n  dup2\n  add\n  0x40\n  dup2\n  swap1\n  mstore\n  tag_2\n  swap2\n  tag_3\n  jump\t// in\ntag_2:\n    /* \"@openzeppelin/contracts/security/ReentrancyGuard.sol\":1716:1717  1 */\n  0x01\n    /* \"@openzeppelin/contracts/security/ReentrancyGuard.sol\":1821:1828  _status */\n  0x00\n    /* \"@openzeppelin/contracts/security/ReentrancyGuard.sol\":1821:1843  _status = _NOT_ENTERED */\n  sstore\n  sub(shl(0xa0, 0x01), 0x01)\n    /* \"contract/HITBNBBuyer.sol\":1451:1470  _usdt != address(0) */\n  dup5\n  and\n    /* \"contract/HITBNBBuyer.sol\":1443:1495  require(_usdt != address(0), \"Invalid USDT address\") */\n  tag_8\n  jumpi\n  mload(0x40)\n  shl(0xe5, 0x461bcd)\n  dup2\n  mstore\n    /* \"#utility.yul\":867:869   */\n  0x20\n    /* \"contract/HITBNBBuyer.sol\":1443:1495  require(_usdt != address(0), \"Invalid USDT address\") */\n  0x04\n  dup3\n  add\n    /* \"#utility.yul\":849:870   */\n  mstore\n    /* \"#utility.yul\":906:908   */\n  0x14\n    /* \"#utility.yul\":886:904   */\n  0x24\n  dup3\n  add\n    /* \"#utility.yul\":879:909   */\n  mstore\n    /* \"#utility.yul\":945:967   */\n  0x496e76616c696420555344542061646472657373000000000000000000000000\n    /* \"#utility.yul\":925:943   */\n  0x44\n  dup3\n  add\n    /* \"#utility.yul\":918:968   */\n  mstore\n    /* \"#utility.yul\":985:1003   */\n  0x64\n  add\n    /* \"contract/HITBNBBuyer.sol\":1443:1495  require(_usdt != address(0), \"Invalid USDT address\") */\ntag_9:\n  mload(0x40)\n  dup1\n  swap2\n  sub\n  swap1\n  revert\ntag_8:\n  sub(shl(0xa0, 0x01), 0x01)\n    /* \"contract/HITBNBBuyer.sol\":1514:1535  _hitbnb != address(0) */\n  dup4\n  and\n    /* \"contract/HITBNBBuyer.sol\":1506:1562  require(_hitbnb != address(0), \"Invalid HITBNB address\") */\n  tag_11\n  jumpi\n  mload(0x40)\n  shl(0xe5, 0x461bcd)\n  dup2\n  mstore\n    /* \"#utility.yul\":1216:1218   */\n  0x20\n    /* \"contract/HITBNBBuyer.sol\":1506:1562  require(_hitbnb != address(0), \"Invalid HITBNB address\") */\n  0x04\n  dup3\n  add\n    /* \"#utility.yul\":1198:1219   */\n  mstore\n    /* \"#utility.yul\":1255:1257   */\n  0x16\n    /* \"#utility.yul\":1235:1253   */\n  0x24\n  dup3\n  add\n    /* \"#utility.yul\":1228:1258   */\n  mstore\n    /* \"#utility.yul\":1294:1318   */\n  0x496e76616c696420484954424e42206164647265737300000000000000000000\n    /* \"#utility.yul\":1274:1292   */\n  0x44\n  dup3\n  add\n    /* \"#utility.yul\":1267:1319   */\n  mstore\n    /* \"#utility.yul\":1336:1354   */\n  0x64\n  add\n    /* \"contract/HITBNBBuyer.sol\":1506:1562  require(_hitbnb != address(0), \"Invalid HITBNB address\") */\n  tag_9\n    /* \"#utility.yul\":1014:1360   */\n  jump\n    /* \"contract/HITBNBBuyer.sol\":1506:1562  require(_hitbnb != address(0), \"Invalid HITBNB address\") */\ntag_11:\n  sub(shl(0xa0, 0x01), 0x01)\n    /* \"contract/HITBNBBuyer.sol\":1581:1605  _roiWallet != address(0) */\n  dup3\n  and\n    /* \"contract/HITBNBBuyer.sol\":1573:1628  require(_roiWallet != address(0), \"Invalid ROI wallet\") */\n  tag_14\n  jumpi\n  mload(0x40)\n  shl(0xe5, 0x461bcd)\n  dup2\n  mstore\n    /* \"#utility.yul\":1567:1569   */\n  0x20\n    /* \"contract/HITBNBBuyer.sol\":1573:1628  require(_roiWallet != address(0), \"Invalid ROI wallet\") */\n  0x04\n  dup3\n  add\n    /* \"#utility.yul\":1549:1570   */\n  mstore\n    /* \"#utility.yul\":1606:1608   */\n  0x12\n    /* \"#utility.yul\":1586:1604   */\n  0x24\n  dup3\n  add\n    /* \"#utility.yul\":1579:1609   */\n  mstore\n  shl(0x72, 0x125b9d985b1a59081493d2481dd85b1b195d)\n    /* \"#utility.yul\":1625:1643   */\n  0x44\n  dup3\n  add\n    /* \"#utility.yul\":1618:1666   */\n  mstore\n    /* \"#utility.yul\":1683:1701   */\n  0x64\n  add\n    /* \"contract/HITBNBBuyer.sol\":1573:1628  require(_roiWallet != address(0), \"Invalid ROI wallet\") */\n  tag_9\n    /* \"#utility.yul\":1365:1707   */\n  jump\n    /* \"contract/HITBNBBuyer.sol\":1573:1628  require(_roiWallet != address(0), \"Invalid ROI wallet\") */\ntag_14:\n  sub(shl(0xa0, 0x01), 0x01)\n    /* \"contract/HITBNBBuyer.sol\":1647:1668  _router != address(0) */\n  dup2\n  and\n    /* \"contract/HITBNBBuyer.sol\":1639:1687  require(_router != address(0), \"Invalid router\") */\n  tag_17\n  jumpi\n  mload(0x40)\n  shl(0xe5, 0x461bcd)\n  dup2\n  mstore\n    /* \"#utility.yul\":1914:1916   */\n  0x20\n    /* \"contract/HITBNBBuyer.sol\":1639:1687  require(_router != address(0), \"Invalid router\") */\n  0x04\n  dup3\n  add\n    /* \"#utility.yul\":1896:1917   */\n  mstore\n    /* \"#utility.yul\":1953:1955   */\n  0x0e\n    /* \"#utility.yul\":1933:1951   */\n  0x24\n  dup3\n  add\n    /* \"#utility.yul\":1926:1956   */\n  mstore\n  shl(0x91, 0x24b73b30b634b2103937baba32b9)\n    /* \"#utility.yul\":1972:1990   */\n  0x44\n  dup3\n  add\n    /* \"#utility.yul\":1965:2009   */\n  mstore\n    /* \"#utility.yul\":2026:2044   */\n  0x64\n  add\n    /* \"contract/HITBNBBuyer.sol\":1639:1687  require(_router != address(0), \"Invalid router\") */\n  tag_9\n    /* \"#utility.yul\":1712:2050   */\n  jump\n    /* \"contract/HITBNBBuyer.sol\":1639:1687  require(_router != address(0), \"Invalid router\") */\ntag_17:\n    /* \"contract/HITBNBBuyer.sol\":1700:1705  owner */\n  0x01\n    /* \"contract/HITBNBBuyer.sol\":1700:1718  owner = msg.sender */\n  dup1\n  sload\n  not(sub(shl(0xa0, 0x01), 0x01))\n  and\n    /* \"contract/HITBNBBuyer.sol\":1708:1718  msg.sender */\n  caller\n    /* \"contract/HITBNBBuyer.sol\":1700:1718  owner = msg.sender */\n  or\n  swap1\n  sstore\n  sub(shl(0xa0, 0x01), 0x01)\n    /* \"contract/HITBNBBuyer.sol\":1729:1741  usdt = _usdt */\n  swap4\n  dup5\n  and\n  0x80\n  mstore\n    /* \"contract/HITBNBBuyer.sol\":1752:1768  hitbnb = _hitbnb */\n  swap2\n  dup4\n  and\n  0xa0\n  mstore\n    /* \"contract/HITBNBBuyer.sol\":1779:1801  roiWallet = _roiWallet */\n  dup3\n  and\n  0xc0\n  mstore\n    /* \"contract/HITBNBBuyer.sol\":1812:1828  router = _router */\n  and\n  0xe0\n  mstore\n    /* \"contract/HITBNBBuyer.sol\":510:3660  contract HITBNBBuyer is ReentrancyGuard {... */\n  jump(tag_22)\n    /* \"#utility.yul\":14:191   */\ntag_21:\n    /* \"#utility.yul\":93:106   */\n  dup1\n  mload\n  sub(shl(0xa0, 0x01), 0x01)\n    /* \"#utility.yul\":135:166   */\n  dup2\n  and\n    /* \"#utility.yul\":125:167   */\n  dup2\n  eq\n    /* \"#utility.yul\":115:185   */\n  tag_24\n  jumpi\n    /* \"#utility.yul\":181:182   */\n  0x00\n    /* \"#utility.yul\":178:179   */\n  dup1\n    /* \"#utility.yul\":171:183   */\n  revert\n    /* \"#utility.yul\":115:185   */\ntag_24:\n    /* \"#utility.yul\":14:191   */\n  swap2\n  swap1\n  pop\n  jump\t// out\n    /* \"#utility.yul\":196:660   */\ntag_3:\n    /* \"#utility.yul\":293:299   */\n  0x00\n    /* \"#utility.yul\":301:307   */\n  dup1\n    /* \"#utility.yul\":309:315   */\n  0x00\n    /* \"#utility.yul\":317:323   */\n  dup1\n    /* \"#utility.yul\":370:373   */\n  0x80\n    /* \"#utility.yul\":358:367   */\n  dup6\n    /* \"#utility.yul\":349:356   */\n  dup8\n    /* \"#utility.yul\":345:368   */\n  sub\n    /* \"#utility.yul\":341:374   */\n  slt\n    /* \"#utility.yul\":338:391   */\n  iszero\n  tag_26\n  jumpi\n    /* \"#utility.yul\":387:388   */\n  0x00\n    /* \"#utility.yul\":384:385   */\n  dup1\n    /* \"#utility.yul\":377:389   */\n  revert\n    /* \"#utility.yul\":338:391   */\ntag_26:\n    /* \"#utility.yul\":410:450   */\n  tag_27\n    /* \"#utility.yul\":440:449   */\n  dup6\n    /* \"#utility.yul\":410:450   */\n  tag_21\n  jump\t// in\ntag_27:\n    /* \"#utility.yul\":400:450   */\n  swap4\n  pop\n    /* \"#utility.yul\":469:518   */\n  tag_28\n    /* \"#utility.yul\":514:516   */\n  0x20\n    /* \"#utility.yul\":503:512   */\n  dup7\n    /* \"#utility.yul\":499:517   */\n  add\n    /* \"#utility.yul\":469:518   */\n  tag_21\n  jump\t// in\ntag_28:\n    /* \"#utility.yul\":459:518   */\n  swap3\n  pop\n    /* \"#utility.yul\":537:586   */\n  tag_29\n    /* \"#utility.yul\":582:584   */\n  0x40\n    /* \"#utility.yul\":571:580   */\n  dup7\n    /* \"#utility.yul\":567:585   */\n  add\n    /* \"#utility.yul\":537:586   */\n  tag_21\n  jump\t// in\ntag_29:\n    /* \"#utility.yul\":527:586   */\n  swap2\n  pop\n    /* \"#utility.yul\":605:654   */\n  tag_30\n    /* \"#utility.yul\":650:652   */\n  0x60\n    /* \"#utility.yul\":639:648   */\n  dup7\n    /* \"#utility.yul\":635:653   */\n  add\n    /* \"#utility.yul\":605:654   */\n  tag_21\n  jump\t// in\ntag_30:\n    /* \"#utility.yul\":595:654   */\n  swap1\n  pop\n    /* \"#utility.yul\":196:660   */\n  swap3\n  swap6\n  swap2\n  swap5\n  pop\n  swap3\n  pop\n  jump\t// out\n    /* \"#utility.yul\":1712:2050   */\ntag_22:\n    /* \"contract/HITBNBBuyer.sol\":510:3660  contract HITBNBBuyer is ReentrancyGuard {... */\n  mload(0x80)\n  mload(0xa0)\n  mload(0xc0)\n  mload(0xe0)\n  codecopy(0x00, dataOffset(sub_0), dataSize(sub_0))\n  0x00\n  assignImmutable(\"0x7468eddb0720a03646876d25045fa535478c57a57b912a197efd90e8d667279c\")\n  0x00\n  assignImmutable(\"0x7a91009c6f7b1a275e5fe1d4c73bd6d7322fe5a62b5031b46ed03b8b1a3c30b8\")\n  0x00\n  assignImmutable(\"0x6899d1fa68cf48634632762f4cd0ec59d591ccbdd349962c4ae5d93ddad42969\")\n  0x00\n  assignImmutable(\"0x9e21dd0364e3e97524b0a6af83debf309aa812eb058333a9ab7b8e3a0d33a9c2\")\n  return(0x00, dataSize(sub_0))\nstop\n\nsub_0: assembly {\n        /* \"contract/HITBNBBuyer.sol\":510:3660  contract HITBNBBuyer is ReentrancyGuard {... */\n      mstore(0x40, 0x80)\n      jumpi(tag_1, lt(calldatasize, 0x04))\n      shr(0xe0, calldataload(0x00))\n      dup1\n      0x8da5cb5b\n      gt\n      tag_12\n      jumpi\n      dup1\n      0x8da5cb5b\n      eq\n      tag_7\n      jumpi\n      dup1\n      0xe2bbb158\n      eq\n      tag_8\n      jumpi\n      dup1\n      0xe8d2b571\n      eq\n      tag_9\n      jumpi\n      dup1\n      0xf2fde38b\n      eq\n      tag_10\n      jumpi\n      dup1\n      0xf887ea40\n      eq\n      tag_11\n      jumpi\n      0x00\n      dup1\n      revert\n    tag_12:\n      dup1\n      0x2f48ab7d\n      eq\n      tag_3\n      jumpi\n      dup1\n      0x42d50f19\n      eq\n      tag_4\n      jumpi\n      dup1\n      0x602db890\n      eq\n      tag_5\n      jumpi\n      dup1\n      0x6382d9ad\n      eq\n      tag_6\n      jumpi\n      0x00\n      dup1\n      revert\n    tag_1:\n      jumpi(tag_2, calldatasize)\n      stop\n    tag_2:\n      0x00\n      dup1\n      revert\n        /* \"contract/HITBNBBuyer.sol\":619:648  address public immutable usdt */\n    tag_3:\n      callvalue\n      dup1\n      iszero\n      tag_15\n      jumpi\n      0x00\n      dup1\n      revert\n    tag_15:\n      pop\n      tag_16\n      immutable(\"0x9e21dd0364e3e97524b0a6af83debf309aa812eb058333a9ab7b8e3a0d33a9c2\")\n      dup2\n      jump\n    tag_16:\n      mload(0x40)\n      sub(shl(0xa0, 0x01), 0x01)\n        /* \"#utility.yul\":178:210   */\n      swap1\n      swap2\n      and\n        /* \"#utility.yul\":160:211   */\n      dup2\n      mstore\n        /* \"#utility.yul\":148:150   */\n      0x20\n        /* \"#utility.yul\":133:151   */\n      add\n        /* \"contract/HITBNBBuyer.sol\":619:648  address public immutable usdt */\n      mload(0x40)\n      dup1\n      swap2\n      sub\n      swap1\n      return\n        /* \"contract/HITBNBBuyer.sol\":693:727  address public immutable roiWallet */\n    tag_4:\n      callvalue\n      dup1\n      iszero\n      tag_20\n      jumpi\n      0x00\n      dup1\n      revert\n    tag_20:\n      pop\n      tag_16\n      immutable(\"0x7a91009c6f7b1a275e5fe1d4c73bd6d7322fe5a62b5031b46ed03b8b1a3c30b8\")\n      dup2\n      jump\n        /* \"contract/HITBNBBuyer.sol\":3364:3620  function emergencyWithdrawBNB(address payable to) external onlyOwner {... */\n    tag_5:\n      callvalue\n      dup1\n      iszero\n      tag_24\n      jumpi\n      0x00\n      dup1\n      revert\n    tag_24:\n      pop\n      tag_25\n      tag_26\n      calldatasize\n      0x04\n      tag_27\n      jump\t// in\n    tag_26:\n      tag_28\n      jump\t// in\n    tag_25:\n      stop\n        /* \"contract/HITBNBBuyer.sol\":3054:3356  function emergencyWithdraw(address token, address to) external onlyOwner {... */\n    tag_6:\n      callvalue\n      dup1\n      iszero\n      tag_29\n      jumpi\n      0x00\n      dup1\n      revert\n    tag_29:\n      pop\n      tag_25\n      tag_31\n      calldatasize\n      0x04\n      tag_32\n      jump\t// in\n    tag_31:\n      tag_33\n      jump\t// in\n        /* \"contract/HITBNBBuyer.sol\":592:612  address public owner */\n    tag_7:\n      callvalue\n      dup1\n      iszero\n      tag_34\n      jumpi\n      0x00\n      dup1\n      revert\n    tag_34:\n      pop\n      sload(0x01)\n      tag_16\n      swap1\n      sub(shl(0xa0, 0x01), 0x01)\n      and\n      dup2\n      jump\n        /* \"contract/HITBNBBuyer.sol\":2075:3046  function deposit(uint256 amount, uint256 amountOutMin) external nonReentrant {... */\n    tag_8:\n      callvalue\n      dup1\n      iszero\n      tag_38\n      jumpi\n      0x00\n      dup1\n      revert\n    tag_38:\n      pop\n      tag_25\n      tag_40\n      calldatasize\n      0x04\n      tag_41\n      jump\t// in\n    tag_40:\n      tag_42\n      jump\t// in\n        /* \"contract/HITBNBBuyer.sol\":655:686  address public immutable hitbnb */\n    tag_9:\n      callvalue\n      dup1\n      iszero\n      tag_43\n      jumpi\n      0x00\n      dup1\n      revert\n    tag_43:\n      pop\n      tag_16\n      immutable(\"0x6899d1fa68cf48634632762f4cd0ec59d591ccbdd349962c4ae5d93ddad42969\")\n      dup2\n      jump\n        /* \"contract/HITBNBBuyer.sol\":1844:2067  function transferOwnership(address newOwner) external onlyOwner {... */\n    tag_10:\n      callvalue\n      dup1\n      iszero\n      tag_47\n      jumpi\n      0x00\n      dup1\n      revert\n    tag_47:\n      pop\n      tag_25\n      tag_49\n      calldatasize\n      0x04\n      tag_27\n      jump\t// in\n    tag_49:\n      tag_51\n      jump\t// in\n        /* \"contract/HITBNBBuyer.sol\":734:765  address public immutable router */\n    tag_11:\n      callvalue\n      dup1\n      iszero\n      tag_52\n      jumpi\n      0x00\n      dup1\n      revert\n    tag_52:\n      pop\n      tag_16\n      immutable(\"0x7468eddb0720a03646876d25045fa535478c57a57b912a197efd90e8d667279c\")\n      dup2\n      jump\n        /* \"contract/HITBNBBuyer.sol\":3364:3620  function emergencyWithdrawBNB(address payable to) external onlyOwner {... */\n    tag_28:\n        /* \"contract/HITBNBBuyer.sol\":1260:1265  owner */\n      and(sub(shl(0xa0, 0x01), 0x01), sload(0x01))\n        /* \"contract/HITBNBBuyer.sol\":1246:1256  msg.sender */\n      caller\n        /* \"contract/HITBNBBuyer.sol\":1246:1265  msg.sender == owner */\n      eq\n        /* \"contract/HITBNBBuyer.sol\":1238:1280  require(msg.sender == owner, \"Only owner\") */\n      tag_57\n      jumpi\n      mload(0x40)\n      shl(0xe5, 0x461bcd)\n      dup2\n      mstore\n      0x04\n      add\n      tag_58\n      swap1\n      tag_59\n      jump\t// in\n    tag_58:\n      mload(0x40)\n      dup1\n      swap2\n      sub\n      swap1\n      revert\n    tag_57:\n        /* \"contract/HITBNBBuyer.sol\":3462:3483  address(this).balance */\n      selfbalance\n        /* \"contract/HITBNBBuyer.sol\":3502:3513  balance > 0 */\n      dup1\n        /* \"contract/HITBNBBuyer.sol\":3494:3532  require(balance > 0, \"No BNB balance\") */\n      tag_61\n      jumpi\n      mload(0x40)\n      shl(0xe5, 0x461bcd)\n      dup2\n      mstore\n        /* \"#utility.yul\":2097:2099   */\n      0x20\n        /* \"contract/HITBNBBuyer.sol\":3494:3532  require(balance > 0, \"No BNB balance\") */\n      0x04\n      dup3\n      add\n        /* \"#utility.yul\":2079:2100   */\n      mstore\n        /* \"#utility.yul\":2136:2138   */\n      0x0e\n        /* \"#utility.yul\":2116:2134   */\n      0x24\n      dup3\n      add\n        /* \"#utility.yul\":2109:2139   */\n      mstore\n      shl(0x90, 0x4e6f20424e422062616c616e6365)\n        /* \"#utility.yul\":2155:2173   */\n      0x44\n      dup3\n      add\n        /* \"#utility.yul\":2148:2192   */\n      mstore\n        /* \"#utility.yul\":2209:2227   */\n      0x64\n      add\n        /* \"contract/HITBNBBuyer.sol\":3494:3532  require(balance > 0, \"No BNB balance\") */\n      tag_58\n        /* \"#utility.yul\":1895:2233   */\n      jump\n        /* \"contract/HITBNBBuyer.sol\":3494:3532  require(balance > 0, \"No BNB balance\") */\n    tag_61:\n        /* \"contract/HITBNBBuyer.sol\":3543:3563  to.transfer(balance) */\n      mload(0x40)\n      sub(shl(0xa0, 0x01), 0x01)\n        /* \"contract/HITBNBBuyer.sol\":3543:3554  to.transfer */\n      dup4\n      and\n      swap1\n        /* \"contract/HITBNBBuyer.sol\":3543:3563  to.transfer(balance) */\n      dup3\n      iszero\n      0x08fc\n      mul\n      swap1\n        /* \"contract/HITBNBBuyer.sol\":3555:3562  balance */\n      dup4\n      swap1\n        /* \"contract/HITBNBBuyer.sol\":3543:3563  to.transfer(balance) */\n      0x00\n      dup2\n      dup2\n      dup2\n        /* \"contract/HITBNBBuyer.sol\":3555:3562  balance */\n      dup6\n        /* \"contract/HITBNBBuyer.sol\":3543:3554  to.transfer */\n      dup9\n        /* \"contract/HITBNBBuyer.sol\":3543:3563  to.transfer(balance) */\n      dup9\n      call\n      swap4\n      pop\n      pop\n      pop\n      pop\n      iszero\n      dup1\n      iszero\n      tag_65\n      jumpi\n      returndatasize\n      0x00\n      dup1\n      returndatacopy\n      revert(0x00, returndatasize)\n    tag_65:\n      pop\n        /* \"contract/HITBNBBuyer.sol\":3600:3602  to */\n      dup2\n      sub(shl(0xa0, 0x01), 0x01)\n        /* \"contract/HITBNBBuyer.sol\":3579:3612  EmergencyBNBWithdraw(to, balance) */\n      and\n      0x91045e6e748ca8a27b6e2281f519acaeec9d1c9b38a4f5003a630c2bc2fb9689\n        /* \"contract/HITBNBBuyer.sol\":3604:3611  balance */\n      dup3\n        /* \"contract/HITBNBBuyer.sol\":3579:3612  EmergencyBNBWithdraw(to, balance) */\n      mload(0x40)\n      tag_66\n      swap2\n        /* \"#utility.yul\":2384:2409   */\n      dup2\n      mstore\n        /* \"#utility.yul\":2372:2374   */\n      0x20\n        /* \"#utility.yul\":2357:2375   */\n      add\n      swap1\n        /* \"#utility.yul\":2238:2415   */\n      jump\n        /* \"contract/HITBNBBuyer.sol\":3579:3612  EmergencyBNBWithdraw(to, balance) */\n    tag_66:\n      mload(0x40)\n      dup1\n      swap2\n      sub\n      swap1\n      log2\n        /* \"contract/HITBNBBuyer.sol\":3433:3620  {... */\n      pop\n        /* \"contract/HITBNBBuyer.sol\":3364:3620  function emergencyWithdrawBNB(address payable to) external onlyOwner {... */\n      pop\n      jump\t// out\n        /* \"contract/HITBNBBuyer.sol\":3054:3356  function emergencyWithdraw(address token, address to) external onlyOwner {... */\n    tag_33:\n        /* \"contract/HITBNBBuyer.sol\":1260:1265  owner */\n      and(sub(shl(0xa0, 0x01), 0x01), sload(0x01))\n        /* \"contract/HITBNBBuyer.sol\":1246:1256  msg.sender */\n      caller\n        /* \"contract/HITBNBBuyer.sol\":1246:1265  msg.sender == owner */\n      eq\n        /* \"contract/HITBNBBuyer.sol\":1238:1280  require(msg.sender == owner, \"Only owner\") */\n      tag_69\n      jumpi\n      mload(0x40)\n      shl(0xe5, 0x461bcd)\n      dup2\n      mstore\n      0x04\n      add\n      tag_58\n      swap1\n      tag_59\n      jump\t// in\n    tag_69:\n        /* \"contract/HITBNBBuyer.sol\":3156:3194  IERC20(token).balanceOf(address(this)) */\n      mload(0x40)\n      shl(0xe0, 0x70a08231)\n      dup2\n      mstore\n        /* \"contract/HITBNBBuyer.sol\":3188:3192  this */\n      address\n        /* \"contract/HITBNBBuyer.sol\":3156:3194  IERC20(token).balanceOf(address(this)) */\n      0x04\n      dup3\n      add\n        /* \"#utility.yul\":160:211   */\n      mstore\n        /* \"contract/HITBNBBuyer.sol\":3138:3153  uint256 balance */\n      0x00\n      swap1\n      sub(shl(0xa0, 0x01), 0x01)\n        /* \"contract/HITBNBBuyer.sol\":3156:3179  IERC20(token).balanceOf */\n      dup5\n      and\n      swap1\n      0x70a08231\n      swap1\n        /* \"#utility.yul\":133:151   */\n      0x24\n      add\n        /* \"contract/HITBNBBuyer.sol\":3156:3194  IERC20(token).balanceOf(address(this)) */\n      0x20\n      mload(0x40)\n      dup1\n      dup4\n      sub\n      dup2\n      dup7\n      gas\n      staticcall\n      iszero\n      dup1\n      iszero\n      tag_74\n      jumpi\n      returndatasize\n      0x00\n      dup1\n      returndatacopy\n      revert(0x00, returndatasize)\n    tag_74:\n      pop\n      pop\n      pop\n      pop\n      mload(0x40)\n      returndatasize\n      not(0x1f)\n      0x1f\n      dup3\n      add\n      and\n      dup3\n      add\n      dup1\n      0x40\n      mstore\n      pop\n      dup2\n      add\n      swap1\n      tag_75\n      swap2\n      swap1\n      tag_76\n      jump\t// in\n    tag_75:\n        /* \"contract/HITBNBBuyer.sol\":3138:3194  uint256 balance = IERC20(token).balanceOf(address(this)) */\n      swap1\n      pop\n        /* \"contract/HITBNBBuyer.sol\":3223:3224  0 */\n      0x00\n        /* \"contract/HITBNBBuyer.sol\":3213:3220  balance */\n      dup2\n        /* \"contract/HITBNBBuyer.sol\":3213:3224  balance > 0 */\n      gt\n        /* \"contract/HITBNBBuyer.sol\":3205:3245  require(balance > 0, \"No token balance\") */\n      tag_77\n      jumpi\n      mload(0x40)\n      shl(0xe5, 0x461bcd)\n      dup2\n      mstore\n        /* \"#utility.yul\":2811:2813   */\n      0x20\n        /* \"contract/HITBNBBuyer.sol\":3205:3245  require(balance > 0, \"No token balance\") */\n      0x04\n      dup3\n      add\n        /* \"#utility.yul\":2793:2814   */\n      mstore\n        /* \"#utility.yul\":2850:2852   */\n      0x10\n        /* \"#utility.yul\":2830:2848   */\n      0x24\n      dup3\n      add\n        /* \"#utility.yul\":2823:2853   */\n      mstore\n      shl(0x80, 0x4e6f20746f6b656e2062616c616e6365)\n        /* \"#utility.yul\":2869:2887   */\n      0x44\n      dup3\n      add\n        /* \"#utility.yul\":2862:2908   */\n      mstore\n        /* \"#utility.yul\":2925:2943   */\n      0x64\n      add\n        /* \"contract/HITBNBBuyer.sol\":3205:3245  require(balance > 0, \"No token balance\") */\n      tag_58\n        /* \"#utility.yul\":2609:2949   */\n      jump\n        /* \"contract/HITBNBBuyer.sol\":3205:3245  require(balance > 0, \"No token balance\") */\n    tag_77:\n        /* \"contract/HITBNBBuyer.sol\":3256:3295  IERC20(token).safeTransfer(to, balance) */\n      tag_80\n      sub(shl(0xa0, 0x01), 0x01)\n        /* \"contract/HITBNBBuyer.sol\":3256:3282  IERC20(token).safeTransfer */\n      dup5\n      and\n        /* \"contract/HITBNBBuyer.sol\":3283:3285  to */\n      dup4\n        /* \"contract/HITBNBBuyer.sol\":3287:3294  balance */\n      dup4\n        /* \"contract/HITBNBBuyer.sol\":3256:3282  IERC20(token).safeTransfer */\n      tag_81\n        /* \"contract/HITBNBBuyer.sol\":3256:3295  IERC20(token).safeTransfer(to, balance) */\n      jump\t// in\n    tag_80:\n        /* \"contract/HITBNBBuyer.sol\":3336:3338  to */\n      dup2\n      sub(shl(0xa0, 0x01), 0x01)\n        /* \"contract/HITBNBBuyer.sol\":3311:3348  EmergencyWithdraw(token, to, balance) */\n      and\n        /* \"contract/HITBNBBuyer.sol\":3329:3334  token */\n      dup4\n      sub(shl(0xa0, 0x01), 0x01)\n        /* \"contract/HITBNBBuyer.sol\":3311:3348  EmergencyWithdraw(token, to, balance) */\n      and\n      0xf24ef89f38eadc1bde50701ad6e4d6d11a2dc24f7cf834a486991f3883328504\n        /* \"contract/HITBNBBuyer.sol\":3340:3347  balance */\n      dup4\n        /* \"contract/HITBNBBuyer.sol\":3311:3348  EmergencyWithdraw(token, to, balance) */\n      mload(0x40)\n      tag_82\n      swap2\n        /* \"#utility.yul\":2384:2409   */\n      dup2\n      mstore\n        /* \"#utility.yul\":2372:2374   */\n      0x20\n        /* \"#utility.yul\":2357:2375   */\n      add\n      swap1\n        /* \"#utility.yul\":2238:2415   */\n      jump\n        /* \"contract/HITBNBBuyer.sol\":3311:3348  EmergencyWithdraw(token, to, balance) */\n    tag_82:\n      mload(0x40)\n      dup1\n      swap2\n      sub\n      swap1\n      log3\n        /* \"contract/HITBNBBuyer.sol\":3127:3356  {... */\n      pop\n        /* \"contract/HITBNBBuyer.sol\":3054:3356  function emergencyWithdraw(address token, address to) external onlyOwner {... */\n      pop\n      pop\n      jump\t// out\n        /* \"contract/HITBNBBuyer.sol\":2075:3046  function deposit(uint256 amount, uint256 amountOutMin) external nonReentrant {... */\n    tag_42:\n        /* \"@openzeppelin/contracts/security/ReentrancyGuard.sol\":2261:2282  _nonReentrantBefore() */\n      tag_84\n        /* \"@openzeppelin/contracts/security/ReentrancyGuard.sol\":2261:2280  _nonReentrantBefore */\n      tag_85\n        /* \"@openzeppelin/contracts/security/ReentrancyGuard.sol\":2261:2282  _nonReentrantBefore() */\n      jump\t// in\n    tag_84:\n        /* \"contract/HITBNBBuyer.sol\":2181:2189  3 * 1e18 */\n      0x29a2241af62c0000\n        /* \"contract/HITBNBBuyer.sol\":2171:2177  amount */\n      dup3\n        /* \"contract/HITBNBBuyer.sol\":2171:2189  amount >= 3 * 1e18 */\n      lt\n      iszero\n        /* \"contract/HITBNBBuyer.sol\":2163:2219  require(amount >= 3 * 1e18, \"Minimum deposit is 3 USDT\") */\n      tag_87\n      jumpi\n      mload(0x40)\n      shl(0xe5, 0x461bcd)\n      dup2\n      mstore\n        /* \"#utility.yul\":3156:3158   */\n      0x20\n        /* \"contract/HITBNBBuyer.sol\":2163:2219  require(amount >= 3 * 1e18, \"Minimum deposit is 3 USDT\") */\n      0x04\n      dup3\n      add\n        /* \"#utility.yul\":3138:3159   */\n      mstore\n        /* \"#utility.yul\":3195:3197   */\n      0x19\n        /* \"#utility.yul\":3175:3193   */\n      0x24\n      dup3\n      add\n        /* \"#utility.yul\":3168:3198   */\n      mstore\n        /* \"#utility.yul\":3234:3261   */\n      0x4d696e696d756d206465706f7369742069732033205553445400000000000000\n        /* \"#utility.yul\":3214:3232   */\n      0x44\n      dup3\n      add\n        /* \"#utility.yul\":3207:3262   */\n      mstore\n        /* \"#utility.yul\":3279:3297   */\n      0x64\n      add\n        /* \"contract/HITBNBBuyer.sol\":2163:2219  require(amount >= 3 * 1e18, \"Minimum deposit is 3 USDT\") */\n      tag_58\n        /* \"#utility.yul\":2954:3303   */\n      jump\n        /* \"contract/HITBNBBuyer.sol\":2163:2219  require(amount >= 3 * 1e18, \"Minimum deposit is 3 USDT\") */\n    tag_87:\n        /* \"contract/HITBNBBuyer.sol\":2232:2296  IERC20(usdt).safeTransferFrom(msg.sender, address(this), amount) */\n      tag_90\n      sub(shl(0xa0, 0x01), 0x01)\n        /* \"contract/HITBNBBuyer.sol\":2239:2243  usdt */\n      immutable(\"0x9e21dd0364e3e97524b0a6af83debf309aa812eb058333a9ab7b8e3a0d33a9c2\")\n        /* \"contract/HITBNBBuyer.sol\":2232:2261  IERC20(usdt).safeTransferFrom */\n      and\n        /* \"contract/HITBNBBuyer.sol\":2262:2272  msg.sender */\n      caller\n        /* \"contract/HITBNBBuyer.sol\":2282:2286  this */\n      address\n        /* \"contract/HITBNBBuyer.sol\":2289:2295  amount */\n      dup6\n        /* \"contract/HITBNBBuyer.sol\":2232:2261  IERC20(usdt).safeTransferFrom */\n      tag_91\n        /* \"contract/HITBNBBuyer.sol\":2232:2296  IERC20(usdt).safeTransferFrom(msg.sender, address(this), amount) */\n      jump\t// in\n    tag_90:\n        /* \"contract/HITBNBBuyer.sol\":2336:2381  IERC20(usdt).allowance(address(this), router) */\n      mload(0x40)\n      shl(0xe1, 0x6eb1769f)\n      dup2\n      mstore\n        /* \"contract/HITBNBBuyer.sol\":2367:2371  this */\n      address\n        /* \"contract/HITBNBBuyer.sol\":2336:2381  IERC20(usdt).allowance(address(this), router) */\n      0x04\n      dup3\n      add\n        /* \"#utility.yul\":3520:3554   */\n      mstore\n      sub(shl(0xa0, 0x01), 0x01)\n        /* \"contract/HITBNBBuyer.sol\":2374:2380  router */\n      immutable(\"0x7468eddb0720a03646876d25045fa535478c57a57b912a197efd90e8d667279c\")\n        /* \"#utility.yul\":3590:3605   */\n      dup2\n      and\n        /* \"#utility.yul\":3570:3588   */\n      0x24\n      dup4\n      add\n        /* \"#utility.yul\":3563:3606   */\n      mstore\n      0x00\n      swap2\n        /* \"contract/HITBNBBuyer.sol\":2343:2347  usdt */\n      immutable(\"0x9e21dd0364e3e97524b0a6af83debf309aa812eb058333a9ab7b8e3a0d33a9c2\")\n        /* \"contract/HITBNBBuyer.sol\":2336:2358  IERC20(usdt).allowance */\n      swap1\n      swap2\n      and\n      swap1\n      0xdd62ed3e\n      swap1\n        /* \"#utility.yul\":3455:3473   */\n      0x44\n      add\n        /* \"contract/HITBNBBuyer.sol\":2336:2381  IERC20(usdt).allowance(address(this), router) */\n      0x20\n      mload(0x40)\n      dup1\n      dup4\n      sub\n      dup2\n      dup7\n      gas\n      staticcall\n      iszero\n      dup1\n      iszero\n      tag_95\n      jumpi\n      returndatasize\n      0x00\n      dup1\n      returndatacopy\n      revert(0x00, returndatasize)\n    tag_95:\n      pop\n      pop\n      pop\n      pop\n      mload(0x40)\n      returndatasize\n      not(0x1f)\n      0x1f\n      dup3\n      add\n      and\n      dup3\n      add\n      dup1\n      0x40\n      mstore\n      pop\n      dup2\n      add\n      swap1\n      tag_96\n      swap2\n      swap1\n      tag_76\n      jump\t// in\n    tag_96:\n        /* \"contract/HITBNBBuyer.sol\":2309:2381  uint256 currentAllowance = IERC20(usdt).allowance(address(this), router) */\n      swap1\n      pop\n        /* \"contract/HITBNBBuyer.sol\":2415:2421  amount */\n      dup3\n        /* \"contract/HITBNBBuyer.sol\":2396:2412  currentAllowance */\n      dup2\n        /* \"contract/HITBNBBuyer.sol\":2396:2421  currentAllowance < amount */\n      lt\n        /* \"contract/HITBNBBuyer.sol\":2392:2562  if (currentAllowance < amount) {... */\n      iszero\n      tag_97\n      jumpi\n        /* \"contract/HITBNBBuyer.sol\":2438:2469  IERC20(usdt).approve(router, 0) */\n      mload(0x40)\n      shl(0xe0, 0x095ea7b3)\n      dup2\n      mstore\n      sub(shl(0xa0, 0x01), 0x01)\n        /* \"contract/HITBNBBuyer.sol\":2459:2465  router */\n      immutable(\"0x7468eddb0720a03646876d25045fa535478c57a57b912a197efd90e8d667279c\")\n        /* \"#utility.yul\":3817:3849   */\n      dup2\n      and\n        /* \"contract/HITBNBBuyer.sol\":2438:2469  IERC20(usdt).approve(router, 0) */\n      0x04\n      dup4\n      add\n        /* \"#utility.yul\":3799:3850   */\n      mstore\n      0x00\n        /* \"#utility.yul\":3866:3884   */\n      0x24\n      dup4\n      add\n        /* \"#utility.yul\":3859:3893   */\n      mstore\n        /* \"contract/HITBNBBuyer.sol\":2445:2449  usdt */\n      immutable(\"0x9e21dd0364e3e97524b0a6af83debf309aa812eb058333a9ab7b8e3a0d33a9c2\")\n        /* \"contract/HITBNBBuyer.sol\":2438:2458  IERC20(usdt).approve */\n      and\n      swap1\n      0x095ea7b3\n      swap1\n        /* \"#utility.yul\":3772:3790   */\n      0x44\n      add\n        /* \"contract/HITBNBBuyer.sol\":2438:2469  IERC20(usdt).approve(router, 0) */\n      0x20\n      mload(0x40)\n      dup1\n      dup4\n      sub\n      dup2\n      0x00\n      dup8\n      gas\n      call\n      iszero\n      dup1\n      iszero\n      tag_101\n      jumpi\n      returndatasize\n      0x00\n      dup1\n      returndatacopy\n      revert(0x00, returndatasize)\n    tag_101:\n      pop\n      pop\n      pop\n      pop\n      mload(0x40)\n      returndatasize\n      not(0x1f)\n      0x1f\n      dup3\n      add\n      and\n      dup3\n      add\n      dup1\n      0x40\n      mstore\n      pop\n      dup2\n      add\n      swap1\n      tag_102\n      swap2\n      swap1\n      tag_103\n      jump\t// in\n    tag_102:\n      pop\n        /* \"contract/HITBNBBuyer.sol\":2503:2550  IERC20(usdt).approve(router, type(uint256).max) */\n      mload(0x40)\n      shl(0xe0, 0x095ea7b3)\n      dup2\n      mstore\n      sub(shl(0xa0, 0x01), 0x01)\n        /* \"contract/HITBNBBuyer.sol\":2524:2530  router */\n      immutable(\"0x7468eddb0720a03646876d25045fa535478c57a57b912a197efd90e8d667279c\")\n        /* \"#utility.yul\":3817:3849   */\n      dup2\n      and\n        /* \"contract/HITBNBBuyer.sol\":2503:2550  IERC20(usdt).approve(router, type(uint256).max) */\n      0x04\n      dup4\n      add\n        /* \"#utility.yul\":3799:3850   */\n      mstore\n      not(0x00)\n        /* \"#utility.yul\":3866:3884   */\n      0x24\n      dup4\n      add\n        /* \"#utility.yul\":3859:3893   */\n      mstore\n        /* \"contract/HITBNBBuyer.sol\":2510:2514  usdt */\n      immutable(\"0x9e21dd0364e3e97524b0a6af83debf309aa812eb058333a9ab7b8e3a0d33a9c2\")\n        /* \"contract/HITBNBBuyer.sol\":2503:2523  IERC20(usdt).approve */\n      and\n      swap1\n      0x095ea7b3\n      swap1\n        /* \"#utility.yul\":3772:3790   */\n      0x44\n      add\n        /* \"contract/HITBNBBuyer.sol\":2503:2550  IERC20(usdt).approve(router, type(uint256).max) */\n      0x20\n      mload(0x40)\n      dup1\n      dup4\n      sub\n      dup2\n      0x00\n      dup8\n      gas\n      call\n      iszero\n      dup1\n      iszero\n      tag_107\n      jumpi\n      returndatasize\n      0x00\n      dup1\n      returndatacopy\n      revert(0x00, returndatasize)\n    tag_107:\n      pop\n      pop\n      pop\n      pop\n      mload(0x40)\n      returndatasize\n      not(0x1f)\n      0x1f\n      dup3\n      add\n      and\n      dup3\n      add\n      dup1\n      0x40\n      mstore\n      pop\n      dup2\n      add\n      swap1\n      tag_108\n      swap2\n      swap1\n      tag_103\n      jump\t// in\n    tag_108:\n      pop\n        /* \"contract/HITBNBBuyer.sol\":2392:2562  if (currentAllowance < amount) {... */\n    tag_97:\n        /* \"contract/HITBNBBuyer.sol\":2654:2670  new address[](2) */\n      0x40\n      dup1\n      mload\n        /* \"contract/HITBNBBuyer.sol\":2668:2669  2 */\n      0x02\n        /* \"contract/HITBNBBuyer.sol\":2654:2670  new address[](2) */\n      dup1\n      dup3\n      mstore\n      0x60\n      dup3\n      add\n      dup4\n      mstore\n        /* \"contract/HITBNBBuyer.sol\":2630:2651  address[] memory path */\n      0x00\n      swap3\n        /* \"contract/HITBNBBuyer.sol\":2654:2670  new address[](2) */\n      0x20\n      dup4\n      add\n      swap1\n      dup1\n      calldatasize\n      dup4\n      calldatacopy\n      add\n      swap1\n      pop\n      pop\n        /* \"contract/HITBNBBuyer.sol\":2630:2670  address[] memory path = new address[](2) */\n      swap1\n      pop\n        /* \"contract/HITBNBBuyer.sol\":2695:2699  usdt */\n      immutable(\"0x9e21dd0364e3e97524b0a6af83debf309aa812eb058333a9ab7b8e3a0d33a9c2\")\n        /* \"contract/HITBNBBuyer.sol\":2685:2689  path */\n      dup2\n        /* \"contract/HITBNBBuyer.sol\":2690:2691  0 */\n      0x00\n        /* \"contract/HITBNBBuyer.sol\":2685:2692  path[0] */\n      dup2\n      mload\n      dup2\n      lt\n      tag_114\n      jumpi\n      tag_114\n      tag_115\n      jump\t// in\n    tag_114:\n      0x20\n      mul\n      0x20\n      add\n      add\n        /* \"contract/HITBNBBuyer.sol\":2685:2699  path[0] = usdt */\n      swap1\n      sub(shl(0xa0, 0x01), 0x01)\n      and\n      swap1\n      dup2\n      sub(shl(0xa0, 0x01), 0x01)\n      and\n      dup2\n      mstore\n      pop\n      pop\n        /* \"contract/HITBNBBuyer.sol\":2724:2730  hitbnb */\n      immutable(\"0x6899d1fa68cf48634632762f4cd0ec59d591ccbdd349962c4ae5d93ddad42969\")\n        /* \"contract/HITBNBBuyer.sol\":2714:2718  path */\n      dup2\n        /* \"contract/HITBNBBuyer.sol\":2719:2720  1 */\n      0x01\n        /* \"contract/HITBNBBuyer.sol\":2714:2721  path[1] */\n      dup2\n      mload\n      dup2\n      lt\n      tag_117\n      jumpi\n      tag_117\n      tag_115\n      jump\t// in\n    tag_117:\n      sub(shl(0xa0, 0x01), 0x01)\n        /* \"contract/HITBNBBuyer.sol\":2714:2730  path[1] = hitbnb */\n      swap3\n      dup4\n      and\n        /* \"contract/HITBNBBuyer.sol\":2714:2721  path[1] */\n      0x20\n      swap2\n      dup3\n      mul\n      swap3\n      swap1\n      swap3\n      add\n      add\n        /* \"contract/HITBNBBuyer.sol\":2714:2730  path[1] = hitbnb */\n      mstore\n        /* \"contract/HITBNBBuyer.sol\":2758:2764  router */\n      immutable(\"0x7468eddb0720a03646876d25045fa535478c57a57b912a197efd90e8d667279c\")\n        /* \"contract/HITBNBBuyer.sol\":2743:2819  IPancakeRouter(router).swapExactTokensForTokensSupportingFeeOnTransferTokens */\n      and\n      0x5c11d795\n        /* \"contract/HITBNBBuyer.sol\":2834:2840  amount */\n      dup6\n        /* \"contract/HITBNBBuyer.sol\":2855:2867  amountOutMin */\n      dup6\n        /* \"contract/HITBNBBuyer.sol\":2882:2886  path */\n      dup5\n        /* \"contract/HITBNBBuyer.sol\":2901:2910  roiWallet */\n      immutable(\"0x7a91009c6f7b1a275e5fe1d4c73bd6d7322fe5a62b5031b46ed03b8b1a3c30b8\")\n        /* \"contract/HITBNBBuyer.sol\":2925:2946  block.timestamp + 300 */\n      tag_118\n        /* \"contract/HITBNBBuyer.sol\":2925:2940  block.timestamp */\n      timestamp\n        /* \"contract/HITBNBBuyer.sol\":2943:2946  300 */\n      0x012c\n        /* \"contract/HITBNBBuyer.sol\":2925:2946  block.timestamp + 300 */\n      tag_119\n      jump\t// in\n    tag_118:\n        /* \"contract/HITBNBBuyer.sol\":2743:2957  IPancakeRouter(router).swapExactTokensForTokensSupportingFeeOnTransferTokens(... */\n      mload(0x40)\n      dup7\n      0xffffffff\n      and\n      0xe0\n      shl\n      dup2\n      mstore\n      0x04\n      add\n      tag_120\n      swap6\n      swap5\n      swap4\n      swap3\n      swap2\n      swap1\n      tag_121\n      jump\t// in\n    tag_120:\n      0x00\n      mload(0x40)\n      dup1\n      dup4\n      sub\n      dup2\n      0x00\n      dup8\n      dup1\n      extcodesize\n      iszero\n      dup1\n      iszero\n      tag_122\n      jumpi\n      0x00\n      dup1\n      revert\n    tag_122:\n      pop\n      gas\n      call\n      iszero\n      dup1\n      iszero\n      tag_124\n      jumpi\n      returndatasize\n      0x00\n      dup1\n      returndatacopy\n      revert(0x00, returndatasize)\n    tag_124:\n      pop\n      pop\n        /* \"contract/HITBNBBuyer.sol\":2975:3038  TokenSwapped(msg.sender, amount, amountOutMin, block.timestamp) */\n      0x40\n      dup1\n      mload\n        /* \"#utility.yul\":6135:6160   */\n      dup8\n      dup2\n      mstore\n        /* \"#utility.yul\":6191:6193   */\n      0x20\n        /* \"#utility.yul\":6176:6194   */\n      dup2\n      add\n        /* \"#utility.yul\":6169:6203   */\n      dup8\n      swap1\n      mstore\n        /* \"contract/HITBNBBuyer.sol\":3022:3037  block.timestamp */\n      timestamp\n        /* \"#utility.yul\":6219:6237   */\n      dup2\n      dup4\n      add\n        /* \"#utility.yul\":6212:6246   */\n      mstore\n        /* \"contract/HITBNBBuyer.sol\":2975:3038  TokenSwapped(msg.sender, amount, amountOutMin, block.timestamp) */\n      swap1\n      mload\n        /* \"contract/HITBNBBuyer.sol\":2988:2998  msg.sender */\n      caller\n      swap4\n      pop\n        /* \"contract/HITBNBBuyer.sol\":2975:3038  TokenSwapped(msg.sender, amount, amountOutMin, block.timestamp) */\n      0xd0dfdc42f329395b5b942c700951e54f587bd4bb1f893019dd09d857c2b5ad7f\n      swap3\n      pop\n      swap1\n      dup2\n      swap1\n      sub\n        /* \"#utility.yul\":6123:6125   */\n      0x60\n        /* \"contract/HITBNBBuyer.sol\":2975:3038  TokenSwapped(msg.sender, amount, amountOutMin, block.timestamp) */\n      add\n      swap1\n      log2\n        /* \"contract/HITBNBBuyer.sol\":2152:3046  {... */\n      pop\n      pop\n        /* \"@openzeppelin/contracts/security/ReentrancyGuard.sol\":2303:2323  _nonReentrantAfter() */\n      tag_127\n        /* \"@openzeppelin/contracts/security/ReentrancyGuard.sol\":1716:1717  1 */\n      0x01\n        /* \"@openzeppelin/contracts/security/ReentrancyGuard.sol\":2809:2816  _status */\n      0x00\n        /* \"@openzeppelin/contracts/security/ReentrancyGuard.sol\":2809:2831  _status = _NOT_ENTERED */\n      sstore\n        /* \"@openzeppelin/contracts/security/ReentrancyGuard.sol\":2629:2838  function _nonReentrantAfter() private {... */\n      jump\n        /* \"@openzeppelin/contracts/security/ReentrancyGuard.sol\":2303:2323  _nonReentrantAfter() */\n    tag_127:\n        /* \"contract/HITBNBBuyer.sol\":2075:3046  function deposit(uint256 amount, uint256 amountOutMin) external nonReentrant {... */\n      pop\n      pop\n      jump\t// out\n        /* \"contract/HITBNBBuyer.sol\":1844:2067  function transferOwnership(address newOwner) external onlyOwner {... */\n    tag_51:\n        /* \"contract/HITBNBBuyer.sol\":1260:1265  owner */\n      and(sub(shl(0xa0, 0x01), 0x01), sload(0x01))\n        /* \"contract/HITBNBBuyer.sol\":1246:1256  msg.sender */\n      caller\n        /* \"contract/HITBNBBuyer.sol\":1246:1265  msg.sender == owner */\n      eq\n        /* \"contract/HITBNBBuyer.sol\":1238:1280  require(msg.sender == owner, \"Only owner\") */\n      tag_130\n      jumpi\n      mload(0x40)\n      shl(0xe5, 0x461bcd)\n      dup2\n      mstore\n      0x04\n      add\n      tag_58\n      swap1\n      tag_59\n      jump\t// in\n    tag_130:\n      sub(shl(0xa0, 0x01), 0x01)\n        /* \"contract/HITBNBBuyer.sol\":1927:1949  newOwner != address(0) */\n      dup2\n      and\n        /* \"contract/HITBNBBuyer.sol\":1919:1979  require(newOwner != address(0), \"New owner is zero address\") */\n      tag_133\n      jumpi\n      mload(0x40)\n      shl(0xe5, 0x461bcd)\n      dup2\n      mstore\n        /* \"#utility.yul\":6459:6461   */\n      0x20\n        /* \"contract/HITBNBBuyer.sol\":1919:1979  require(newOwner != address(0), \"New owner is zero address\") */\n      0x04\n      dup3\n      add\n        /* \"#utility.yul\":6441:6462   */\n      mstore\n        /* \"#utility.yul\":6498:6500   */\n      0x19\n        /* \"#utility.yul\":6478:6496   */\n      0x24\n      dup3\n      add\n        /* \"#utility.yul\":6471:6501   */\n      mstore\n        /* \"#utility.yul\":6537:6564   */\n      0x4e6577206f776e6572206973207a65726f206164647265737300000000000000\n        /* \"#utility.yul\":6517:6535   */\n      0x44\n      dup3\n      add\n        /* \"#utility.yul\":6510:6565   */\n      mstore\n        /* \"#utility.yul\":6582:6600   */\n      0x64\n      add\n        /* \"contract/HITBNBBuyer.sol\":1919:1979  require(newOwner != address(0), \"New owner is zero address\") */\n      tag_58\n        /* \"#utility.yul\":6257:6606   */\n      jump\n        /* \"contract/HITBNBBuyer.sol\":1919:1979  require(newOwner != address(0), \"New owner is zero address\") */\n    tag_133:\n        /* \"contract/HITBNBBuyer.sol\":2016:2021  owner */\n      sload(0x01)\n        /* \"contract/HITBNBBuyer.sol\":1995:2032  OwnershipTransferred(owner, newOwner) */\n      mload(0x40)\n      sub(shl(0xa0, 0x01), 0x01)\n      dup1\n      dup5\n      and\n      swap3\n        /* \"contract/HITBNBBuyer.sol\":2016:2021  owner */\n      and\n      swap1\n        /* \"contract/HITBNBBuyer.sol\":1995:2032  OwnershipTransferred(owner, newOwner) */\n      0x8be0079c531659141344cd1fd0a4f28419497f9722a3daafe3b4186f6b6457e0\n      swap1\n        /* \"contract/HITBNBBuyer.sol\":2016:2021  owner */\n      0x00\n      swap1\n        /* \"contract/HITBNBBuyer.sol\":1995:2032  OwnershipTransferred(owner, newOwner) */\n      log3\n        /* \"contract/HITBNBBuyer.sol\":2043:2048  owner */\n      0x01\n        /* \"contract/HITBNBBuyer.sol\":2043:2059  owner = newOwner */\n      dup1\n      sload\n      not(sub(shl(0xa0, 0x01), 0x01))\n      and\n      sub(shl(0xa0, 0x01), 0x01)\n      swap3\n      swap1\n      swap3\n      and\n      swap2\n      swap1\n      swap2\n      or\n      swap1\n      sstore\n        /* \"contract/HITBNBBuyer.sol\":1844:2067  function transferOwnership(address newOwner) external onlyOwner {... */\n      jump\t// out\n        /* \"@openzeppelin/contracts/token/ERC20/utils/SafeERC20.sol\":1219:1379  function safeTransfer(IERC20 token, address to, uint256 value) internal {... */\n    tag_81:\n        /* \"@openzeppelin/contracts/token/ERC20/utils/SafeERC20.sol\":1328:1371  abi.encodeCall(token.transfer, (to, value)) */\n      mload(0x40)\n      sub(shl(0xa0, 0x01), 0x01)\n        /* \"#utility.yul\":3817:3849   */\n      dup4\n      dup2\n      and\n        /* \"@openzeppelin/contracts/token/ERC20/utils/SafeERC20.sol\":1328:1371  abi.encodeCall(token.transfer, (to, value)) */\n      0x24\n      dup4\n      add\n        /* \"#utility.yul\":3799:3850   */\n      mstore\n        /* \"#utility.yul\":3866:3884   */\n      0x44\n      dup3\n      add\n        /* \"#utility.yul\":3859:3893   */\n      dup4\n      swap1\n      mstore\n        /* \"@openzeppelin/contracts/token/ERC20/utils/SafeERC20.sol\":1301:1372  _callOptionalReturn(token, abi.encodeCall(token.transfer, (to, value))) */\n      tag_137\n      swap2\n        /* \"@openzeppelin/contracts/token/ERC20/utils/SafeERC20.sol\":1321:1326  token */\n      dup6\n      swap2\n        /* \"@openzeppelin/contracts/token/ERC20/utils/SafeERC20.sol\":1343:1357  token.transfer */\n      dup3\n      and\n      swap1\n      0xa9059cbb\n      swap1\n        /* \"#utility.yul\":3772:3790   */\n      0x64\n      add\n        /* \"@openzeppelin/contracts/token/ERC20/utils/SafeERC20.sol\":1328:1371  abi.encodeCall(token.transfer, (to, value)) */\n    tag_138:\n      mload(0x40)\n      0x20\n      dup2\n      dup4\n      sub\n      sub\n      dup2\n      mstore\n      swap1\n      0x40\n      mstore\n      swap2\n      pop\n      0xe0\n      shl\n      0x20\n      dup3\n      add\n      dup1\n      mload\n      sub(shl(0xe0, 0x01), 0x01)\n      dup4\n      dup2\n      dup4\n      and\n      or\n      dup4\n      mstore\n      pop\n      pop\n      pop\n      pop\n        /* \"@openzeppelin/contracts/token/ERC20/utils/SafeERC20.sol\":1301:1320  _callOptionalReturn */\n      tag_139\n        /* \"@openzeppelin/contracts/token/ERC20/utils/SafeERC20.sol\":1301:1372  _callOptionalReturn(token, abi.encodeCall(token.transfer, (to, value))) */\n      jump\t// in\n    tag_137:\n        /* \"@openzeppelin/contracts/token/ERC20/utils/SafeERC20.sol\":1219:1379  function safeTransfer(IERC20 token, address to, uint256 value) internal {... */\n      pop\n      pop\n      pop\n      jump\t// out\n        /* \"@openzeppelin/contracts/security/ReentrancyGuard.sol\":2336:2623  function _nonReentrantBefore() private {... */\n    tag_85:\n        /* \"@openzeppelin/contracts/security/ReentrancyGuard.sol\":1759:1760  2 */\n      0x02\n        /* \"@openzeppelin/contracts/security/ReentrancyGuard.sol\":2468:2475  _status */\n      sload(0x00)\n        /* \"@openzeppelin/contracts/security/ReentrancyGuard.sol\":2468:2487  _status != _ENTERED */\n      sub\n        /* \"@openzeppelin/contracts/security/ReentrancyGuard.sol\":2460:2523  require(_status != _ENTERED, \"ReentrancyGuard: reentrant call\") */\n      tag_141\n      jumpi\n      mload(0x40)\n      shl(0xe5, 0x461bcd)\n      dup2\n      mstore\n        /* \"#utility.yul\":6813:6815   */\n      0x20\n        /* \"@openzeppelin/contracts/security/ReentrancyGuard.sol\":2460:2523  require(_status != _ENTERED, \"ReentrancyGuard: reentrant call\") */\n      0x04\n      dup3\n      add\n        /* \"#utility.yul\":6795:6816   */\n      mstore\n        /* \"#utility.yul\":6852:6854   */\n      0x1f\n        /* \"#utility.yul\":6832:6850   */\n      0x24\n      dup3\n      add\n        /* \"#utility.yul\":6825:6855   */\n      mstore\n        /* \"#utility.yul\":6891:6924   */\n      0x5265656e7472616e637947756172643a207265656e7472616e742063616c6c00\n        /* \"#utility.yul\":6871:6889   */\n      0x44\n      dup3\n      add\n        /* \"#utility.yul\":6864:6925   */\n      mstore\n        /* \"#utility.yul\":6942:6960   */\n      0x64\n      add\n        /* \"@openzeppelin/contracts/security/ReentrancyGuard.sol\":2460:2523  require(_status != _ENTERED, \"ReentrancyGuard: reentrant call\") */\n      tag_58\n        /* \"#utility.yul\":6611:6966   */\n      jump\n        /* \"@openzeppelin/contracts/security/ReentrancyGuard.sol\":2460:2523  require(_status != _ENTERED, \"ReentrancyGuard: reentrant call\") */\n    tag_141:\n        /* \"@openzeppelin/contracts/security/ReentrancyGuard.sol\":1759:1760  2 */\n      0x02\n        /* \"@openzeppelin/contracts/security/ReentrancyGuard.sol\":2598:2605  _status */\n      0x00\n        /* \"@openzeppelin/contracts/security/ReentrancyGuard.sol\":2598:2616  _status = _ENTERED */\n      sstore\n        /* \"@openzeppelin/contracts/security/ReentrancyGuard.sol\":2336:2623  function _nonReentrantBefore() private {... */\n      jump\t// out\n        /* \"@openzeppelin/contracts/token/ERC20/utils/SafeERC20.sol\":1618:1806  function safeTransferFrom(IERC20 token, address from, address to, uint256 value) internal {... */\n    tag_91:\n        /* \"@openzeppelin/contracts/token/ERC20/utils/SafeERC20.sol\":1745:1798  abi.encodeCall(token.transferFrom, (from, to, value)) */\n      mload(0x40)\n      sub(shl(0xa0, 0x01), 0x01)\n        /* \"#utility.yul\":7229:7244   */\n      dup5\n      dup2\n      and\n        /* \"@openzeppelin/contracts/token/ERC20/utils/SafeERC20.sol\":1745:1798  abi.encodeCall(token.transferFrom, (from, to, value)) */\n      0x24\n      dup4\n      add\n        /* \"#utility.yul\":7211:7245   */\n      mstore\n        /* \"#utility.yul\":7281:7296   */\n      dup4\n      dup2\n      and\n        /* \"#utility.yul\":7261:7279   */\n      0x44\n      dup4\n      add\n        /* \"#utility.yul\":7254:7297   */\n      mstore\n        /* \"#utility.yul\":7313:7331   */\n      0x64\n      dup3\n      add\n        /* \"#utility.yul\":7306:7340   */\n      dup4\n      swap1\n      mstore\n        /* \"@openzeppelin/contracts/token/ERC20/utils/SafeERC20.sol\":1718:1799  _callOptionalReturn(token, abi.encodeCall(token.transferFrom, (from, to, value))) */\n      tag_145\n      swap2\n        /* \"@openzeppelin/contracts/token/ERC20/utils/SafeERC20.sol\":1738:1743  token */\n      dup7\n      swap2\n        /* \"@openzeppelin/contracts/token/ERC20/utils/SafeERC20.sol\":1760:1778  token.transferFrom */\n      dup3\n      and\n      swap1\n      0x23b872dd\n      swap1\n        /* \"#utility.yul\":7146:7164   */\n      0x84\n      add\n        /* \"@openzeppelin/contracts/token/ERC20/utils/SafeERC20.sol\":1745:1798  abi.encodeCall(token.transferFrom, (from, to, value)) */\n      tag_138\n        /* \"#utility.yul\":6971:7346   */\n      jump\n        /* \"@openzeppelin/contracts/token/ERC20/utils/SafeERC20.sol\":1718:1799  _callOptionalReturn(token, abi.encodeCall(token.transferFrom, (from, to, value))) */\n    tag_145:\n        /* \"@openzeppelin/contracts/token/ERC20/utils/SafeERC20.sol\":1618:1806  function safeTransferFrom(IERC20 token, address from, address to, uint256 value) internal {... */\n      pop\n      pop\n      pop\n      pop\n      jump\t// out\n        /* \"@openzeppelin/contracts/token/ERC20/utils/SafeERC20.sol\":8370:9090  function _callOptionalReturn(IERC20 token, bytes memory data) private {... */\n    tag_139:\n        /* \"@openzeppelin/contracts/token/ERC20/utils/SafeERC20.sol\":8450:8468  uint256 returnSize */\n      0x00\n        /* \"@openzeppelin/contracts/token/ERC20/utils/SafeERC20.sol\":8478:8497  uint256 returnValue */\n      dup1\n        /* \"@openzeppelin/contracts/token/ERC20/utils/SafeERC20.sol\":8616:8620  0x20 */\n      0x20\n        /* \"@openzeppelin/contracts/token/ERC20/utils/SafeERC20.sol\":8613:8614  0 */\n      0x00\n        /* \"@openzeppelin/contracts/token/ERC20/utils/SafeERC20.sol\":8606:8610  data */\n      dup5\n        /* \"@openzeppelin/contracts/token/ERC20/utils/SafeERC20.sol\":8600:8611  mload(data) */\n      mload\n        /* \"@openzeppelin/contracts/token/ERC20/utils/SafeERC20.sol\":8593:8597  0x20 */\n      0x20\n        /* \"@openzeppelin/contracts/token/ERC20/utils/SafeERC20.sol\":8587:8591  data */\n      dup7\n        /* \"@openzeppelin/contracts/token/ERC20/utils/SafeERC20.sol\":8583:8598  add(data, 0x20) */\n      add\n        /* \"@openzeppelin/contracts/token/ERC20/utils/SafeERC20.sol\":8580:8581  0 */\n      0x00\n        /* \"@openzeppelin/contracts/token/ERC20/utils/SafeERC20.sol\":8573:8578  token */\n      dup9\n        /* \"@openzeppelin/contracts/token/ERC20/utils/SafeERC20.sol\":8566:8571  gas() */\n      gas\n        /* \"@openzeppelin/contracts/token/ERC20/utils/SafeERC20.sol\":8561:8621  call(gas(), token, 0, add(data, 0x20), mload(data), 0, 0x20) */\n      call\n        /* \"@openzeppelin/contracts/token/ERC20/utils/SafeERC20.sol\":8673:8680  success */\n      dup1\n        /* \"@openzeppelin/contracts/token/ERC20/utils/SafeERC20.sol\":8663:8839  if iszero(success) {... */\n      tag_150\n      jumpi\n        /* \"@openzeppelin/contracts/token/ERC20/utils/SafeERC20.sol\":8717:8721  0x40 */\n      0x40\n        /* \"@openzeppelin/contracts/token/ERC20/utils/SafeERC20.sol\":8711:8722  mload(0x40) */\n      mload\n        /* \"@openzeppelin/contracts/token/ERC20/utils/SafeERC20.sol\":8762:8778  returndatasize() */\n      returndatasize\n        /* \"@openzeppelin/contracts/token/ERC20/utils/SafeERC20.sol\":8759:8760  0 */\n      0x00\n        /* \"@openzeppelin/contracts/token/ERC20/utils/SafeERC20.sol\":8754:8757  ptr */\n      dup3\n        /* \"@openzeppelin/contracts/token/ERC20/utils/SafeERC20.sol\":8739:8779  returndatacopy(ptr, 0, returndatasize()) */\n      returndatacopy\n        /* \"@openzeppelin/contracts/token/ERC20/utils/SafeERC20.sol\":8808:8824  returndatasize() */\n      returndatasize\n        /* \"@openzeppelin/contracts/token/ERC20/utils/SafeERC20.sol\":8803:8806  ptr */\n      dup2\n        /* \"@openzeppelin/contracts/token/ERC20/utils/SafeERC20.sol\":8796:8825  revert(ptr, returndatasize()) */\n      revert\n        /* \"@openzeppelin/contracts/token/ERC20/utils/SafeERC20.sol\":8663:8839  if iszero(success) {... */\n    tag_150:\n      pop\n      pop\n        /* \"@openzeppelin/contracts/token/ERC20/utils/SafeERC20.sol\":8916:8917  0 */\n      0x00\n        /* \"@openzeppelin/contracts/token/ERC20/utils/SafeERC20.sol\":8910:8918  mload(0) */\n      mload\n        /* \"@openzeppelin/contracts/token/ERC20/utils/SafeERC20.sol\":8866:8882  returndatasize() */\n      returndatasize\n      swap2\n      pop\n        /* \"@openzeppelin/contracts/token/ERC20/utils/SafeERC20.sol\":8942:8957  returnSize == 0 */\n      dup2\n      iszero\n        /* \"@openzeppelin/contracts/token/ERC20/utils/SafeERC20.sol\":8942:9010  returnSize == 0 ? address(token).code.length == 0 : returnValue != 1 */\n      tag_151\n      jumpi\n        /* \"@openzeppelin/contracts/token/ERC20/utils/SafeERC20.sol\":8994:9005  returnValue */\n      dup1\n        /* \"@openzeppelin/contracts/token/ERC20/utils/SafeERC20.sol\":9009:9010  1 */\n      0x01\n        /* \"@openzeppelin/contracts/token/ERC20/utils/SafeERC20.sol\":8994:9010  returnValue != 1 */\n      eq\n      iszero\n        /* \"@openzeppelin/contracts/token/ERC20/utils/SafeERC20.sol\":8942:9010  returnSize == 0 ? address(token).code.length == 0 : returnValue != 1 */\n      jump(tag_152)\n    tag_151:\n      sub(shl(0xa0, 0x01), 0x01)\n        /* \"@openzeppelin/contracts/token/ERC20/utils/SafeERC20.sol\":8960:8986  address(token).code.length */\n      dup5\n      and\n      extcodesize\n        /* \"@openzeppelin/contracts/token/ERC20/utils/SafeERC20.sol\":8960:8991  address(token).code.length == 0 */\n      iszero\n        /* \"@openzeppelin/contracts/token/ERC20/utils/SafeERC20.sol\":8942:9010  returnSize == 0 ? address(token).code.length == 0 : returnValue != 1 */\n    tag_152:\n        /* \"@openzeppelin/contracts/token/ERC20/utils/SafeERC20.sol\":8938:9084  if (returnSize == 0 ? address(token).code.length == 0 : returnValue != 1) {... */\n      iszero\n      tag_145\n      jumpi\n        /* \"@openzeppelin/contracts/token/ERC20/utils/SafeERC20.sol\":9033:9073  SafeERC20FailedOperation(address(token)) */\n      mload(0x40)\n      shl(0xe0, 0x5274afe7)\n      dup2\n      mstore\n      sub(shl(0xa0, 0x01), 0x01)\n        /* \"#utility.yul\":178:210   */\n      dup6\n      and\n        /* \"@openzeppelin/contracts/token/ERC20/utils/SafeERC20.sol\":9033:9073  SafeERC20FailedOperation(address(token)) */\n      0x04\n      dup3\n      add\n        /* \"#utility.yul\":160:211   */\n      mstore\n        /* \"#utility.yul\":133:151   */\n      0x24\n      add\n        /* \"@openzeppelin/contracts/token/ERC20/utils/SafeERC20.sol\":9033:9073  SafeERC20FailedOperation(address(token)) */\n      tag_58\n        /* \"#utility.yul\":14:217   */\n      jump\n        /* \"#utility.yul\":222:361   */\n    tag_155:\n      sub(shl(0xa0, 0x01), 0x01)\n        /* \"#utility.yul\":305:336   */\n      dup2\n      and\n        /* \"#utility.yul\":295:337   */\n      dup2\n      eq\n        /* \"#utility.yul\":285:355   */\n      tag_159\n      jumpi\n        /* \"#utility.yul\":351:352   */\n      0x00\n        /* \"#utility.yul\":348:349   */\n      dup1\n        /* \"#utility.yul\":341:353   */\n      revert\n        /* \"#utility.yul\":285:355   */\n    tag_159:\n        /* \"#utility.yul\":222:361   */\n      pop\n      jump\t// out\n        /* \"#utility.yul\":366:629   */\n    tag_27:\n        /* \"#utility.yul\":433:439   */\n      0x00\n        /* \"#utility.yul\":486:488   */\n      0x20\n        /* \"#utility.yul\":474:483   */\n      dup3\n        /* \"#utility.yul\":465:472   */\n      dup5\n        /* \"#utility.yul\":461:484   */\n      sub\n        /* \"#utility.yul\":457:489   */\n      slt\n        /* \"#utility.yul\":454:506   */\n      iszero\n      tag_161\n      jumpi\n        /* \"#utility.yul\":502:503   */\n      0x00\n        /* \"#utility.yul\":499:500   */\n      dup1\n        /* \"#utility.yul\":492:504   */\n      revert\n        /* \"#utility.yul\":454:506   */\n    tag_161:\n        /* \"#utility.yul\":541:550   */\n      dup2\n        /* \"#utility.yul\":528:551   */\n      calldataload\n        /* \"#utility.yul\":560:599   */\n      tag_162\n        /* \"#utility.yul\":593:598   */\n      dup2\n        /* \"#utility.yul\":560:599   */\n      tag_155\n      jump\t// in\n    tag_162:\n        /* \"#utility.yul\":618:623   */\n      swap4\n        /* \"#utility.yul\":366:629   */\n      swap3\n      pop\n      pop\n      pop\n      jump\t// out\n        /* \"#utility.yul\":634:1038   */\n    tag_32:\n        /* \"#utility.yul\":702:708   */\n      0x00\n        /* \"#utility.yul\":710:716   */\n      dup1\n        /* \"#utility.yul\":763:765   */\n      0x40\n        /* \"#utility.yul\":751:760   */\n      dup4\n        /* \"#utility.yul\":742:749   */\n      dup6\n        /* \"#utility.yul\":738:761   */\n      sub\n        /* \"#utility.yul\":734:766   */\n      slt\n        /* \"#utility.yul\":731:783   */\n      iszero\n      tag_164\n      jumpi\n        /* \"#utility.yul\":779:780   */\n      0x00\n        /* \"#utility.yul\":776:777   */\n      dup1\n        /* \"#utility.yul\":769:781   */\n      revert\n        /* \"#utility.yul\":731:783   */\n    tag_164:\n        /* \"#utility.yul\":818:827   */\n      dup3\n        /* \"#utility.yul\":805:828   */\n      calldataload\n        /* \"#utility.yul\":837:876   */\n      tag_165\n        /* \"#utility.yul\":870:875   */\n      dup2\n        /* \"#utility.yul\":837:876   */\n      tag_155\n      jump\t// in\n    tag_165:\n        /* \"#utility.yul\":895:900   */\n      swap2\n      pop\n        /* \"#utility.yul\":952:954   */\n      0x20\n        /* \"#utility.yul\":937:955   */\n      dup4\n      add\n        /* \"#utility.yul\":924:956   */\n      calldataload\n        /* \"#utility.yul\":965:1006   */\n      tag_166\n        /* \"#utility.yul\":924:956   */\n      dup2\n        /* \"#utility.yul\":965:1006   */\n      tag_155\n      jump\t// in\n    tag_166:\n        /* \"#utility.yul\":1025:1032   */\n      dup1\n        /* \"#utility.yul\":1015:1032   */\n      swap2\n      pop\n      pop\n        /* \"#utility.yul\":634:1038   */\n      swap3\n      pop\n      swap3\n      swap1\n      pop\n      jump\t// out\n        /* \"#utility.yul\":1043:1291   */\n    tag_41:\n        /* \"#utility.yul\":1111:1117   */\n      0x00\n        /* \"#utility.yul\":1119:1125   */\n      dup1\n        /* \"#utility.yul\":1172:1174   */\n      0x40\n        /* \"#utility.yul\":1160:1169   */\n      dup4\n        /* \"#utility.yul\":1151:1158   */\n      dup6\n        /* \"#utility.yul\":1147:1170   */\n      sub\n        /* \"#utility.yul\":1143:1175   */\n      slt\n        /* \"#utility.yul\":1140:1192   */\n      iszero\n      tag_168\n      jumpi\n        /* \"#utility.yul\":1188:1189   */\n      0x00\n        /* \"#utility.yul\":1185:1186   */\n      dup1\n        /* \"#utility.yul\":1178:1190   */\n      revert\n        /* \"#utility.yul\":1140:1192   */\n    tag_168:\n      pop\n      pop\n        /* \"#utility.yul\":1211:1234   */\n      dup1\n      calldataload\n      swap3\n        /* \"#utility.yul\":1281:1283   */\n      0x20\n        /* \"#utility.yul\":1266:1284   */\n      swap1\n      swap2\n      add\n        /* \"#utility.yul\":1253:1285   */\n      calldataload\n      swap2\n      pop\n        /* \"#utility.yul\":1043:1291   */\n      jump\t// out\n        /* \"#utility.yul\":1556:1890   */\n    tag_59:\n        /* \"#utility.yul\":1758:1760   */\n      0x20\n        /* \"#utility.yul\":1740:1761   */\n      dup1\n      dup3\n      mstore\n        /* \"#utility.yul\":1797:1799   */\n      0x0a\n        /* \"#utility.yul\":1777:1795   */\n      swap1\n      dup3\n      add\n        /* \"#utility.yul\":1770:1800   */\n      mstore\n      shl(0xb1, 0x27b7363c9037bbb732b9)\n        /* \"#utility.yul\":1831:1833   */\n      0x40\n        /* \"#utility.yul\":1816:1834   */\n      dup3\n      add\n        /* \"#utility.yul\":1809:1849   */\n      mstore\n        /* \"#utility.yul\":1881:1883   */\n      0x60\n        /* \"#utility.yul\":1866:1884   */\n      add\n      swap1\n        /* \"#utility.yul\":1556:1890   */\n      jump\t// out\n        /* \"#utility.yul\":2420:2604   */\n    tag_76:\n        /* \"#utility.yul\":2490:2496   */\n      0x00\n        /* \"#utility.yul\":2543:2545   */\n      0x20\n        /* \"#utility.yul\":2531:2540   */\n      dup3\n        /* \"#utility.yul\":2522:2529   */\n      dup5\n        /* \"#utility.yul\":2518:2541   */\n      sub\n        /* \"#utility.yul\":2514:2546   */\n      slt\n        /* \"#utility.yul\":2511:2563   */\n      iszero\n      tag_176\n      jumpi\n        /* \"#utility.yul\":2559:2560   */\n      0x00\n        /* \"#utility.yul\":2556:2557   */\n      dup1\n        /* \"#utility.yul\":2549:2561   */\n      revert\n        /* \"#utility.yul\":2511:2563   */\n    tag_176:\n      pop\n        /* \"#utility.yul\":2582:2598   */\n      mload\n      swap2\n        /* \"#utility.yul\":2420:2604   */\n      swap1\n      pop\n      jump\t// out\n        /* \"#utility.yul\":3904:4181   */\n    tag_103:\n        /* \"#utility.yul\":3971:3977   */\n      0x00\n        /* \"#utility.yul\":4024:4026   */\n      0x20\n        /* \"#utility.yul\":4012:4021   */\n      dup3\n        /* \"#utility.yul\":4003:4010   */\n      dup5\n        /* \"#utility.yul\":3999:4022   */\n      sub\n        /* \"#utility.yul\":3995:4027   */\n      slt\n        /* \"#utility.yul\":3992:4044   */\n      iszero\n      tag_182\n      jumpi\n        /* \"#utility.yul\":4040:4041   */\n      0x00\n        /* \"#utility.yul\":4037:4038   */\n      dup1\n        /* \"#utility.yul\":4030:4042   */\n      revert\n        /* \"#utility.yul\":3992:4044   */\n    tag_182:\n        /* \"#utility.yul\":4072:4081   */\n      dup2\n        /* \"#utility.yul\":4066:4082   */\n      mload\n        /* \"#utility.yul\":4125:4130   */\n      dup1\n        /* \"#utility.yul\":4118:4131   */\n      iszero\n        /* \"#utility.yul\":4111:4132   */\n      iszero\n        /* \"#utility.yul\":4104:4109   */\n      dup2\n        /* \"#utility.yul\":4101:4133   */\n      eq\n        /* \"#utility.yul\":4091:4151   */\n      tag_162\n      jumpi\n        /* \"#utility.yul\":4147:4148   */\n      0x00\n        /* \"#utility.yul\":4144:4145   */\n      dup1\n        /* \"#utility.yul\":4137:4149   */\n      revert\n        /* \"#utility.yul\":4597:4724   */\n    tag_115:\n        /* \"#utility.yul\":4658:4668   */\n      0x4e487b71\n        /* \"#utility.yul\":4653:4656   */\n      0xe0\n        /* \"#utility.yul\":4649:4669   */\n      shl\n        /* \"#utility.yul\":4646:4647   */\n      0x00\n        /* \"#utility.yul\":4639:4670   */\n      mstore\n        /* \"#utility.yul\":4689:4693   */\n      0x32\n        /* \"#utility.yul\":4686:4687   */\n      0x04\n        /* \"#utility.yul\":4679:4694   */\n      mstore\n        /* \"#utility.yul\":4713:4717   */\n      0x24\n        /* \"#utility.yul\":4710:4711   */\n      0x00\n        /* \"#utility.yul\":4703:4718   */\n      revert\n        /* \"#utility.yul\":4729:4951   */\n    tag_119:\n        /* \"#utility.yul\":4794:4803   */\n      dup1\n      dup3\n      add\n        /* \"#utility.yul\":4815:4825   */\n      dup1\n      dup3\n      gt\n        /* \"#utility.yul\":4812:4945   */\n      iszero\n      tag_188\n      jumpi\n        /* \"#utility.yul\":4867:4877   */\n      0x4e487b71\n        /* \"#utility.yul\":4862:4865   */\n      0xe0\n        /* \"#utility.yul\":4858:4878   */\n      shl\n        /* \"#utility.yul\":4855:4856   */\n      0x00\n        /* \"#utility.yul\":4848:4879   */\n      mstore\n        /* \"#utility.yul\":4902:4906   */\n      0x11\n        /* \"#utility.yul\":4899:4900   */\n      0x04\n        /* \"#utility.yul\":4892:4907   */\n      mstore\n        /* \"#utility.yul\":4930:4934   */\n      0x24\n        /* \"#utility.yul\":4927:4928   */\n      0x00\n        /* \"#utility.yul\":4920:4935   */\n      revert\n        /* \"#utility.yul\":4812:4945   */\n    tag_188:\n        /* \"#utility.yul\":4729:4951   */\n      swap3\n      swap2\n      pop\n      pop\n      jump\t// out\n        /* \"#utility.yul\":4956:5928   */\n    tag_121:\n        /* \"#utility.yul\":5210:5214   */\n      0x00\n        /* \"#utility.yul\":5258:5261   */\n      0xa0\n        /* \"#utility.yul\":5247:5256   */\n      dup3\n        /* \"#utility.yul\":5243:5262   */\n      add\n        /* \"#utility.yul\":5289:5295   */\n      dup8\n        /* \"#utility.yul\":5278:5287   */\n      dup4\n        /* \"#utility.yul\":5271:5296   */\n      mstore\n        /* \"#utility.yul\":5315:5317   */\n      0x20\n        /* \"#utility.yul\":5353:5359   */\n      dup8\n        /* \"#utility.yul\":5348:5350   */\n      0x20\n        /* \"#utility.yul\":5337:5346   */\n      dup6\n        /* \"#utility.yul\":5333:5351   */\n      add\n        /* \"#utility.yul\":5326:5360   */\n      mstore\n        /* \"#utility.yul\":5396:5399   */\n      0xa0\n        /* \"#utility.yul\":5391:5393   */\n      0x40\n        /* \"#utility.yul\":5380:5389   */\n      dup6\n        /* \"#utility.yul\":5376:5394   */\n      add\n        /* \"#utility.yul\":5369:5400   */\n      mstore\n        /* \"#utility.yul\":5420:5426   */\n      dup2\n        /* \"#utility.yul\":5455:5461   */\n      dup8\n        /* \"#utility.yul\":5449:5462   */\n      mload\n        /* \"#utility.yul\":5486:5492   */\n      dup1\n        /* \"#utility.yul\":5478:5484   */\n      dup5\n        /* \"#utility.yul\":5471:5493   */\n      mstore\n        /* \"#utility.yul\":5524:5527   */\n      0xc0\n        /* \"#utility.yul\":5513:5522   */\n      dup7\n        /* \"#utility.yul\":5509:5528   */\n      add\n        /* \"#utility.yul\":5502:5528   */\n      swap2\n      pop\n        /* \"#utility.yul\":5563:5565   */\n      0x20\n        /* \"#utility.yul\":5555:5561   */\n      dup10\n        /* \"#utility.yul\":5551:5566   */\n      add\n        /* \"#utility.yul\":5537:5566   */\n      swap4\n      pop\n        /* \"#utility.yul\":5584:5585   */\n      0x00\n        /* \"#utility.yul\":5594:5789   */\n    tag_190:\n        /* \"#utility.yul\":5608:5614   */\n      dup2\n        /* \"#utility.yul\":5605:5606   */\n      dup2\n        /* \"#utility.yul\":5602:5615   */\n      lt\n        /* \"#utility.yul\":5594:5789   */\n      iszero\n      tag_192\n      jumpi\n        /* \"#utility.yul\":5673:5686   */\n      dup5\n      mload\n      sub(shl(0xa0, 0x01), 0x01)\n        /* \"#utility.yul\":5669:5708   */\n      and\n        /* \"#utility.yul\":5657:5709   */\n      dup4\n      mstore\n        /* \"#utility.yul\":5764:5779   */\n      swap4\n      dup4\n      add\n      swap4\n        /* \"#utility.yul\":5729:5741   */\n      swap2\n      dup4\n      add\n      swap2\n        /* \"#utility.yul\":5705:5706   */\n      0x01\n        /* \"#utility.yul\":5623:5632   */\n      add\n        /* \"#utility.yul\":5594:5789   */\n      jump(tag_190)\n    tag_192:\n      pop\n      pop\n      sub(shl(0xa0, 0x01), 0x01)\n        /* \"#utility.yul\":5845:5877   */\n      swap7\n      swap1\n      swap7\n      and\n        /* \"#utility.yul\":5840:5842   */\n      0x60\n        /* \"#utility.yul\":5825:5843   */\n      dup6\n      add\n        /* \"#utility.yul\":5818:5878   */\n      mstore\n      pop\n      pop\n      pop\n        /* \"#utility.yul\":5909:5912   */\n      0x80\n        /* \"#utility.yul\":5894:5913   */\n      add\n        /* \"#utility.yul\":5887:5922   */\n      mstore\n        /* \"#utility.yul\":5806:5809   */\n      swap4\n        /* \"#utility.yul\":4956:5928   */\n      swap3\n      pop\n      pop\n      pop\n      jump\t// out\n\n    auxdata: 0xa26469706673582212202355abe65b9c4a42ae99063172d9b7a1fdf8faf6d9cac0bb114387a35779c9e964736f6c63430008180033\n}\n",
				"bytecode": {
					"linkReferences": {},
					"object": "61010060405234801562000011575f80fd5b5060405162000f5c38038062000f5c8339810160408190526200003491620001d3565b60015f556001600160a01b038416620000945760405162461bcd60e51b815260206004820152601460248201527f496e76616c69642055534454206164647265737300000000000000000000000060448201526064015b60405180910390fd5b6001600160a01b038316620000ec5760405162461bcd60e51b815260206004820152601660248201527f496e76616c696420484954424e4220616464726573730000000000000000000060448201526064016200008b565b6001600160a01b038216620001395760405162461bcd60e51b8152602060048201526012602482015271125b9d985b1a59081493d2481dd85b1b195d60721b60448201526064016200008b565b6001600160a01b038116620001825760405162461bcd60e51b815260206004820152600e60248201526d24b73b30b634b2103937baba32b960911b60448201526064016200008b565b600180546001600160a01b031916331790556001600160a01b0393841660805291831660a052821660c0521660e0526200022d565b80516001600160a01b0381168114620001ce575f80fd5b919050565b5f805f8060808587031215620001e7575f80fd5b620001f285620001b7565b93506200020260208601620001b7565b92506200021260408601620001b7565b91506200022260608601620001b7565b905092959194509250565b60805160a05160c05160e051610cb0620002ac5f395f81816101f5015281816104f2015281816105a80152818161065801526107b201525f818160f201526107dc01525f81816101a3015261076801525f818160a3015281816104ad0152818161051c015281816105d60152818161068701526107150152610cb05ff3fe608060405260043610610087575f3560e01c80638da5cb5b116100575780638da5cb5b14610154578063e2bbb15814610173578063e8d2b57114610192578063f2fde38b146101c5578063f887ea40146101e4575f80fd5b80632f48ab7d1461009257806342d50f19146100e1578063602db890146101145780636382d9ad14610135575f80fd5b3661008e57005b5f80fd5b34801561009d575f80fd5b506100c57f000000000000000000000000000000000000000000000000000000000000000081565b6040516001600160a01b03909116815260200160405180910390f35b3480156100ec575f80fd5b506100c57f000000000000000000000000000000000000000000000000000000000000000081565b34801561011f575f80fd5b5061013361012e366004610afd565b610217565b005b348015610140575f80fd5b5061013361014f366004610b1f565b610304565b34801561015f575f80fd5b506001546100c5906001600160a01b031681565b34801561017e575f80fd5b5061013361018d366004610b56565b610440565b34801561019d575f80fd5b506100c57f000000000000000000000000000000000000000000000000000000000000000081565b3480156101d0575f80fd5b506101336101df366004610afd565b6108a5565b3480156101ef575f80fd5b506100c57f000000000000000000000000000000000000000000000000000000000000000081565b6001546001600160a01b0316331461024a5760405162461bcd60e51b815260040161024190610b76565b60405180910390fd5b47806102895760405162461bcd60e51b815260206004820152600e60248201526d4e6f20424e422062616c616e636560901b6044820152606401610241565b6040516001600160a01b0383169082156108fc029083905f818181858888f193505050501580156102bc573d5f803e3d5ffd5b50816001600160a01b03167f91045e6e748ca8a27b6e2281f519acaeec9d1c9b38a4f5003a630c2bc2fb9689826040516102f891815260200190565b60405180910390a25050565b6001546001600160a01b0316331461032e5760405162461bcd60e51b815260040161024190610b76565b6040516370a0823160e01b81523060048201525f906001600160a01b038416906370a0823190602401602060405180830381865afa158015610372573d5f803e3d5ffd5b505050506040513d601f19601f820116820180604052508101906103969190610b9a565b90505f81116103da5760405162461bcd60e51b815260206004820152601060248201526f4e6f20746f6b656e2062616c616e636560801b6044820152606401610241565b6103ee6001600160a01b0384168383610980565b816001600160a01b0316836001600160a01b03167ff24ef89f38eadc1bde50701ad6e4d6d11a2dc24f7cf834a486991f38833285048360405161043391815260200190565b60405180910390a3505050565b6104486109e4565b6729a2241af62c00008210156104a05760405162461bcd60e51b815260206004820152601960248201527f4d696e696d756d206465706f73697420697320332055534454000000000000006044820152606401610241565b6104d56001600160a01b037f000000000000000000000000000000000000000000000000000000000000000016333085610a3b565b604051636eb1769f60e11b81523060048201526001600160a01b037f0000000000000000000000000000000000000000000000000000000000000000811660248301525f917f00000000000000000000000000000000000000000000000000000000000000009091169063dd62ed3e90604401602060405180830381865afa158015610563573d5f803e3d5ffd5b505050506040513d601f19601f820116820180604052508101906105879190610b9a565b9050828110156106f35760405163095ea7b360e01b81526001600160a01b037f0000000000000000000000000000000000000000000000000000000000000000811660048301525f60248301527f0000000000000000000000000000000000000000000000000000000000000000169063095ea7b3906044016020604051808303815f875af115801561061c573d5f803e3d5ffd5b505050506040513d601f19601f820116820180604052508101906106409190610bb1565b5060405163095ea7b360e01b81526001600160a01b037f0000000000000000000000000000000000000000000000000000000000000000811660048301525f1960248301527f0000000000000000000000000000000000000000000000000000000000000000169063095ea7b3906044016020604051808303815f875af11580156106cd573d5f803e3d5ffd5b505050506040513d601f19601f820116820180604052508101906106f19190610bb1565b505b6040805160028082526060820183525f926020830190803683370190505090507f0000000000000000000000000000000000000000000000000000000000000000815f8151811061074657610746610bd0565b60200260200101906001600160a01b031690816001600160a01b0316815250507f00000000000000000000000000000000000000000000000000000000000000008160018151811061079a5761079a610bd0565b6001600160a01b0392831660209182029290920101527f000000000000000000000000000000000000000000000000000000000000000016635c11d7958585847f00000000000000000000000000000000000000000000000000000000000000006108074261012c610be4565b6040518663ffffffff1660e01b8152600401610827959493929190610c09565b5f604051808303815f87803b15801561083e575f80fd5b505af1158015610850573d5f803e3d5ffd5b50506040805187815260208101879052428183015290513393507fd0dfdc42f329395b5b942c700951e54f587bd4bb1f893019dd09d857c2b5ad7f92509081900360600190a250506108a160015f55565b5050565b6001546001600160a01b031633146108cf5760405162461bcd60e51b815260040161024190610b76565b6001600160a01b0381166109255760405162461bcd60e51b815260206004820152601960248201527f4e6577206f776e6572206973207a65726f2061646472657373000000000000006044820152606401610241565b6001546040516001600160a01b038084169216907f8be0079c531659141344cd1fd0a4f28419497f9722a3daafe3b4186f6b6457e0905f90a3600180546001600160a01b0319166001600160a01b0392909216919091179055565b6040516001600160a01b038381166024830152604482018390526109df91859182169063a9059cbb906064015b604051602081830303815290604052915060e01b6020820180516001600160e01b038381831617835250505050610a7a565b505050565b60025f5403610a355760405162461bcd60e51b815260206004820152601f60248201527f5265656e7472616e637947756172643a207265656e7472616e742063616c6c006044820152606401610241565b60025f55565b6040516001600160a01b038481166024830152838116604483015260648201839052610a749186918216906323b872dd906084016109ad565b50505050565b5f8060205f8451602086015f885af180610a99576040513d5f823e3d81fd5b50505f513d91508115610ab0578060011415610abd565b6001600160a01b0384163b155b15610a7457604051635274afe760e01b81526001600160a01b0385166004820152602401610241565b6001600160a01b0381168114610afa575f80fd5b50565b5f60208284031215610b0d575f80fd5b8135610b1881610ae6565b9392505050565b5f8060408385031215610b30575f80fd5b8235610b3b81610ae6565b91506020830135610b4b81610ae6565b809150509250929050565b5f8060408385031215610b67575f80fd5b50508035926020909101359150565b6020808252600a908201526927b7363c9037bbb732b960b11b604082015260600190565b5f60208284031215610baa575f80fd5b5051919050565b5f60208284031215610bc1575f80fd5b81518015158114610b18575f80fd5b634e487b7160e01b5f52603260045260245ffd5b80820180821115610c0357634e487b7160e01b5f52601160045260245ffd5b92915050565b5f60a08201878352602087602085015260a0604085015281875180845260c0860191506020890193505f5b81811015610c595784516001600160a01b031683529383019391830191600101610c34565b50506001600160a01b0396909616606085015250505060800152939250505056fea26469706673582212202355abe65b9c4a42ae99063172d9b7a1fdf8faf6d9cac0bb114387a35779c9e964736f6c63430008180033",
					"opcodes": "PUSH2 0x100 PUSH1 0x40 MSTORE CALLVALUE DUP1 ISZERO PUSH3 0x11 JUMPI PUSH0 DUP1 REVERT JUMPDEST POP PUSH1 0x40 MLOAD PUSH3 0xF5C CODESIZE SUB DUP1 PUSH3 0xF5C DUP4 CODECOPY DUP2 ADD PUSH1 0x40 DUP2 SWAP1 MSTORE PUSH3 0x34 SWAP2 PUSH3 0x1D3 JUMP JUMPDEST PUSH1 0x1 PUSH0 SSTORE PUSH1 0x1 PUSH1 0x1 PUSH1 0xA0 SHL SUB DUP5 AND PUSH3 0x94 JUMPI PUSH1 0x40 MLOAD PUSH3 0x461BCD PUSH1 0xE5 SHL DUP2 MSTORE PUSH1 0x20 PUSH1 0x4 DUP3 ADD MSTORE PUSH1 0x14 PUSH1 0x24 DUP3 ADD MSTORE PUSH32 0x496E76616C696420555344542061646472657373000000000000000000000000 PUSH1 0x44 DUP3 ADD MSTORE PUSH1 0x64 ADD JUMPDEST PUSH1 0x40 MLOAD DUP1 SWAP2 SUB SWAP1 REVERT JUMPDEST PUSH1 0x1 PUSH1 0x1 PUSH1 0xA0 SHL SUB DUP4 AND PUSH3 0xEC JUMPI PUSH1 0x40 MLOAD PUSH3 0x461BCD PUSH1 0xE5 SHL DUP2 MSTORE PUSH1 0x20 PUSH1 0x4 DUP3 ADD MSTORE PUSH1 0x16 PUSH1 0x24 DUP3 ADD MSTORE PUSH32 0x496E76616C696420484954424E42206164647265737300000000000000000000 PUSH1 0x44 DUP3 ADD MSTORE PUSH1 0x64 ADD PUSH3 0x8B JUMP JUMPDEST PUSH1 0x1 PUSH1 0x1 PUSH1 0xA0 SHL SUB DUP3 AND PUSH3 0x139 JUMPI PUSH1 0x40 MLOAD PUSH3 0x461BCD PUSH1 0xE5 SHL DUP2 MSTORE PUSH1 0x20 PUSH1 0x4 DUP3 ADD MSTORE PUSH1 0x12 PUSH1 0x24 DUP3 ADD MSTORE PUSH18 0x125B9D985B1A59081493D2481DD85B1B195D PUSH1 0x72 SHL PUSH1 0x44 DUP3 ADD MSTORE PUSH1 0x64 ADD PUSH3 0x8B JUMP JUMPDEST PUSH1 0x1 PUSH1 0x1 PUSH1 0xA0 SHL SUB DUP2 AND PUSH3 0x182 JUMPI PUSH1 0x40 MLOAD PUSH3 0x461BCD PUSH1 0xE5 SHL DUP2 MSTORE PUSH1 0x20 PUSH1 0x4 DUP3 ADD MSTORE PUSH1 0xE PUSH1 0x24 DUP3 ADD MSTORE PUSH14 0x24B73B30B634B2103937BABA32B9 PUSH1 0x91 SHL PUSH1 0x44 DUP3 ADD MSTORE PUSH1 0x64 ADD PUSH3 0x8B JUMP JUMPDEST PUSH1 0x1 DUP1 SLOAD PUSH1 0x1 PUSH1 0x1 PUSH1 0xA0 SHL SUB NOT AND CALLER OR SWAP1 SSTORE PUSH1 0x1 PUSH1 0x1 PUSH1 0xA0 SHL SUB SWAP4 DUP5 AND PUSH1 0x80 MSTORE SWAP2 DUP4 AND PUSH1 0xA0 MSTORE DUP3 AND PUSH1 0xC0 MSTORE AND PUSH1 0xE0 MSTORE PUSH3 0x22D JUMP JUMPDEST DUP1 MLOAD PUSH1 0x1 PUSH1 0x1 PUSH1 0xA0 SHL SUB DUP2 AND DUP2 EQ PUSH3 0x1CE JUMPI PUSH0 DUP1 REVERT JUMPDEST SWAP2 SWAP1 POP JUMP JUMPDEST PUSH0 DUP1 PUSH0 DUP1 PUSH1 0x80 DUP6 DUP8 SUB SLT ISZERO PUSH3 0x1E7 JUMPI PUSH0 DUP1 REVERT JUMPDEST PUSH3 0x1F2 DUP6 PUSH3 0x1B7 JUMP JUMPDEST SWAP4 POP PUSH3 0x202 PUSH1 0x20 DUP7 ADD PUSH3 0x1B7 JUMP JUMPDEST SWAP3 POP PUSH3 0x212 PUSH1 0x40 DUP7 ADD PUSH3 0x1B7 JUMP JUMPDEST SWAP2 POP PUSH3 0x222 PUSH1 0x60 DUP7 ADD PUSH3 0x1B7 JUMP JUMPDEST SWAP1 POP SWAP3 SWAP6 SWAP2 SWAP5 POP SWAP3 POP JUMP JUMPDEST PUSH1 0x80 MLOAD PUSH1 0xA0 MLOAD PUSH1 0xC0 MLOAD PUSH1 0xE0 MLOAD PUSH2 0xCB0 PUSH3 0x2AC PUSH0 CODECOPY PUSH0 DUP2 DUP2 PUSH2 0x1F5 ADD MSTORE DUP2 DUP2 PUSH2 0x4F2 ADD MSTORE DUP2 DUP2 PUSH2 0x5A8 ADD MSTORE DUP2 DUP2 PUSH2 0x658 ADD MSTORE PUSH2 0x7B2 ADD MSTORE PUSH0 DUP2 DUP2 PUSH1 0xF2 ADD MSTORE PUSH2 0x7DC ADD MSTORE PUSH0 DUP2 DUP2 PUSH2 0x1A3 ADD MSTORE PUSH2 0x768 ADD MSTORE PUSH0 DUP2 DUP2 PUSH1 0xA3 ADD MSTORE DUP2 DUP2 PUSH2 0x4AD ADD MSTORE DUP2 DUP2 PUSH2 0x51C ADD MSTORE DUP2 DUP2 PUSH2 0x5D6 ADD MSTORE DUP2 DUP2 PUSH2 0x687 ADD MSTORE PUSH2 0x715 ADD MSTORE PUSH2 0xCB0 PUSH0 RETURN INVALID PUSH1 0x80 PUSH1 0x40 MSTORE PUSH1 0x4 CALLDATASIZE LT PUSH2 0x87 JUMPI PUSH0 CALLDATALOAD PUSH1 0xE0 SHR DUP1 PUSH4 0x8DA5CB5B GT PUSH2 0x57 JUMPI DUP1 PUSH4 0x8DA5CB5B EQ PUSH2 0x154 JUMPI DUP1 PUSH4 0xE2BBB158 EQ PUSH2 0x173 JUMPI DUP1 PUSH4 0xE8D2B571 EQ PUSH2 0x192 JUMPI DUP1 PUSH4 0xF2FDE38B EQ PUSH2 0x1C5 JUMPI DUP1 PUSH4 0xF887EA40 EQ PUSH2 0x1E4 JUMPI PUSH0 DUP1 REVERT JUMPDEST DUP1 PUSH4 0x2F48AB7D EQ PUSH2 0x92 JUMPI DUP1 PUSH4 0x42D50F19 EQ PUSH2 0xE1 JUMPI DUP1 PUSH4 0x602DB890 EQ PUSH2 0x114 JUMPI DUP1 PUSH4 0x6382D9AD EQ PUSH2 0x135 JUMPI PUSH0 DUP1 REVERT JUMPDEST CALLDATASIZE PUSH2 0x8E JUMPI STOP JUMPDEST PUSH0 DUP1 REVERT JUMPDEST CALLVALUE DUP1 ISZERO PUSH2 0x9D JUMPI PUSH0 DUP1 REVERT JUMPDEST POP PUSH2 0xC5 PUSH32 0x0 DUP2 JUMP JUMPDEST PUSH1 0x40 MLOAD PUSH1 0x1 PUSH1 0x1 PUSH1 0xA0 SHL SUB SWAP1 SWAP2 AND DUP2 MSTORE PUSH1 0x20 ADD PUSH1 0x40 MLOAD DUP1 SWAP2 SUB SWAP1 RETURN JUMPDEST CALLVALUE DUP1 ISZERO PUSH2 0xEC JUMPI PUSH0 DUP1 REVERT JUMPDEST POP PUSH2 0xC5 PUSH32 0x0 DUP2 JUMP JUMPDEST CALLVALUE DUP1 ISZERO PUSH2 0x11F JUMPI PUSH0 DUP1 REVERT JUMPDEST POP PUSH2 0x133 PUSH2 0x12E CALLDATASIZE PUSH1 0x4 PUSH2 0xAFD JUMP JUMPDEST PUSH2 0x217 JUMP JUMPDEST STOP JUMPDEST CALLVALUE DUP1 ISZERO PUSH2 0x140 JUMPI PUSH0 DUP1 REVERT JUMPDEST POP PUSH2 0x133 PUSH2 0x14F CALLDATASIZE PUSH1 0x4 PUSH2 0xB1F JUMP JUMPDEST PUSH2 0x304 JUMP JUMPDEST CALLVALUE DUP1 ISZERO PUSH2 0x15F JUMPI PUSH0 DUP1 REVERT JUMPDEST POP PUSH1 0x1 SLOAD PUSH2 0xC5 SWAP1 PUSH1 0x1 PUSH1 0x1 PUSH1 0xA0 SHL SUB AND DUP2 JUMP JUMPDEST CALLVALUE DUP1 ISZERO PUSH2 0x17E JUMPI PUSH0 DUP1 REVERT JUMPDEST POP PUSH2 0x133 PUSH2 0x18D CALLDATASIZE PUSH1 0x4 PUSH2 0xB56 JUMP JUMPDEST PUSH2 0x440 JUMP JUMPDEST CALLVALUE DUP1 ISZERO PUSH2 0x19D JUMPI PUSH0 DUP1 REVERT JUMPDEST POP PUSH2 0xC5 PUSH32 0x0 DUP2 JUMP JUMPDEST CALLVALUE DUP1 ISZERO PUSH2 0x1D0 JUMPI PUSH0 DUP1 REVERT JUMPDEST POP PUSH2 0x133 PUSH2 0x1DF CALLDATASIZE PUSH1 0x4 PUSH2 0xAFD JUMP JUMPDEST PUSH2 0x8A5 JUMP JUMPDEST CALLVALUE DUP1 ISZERO PUSH2 0x1EF JUMPI PUSH0 DUP1 REVERT JUMPDEST POP PUSH2 0xC5 PUSH32 0x0 DUP2 JUMP JUMPDEST PUSH1 0x1 SLOAD PUSH1 0x1 PUSH1 0x1 PUSH1 0xA0 SHL SUB AND CALLER EQ PUSH2 0x24A JUMPI PUSH1 0x40 MLOAD PUSH3 0x461BCD PUSH1 0xE5 SHL DUP2 MSTORE PUSH1 0x4 ADD PUSH2 0x241 SWAP1 PUSH2 0xB76 JUMP JUMPDEST PUSH1 0x40 MLOAD DUP1 SWAP2 SUB SWAP1 REVERT JUMPDEST SELFBALANCE DUP1 PUSH2 0x289 JUMPI PUSH1 0x40 MLOAD PUSH3 0x461BCD PUSH1 0xE5 SHL DUP2 MSTORE PUSH1 0x20 PUSH1 0x4 DUP3 ADD MSTORE PUSH1 0xE PUSH1 0x24 DUP3 ADD MSTORE PUSH14 0x4E6F20424E422062616C616E6365 PUSH1 0x90 SHL PUSH1 0x44 DUP3 ADD MSTORE PUSH1 0x64 ADD PUSH2 0x241 JUMP JUMPDEST PUSH1 0x40 MLOAD PUSH1 0x1 PUSH1 0x1 PUSH1 0xA0 SHL SUB DUP4 AND SWAP1 DUP3 ISZERO PUSH2 0x8FC MUL SWAP1 DUP4 SWAP1 PUSH0 DUP2 DUP2 DUP2 DUP6 DUP9 DUP9 CALL SWAP4 POP POP POP POP ISZERO DUP1 ISZERO PUSH2 0x2BC JUMPI RETURNDATASIZE PUSH0 DUP1 RETURNDATACOPY RETURNDATASIZE PUSH0 REVERT JUMPDEST POP DUP2 PUSH1 0x1 PUSH1 0x1 PUSH1 0xA0 SHL SUB AND PUSH32 0x91045E6E748CA8A27B6E2281F519ACAEEC9D1C9B38A4F5003A630C2BC2FB9689 DUP3 PUSH1 0x40 MLOAD PUSH2 0x2F8 SWAP2 DUP2 MSTORE PUSH1 0x20 ADD SWAP1 JUMP JUMPDEST PUSH1 0x40 MLOAD DUP1 SWAP2 SUB SWAP1 LOG2 POP POP JUMP JUMPDEST PUSH1 0x1 SLOAD PUSH1 0x1 PUSH1 0x1 PUSH1 0xA0 SHL SUB AND CALLER EQ PUSH2 0x32E JUMPI PUSH1 0x40 MLOAD PUSH3 0x461BCD PUSH1 0xE5 SHL DUP2 MSTORE PUSH1 0x4 ADD PUSH2 0x241 SWAP1 PUSH2 0xB76 JUMP JUMPDEST PUSH1 0x40 MLOAD PUSH4 0x70A08231 PUSH1 0xE0 SHL DUP2 MSTORE ADDRESS PUSH1 0x4 DUP3 ADD MSTORE PUSH0 SWAP1 PUSH1 0x1 PUSH1 0x1 PUSH1 0xA0 SHL SUB DUP5 AND SWAP1 PUSH4 0x70A08231 SWAP1 PUSH1 0x24 ADD PUSH1 0x20 PUSH1 0x40 MLOAD DUP1 DUP4 SUB DUP2 DUP7 GAS STATICCALL ISZERO DUP1 ISZERO PUSH2 0x372 JUMPI RETURNDATASIZE PUSH0 DUP1 RETURNDATACOPY RETURNDATASIZE PUSH0 REVERT JUMPDEST POP POP POP POP PUSH1 0x40 MLOAD RETURNDATASIZE PUSH1 0x1F NOT PUSH1 0x1F DUP3 ADD AND DUP3 ADD DUP1 PUSH1 0x40 MSTORE POP DUP2 ADD SWAP1 PUSH2 0x396 SWAP2 SWAP1 PUSH2 0xB9A JUMP JUMPDEST SWAP1 POP PUSH0 DUP2 GT PUSH2 0x3DA JUMPI PUSH1 0x40 MLOAD PUSH3 0x461BCD PUSH1 0xE5 SHL DUP2 MSTORE PUSH1 0x20 PUSH1 0x4 DUP3 ADD MSTORE PUSH1 0x10 PUSH1 0x24 DUP3 ADD MSTORE PUSH16 0x4E6F20746F6B656E2062616C616E6365 PUSH1 0x80 SHL PUSH1 0x44 DUP3 ADD MSTORE PUSH1 0x64 ADD PUSH2 0x241 JUMP JUMPDEST PUSH2 0x3EE PUSH1 0x1 PUSH1 0x1 PUSH1 0xA0 SHL SUB DUP5 AND DUP4 DUP4 PUSH2 0x980 JUMP JUMPDEST DUP2 PUSH1 0x1 PUSH1 0x1 PUSH1 0xA0 SHL SUB AND DUP4 PUSH1 0x1 PUSH1 0x1 PUSH1 0xA0 SHL SUB AND PUSH32 0xF24EF89F38EADC1BDE50701AD6E4D6D11A2DC24F7CF834A486991F3883328504 DUP4 PUSH1 0x40 MLOAD PUSH2 0x433 SWAP2 DUP2 MSTORE PUSH1 0x20 ADD SWAP1 JUMP JUMPDEST PUSH1 0x40 MLOAD DUP1 SWAP2 SUB SWAP1 LOG3 POP POP POP JUMP JUMPDEST PUSH2 0x448 PUSH2 0x9E4 JUMP JUMPDEST PUSH8 0x29A2241AF62C0000 DUP3 LT ISZERO PUSH2 0x4A0 JUMPI PUSH1 0x40 MLOAD PUSH3 0x461BCD PUSH1 0xE5 SHL DUP2 MSTORE PUSH1 0x20 PUSH1 0x4 DUP3 ADD MSTORE PUSH1 0x19 PUSH1 0x24 DUP3 ADD MSTORE PUSH32 0x4D696E696D756D206465706F7369742069732033205553445400000000000000 PUSH1 0x44 DUP3 ADD MSTORE PUSH1 0x64 ADD PUSH2 0x241 JUMP JUMPDEST PUSH2 0x4D5 PUSH1 0x1 PUSH1 0x1 PUSH1 0xA0 SHL SUB PUSH32 0x0 AND CALLER ADDRESS DUP6 PUSH2 0xA3B JUMP JUMPDEST PUSH1 0x40 MLOAD PUSH4 0x6EB1769F PUSH1 0xE1 SHL DUP2 MSTORE ADDRESS PUSH1 0x4 DUP3 ADD MSTORE PUSH1 0x1 PUSH1 0x1 PUSH1 0xA0 SHL SUB PUSH32 0x0 DUP2 AND PUSH1 0x24 DUP4 ADD MSTORE PUSH0 SWAP2 PUSH32 0x0 SWAP1 SWAP2 AND SWAP1 PUSH4 0xDD62ED3E SWAP1 PUSH1 0x44 ADD PUSH1 0x20 PUSH1 0x40 MLOAD DUP1 DUP4 SUB DUP2 DUP7 GAS STATICCALL ISZERO DUP1 ISZERO PUSH2 0x563 JUMPI RETURNDATASIZE PUSH0 DUP1 RETURNDATACOPY RETURNDATASIZE PUSH0 REVERT JUMPDEST POP POP POP POP PUSH1 0x40 MLOAD RETURNDATASIZE PUSH1 0x1F NOT PUSH1 0x1F DUP3 ADD AND DUP3 ADD DUP1 PUSH1 0x40 MSTORE POP DUP2 ADD SWAP1 PUSH2 0x587 SWAP2 SWAP1 PUSH2 0xB9A JUMP JUMPDEST SWAP1 POP DUP3 DUP2 LT ISZERO PUSH2 0x6F3 JUMPI PUSH1 0x40 MLOAD PUSH4 0x95EA7B3 PUSH1 0xE0 SHL DUP2 MSTORE PUSH1 0x1 PUSH1 0x1 PUSH1 0xA0 SHL SUB PUSH32 0x0 DUP2 AND PUSH1 0x4 DUP4 ADD MSTORE PUSH0 PUSH1 0x24 DUP4 ADD MSTORE PUSH32 0x0 AND SWAP1 PUSH4 0x95EA7B3 SWAP1 PUSH1 0x44 ADD PUSH1 0x20 PUSH1 0x40 MLOAD DUP1 DUP4 SUB DUP2 PUSH0 DUP8 GAS CALL ISZERO DUP1 ISZERO PUSH2 0x61C JUMPI RETURNDATASIZE PUSH0 DUP1 RETURNDATACOPY RETURNDATASIZE PUSH0 REVERT JUMPDEST POP POP POP POP PUSH1 0x40 MLOAD RETURNDATASIZE PUSH1 0x1F NOT PUSH1 0x1F DUP3 ADD AND DUP3 ADD DUP1 PUSH1 0x40 MSTORE POP DUP2 ADD SWAP1 PUSH2 0x640 SWAP2 SWAP1 PUSH2 0xBB1 JUMP JUMPDEST POP PUSH1 0x40 MLOAD PUSH4 0x95EA7B3 PUSH1 0xE0 SHL DUP2 MSTORE PUSH1 0x1 PUSH1 0x1 PUSH1 0xA0 SHL SUB PUSH32 0x0 DUP2 AND PUSH1 0x4 DUP4 ADD MSTORE PUSH0 NOT PUSH1 0x24 DUP4 ADD MSTORE PUSH32 0x0 AND SWAP1 PUSH4 0x95EA7B3 SWAP1 PUSH1 0x44 ADD PUSH1 0x20 PUSH1 0x40 MLOAD DUP1 DUP4 SUB DUP2 PUSH0 DUP8 GAS CALL ISZERO DUP1 ISZERO PUSH2 0x6CD JUMPI RETURNDATASIZE PUSH0 DUP1 RETURNDATACOPY RETURNDATASIZE PUSH0 REVERT JUMPDEST POP POP POP POP PUSH1 0x40 MLOAD RETURNDATASIZE PUSH1 0x1F NOT PUSH1 0x1F DUP3 ADD AND DUP3 ADD DUP1 PUSH1 0x40 MSTORE POP DUP2 ADD SWAP1 PUSH2 0x6F1 SWAP2 SWAP1 PUSH2 0xBB1 JUMP JUMPDEST POP JUMPDEST PUSH1 0x40 DUP1 MLOAD PUSH1 0x2 DUP1 DUP3 MSTORE PUSH1 0x60 DUP3 ADD DUP4 MSTORE PUSH0 SWAP3 PUSH1 0x20 DUP4 ADD SWAP1 DUP1 CALLDATASIZE DUP4 CALLDATACOPY ADD SWAP1 POP POP SWAP1 POP PUSH32 0x0 DUP2 PUSH0 DUP2 MLOAD DUP2 LT PUSH2 0x746 JUMPI PUSH2 0x746 PUSH2 0xBD0 JUMP JUMPDEST PUSH1 0x20 MUL PUSH1 0x20 ADD ADD SWAP1 PUSH1 0x1 PUSH1 0x1 PUSH1 0xA0 SHL SUB AND SWAP1 DUP2 PUSH1 0x1 PUSH1 0x1 PUSH1 0xA0 SHL SUB AND DUP2 MSTORE POP POP PUSH32 0x0 DUP2 PUSH1 0x1 DUP2 MLOAD DUP2 LT PUSH2 0x79A JUMPI PUSH2 0x79A PUSH2 0xBD0 JUMP JUMPDEST PUSH1 0x1 PUSH1 0x1 PUSH1 0xA0 SHL SUB SWAP3 DUP4 AND PUSH1 0x20 SWAP2 DUP3 MUL SWAP3 SWAP1 SWAP3 ADD ADD MSTORE PUSH32 0x0 AND PUSH4 0x5C11D795 DUP6 DUP6 DUP5 PUSH32 0x0 PUSH2 0x807 TIMESTAMP PUSH2 0x12C PUSH2 0xBE4 JUMP JUMPDEST PUSH1 0x40 MLOAD DUP7 PUSH4 0xFFFFFFFF AND PUSH1 0xE0 SHL DUP2 MSTORE PUSH1 0x4 ADD PUSH2 0x827 SWAP6 SWAP5 SWAP4 SWAP3 SWAP2 SWAP1 PUSH2 0xC09 JUMP JUMPDEST PUSH0 PUSH1 0x40 MLOAD DUP1 DUP4 SUB DUP2 PUSH0 DUP8 DUP1 EXTCODESIZE ISZERO DUP1 ISZERO PUSH2 0x83E JUMPI PUSH0 DUP1 REVERT JUMPDEST POP GAS CALL ISZERO DUP1 ISZERO PUSH2 0x850 JUMPI RETURNDATASIZE PUSH0 DUP1 RETURNDATACOPY RETURNDATASIZE PUSH0 REVERT JUMPDEST POP POP PUSH1 0x40 DUP1 MLOAD DUP8 DUP2 MSTORE PUSH1 0x20 DUP2 ADD DUP8 SWAP1 MSTORE TIMESTAMP DUP2 DUP4 ADD MSTORE SWAP1 MLOAD CALLER SWAP4 POP PUSH32 0xD0DFDC42F329395B5B942C700951E54F587BD4BB1F893019DD09D857C2B5AD7F SWAP3 POP SWAP1 DUP2 SWAP1 SUB PUSH1 0x60 ADD SWAP1 LOG2 POP POP PUSH2 0x8A1 PUSH1 0x1 PUSH0 SSTORE JUMP JUMPDEST POP POP JUMP JUMPDEST PUSH1 0x1 SLOAD PUSH1 0x1 PUSH1 0x1 PUSH1 0xA0 SHL SUB AND CALLER EQ PUSH2 0x8CF JUMPI PUSH1 0x40 MLOAD PUSH3 0x461BCD PUSH1 0xE5 SHL DUP2 MSTORE PUSH1 0x4 ADD PUSH2 0x241 SWAP1 PUSH2 0xB76 JUMP JUMPDEST PUSH1 0x1 PUSH1 0x1 PUSH1 0xA0 SHL SUB DUP2 AND PUSH2 0x925 JUMPI PUSH1 0x40 MLOAD PUSH3 0x461BCD PUSH1 0xE5 SHL DUP2 MSTORE PUSH1 0x20 PUSH1 0x4 DUP3 ADD MSTORE PUSH1 0x19 PUSH1 0x24 DUP3 ADD MSTORE PUSH32 0x4E6577206F776E6572206973207A65726F206164647265737300000000000000 PUSH1 0x44 DUP3 ADD MSTORE PUSH1 0x64 ADD PUSH2 0x241 JUMP JUMPDEST PUSH1 0x1 SLOAD PUSH1 0x40 MLOAD PUSH1 0x1 PUSH1 0x1 PUSH1 0xA0 SHL SUB DUP1 DUP5 AND SWAP3 AND SWAP1 PUSH32 0x8BE0079C531659141344CD1FD0A4F28419497F9722A3DAAFE3B4186F6B6457E0 SWAP1 PUSH0 SWAP1 LOG3 PUSH1 0x1 DUP1 SLOAD PUSH1 0x1 PUSH1 0x1 PUSH1 0xA0 SHL SUB NOT AND PUSH1 0x1 PUSH1 0x1 PUSH1 0xA0 SHL SUB SWAP3 SWAP1 SWAP3 AND SWAP2 SWAP1 SWAP2 OR SWAP1 SSTORE JUMP JUMPDEST PUSH1 0x40 MLOAD PUSH1 0x1 PUSH1 0x1 PUSH1 0xA0 SHL SUB DUP4 DUP2 AND PUSH1 0x24 DUP4 ADD MSTORE PUSH1 0x44 DUP3 ADD DUP4 SWAP1 MSTORE PUSH2 0x9DF SWAP2 DUP6 SWAP2 DUP3 AND SWAP1 PUSH4 0xA9059CBB SWAP1 PUSH1 0x64 ADD JUMPDEST PUSH1 0x40 MLOAD PUSH1 0x20 DUP2 DUP4 SUB SUB DUP2 MSTORE SWAP1 PUSH1 0x40 MSTORE SWAP2 POP PUSH1 0xE0 SHL PUSH1 0x20 DUP3 ADD DUP1 MLOAD PUSH1 0x1 PUSH1 0x1 PUSH1 0xE0 SHL SUB DUP4 DUP2 DUP4 AND OR DUP4 MSTORE POP POP POP POP PUSH2 0xA7A JUMP JUMPDEST POP POP POP JUMP JUMPDEST PUSH1 0x2 PUSH0 SLOAD SUB PUSH2 0xA35 JUMPI PUSH1 0x40 MLOAD PUSH3 0x461BCD PUSH1 0xE5 SHL DUP2 MSTORE PUSH1 0x20 PUSH1 0x4 DUP3 ADD MSTORE PUSH1 0x1F PUSH1 0x24 DUP3 ADD MSTORE PUSH32 0x5265656E7472616E637947756172643A207265656E7472616E742063616C6C00 PUSH1 0x44 DUP3 ADD MSTORE PUSH1 0x64 ADD PUSH2 0x241 JUMP JUMPDEST PUSH1 0x2 PUSH0 SSTORE JUMP JUMPDEST PUSH1 0x40 MLOAD PUSH1 0x1 PUSH1 0x1 PUSH1 0xA0 SHL SUB DUP5 DUP2 AND PUSH1 0x24 DUP4 ADD MSTORE DUP4 DUP2 AND PUSH1 0x44 DUP4 ADD MSTORE PUSH1 0x64 DUP3 ADD DUP4 SWAP1 MSTORE PUSH2 0xA74 SWAP2 DUP7 SWAP2 DUP3 AND SWAP1 PUSH4 0x23B872DD SWAP1 PUSH1 0x84 ADD PUSH2 0x9AD JUMP JUMPDEST POP POP POP POP JUMP JUMPDEST PUSH0 DUP1 PUSH1 0x20 PUSH0 DUP5 MLOAD PUSH1 0x20 DUP7 ADD PUSH0 DUP9 GAS CALL DUP1 PUSH2 0xA99 JUMPI PUSH1 0x40 MLOAD RETURNDATASIZE PUSH0 DUP3 RETURNDATACOPY RETURNDATASIZE DUP2 REVERT JUMPDEST POP POP PUSH0 MLOAD RETURNDATASIZE SWAP2 POP DUP2 ISZERO PUSH2 0xAB0 JUMPI DUP1 PUSH1 0x1 EQ ISZERO PUSH2 0xABD JUMP JUMPDEST PUSH1 0x1 PUSH1 0x1 PUSH1 0xA0 SHL SUB DUP5 AND EXTCODESIZE ISZERO JUMPDEST ISZERO PUSH2 0xA74 JUMPI PUSH1 0x40 MLOAD PUSH4 0x5274AFE7 PUSH1 0xE0 SHL DUP2 MSTORE PUSH1 0x1 PUSH1 0x1 PUSH1 0xA0 SHL SUB DUP6 AND PUSH1 0x4 DUP3 ADD MSTORE PUSH1 0x24 ADD PUSH2 0x241 JUMP JUMPDEST PUSH1 0x1 PUSH1 0x1 PUSH1 0xA0 SHL SUB DUP2 AND DUP2 EQ PUSH2 0xAFA JUMPI PUSH0 DUP1 REVERT JUMPDEST POP JUMP JUMPDEST PUSH0 PUSH1 0x20 DUP3 DUP5 SUB SLT ISZERO PUSH2 0xB0D JUMPI PUSH0 DUP1 REVERT JUMPDEST DUP2 CALLDATALOAD PUSH2 0xB18 DUP2 PUSH2 0xAE6 JUMP JUMPDEST SWAP4 SWAP3 POP POP POP JUMP JUMPDEST PUSH0 DUP1 PUSH1 0x40 DUP4 DUP6 SUB SLT ISZERO PUSH2 0xB30 JUMPI PUSH0 DUP1 REVERT JUMPDEST DUP3 CALLDATALOAD PUSH2 0xB3B DUP2 PUSH2 0xAE6 JUMP JUMPDEST SWAP2 POP PUSH1 0x20 DUP4 ADD CALLDATALOAD PUSH2 0xB4B DUP2 PUSH2 0xAE6 JUMP JUMPDEST DUP1 SWAP2 POP POP SWAP3 POP SWAP3 SWAP1 POP JUMP JUMPDEST PUSH0 DUP1 PUSH1 0x40 DUP4 DUP6 SUB SLT ISZERO PUSH2 0xB67 JUMPI PUSH0 DUP1 REVERT JUMPDEST POP POP DUP1 CALLDATALOAD SWAP3 PUSH1 0x20 SWAP1 SWAP2 ADD CALLDATALOAD SWAP2 POP JUMP JUMPDEST PUSH1 0x20 DUP1 DUP3 MSTORE PUSH1 0xA SWAP1 DUP3 ADD MSTORE PUSH10 0x27B7363C9037BBB732B9 PUSH1 0xB1 SHL PUSH1 0x40 DUP3 ADD MSTORE PUSH1 0x60 ADD SWAP1 JUMP JUMPDEST PUSH0 PUSH1 0x20 DUP3 DUP5 SUB SLT ISZERO PUSH2 0xBAA JUMPI PUSH0 DUP1 REVERT JUMPDEST POP MLOAD SWAP2 SWAP1 POP JUMP JUMPDEST PUSH0 PUSH1 0x20 DUP3 DUP5 SUB SLT ISZERO PUSH2 0xBC1 JUMPI PUSH0 DUP1 REVERT JUMPDEST DUP2 MLOAD DUP1 ISZERO ISZERO DUP2 EQ PUSH2 0xB18 JUMPI PUSH0 DUP1 REVERT JUMPDEST PUSH4 0x4E487B71 PUSH1 0xE0 SHL PUSH0 MSTORE PUSH1 0x32 PUSH1 0x4 MSTORE PUSH1 0x24 PUSH0 REVERT JUMPDEST DUP1 DUP3 ADD DUP1 DUP3 GT ISZERO PUSH2 0xC03 JUMPI PUSH4 0x4E487B71 PUSH1 0xE0 SHL PUSH0 MSTORE PUSH1 0x11 PUSH1 0x4 MSTORE PUSH1 0x24 PUSH0 REVERT JUMPDEST SWAP3 SWAP2 POP POP JUMP JUMPDEST PUSH0 PUSH1 0xA0 DUP3 ADD DUP8 DUP4 MSTORE PUSH1 0x20 DUP8 PUSH1 0x20 DUP6 ADD MSTORE PUSH1 0xA0 PUSH1 0x40 DUP6 ADD MSTORE DUP2 DUP8 MLOAD DUP1 DUP5 MSTORE PUSH1 0xC0 DUP7 ADD SWAP2 POP PUSH1 0x20 DUP10 ADD SWAP4 POP PUSH0 JUMPDEST DUP2 DUP2 LT ISZERO PUSH2 0xC59 JUMPI DUP5 MLOAD PUSH1 0x1 PUSH1 0x1 PUSH1 0xA0 SHL SUB AND DUP4 MSTORE SWAP4 DUP4 ADD SWAP4 SWAP2 DUP4 ADD SWAP2 PUSH1 0x1 ADD PUSH2 0xC34 JUMP JUMPDEST POP POP PUSH1 0x1 PUSH1 0x1 PUSH1 0xA0 SHL SUB SWAP7 SWAP1 SWAP7 AND PUSH1 0x60 DUP6 ADD MSTORE POP POP POP PUSH1 0x80 ADD MSTORE SWAP4 SWAP3 POP POP POP JUMP INVALID LOG2 PUSH5 0x6970667358 0x22 SLT KECCAK256 0x23 SSTORE 0xAB 0xE6 JUMPDEST SWAP13 BLOBBASEFEE TIMESTAMP 0xAE SWAP10 MOD BALANCE PUSH19 0xD9B7A1FDF8FAF6D9CAC0BB114387A35779C9E9 PUSH5 0x736F6C6343 STOP ADDMOD XOR STOP CALLER "
				},
				"gasEstimates": {
					"creation": {
						"codeDepositCost": "649600",
						"executionCost": "infinite",
						"totalCost": "infinite"
					},
					"external": {
						"deposit(uint256,uint256)": "infinite",
						"emergencyWithdraw(address,address)": "infinite",
						"emergencyWithdrawBNB(address)": "infinite",
						"hitbnb()": "infinite",
						"owner()": "2324",
						"roiWallet()": "infinite",
						"router()": "infinite",
						"transferOwnership(address)": "30457",
						"usdt()": "infinite"
					}
				},
				"methodIdentifiers": {
					"deposit(uint256,uint256)": "e2bbb158",
					"emergencyWithdraw(address,address)": "6382d9ad",
					"emergencyWithdrawBNB(address)": "602db890",
					"hitbnb()": "e8d2b571",
					"owner()": "8da5cb5b",
					"roiWallet()": "42d50f19",
					"router()": "f887ea40",
					"transferOwnership(address)": "f2fde38b",
					"usdt()": "2f48ab7d"
				}
			},
			"storageLayout": {
				"storage": [
					{
						"astId": 100,
						"contract": "contract/HITBNBBuyer.sol:HITBNBBuyer",
						"label": "_status",
						"offset": 0,
						"slot": "0",
						"type": "t_uint256"
					},
					{
						"astId": 736,
						"contract": "contract/HITBNBBuyer.sol:HITBNBBuyer",
						"label": "owner",
						"offset": 0,
						"slot": "1",
						"type": "t_address"
					}
				],
				"types": {
					"t_address": {
						"encoding": "inplace",
						"label": "address",
						"numberOfBytes": "20"
					},
					"t_uint256": {
						"encoding": "inplace",
						"label": "uint256",
						"numberOfBytes": "32"
					}
				}
			},
			"userdoc": {
				"kind": "user",
				"methods": {},
				"version": 1
			}
		}
	}
}